:020000040800F2
:10000000C09E0020C902000861C70108C18501081F
:10001000B5AE0108D1360008CD240208000000006A
:10002000000000000000000000000000F9F70108D7
:10003000F5FB00080000000055F3010889080208DC
:10004000E3020008E3020008E3020008E3020008FC
:10005000E3020008E3020008E3020008E3020008EC
:10006000E3020008E3020008E3020008E3020008DC
:10007000E3020008A1820008E3020008B182000840
:10008000C1820008E3020008E3020008E30200085E
:10009000E3020008E3020008E3020008E3020008AC
:1000A000E3020008E3020008E3020008E30200089C
:1000B0009D100208E3020008E3020008E3020008C2
:1000C000E3020008E3020008E3020008E30200087C
:1000D000E302000825230208412302085D230208E9
:1000E000E3020008E3020008E3020008E30200085C
:1000F000E302000800000000E3020008E302000839
:10010000E3020008E3020008E3020008E30200083B
:10011000E3020008E3020008E30200080000000018
:10012000E302000800F002F800F0BCF80AA090E832
:10013000000C82448344AAF10107DA4501D100F0A2
:10014000B1F8AFF2090EBAE80F0013F0010F18BFB3
:10015000FB1A43F001031847746505009465050018
:100160000A4410F8013B13F0030408BF10F8014BD8
:100170001D1108BF10F8015B641E05D010F8016B5B
:10018000641E01F8016BF9D1002D15D010F8014B58
:1001900003F00C030C2BA1EB04040ABF10F8013B85
:1001A000A4EB8314A4EB032405F1010314F8016B01
:1001B0005B1E01F8016BF9D5914238BF10F8013B85
:1001C000D1D370470023002400250026103A28BF11
:1001D00078C1FBD8520728BF30C148BF0B607047B9
:1001E0006E2900F09983702900F0E384662913F0EA
:1001F00049A7652913F046A7672913F043A761298A
:1002000013F042A703681B0A28BF41F08001692947
:1002100000F04683642900F04383752900F0408391
:100220006F2900F07184782900F0AF84E92900F08B
:100230000B84E42900F00884F52900F00584EF29F7
:1002400000F06E84F82900F0AE840368DB0928BF53
:1002500041F08001632901F0F782732901F0FC82EB
:10026000E32901F00783F32901F00C830020704794
:100270001FB59DE8030000F06FFA01F081FB040058
:100280000020002152F050FD401C60600020002141
:1002900052F034FDE06000F015F88DE80F001FBD4E
:1002A00010B510BD01F03EFB1146FFF7E1FF44F031
:1002B00019FD01F097FE03B4FFF7F2FF03BC01F054
:1002C00007FF000000F0CEBD0948804709480047FD
:1002D000FEE7FEE7FEE7FEE7FEE7FEE7FEE7FEE7F6
:1002E000FEE7FEE704480549054A064B7047000053
:1002F0002109020825010008C07E0020C09E0020C0
:10030000C08E0020C08E002070B5A0FB0140B4F16B
:10031000805170F1000024BF002070BD204600F025
:1003200007F805001CBF214600F0ADF9284670BD56
:1003300070B5064600F0F4F9056806F10B0020F0F0
:100340000704B4429CBF002070BD2B466A68BAB156
:100350001068A04210D304F1080188423CBF5068E5
:10036000586007D35168101941601168091B01607A
:1003700058601460101D70BD13465268002AE7D102
:100380002146284600F0D4F90028DED170BD70B5B2
:100390000446051F00F0C4F90068002C14BF44682F
:1003A00070BD002C18BFAC423CBF20466468F8D337
:1003B00001680A18AA4218BF456003D12A68054699
:1003C0001144016028684119A1421CBF6C6070BDD6
:1003D0006168696021680844286070BD70B50D4689
:1003E0000646041F00F09CF90268BDB1DEB105F1BC
:1003F0000B0020F00701A9423CBF002070BD23681C
:100400008B4238BF506813D35A1A082A36D3601863
:1004100040F8042B2160FFF7BAFF2FE03046FFF7CA
:10042000B6FF002070BD2846BDE87040FFF780BFD2
:10043000002818BFA0423CBF02464068F8D303EB37
:10044000040C84451CD1D0F800C06344994217D8ED
:10045000A3EB010CBCF1080F0DD3D0F804C0631856
:10046000C3F804C0D4F800C000686044401A1860A3
:100470002160536002E0236040685060201D70BD21
:100480002846FFF755FF050008D031462068021FB7
:10049000284600F0B5FC201DFFF779FF284670BD07
:1004A00053EA020C00F069802DE9F04B4FF0000692
:1004B000002B1FBFB3FA83F503FA05F424FA05F6FF
:1004C0005E4012BF1643B2FA82F502FA05F4C5F196
:1004D00020051EBF22FA05FC44EA0C04203556EA2A
:1004E000044C4FEA144418BF641C4FF000084FF04E
:1004F0000009904271EB030C39D3002919BFB1FAFE
:1005000081F701FA07F6B0FA80F700FA07F6C7F1AB
:1005100020071EBF20FA07FC46EA0C062037B6FB70
:10052000F4FCA7EB0507103F07F01F0BCBF12006EB
:100530002CFA06F60CFA0BFB44BFB3460026202F1C
:10054000A4BF5E464FF0000B5BEA060C08BF4FF0FD
:10055000010B19EB0B0948EB0608ABFB027C06FB11
:1005600002CC0BFB03CCC01B71EB0C01C1E70B46AB
:10057000024641464846BDE8F08B13B5084318BF14
:100580004FF0FF300146AFF30080BDE81C407047DC
:100590000FB47CB50C0009AA009001D02044401E85
:1005A000084B7B4469460190089800F0CEF9054657
:1005B0001CB10020694600F0DBF928467CBC5DF8E0
:1005C00014FB0000D503000030B505460B462A4653
:1005D00013F8014B12F8010B08B1A042F8D01CB17E
:1005E000002802D06D1CF1E7284630BD032A40F2F6
:1005F000308010F0030C00F0158011F8013BBCF1C5
:10060000020F624498BF11F801CB00F8013B38BFDC
:1006100011F8013BA2F1040298BF00F801CB38BFEA
:1006200000F8013B11F0030300F0EA83083AC0F040
:10063000088051F8043B083A51F804CBA0E80810B0
:10064000F5E7121D5CBF51F8043B40F8043BAFF3E3
:100650000080D20724BF11F8013B11F801CB48BF3D
:1006600011F8012B24BF00F8013B00F801CB48BF73
:1006700000F8012B704702F0FF0343EA032242EA2D
:10068000024200F002B84FF000020429C0F01280CC
:1006900010F0030C00F01B80CCF1040CBCF1020F35
:1006A00018BF00F8012BA8BF20F8022BA1EB0C010A
:1006B00000F00DB85FEAC17C24BF00F8012B00F800
:1006C000012B48BF00F8012B70474FF0000200B526
:1006D000134694469646203922BFA0E80C50A0E865
:1006E0000C50B1F12001BFF4F7AF090728BFA0E813
:1006F0000C5048BF0CC05DF804EB890028BF40F8DF
:10070000042B08BF704748BF20F8022B11F0804F20
:1007100018BF00F8012B7047704770477047000002
:1007200000487047F8560020704770477047704780
:1007300038B504460A4600206946AFF30080002819
:1007400008BF38BD02460099204600F025FC012074
:1007500038BD012001F0DEB8F8B5AFF300800546E2
:1007600000200C46102000BF0646A819A0420DD953
:10077000324669460020AFF30080070008BF01F051
:10078000C9F80098A04218BF0546C419FFF7C8FF72
:1007900005600746F01D20F007004619284600F0C6
:1007A0000AF8B44208BFF8BDA21B31463868BDE85C
:1007B000F84000F0F1BB00210160C0E90110704772
:1007C0001020704710B500F0E1FB006810BD10B5B7
:1007D000044600F0DBFB046010BD70B5044685697B
:1007E0000068C10601D5302600E02026C00707D0EA
:1007F00070BDD4E9012130469047206A401C206238
:100800006D1EF6D570BD70B5044685690078C007C9
:1008100007D170BDD4E9012120209047206A401CF7
:1008200020626D1EF6D570BD09684A0501D540B23B
:100830007047C905FCD500B2704709684A0501D563
:10084000C0B27047C905FCD580B2704770B50C4680
:100850000546012A05D02878800600D5EA690023DC
:1008600002E0012305E05B1C934202D2E05C002819
:10087000F9D1A869E618C01AA861286A1844286244
:100880002846FFF7AAFF04E0D5E9012114F8010B7F
:100890009047B442F8D32846FFF7B5FF70BD00007B
:1008A0002DE9F0410646002410687529314616A549
:1008B00010D0FFF7B9FF002802DA404213A507E085
:1008C00031688A0701D512A502E0490704D511A5B0
:1008D000012401E0FFF7B1FF00210A2206F12407FD
:1008E00009E0B0FBF2FCB0FBF2F302FB1C0030307D
:1008F00078541846491C0028F3D123462A4630462E
:10090000BDE8F04100F0B0BB000000002D00000089
:100910002B0000002000000011680268006A5305E7
:1009200001D508700AE0D30501D5088006E013065A
:1009300003D5C217C1E9000200E00860012070473A
:1009400001694A1C02610878704700B58FB0CDE993
:1009500001310021059105497944CDE90310114683
:10096000684600F031F90FB000BD0000E5FFFFFF61
:100970000A6802F8010B0A607047D1E900239A4225
:1009800002D2531C0B601070704700002DE9FF5F0E
:1009900015468A460446DFF8AC80F8440027D8E9BB
:1009A00000103E46CDE9001010E03AF816106A46F5
:1009B00002A800F08BFF411C07D02178890603D5DF
:1009C000E269391891420DD80744761C20788006D8
:1009D00002D5E069B84205DDAE42E6DB3AF8160022
:1009E0000028E2D1A069C01BA0612046FFF7F5FEF8
:1009F000D8E90010CDE90010002017E03AF81810EF
:100A00006A4602A800F062FFB0F1FF3F81460BD0BA
:100A100000250DF1080B05E0D4E901211BF80500C4
:100A200090476D1C4D45F7D308F10100B042804658
:100A3000E4DB206A384420622046FFF7E4FEBDE88C
:100A4000FF9F0000EA3705002DE9F0418046D21DE6
:100A500022F007020025D2E90002F52915A614D0DC
:100A6000011E72F1000106DA0023D0EB030063EBF4
:100A7000020211A608E0D8F800108B0701D50FA6D6
:100A800002E0490701D50EA601251146002408F110
:100A9000240704E000F09AFA30323A55641C50EA18
:100AA0000102F7D12B46324621464046BDE8F041CF
:100AB00000F0DABA000000002D0000002B0000005A
:100AC0002000000030B4002100F1240408E002F00E
:100AD0000705D208303542EA4372DB086554491CE9
:100AE00052EA0305F3D10468002310A2250708D5B4
:100AF00004F020040C4304D0C46901230CA2641E3A
:100B0000C46130BC00F0B0BA10B50446214610688C
:100B1000FFF793FE02462046BDE810400023D1E7D0
:100B2000D21D22F00701D1E90023CBE7000000002D
:100B300030000000F0B40D460188090502D5214CB3
:100B40007C4402E01F4C7C440E34002100F124065A
:100B500008E002F00F071209E75D42EA03721B0981
:100B60007754491C52EA0307F3D102780023120795
:100B700004D5702D06D009B1022311342246F0BCF1
:100B800000F072BA01231034F8E770B504460D4640
:100B900021461068FFF751FE024629462046BDE86F
:100BA00070400023C6E7D21D22F00703D3E90023DB
:100BB000C0E70368126843F0200303600823C361A1
:100BC0000023B7E74C3605002DE9F05F894604465F
:100BD0004FF0000ADFF874B1FB44C0F820A02046B3
:100BE000E1688847002874D0252806D0D4E901217F
:100BF0009047206A401C2062F1E700265F462046AD
:100C0000E16888472028054607DB312D05D2781991
:100C100010F8200C08B10643F1E7B00701D526F023
:100C20000406C4F81CA00027C4F818A02A2D09D077
:100C3000284651F0D0FF38B304EB8708303DC8F8A0
:100C4000185019E059F8041B204604EB8702916103
:100C5000E1688847012F054618D1E069002820DAAD
:100C600026F020061DE0D8F8180000EB800005EB08
:100C700040003038C8F818002046E168884705462B
:100C800051F0A9FF0028EED1012F0AD02E2D08D156
:100C90002046E16888477F1C0546022F46F0200663
:100CA000C4DBA069002803DA404246F00106A061D7
:100CB000F00701D026F010066C2D0BD0682D09D05E
:100CC0004C2D39D06A2D35D0742D35D07A2D33D0B6
:100CD00016E038E0E1682F4620468847B8420546CE
:100CE00009D16C2F26D04FF48060E168064320467E
:100CF0008847054604E06C2F1AD04FF480700643F5
:100D00000DB3A5F14100192802D8203546F400663C
:100D10004A462946204626604E46FFF761FA80B1D2
:100D200001280BD0F61D26F0070000F1080956E750
:100D30004020E4E78020D8E70020D6E706F1040948
:100D40004DE7284652E7206ABDE8F09FDC350500F4
:100D50000FB40B0010B54FF000048AB00FA900913A
:100D60000E99CC60234C7C44234A7A44CDE9064258
:100D700000D004236FF00042CDE901321F4A7A44CB
:100D80006B4608920246002053F0E0F90AB010BC0E
:100D90005DF814FBF0B507464FF0FF301E461546D0
:100DA0000C463B4685B06A460091CDE901013146CB
:100DB0000020049004A8FFF7CBFF049903466018B5
:100DC00025B109B1024600E022462A6000290ED072
:100DD000002B02DD0099814209D03B466A4631462C
:100DE000001B0094CDE9010404A8FFF7B1FF05B092
:100DF000F0BD0000230B00003D0B0000D5020000F9
:100E000010B5203AC0F00B80B1E81850A0E8185097
:100E1000B1E81850A0E81850203ABFF4F5AF5FEAE7
:100E2000027C24BFB1E81850A0E8185044BF18C98C
:100E300018C0BDE810405FEA827C24BF51F8043B33
:100E400040F8043B08BF7047D20728BF31F8023B87
:100E500048BF11F8012B28BF20F8023B48BF00F81B
:100E6000012B70472DE9FE4F00274FF48074BA46DE
:100E700020468DF80070FFF75BFA5FEA000801D1A9
:100E800000F048FD2146404600F070F8060009D009
:100E90004FF0010B4546C14616F8014B8FB15C2C53
:100EA00016D01CE008F108004146C8F800000020F8
:100EB000C8F80400D8F800402070012003B0BDE855
:100EC000F08F222C01D0272C0FD12746BA462CE0D8
:100ED0003078222807D05C2805D0272803D0BC42D0
:100EE00003D1002721E0761C04464CB12FB9202CF9
:100EF00006D0A4F10900042802D905F8014BCBE77C
:100F00004D4502D1BAF1000F0FD05246494600209C
:100F100005F8010B6846AFF300809DF8000068B14A
:100F20004D464FF0000A0BF1010B002CB4D14FEAF3
:100F30008B00FFF7FDF9040002D004E0A946F0E7BA
:100F4000002000F0E7FC00264046C4F8008005E0E1
:100F500010F8011B11B9761C44F82600A842F7D3FB
:100F60002146002044F826003046A7E71CB5044679
:100F7000CDE9000169461520ABBE08B100201CBDBB
:100F800020461CBD00487047F056002000487047BE
:100F9000F056002070477047034640688C46002892
:100FA00018BF88423CBF03464068F8D3186818440D
:100FB000884207D00CF1030020F00700001D411A01
:100FC000521A0146081D0A60FFF7E1B930B5B0F1C9
:100FD0000A0271F100034FEA900E4EEA817EB0EBF7
:100FE0000E0061EB91014FEA101E4EEA017E10EBFC
:100FF0000E0041EB11114FEA102E4EEA016E10EB7C
:101000000E0041EB11214FEA104E4EEA014E10EB5B
:101010000E0041EB1141401841F100014FEAD000B0
:1010200040EA41704FEAD1014FEA810444EA9074EA
:1010300010EB800544EB01046D1944EB0404521BD2
:10104000A3414FF0000348BF0A3200D530BD401C19
:1010500041F1000130BD10B5044600F089FC006884
:10106000005D00F0010010BD2DE9F0470D469946E6
:101070009246044600F124080168880604D5E06918
:1010800021F01001216000E00120A84201DD471B92
:1010900000E00027A1697A1902EB0900081AA06193
:1010A0002078C00602D42046FFF797FB002608E010
:1010B000D4E901211AF806009047206A401C761CEA
:1010C00020624E45F4DB2078C0060AD52046FFF7A3
:1010D00084FB06E0D4E9012130209047206A401CBF
:1010E0002062381EA7F10107F4DC07E0D4E90121F2
:1010F00018F805009047206A401C2062281EA5F1C0
:101100000105F3DC2046FFF77EFB2078000602D5C0
:101110000220BDE8F0870120FBE72DE9FF4F0C46D8
:101120001E464FF0FF378BB0D2E90001DDF860803A
:101130000A908A46C1F30A5505B93D460021084682
:101140004FF00000BAF1000F00F4400005DA00EBA8
:1011500080004FF4400101EA50004FEA9059B9F184
:10116000010F00DDB9460A9850EA4A000ED044F655
:101170001050A5F2FF3545432F14B8F1000F1ED0D3
:101180007542291E1EDDC9F100021CE0B8F1010FF5
:101190004FF0000001D0302103E0F24305E021547C
:1011A000401CB042FBDB30460022002121540B9949
:1011B000C1F80880C1E900200FB0BDE8F08FBD1B69
:1011C0006D1CDEE74A4600DA694206A800F098FE88
:1011D00006AB93E8070003AB83E8070050460A9983
:1011E00051F030F88DE80700A0F500501F3800904E
:1011F0000398002D0ADD42F21F014A4608440023ED
:1012000003A90390684651F0DBFA09E0A0F500500D
:101210004A461F38002303A90390684651F0FAFAA2
:101220008DE807000004000C03D04FF0FF304108A8
:1012300000E01046B8F1000F03D0002200921546DE
:101240001EE0751E05D4FFF7C1FE303262556D1EDB
:10125000F9D5B3460122084302D000227F1C04E0E6
:101260002078302801D100227F1E002A099784D0DF
:101270001DE0112D07DAFFF7A9FE303262556D1C13
:1012800050EA0102F5D1084302D00098C8B10EE03F
:101290000021681E05E0235C625C63542254401EFA
:1012A000491C8142F7DBAB46A81B401E0990002079
:1012B00004F80B000B98099AC0F80880C0E9002BCD
:1012C0007AE711264FF0000857E72DE9F04F8846DE
:1012D0000446D21D22F0070191B0D1E90001CDE909
:1012E0000A0151F0E3FB02460B98C00F01D02D20FC
:1012F00007E02068810701D52B2002E0202101EAC8
:10130000C000032A099001D0072A05DB03464146A5
:10131000204600F039FB0BE12078800601D5E0691A
:1013200000E00620B8F1650F814606D0B8F1660FDF
:1013300018D0B8F1670F70D131E00020B9F1110F6A
:10134000009001DB112301E009F101030AAA01A9C0
:101350000CA8FFF7E2FEDDE90C70002609F101059B
:10136000834647E001204B4600904FF000470AAA11
:1013700001A90CA8FFF7D1FEDDE90DB00C995D467F
:10138000002610B909F101000D18B9EB050003D4CE
:10139000C0F1FF3609F10105A5EB09002BE0B9F119
:1013A000010F01DA4FF001090020B9F1110F00908F
:1013B000484601DD112300E003460AAA01A90CA852
:1013C000FFF7ABFEDDE90C704D4600268346207822
:1013D00000070AD4AB4500DA5D4601A8012D04DD03
:1013E000411911F8011C302907D04F4502DA17F1D5
:1013F000040F04DA012082460FE06D1EEEE7002F95
:1014000002DCED1B3E4403E0781CA84200DD7D1C9D
:10141000B81B00F1010A4FF000472078000703D401
:10142000AA4501DB4FF0FF3A0021B7F1004F0DF163
:1014300043088DF8431024D002202B23002F01DA1B
:101440007F422D230A21021EA0F1010000DC5FB1C2
:1014500097FBF1FC97FBF1F201FB1C7C17460CF1AA
:10146000300C08F801CDEEE7A8F1010003702188E7
:10147000090501D5452100E06521A0F1010800F82A
:10148000011C09980FA9A1EB0807FF1D00B101205D
:10149000411901EBEA70A1693844081A401EA061A5
:1014A0002078C00602D42046FFF797F9099828B1A2
:1014B000D4E901219047206A401C20622078C006B0
:1014C00022D52046FFF789F91EE0002E04DBB34544
:1014D00002DD01A8805D00E03020D4E901219047C1
:1014E000206A401C2062761CAAF101005FEA000A13
:1014F0000AD100F045FAC0680168405CD4E90121D6
:101500009047206A401C2062281EA5F10105DCDC02
:1015100007E0D4E9012118F8010B9047206A401C2C
:101520002062381EA7F10107F3DC2046FFF76BF9B4
:10153000032011B041E600002DE9F04F04460D46AE
:10154000D21D22F0070089B0D0E9009748463946FD
:1015500051F0ACFA0246F80F01D02D2307E02068C5
:10156000810701D52B2302E0202101EAC0038DF879
:1015700020300BB1012000E00020032A824601D078
:10158000072A04DB2946204600F0FEF93FE12078D7
:10159000800601D40D2500E0E569C7F30A560D2D3C
:1015A00049DA00214FEA175B08464FF00000002F90
:1015B00000F4400007DA00EB80004FF4400100EB3C
:1015C000D07001EA60008115012901DD4FF0FF3183
:1015D00000224FEA850CBCF1180F06D31346ACF17C
:1015E00018004FF08052C24003E04FF4801323FAFA
:1015F0000CF30CF10C0CBCF1200F04D3ACF1200C5B
:1016000009FA0CF001E007FA0CF000294FF000484D
:1016100001DD18B90FE00ED140450CD319EB0209DA
:101620005F4121B9404502D19F4329EA0209BBEB42
:10163000175F00D0761C2088000502D57B487844CF
:1016400002E07A487844193808AA302302F80A30B0
:10165000037C0AF10101002E0AF1020A53546A4682
:1016600002DC4FF0300101E04FF031014FF0010892
:101670008DF8001002D0A6F2FF3603E059EA4701C8
:1016800000D06B4E002D02DC2178090704D54FF005
:1016900002082E218DF80110C44600210BE0C7F38B
:1016A00003433F01C35C491C6D1E02F80830052945
:1016B00008F1010801DA002DF1DC00210CE000EB5B
:1016C0001973491C1B786D1E082902F808304FEA6F
:1016D000091908F1010801DA002DF0DC21688B06F8
:1016E00002D516E0A8F10108E04505DD02EB08038C
:1016F00013F8013C302BF5D0B8F1000F09DD02EBF7
:10170000080313F8013C2E2B03D1090701D4A8F1DB
:101710000108002D05DD3E2102F808106D1E08F1BC
:101720000108407C002E02F8080008F1010804DAE4
:101730002D20764202F8080002E02B2002F8080073
:101740000A214FF47A70864208F101080BDB96FB00
:10175000F0F3303302F8083096FBF0F308F101089B
:1017600000FB136601E0642E0CDB642096FBF0F3B3
:10177000303302F8083096FBF0F308F1010800FB63
:10178000136601E00A2E06DB96FBF1F0303002F81A
:10179000080008F1010896FBF1F001FB1060303001
:1017A00002F80800A16908F1010808EB050202EB44
:1017B0000A00081AA0612078C00602D42046FFF76C
:1017C0000CF8216A08AE01EB0A00206204E0D4E9BB
:1017D000012116F8010B9047BAF1010AF7D22078DF
:1017E000C00602D52046FEF7F8FF6E4609E016F85F
:1017F000010B3E280FD0D4E901219047206A401CFC
:101800002062B8F10108F2D22046FEF7FCFF09B0D1
:101810000320BDE8F08F206A2844206203E0D4E969
:101820000121302090476D1EEBD3F8E79A2B05007D
:1018300002FCFFFF10B5436913B1AFF3008001E074
:10184000FFF704F8012010BD127800F124010A709E
:1018500000224A700122EDE711684FF0FF32E9E7FC
:1018600010B5436913B1AFF3008001E0FFF78EF8C4
:10187000012010BD128800F1240182840022C2845C
:101880000122EDE711684FF0FF32E9E7426842B10B
:10189000016811F8013B23B1521EC0E9001218463D
:1018A00070470121C160881E704742685AB1C36801
:1018B000016843B983688B4205D0491E521CC0E9B8
:1018C0000012002070474FF0FF3070472DE9F041C3
:1018D00016460C46054600F04BF8036893F80101E4
:1018E000012807D0FF2C12D8185D80B101202C7080
:1018F000BDE8F081D3F807013246214603F2071311
:10190000C7182846BC46BDE8F041002360474FF0A9
:10191000FF30EDE710B500F073FBBDE8104000F0BC
:101920006ABB70477546FFF72DFBAE46050069465A
:10193000534620F00700854618B020B5FEF7D2FCCC
:10194000BDE820404FF000064FF000074FF00008C0
:101950004FF0000BAC46ACE8C009ACE8C009ACE8FD
:10196000C009ACE8C00921F007018D4670470000AE
:1019700010B500F005F8001D10BD00BFAD13050047
:1019800000487047105700202DE9F0411F460446DB
:1019900003260168072A01F4006004DB08B116A5DC
:1019A00005E016A503E008B115A500E015A521F096
:1019B00010002060A069C01EA0610FB1401EA06190
:1019C0002046FEF70AFF4FB1D4E90121384690477F
:1019D000206A401C2062C01C206206E0206AFAE7F0
:1019E000D4E9012115F8010B9047761EF8D2204664
:1019F000FEF709FFBDE8F0814E414E006E616E00BA
:101A0000494E4600696E66002DE9FF4F06468BB0D1
:101A10000878FF2806D0491C2D2805D000244FF057
:101A2000000908E000200CE00124F8E709EB890335
:101A3000491C00EB43090878FF28F7D114B1C9F11C
:101A400000008146107800252C46AA4629462D28FC
:101A500001D02B2804D1521C2D2813D000208246FF
:101A60008B461078FF280FD04FF0000C0A21521C33
:101A7000A5FB017804FB018105FB0C11C5194BEB9B
:101A80000104EEE70120EAE7002108464FF00000DC
:101A9000BAF1000F02D000EB80004008C0F381577C
:101AA000012F01DD4FF0FF370E9955EA040009EBD5
:101AB00001080BD04FF0020918F5FA7F16DA4FEA49
:101AC000CA70002F706008DD012007E04FEACA707D
:101AD000C6E900B00FB0BDE8F08F00203060FFF71E
:101AE00055FAC0F800901821084616E0B8F5FA7FBC
:101AF00018DD002F02DAF748784401E0F648784410
:101B0000D0E90010C6E9001040EACA707060FFF723
:101B10003DFAC0F80090142108460FB0BDE8F04F20
:101B200052F0ADBA002108464FF00000B8F10001B4
:101B3000099002DAC7F1000200E03A4601DAC8F182
:101B4000000106A800F0DCF906AB93E8070003AB40
:101B500083E8070044F23E005BEA04010090584627
:101B600004D144F21E012C465D460091210C09046B
:101B7000014306D10099240444EA15442D04103988
:101B8000009104F07F41014306D10099240244EA08
:101B900015642D020839009104F07041014306D10B
:101BA0000099240144EA15742D01091F009104F0E5
:101BB0004041014306D10099A40044EA9574AD0068
:101BC000891E009104F00041084304D100986D196A
:101BD0006441401E00904FF001033A466846B8F158
:101BE000000FCDE9014503A902DD50F028FE01E018
:101BF00050F0FBFDBAF1000F04460D4601D084F011
:101C00000044002108464FF00000099940F2FF7798
:101C1000484010F00C0F07D124F00040284303D0B7
:101C2000C4F30A50B84212D1FFF7B0F9C0F80090DF
:101C3000C4F30A50B8420AD1A8487844D0E9001049
:101C4000C6E9001004F000410843706042E7C6E9AD
:101C500000543FE72DE9FF4F1F464FF0000A4FF0B9
:101C6000FF38454691B0D7E90146CDF83CA0FFF7D3
:101C700087FEC0680168405C1090B96912986D1CBD
:101C80008847396A814688470028F6D1B9F1FF3F75
:101C90000AD0002E24F4D06411DDB9F12B0F08D046
:101CA000B9F12D0F0BD102E0404615B013E744F413
:101CB0008064B96912986D1C8847761E814660055C
:101CC00004A901D52D2000E02B20002E01F1010BED
:101CD0000DF130088DF810003FDDB9F1690F08D023
:101CE000B9F1490F05D0B9F16E0F02D0B9F14E0F1D
:101CF0001CD13B4601A8009580E85002DDE9121294
:101D00006FF0020052F026FAC11CCED10EE0B96984
:101D100012986D1C884781461398761E44F400740F
:101D200005600F98401C002E0F9016DDB9F1300FA2
:101D3000EDD0B9F1780F02D0B9F1580F0DD10F984D
:101D400001280AD13B46CDE90054DDE91212001FFB
:101D5000029652F0FDF9C11CA7D1109989453ED1D8
:101D600044F0800406E01399681CAAF1010A44F4C7
:101D700000740860B9696D1C1298761E8847302877
:101D80008146F0D02BE01099894505D1200603D477
:101D9000761E44F0800418E0484650F01CFF08B35B
:101DA000761E0DF123029345A9F1300044F400742E
:101DB00006D20BF8010B200607D5AAF1010003E0BB
:101DC000200602D40AF101008246A00502D513992B
:101DD000681C0860B96912986D1C88478146002EFE
:101DE000D1DC53E0002E51DDB9F1650F02D0B9F11D
:101DF000450F4BD1A00549D5B9696D1C1298761EC7
:101E000024F440748847002E81460CDD2B2804D032
:101E1000B9F12D0F07D144F48074B96912986D1C83
:101E20008847761E8146E00501D52D2100E02B2153
:101E300008F8011BCDF8008021E0761E0DF1390174
:101E4000884544F400740CD2A9F1300010F0FF0072
:101E500088F8000002D10099884509D908F10108E5
:101E600006E0E00501D51E4801E042F20F7082460F
:101E7000B96912986D1C8847814613980560002E39
:101E800004DD484650F0A7FE0028D6D1F969129823
:101E90008847FF2053468BF8000088F80000002098
:101EA0000A900B9004AA0CA90AA8FFF7ADFDA005A3
:101EB00002D46FF00100F8E614F0240F12D0E0070E
:101EC0001CD13868DDE90A12031D3B600068C0E9D7
:101ED000001213E0F84B0500EA4B0500AE4A05007E
:101EE000F1D8FFFF0AA9684650F004FEE00705D1CB
:101EF0003868009A011D3960006802602846D4E6FF
:101F00002DE9F047814616468AB0354878440DC819
:101F10008DE80D0032487844801C03AC0DC884E87D
:101F20000D0041F69B300844372190FBF1F290FB05
:101F3000F1F5A5F1800501FB12041B3C02D56442BA
:101F4000012000E00020DFF898A080460027FA4436
:101F5000AAF1BE0A0EE0E0070AD03246684607EB57
:101F6000470101230AEB810150F054FC8DE8070082
:101F700064107F1C002CEED1194F7F44AE3F19E056
:101F8000E80715D007EB04100DF1180A90E80E00D1
:101F90008AE80E00C068F04201D1981908903246D4
:101FA000012306A903A850F035FC03AB83E8070022
:101FB0006D10641C002DE3D14FF0010332466946D9
:101FC000B8F1000F03A802D050F0FAFB01E050F086
:101FD00021FCC9E90001C9F808200AB0BDE8F08772
:101FE0005C23050010B50446AFF300802046BDE831
:101FF0001040FEF760B9002801D000F069B87047C2
:1020000010B5012805D0002103A000F07AF80120C6
:1020100010BD09A1F8E7000053494752544D454D02
:102020003A204F7574206F662068656170206D6579
:102030006D6F7279000000003A2048656170206D74
:10204000656D6F727920636F72727570746564006C
:102050004FF0013C50F8042B51F8043B9A4221D137
:10206000A2EB0C03934313EACC1317D150F8042BC3
:1020700051F8043B9A4215D1A2EB0C03934313EAA7
:10208000CC130BD150F8042B51F8043B9A4209D1E0
:10209000A2EB0C03934313EACC13DBD04FF0000008
:1020A000704700BFD01A01BAB1FA81F101F01801EE
:1020B00022FA01F0CB40DBB2C0B2C01AC1F120015C
:1020C0002CFA01F3D11A914311EAC311E6D17047FA
:1020D00001491820ABBEFEE726000200B2F1200342
:1020E0000AD5C2F1200301FA02F120FA03F341EA12
:1020F000030100FA02F0704700FA03F14FF000000C
:10210000704770B505460C460A2000E06D1C00F0D3
:1021100011F835B128780028F8D102E0641C00F0ED
:1021200009F814B120780028F8D1BDE870400A20E1
:10213000AFF3008008B569468DF800000320ABBE00
:1021400008BD00002DE9FF4F1F464FF03C0987B046
:102150004FF00042DDE9141001F10108DDF858A04C
:1021600002EA40500390002005908346054604464D
:102170000490B969461E08988847AAF1010A02909E
:10218000BAF1000F3BDD02982E2815D0102100F087
:1021900003FA00282EDB4FF0010B0599014317D0FD
:1021A000B9F1000F0BDB4A46C117FFF797FF054354
:1021B0000C43A9F1040905E0012004900BE008B1EB
:1021C00045F0010501200590049820B9361D02E074
:1021D000049800B1361FB969089808F101088847CA
:1021E000BBF1000FAAF1010A0290C9D00999C1F808
:1021F0000080C5E70298702808D0502806D0F969F9
:1022000008988847BBF1000F14D04FE000200290DF
:102210000120BBF1000F049009D0B969089808F1BA
:1022200001088847AAF10109B9F1000F07DCF96933
:10223000089888476FF001000BB0BDE8F08F2B289D
:1022400004D02D280CD14FF0FF300490B9690898C4
:1022500008F101088847A9F10109B9F1000FE6DD8D
:10226000411CE4D00A2100F097F90028DFDB029935
:1022700008F1010801EB810100EB41000290B9690E
:10228000089888470A2100F087F9099AA9F10109FD
:10229000B9F1000FC2F8008001DD0028E7DAF96922
:1022A000089888470499029800FB016655EA0400E3
:1022B00004D004F04041090002D006E0039898E001
:1022C000A40044EA9574AD00B61E04F00041080075
:1022D00002D16D196441761E159810F0240F03D0B9
:1022E0004FF00B095C4803E04FF028096FF07D00C8
:1022F0008246564507DAAAEB06018944B9F1410F37
:1023000001DD4FF0410901200021A9F10102FFF791
:10231000E5FE024628400B462140084301D001213A
:1023200000E00021501E029143F1FF31284021407E
:10233000084301D0012000E000200299834651EAC1
:102340000B014FD0002108464FF00000039900F424
:10235000400039B100EB80004FF4400100EBD07039
:1023600001EA60008015012802DD4FF0FF3000E037
:1023700013D0401C36D0029860B3BBF1000F0CD1D3
:102380004A4601200021FFF7A9FE284021400843CA
:1023900001D0012000E00020E0B101204A460021E8
:1023A000FFF79CFE034640190A4661412D1A8C41F5
:1023B00011D3B9F1400F09DD159810F0240F02D0A8
:1023C000AAF1340603E0AAF1170600E0761C002506
:1023D0004FF0004406E05B1E42F1FF3220EA0305A5
:1023E00021EA0204CAF10100B04206DA1B4903984F
:1023F00008430190002000900EE0039AC4F3D3211B
:10240000E80A0A43164940EA44500A433146CDE9F6
:102410000002684650F0D4FB159810F0240F0BD042
:102420001598C00715D13868DDE90012031D3B601F
:102430000068C0E900120CE002A8694650F05AFB9F
:102440001598C00705D13868029A011D39600068E7
:1024500002604046F0E6000002FCFFFF0000F07F53
:102460000000F03F2DE9FF4F92461D4685B04FF02A
:102470000041DDE9124BDDE914727F1E01EA4B5089
:10248000414940F0FF4940EA0108002122F02000C4
:102490004928049102D04E2828D04CE03BA00126C8
:1024A00007C88DE80700A9690698641C88477F1E45
:1024B000014606D41DF8060018B121F02001814222
:1024C0000BD0E96906988847032E34D0082E32D005
:1024D0006FF0010009B0BDE8F08F761C032E01D02B
:1024E000082EE0D1601CCAF80000DCE7A969069854
:1024F000641C88477F1E2AD420F02000412826D162
:10250000A9690698641C88477F1E20D420F020000B
:102510004E281CD1A9690698641C88477F1E48F480
:10252000002849F48009CAF8004001D4282806D0C0
:10253000E969069888475FEACB7012D022E0A96962
:102540000698641C88477F1E01D4002803DAE969D5
:1025500006988847BCE72928F1D1641CCAF80040D6
:10256000E9E71BF0240F07D028680499031D2B60AE
:102570000068C0E9001805E02868021D2A600068AC
:10258000C0F800902046A5E70000F07F494E46497C
:102590004E495459000000003A2800D2303820F04B
:1025A0002002412A01D3A2F13700884201D34FF023
:1025B000FF30704780B584B00290002001900299EE
:1025C0000968096801F04001B0EB911F36D0FFE7C0
:1025D00002980068816821F00101816013F0A2FC7B
:1025E0000190FFE702980068006800F040000021B9
:1025F000B1EB901F21D0FFE713F094FC0199401A32
:10260000032819D3FFE702980068006800F0400033
:102610000021B1EB901F0ED0FFE70298C16C41F092
:102620001001C1640298016D41F0010101650120B2
:102630008DF80F0006E0FFE7D4E7FFE700208DF8F4
:102640000F00FFE79DF80F0004B080BD80B584B097
:10265000029000200190009002990968096801F039
:102660004001B0EB911F54D1FFE7029800688168E8
:1026700041F00101816040F22400C2F200000068D4
:102680004DF68361C4F21B31A0FB0101890C01EB03
:1026900041010091FFE70098002804D0FFE700986F
:1026A00001380090F7E713F03DFC0190FFE7029836
:1026B0000068006800F040000021B1EB901F27D1B6
:1026C000FFE713F02FFC0199401A03281FD3FFE7FF
:1026D00002980068006800F040000021B1EB901FF4
:1026E00014D1FFE70298C16C41F01001C164029857
:1026F000016D41F001010165FFE70298002180F8BA
:102700004810FFE701208DF80F0006E0FFE7CEE755
:10271000FFE700208DF80F00FFE79DF80F0004B0E1
:1027200080BD000080B586B047F6D400C2F200003C
:10273000059012F003FF6421059A0490104612F0F0
:102740005FFE05990390084612F0BCFC45F25071FB
:10275000C2F2000108600598029112F05DFF0521A8
:102760000190084613F0A8F90298006806B080BDF1
:1027700080B58CB001468DF82F000020099008909C
:102780008DF81F00FFE79DF81F009DF82F1088426D
:1027900017DAFFE7FFF7C6FF50F0D2FD089A099B52
:1027A0000690104605911946069A059B50F004FBC9
:1027B00009910890FFE79DF81F0001308DF81F0078
:1027C000E1E7089809999DF82F200490104603919D
:1027D00050F09FFD049A02901046039B0191194608
:1027E000029A019B50F0A4FB0CB080BD81B0014661
:1027F0008DF8030044F68030C2F20000C06846F64F
:10280000C432C2F20002106000208DF80200FFE71F
:102810009DF802009DF8031088420EDAFFE746F6A5
:10282000C430C2F20000016809690160FFE79DF849
:10283000020001308DF80200EAE746F6C430C2F229
:1028400000000068017841F00101017001B070479B
:1028500082B001468DF8070044F68030C2F20000D5
:10286000C06846F6C432C2F2000210609DF807004C
:1028700002461428009241D80099DFE801F00B0BC2
:1028800015223F153F3F3F3F223F3F3F3F3F3F3FE6
:102890003F3F300046F6C430C2F2000000680178C5
:1028A00041F00101017029E046F6C430C2F2000097
:1028B0000168096901600068017841F00101017057
:1028C0001CE046F6C430C2F20000016809690969DB
:1028D00001600068017841F0010101700EE046F6E8
:1028E000C430C2F200000168096909690969016020
:1028F0000068017841F001010170FFE702B0704704
:1029000080B58AB044F088FA02380146112808914F
:1029100000F2AA810899DFE811F02F00F900990070
:10292000A701A701A7015E00A701A701D40012001B
:10293000A701A701A701A701A7018D019A0145F2EF
:102940004C60C2F200008079042814D1FFE76120B6
:102950008DF827009DF8270006F050F944F014FA8E
:1029600045F6FF20C2F20000002101703AF056FB4C
:1029700000F006FDFFE778E145F24C60C2F200008E
:102980008079042826D1FFE745F24C60C2F20000AE
:10299000C0790C281ED1FFE724F06CFF3AF03EFB13
:1029A0004079612804D1FFE73AF038FB079003E053
:1029B0003AF03AFB0790FFE7079845F24C61C2F204
:1029C000000108310C224EF0FFF93AF027FB00F02D
:1029D000AFFCFFE749E145F24C60C2F200008079AC
:1029E000042832D1FFE745F24C60C2F20000C07902
:1029F00002282AD1FFE724F03DFF3AF00FFB40798F
:102A0000612804D1FFE73AF009FB069003E03AF0B1
:102A10000BFB0690FFE7069845F24C61C2F20001FD
:102A200008314EF0A9F93AF0F9FA4079612804D159
:102A3000FFE73AF0F3FA059003E03AF0F5FA059073
:102A4000FFE7059809F098F9FFE70EE145F24C60C1
:102A5000C2F200008079042832D1FFE745F24C60D1
:102A6000C2F20000C07908282AD1FFE724F002FF53
:102A70003AF0D4FA4079612804D1FFE73AF0CEFA6F
:102A8000049003E03AF0D0FA0490FFE7049845F28E
:102A90004C61C2F20001083100F0EAF83AF0BEFAE7
:102AA0004079612804D1FFE73AF0B8FA039003E0D7
:102AB0003AF0BAFA0390FFE7039809F04DF9FFE7FF
:102AC000D3E045F24C60C2F20000807910281CD19E
:102AD000FFE745F24C60C2F20000C0799C2814D197
:102AE000FFE724F0C7FE3AF099FA4079612804D153
:102AF000FFE73AF093FA029003E03AF095FA029079
:102B0000FFE7029800F0D4FBFFE7AEE045F24C602F
:102B1000C2F20000807904282FD1FFE745F24C6013
:102B2000C2F20000407A012827D1FFE724F0A2FE7C
:102B30003BF09CFD5F3801281DD8FFE702200121F2
:102B400030F060FC3BF098FD8068006945F29D1113
:102B5000C0F6050181603BF08FFD8068006944F696
:102B60004171C0F60501C1603BF086FD80680069D7
:102B70000421417100E0FFE75BE045F24C60C2F2E6
:102B800000008079042808D1FFE745F24C60C2F2CA
:102B90000000407A082810D0FFE745F24C60C2F2EE
:102BA0000000807904281CD1FFE745F24C60C2F296
:102BB0000000407A092814D1FFE724F05BFE3AF0C8
:102BC0002DFA4079612804D1FFE73AF027FA019005
:102BD00003E03AF029FA0190FFE7019800F068FB62
:102BE00026E024F047FE3BF041FD5F3801281DD868
:102BF000FFE70220002130F005FC3BF03DFD80683E
:102C0000006945F2A111C0F6050181603BF034FD79
:102C10008068006946F2D911C0F60501C1603BF039
:102C20002BFD806800690421417100E0FFE7FFE7A8
:102C3000FFE71AE024F01EFE3BF018FD412805D105
:102C4000FFE70220012130F0DDFBFFE70DE024F07B
:102C500011FE3BF00BFD032805D1FFE70220012107
:102C600030F0D0FBFFE700E0FFE70AB080BD0000D6
:102C700080B59CB01B901A910020199018901B9859
:102C8000002801D1FFE73AE21A9840781B9981F8B1
:102C900078001A9800781B9981F879001A98C07802
:102CA0001B9981F87A001A9880781B9981F87B002B
:102CB0001A9840791B9981F870001A9800791B992D
:102CC00081F871001A98C0791B9981F872001A98DE
:102CD00080791B9981F873001B98816F0022C4F2E0
:102CE0007A4217900846114650F0C2FE179988673D
:102CF0004DF0D0F800283AD0FFE71B98016F1690EE
:102D0000084650F0C7FD4CF6CD42CCF6CC424CF60E
:102D1000CC43C3F6FC7350F09FFB00220023C4F2A7
:102D2000400350F049F850F015F8169908671B98C1
:102D3000006F0021C4F20C3150F080FE002806D153
:102D4000FFE71B980021C4F20C3101670EE01B98CD
:102D5000006F4FF0844150F06AFE002805D1FFE774
:102D60001B984FF084410167FFE7FFE7FFE71B98DF
:102D700000788008C007002800F0A080FFE71B98BB
:102D8000017801F0FB0101701B98816F41611B9874
:102D9000806F50F07FFD00221592159B50F016FEBB
:102DA000002813D1FFE71B9800F13C01806F1491BC
:102DB00050F070FD6A465160106046F28A22C0F6FB
:102DC000050207211498FDF7E3FB64E01B98806F70
:102DD00050F060FD00220023C4F2590350F0F6FDCC
:102DE000002813D1FFE71B9800F13C01806F13917D
:102DF00050F050FD6A465160106046F27822C0F6ED
:102E0000050207211398FDF7C3FB43E01B98806F71
:102E100050F040FD002244F20003C4F28F0350F052
:102E2000D5FD002813D1FFE71B9800F13C01806F0E
:102E3000129150F02FFD6A465160106046F26622F2
:102E4000C0F6050207211298FDF7A2FB21E01B98AE
:102E5000806F50F01FFD002248F60003C4F2C30348
:102E600050F0B4FD002813D1FFE71B9800F13C019E
:102E7000806F119150F00EFD6A465160106046F26D
:102E80004E22C0F6050207211198FDF781FBFFE7EE
:102E9000FFE7FFE7FFE71B9800F12F01006F10919C
:102EA00050F0F8FC6A465160106046F26022C0F6AD
:102EB000050206211098FDF76BFB1DE11B98816848
:102EC000826F0F900846114650F010FD0F998860F0
:102ED0001B980269016F0E90104650F007FD0E9985
:102EE00008611B9802F0F4FF1B98816F41611B98E9
:102EF000C1790131C171C8B20328C0F2FC80FFE77B
:102F00001B980169C0790D9150F0FCFE0D990C9051
:102F100008460C9950F0ACFD19901B988168C07957
:102F20000B9150F0EFFE0B990A9008460A9950F069
:102F30009FFD18904CF0D2FD002831D0FFE74CF0F7
:102F400015FF02282CDBFFE745F2DC00C2F200008F
:102F5000007800280FD0FFE745F2DC00C2F2000045
:102F6000002101701B98983024F0F4FC1B98B030BD
:102F700024F0F0FCFFE71B989830189924F05EFDD0
:102F80001B98B030199924F059FD1B98B03024F0EB
:102F90000BFD19901B98983024F006FD189006E060
:102FA00045F2DC00C2F2000001210170FFE71B982E
:102FB00006F068FF002840F09680FFE71B982F304E
:102FC00019990990084650F065FC6A4651601060F6
:102FD00046F26022C0F6050206210998FDF7D8FAEC
:102FE00018990890084650F055FC00220792079B5C
:102FF00050F0ECFC002813D1FFE71B983C301899E7
:103000000690084650F046FC6A465160106046F251
:103010008A22C0F6050207210698FDF7B9FA61E099
:10302000189850F037FC00220023C4F2590350F0E6
:10303000CDFC002813D1FFE71B983C301899059070
:10304000084650F027FC6A465160106046F278222C
:10305000C0F6050207210598FDF79AFA41E0189895
:1030600050F018FC002244F20003C4F28F0350F029
:10307000ADFC002813D1FFE71B983C301899049051
:10308000084650F007FC6A465160106046F266221E
:10309000C0F6050207210498FDF77AFA20E0189897
:1030A00050F0F8FB002248F60003C4F2C30350F0CE
:1030B0008DFC002813D1FFE71B983C301899039032
:1030C000084650F0E7FB6A465160106046F24E2217
:1030D000C0F6050207210398FDF75AFAFFE7FFE75C
:1030E000FFE7FFE7FFE71B980021C1711B98816094
:1030F0001B980161FFE7FFE745F010F9FFE71CB0FF
:1031000080BD000080B58AB00A46099008910998F0
:10311000002801D1FFE74BE002A81CF00FFA02984B
:10312000DDF80B10CDF81310049008980690049861
:10313000DDF81310CDF8031000900098019924F0E9
:103140002DFD079045F24C60C2F20000612100F8AD
:10315000451F102141709C2181706821C1700021A0
:10316000017104214171082181719DF81D10C17107
:103170009DF81C1001729DF81F1041729DF81E10E1
:1031800081729DF81910C1729DF8181001739DF895
:103190001B1041739DF81A108173112100F8421C15
:1031A0001DF05CF845F0B0F80B2045F0EBF8FFE7B8
:1031B0000AB080BD80B58AB00A4609900891099886
:1031C000002801D1FFE74BE002A81CF0B7F90298F4
:1031D000DDF80B10CDF813100490089806900498B1
:1031E000DDF81310CDF8031000900098019924F039
:1031F000D5FC079045F24C60C2F20000612100F856
:10320000451F102141709C2181706C21C1700021EB
:10321000017104214171082181719DF81D10C17156
:103220009DF81C1001729DF81F1041729DF81E1030
:1032300081729DF81910C1729DF8181001739DF8E4
:103240001B1041739DF81A108173112100F8421C64
:103250001DF004F845F058F80B2045F093F8FFE70F
:103260000AB080BD80B582B001900198002801D1DC
:10327000FFE71BE045F24C60C2F20000612100F85C
:10328000451F062141709C2181705121C170002190
:10329000017101214171082100F8421C1CF0DEFF80
:1032A00045F032F8132045F06DF8FFE702B080BD1D
:1032B00080B582B001900198002801D1FFE71BE0A2
:1032C00045F24C60C2F20000612100F8451F042164
:1032D0004170752181706621C17000210171012149
:1032E0004171082100F8421C1CF0B8FF45F00CF8B1
:1032F000032045F047F8FFE702B080BD80B545F2F6
:103300004C60C2F20000612100F8451F04214170A9
:10331000752282706922C2700022027141710821F7
:1033200000F8421C1CF09AFF0C2045F02BF880BDE1
:1033300080B582B001900198002801D1FFE71CE020
:1033400045F24C60C2F20000612100F8451F0421E3
:103350004170752181704521C170002101710121E9
:103360004171082100F8421C00911CF077FF44F0E5
:10337000CBFF009845F006F8FFE702B080BD0000E3
:1033800080B582B001900198002801D1FFE71BE0D1
:1033900045F24C60C2F20000612100F8451F042193
:1033A0004170752181703021C170002101710621A9
:1033B0004171082100F8421C1CF050FF44F0A4FFAA
:1033C000022044F0DFFFFFE702B080BD80B582B08D
:1033D00001900198002801D1FFE71AE045F24C6006
:1033E000C2F20000612100F8451F042141707522DE
:1033F00082706922C270002202714171082200F8B5
:10340000422C009111461CF029FF009844F0BAFFAD
:10341000FFE702B080BD000080B582B00A4601908F
:1034200000910198002801D1FFE730E00098019950
:10343000086745F24C60C2F20000612100F8451FA8
:10344000102141709C2181705721C17000210171B0
:103450000221417104218171019991F87110C171AA
:10346000019991F870100172019991F873104172ED
:10347000019991F8721081720D2100F8421C1CF024
:10348000EDFE44F041FF122044F07CFFFFE702B064
:1034900080BD000080B582B001468DF80600F320A3
:1034A000009100F06BF88DF805009DF805009DF87F
:1034B0000610084204D0FFE701208DF8070003E062
:1034C00000208DF80700FFE79DF8070002B080BDDF
:1034D00080B586B0F92000F051F846F66031C2F2AE
:1034E00000010870F820019100F048F845F6173106
:1034F000C2F200010870F720009100F03FF845F695
:103500002631C2F2000108700878000300990A7899
:1035100040EA0210019A137840EA131005900598CA
:1035200020F0E8F9039102900298039906B080BD5B
:1035300080B584B0FC2000F021F88DF80F00FB204E
:1035400000F01CF88DF80E00FA2000F017F88DF846
:103550000D009DF80D0000039DF80E1040EA0110CB
:103560009DF80F1040EA11100290029820F064FBC1
:10357000019100900098019904B080BD80B586B09B
:1035800001468DF8170040F20040C4F202004FF4EB
:103590008072002304900391114602921A4612F0A1
:1035A000A7FC9DF8170020F039F9019020F030F9C0
:1035B0008DF8160001220498029912F099FC9DF8EA
:1035C000160006B080BD000080B582B00190019861
:1035D000017842788078490141EA820108438DF8F8
:1035E00003009DF80310F52000F016F802B080BD2E
:1035F00080B582B0019001980178427880785201BC
:1036000042EA810108438DF803009DF80310F4207D
:1036100000F002F802B080BD80B588B00A460346CB
:103620008DF81F008DF81E1040F20040C4F2020019
:103630004FF480714FF0000C0690059104926246A1
:10364000039312F055FC9DF81F0020F0E7F89DF859
:103650001E100290084620F0E1F801220699019020
:103660000846059912F044FC08B080BD81B00146BF
:103670008DF8030044F68030C2F20000C06846F6C0
:10368000C432C2F200021060106800281DD0FFE7AB
:103690009DF8030000280AD0FFE746F6C430C2F2C6
:1036A00000000068017841F0010101700CE046F66D
:1036B000C430C2F200000168096901600068017845
:1036C00041F001010170FFE7FFE701B07047000022
:1036D000FFE7FEE780B58CB043F09EFB0238014661
:1036E00016280A9100F23C820A99DFE811F06B007B
:1036F0003902660139023902390293003902B600F3
:1037000099011700390239023902390239020302DC
:103710002302390239024400E900330145F24C60CA
:10372000C2F200008079032824D1FFE74A208DF8F7
:103730002F009DF82F0005F061FA43F025FB39F0CA
:103740006DFC40794A2804D1FFE739F067FC099005
:1037500003E039F069FC0990FFE7099845F24C61F4
:10376000C2F20001083100F053FE39F057FC00F0BE
:1037700097FAFFE7F5E145F24C60C2F2000080796C
:1037800003281ED1FFE724F075F839F047FC407993
:103790004A2804D1FFE739F041FC089003E039F0F2
:1037A00043FC0890FFE7089845F24C61C2F2000123
:1037B000083100F0D9F939F031FC4A2101F0EAFA78
:1037C000FFE7CEE145F24C60C2F2000080790328A9
:1037D0001FD1FFE724F04EF839F020FC40794A2849
:1037E00004D1FFE739F01AFC079003E039F01CFC24
:1037F0000790FFE7079845F24C61C2F200010831DB
:10380000012200F003FD39F009FC4A2101F09CFA85
:10381000FFE7A6E145F24C60C2F200008079032880
:103820001AD1FFE724F026F839F0F8FB40794A284E
:1038300004D1FFE739F0F2FB069003E039F0F4FB26
:103840000690FFE70698002100F092FC39F0E6FBB5
:103850004A2101F01DFBFFE783E145F24C60C2F213
:103860000000807903282AD1FFE724F003F839F01B
:10387000D5FB40794A2804D1FFE739F0CFFB05900A
:1038800003E039F0D1FB0590FFE7059845F24C6164
:10389000C2F20001083100F029FD39F0BFFB407988
:1038A0004A2804D1FFE739F0B9FB049003E039F06E
:1038B000BBFB0490FFE7049808F05EFAFFE750E1D5
:1038C00045F24C60C2F200008079062841D1FFE742
:1038D00023F0D0FF3AF0CAFE372822D1FFE745F6A1
:1038E0002230C2F200000121017002202FF08AFD77
:1038F0003AF0C2FE8068006945F29D11C0F60501EC
:1039000081603AF0B9FE8068006944F64171C0F602
:103910000501C1603AF0B0FE806800690421417180
:1039200000E0FFE739F07AFB40794A2804D1FFE74D
:1039300039F074FB039003E039F076FB0390FFE766
:10394000039845F24C61C2F20001093100F070F9B0
:10395000FFE706E145F24C60C2F2000080790628DC
:103960002AD1FFE723F086FF3AF080FE38281DD1E8
:10397000FFE7022001212FF045FD3AF07DFE80682F
:10398000006945F29D11C0F6050181603AF074FEB0
:103990008068006944F64171C0F60501C1603AF0E3
:1039A0006BFE806800690421417100E0FFE739F097
:1039B00035FB00F075F9FFE7D3E045F24C60C2F249
:1039C0000000807903282AD1FFE723F053FF39F064
:1039D00025FB40794A2804D1FFE739F01FFB02900C
:1039E00003E039F021FB0290FFE7029845F24C61B9
:1039F000C2F20001083100F00BFD39F00FFB4079F5
:103A00004A2804D1FFE739F009FB019003E039F0BF
:103A10000BFB0190FFE7019808F09EF9FFE7A0E09B
:103A200045F24C60C2F200008079062809D0FFE719
:103A300045F24C60C2F200008079102840F05980B5
:103A4000FFE723F017FF3AF011FE0338014656282E
:103A5000009100F24C800099DFE801F02C494949BF
:103A600049494949494949494949494949494949C6
:103A700049494949494949494949494949494949B6
:103A800049494949494949494949494949494949A6
:103A900049494949494949494949492C492C4949D0
:103AA0004949494949494949494949492C2C2C2CFA
:103AB000492C2C00022001212FF0A4FC3AF0DCFD5F
:103AC0008068006945F29D11C0F6050181603AF0F9
:103AD000D3FD8068006944F64171C0F60501C160FC
:103AE0003AF0CAFD806800690421417100E0FFE7F7
:103AF000FFE736E045F24C60C2F20000807906280C
:103B000017D1FFE723F0B6FE3AF0B0FD41280AD006
:103B1000FFE73AF0ABFD5A2805D0FFE73AF0A6FDE3
:103B2000572805D1FFE7022001212FF06BFCFFE7AA
:103B3000FFE716E045F24C60C2F2000080790628EB
:103B40000DD1FFE723F096FE3AF090FD032805D152
:103B5000FFE7022001212FF055FCFFE7FFE700E01F
:103B6000FFE70CB080BD000080B584B003900291E7
:103B70000398002801D1FFE758E00298002809D1F6
:103B8000FFE703980121A0F8C81003980A21A0F8C4
:103B9000CA104BE002984078039981F8C800029857
:103BA0000078039981F8C9000398B0F8C80000288C
:103BB00005D1FFE703980221A0F8C81000E0FFE755
:103BC0000298C078039981F8CA0002988078039916
:103BD00081F8CB0045F65A30C2F200000021018086
:103BE000039890F8CA004DF0ADF80398B0F8C800FB
:103BF000012803D1FFE73AF01DF807E00398B0F879
:103C0000C800022801D1FFE7FFE7FFE7039800F1B2
:103C1000CC01B0F8CA3046F26432C0F60502042086
:103C2000019008460199FCF7B3FCFFE704B080BDA2
:103C300082B0019000910198002801D1FFE72CE0AB
:103C40000098002805D1FFE701980121A0F8C810CD
:103C500023E000984078019981F8C8000098007826
:103C6000019981F8C9000198B0F8C800002805D171
:103C7000FFE701980221A0F8C81000E0FFE745F631
:103C80005A30C2F20000002101800198B0F8C8004B
:103C9000012801D1FFE7FFE7FFE702B0704700000E
:103CA00080B582B001900198002801D1FFE71BE0A8
:103CB00045F24C60C2F200004A2100F8451F032182
:103CC0004170052181701D21C17000210171022107
:103CD0004171082100F8421C1CF0C0FA44F014FBAA
:103CE000162044F04FFBFFE702B080BD80B584B0E2
:103CF0000A46039002910398002801D1FFE729E0CA
:103D000045F24C60C2F200004A2100F8451F102124
:103D10004170052181704421C1700021017102218F
:103D20004171042181719DF80510C1719DF8041045
:103D300001729DF8071041729DF8061081720D21E5
:103D400000F8421C1CF08AFA44F0DEFA0B2044F022
:103D500019FBFFE704B080BD80B584B00A4603902C
:103D600002910398002801D1FFE729E045F24C6059
:103D7000C2F200004A2100F8451F102141700521C0
:103D800081703421C170002101710221417104212F
:103D900081719DF80510C1719DF8041001729DF8A4
:103DA000071041729DF8061081720D2100F8421C27
:103DB0001CF054FA44F0A8FA0B2044F0E3FAFFE7B1
:103DC00004B080BD80B582B00A460190ADF8021003
:103DD0000198002801D1FFE721E0BDF80200ADF80D
:103DE000000045F24C60C2F200004A2100F8451F75
:103DF00006214170052181701D21C1709DF80110BF
:103E000001719DF800104171082100F8421C1CF05E
:103E100025FA44F079FA172044F0B4FAFFE702B02B
:103E200080BD000080B582B00A460190ADF8021056
:103E30000198002801D1FFE721E0BDF80200ADF8AC
:103E4000000045F24C60C2F200004A2100F8451F14
:103E500006214170052181701E21C1709DF801105D
:103E600001719DF800104171082100F8421C1CF0FE
:103E7000F5F944F049FA182044F084FAFFE702B05B
:103E800080BD000080B58AB042F0C6FF023801460E
:103E90001128089100F269810899DFE811F04000CB
:103EA0006601BE00660166016601680066018B005E
:103EB000F1001200660166016601660166013001CB
:103EC000500145F24C60C2F200008079032825D1F0
:103ED000FFE70A208DF827009DF8270004F08EFEEA
:103EE00042F052FF39F09AF840790A2804D1FFE7EE
:103EF00039F094F8079003E039F096F80790FFE75F
:103F0000079845F24C61C2F20001083100F080FAD6
:103F100039F084F80A2100F03DFFFFE726E145F281
:103F20004C60C2F20000807903281FD1FFE723F024
:103F3000A1FC39F073F840790A2804D1FFE739F081
:103F40006DF8069003E039F06FF80690FFE70698E9
:103F500045F24C61C2F200010831002200F056F92E
:103F600039F05CF80A2100F0EFFEFFE7FEE045F2D1
:103F70004C60C2F20000807903281AD1FFE723F0D9
:103F800079FC39F04BF840790A2804D1FFE739F081
:103F900045F8059003E039F047F80590FFE70598EC
:103FA000002100F0E5F839F039F80A2100F070FF3F
:103FB000FFE7DBE045F24C60C2F2000080790328A5
:103FC0002AD1FFE723F056FC39F028F840790A2877
:103FD00004D1FFE739F022F8049003E039F024F827
:103FE0000490FFE7049845F24C61C2F200010831E9
:103FF00000F07CF939F012F840790A2804D1FFE783
:1040000039F00CF8039003E039F00EF80390FFE765
:10401000039807F0B1FEFFE7A8E045F24C60C2F25A
:104020000000807903282AD1FFE723F023FC38F031
:10403000F5FF40790A2804D1FFE738F0EFFF02903E
:1040400003E038F0F1FF0290FFE7029845F24C617F
:10405000C2F20001083100F0DBF938F0DFFF4079EF
:104060000A2804D1FFE738F0D9FF019003E038F0C7
:10407000DBFF0190FFE7019807F06EFEFFE775E0B8
:1040800045F24C60C2F200008079062836D1FFE785
:1040900023F0F0FB3AF0EAFA0146032800910ED033
:1040A000FFE7009842280AD0FFE70098442806D08E
:1040B000FFE70098A0F1530103291DD8FFE7022074
:1040C00001212FF09FF93AF0D7FA8068006945F294
:1040D0009D11C0F6050181603AF0CEFA8068006952
:1040E00044F64171C0F60501C1603AF0C5FA806836
:1040F00000690421417100E0FFE7FFE736E045F287
:104100004C60C2F200008079062817D1FFE723F047
:10411000B1FB3AF0ABFA41280AD0FFE73AF0A6FA31
:104120005A2805D0FFE73AF0A1FA572805D1FFE752
:10413000022001212FF066F9FFE7FFE716E045F2C4
:104140004C60C2F20000807906280DD1FFE723F011
:1041500091FB3AF08BFA032805D1FFE702200121F9
:104160002FF050F9FFE7FFE700E0FFE70AB080BD5E
:1041700082B0019000910198002801D1FFE742E050
:10418000009800281BD1FFE70198312180F8221008
:1041900001982E2280F823200198302380F82430C3
:1041A00001984FF0000C80F825C0019841770198E4
:1041B00082770198C377019880F820C023E00098A7
:1041C00000783030019981F8220001982E2180F882
:1041D0002310009840783030019A82F8240001982A
:1041E000002280F82520009880783030019B587795
:1041F000019881770098C07830300199C87701988C
:1042000080F82020FFE702B07047000083B013461B
:10421000029001918DF803200298002801D1FFE758
:1042200062E09DF8030000282FD1FFE702984C219F
:1042300080F85A100298482180F85B1002982D21CE
:1042400080F85C100298442180F85D1002984322A7
:1042500080F85E200298312380F85F30029838237E
:1042600080F8603002985F2380F86130029880F80F
:10427000622002984F2280F86320029880F8641030
:104280000298202180F865102EE002984C2180F8D9
:104290005A100298482180F85B1002982D2180F86E
:1042A0005C100298442180F85D100298432280F847
:1042B0005E200298312380F85F300298372380F81F
:1042C000603002985F2380F86130029880F86220A5
:1042D00002984F2280F86320029880F864100298B8
:1042E000202180F86510FFE703B0704782B001908D
:1042F00000910198002801D1FFE713E00098002801
:1043000005D1FFE701983221A0F86C100AE000986F
:104310004078019981F86C0000980078019981F843
:104320006D00FFE702B0704780B584B013468C463D
:104330000390ADF80A108DF809200398002801D1E8
:10434000FFE728E0BDF80A0000EB80004000ADF870
:1043500004009DF8090045F24C61C2F2000101F829
:10436000450F06204870052088708620C8709DF88B
:10437000050008719DF804004871082001F8420CFE
:104380000090084600991BF069FF43F0BDFF0B2029
:1043900043F0F8FFFFE704B080BD000080B584B0B3
:1043A00013468C460390ADF80A108DF80920039847
:1043B000002801D1FFE728E0BDF80A0000EB8000EB
:1043C0004000ADF804009DF8090045F24C61C2F2CE
:1043D000000101F8450F06204870052088708520EF
:1043E000C8709DF8050008719DF804004871082008
:1043F00001F8420C0090084600991BF02FFF43F093
:1044000083FF0B2043F0BEFFFFE704B080BD000038
:1044100080B5CAB049904891002047904690459099
:1044200044904998002801D1FFE7C6E348984078B6
:104430008DF80C01489800788DF80D014898C078E7
:104440008DF80801489880788DF8090148984079DE
:104450008DF80401489800798DF80501BDF80C012C
:104460004FF050FC499948674998416F4090084681
:104470004FF010FA00220023C4F224033F923E932F
:104480004EF056FD4EF066FC40994867BDF80801B5
:104490004FF038FC499988674998816F3D900846EC
:1044A0004FF0F8F93F9A3E9B4EF042FD4EF052FC21
:1044B0003D998867BDF904014FF00CFC49990867E4
:1044C0004998016F3C9008464FF0E4F90023C4F28C
:1044D00059033F9A4EF02CFD4EF03CFC3C99086786
:1044E0004898C07A8DF808014898807A8DF80901BB
:1044F000BDF808014EF00DFF3F9A3E9B4EF018FDAF
:104500004EF028FC4999C1F880004898C07B8DF88E
:1045100004014898807B8DF80501BDF904014FF036
:10452000D9FB4999C1F88C004BF0B4FC00283AD073
:10453000FFE74998016F3B9008464FF0ABF94CF606
:10454000CD42CCF6CC424CF6CC43C3F6FC734EF0D5
:1045500083FF00220023C4F240034EF02DFC4EF0F6
:10456000F9FB3B9908674998006F0021C4F20C31B0
:104570004FF064FA002806D1FFE749980021C4F201
:104580000C3101670EE04998006F4FF084414FF005
:104590004EFA002805D1FFE749984FF084410167A2
:1045A000FFE7FFE7FFE74BF091FA002804D1FFE7B0
:1045B000499800214167FFE7499800788008C007C3
:1045C000002856D0FFE74998017801F0FB010170FF
:1045D0004998816F4161499800F12F01006F3A912C
:1045E0004FF058F96A465160106046F24822C0F612
:1045F000050206213A98FBF7CBFF499901F13502F4
:10460000496F3990084638924FF044F96A46516034
:10461000106046F24E20C0F605000721389A379008
:1046200010463691379AFBF7B3FF499901F13C02E6
:10463000896F3590084634924FF02CF96A465160E4
:10464000106034983699379AFBF7A2FF499901F127
:104650005302D1F880103390084632924FF01AF985
:104660006A465160106032983699379AFBF790FF8E
:10467000A3E249988168826F3190084611464FF055
:1046800035F9319988604998C268416F3090104679
:104690004FF02CF93099C86049980269016F2F904A
:1046A00010464FF023F92F9908614998D0F88010EF
:1046B00047F6B460C2F2000002682E9010464FF038
:1046C00015F92E990860499801F002FC4998816F0C
:1046D0004161499840794A2840F06D81FFE7499847
:1046E000C1790131C171C8B2022808DCFFE738F096
:1046F000A1FCB0F8C800022840F05C81FFE74998AF
:104700000169C0792D914FF0FDFA2D992C90084642
:104710002C994FF0ADF947904998C168C0792B9119
:104720004FF0F0FA2B992A9008462A994FF0A0F9F9
:10473000469049988168C07929914FF0E3FA299908
:104740002890084628994FF093F9459047F6B460B1
:10475000C2F2000000684999C979279008464FF0D5
:10476000D1FA27992690084626994FF081F944906E
:104770004BF0C4F900284DD0FFE74BF007FB0228AF
:1047800048DBFFE745F2DC00C2F2000000780028B9
:1047900017D0FFE745F2DC00C2F2000000210170F3
:1047A0004998983023F0D6F84998A43023F0D2F8ED
:1047B0004998B03023F0CEF84998BC3023F0CAF8BD
:1047C000FFE749989830459923F038F94998A43083
:1047D000469923F033F94998B030479923F02EF9E0
:1047E0004998BC30449923F029F94998B03023F016
:1047F000DBF847904998983023F0D6F845904998CF
:10480000A43023F0D1F846904998BC3023F0CCF87E
:10481000449006E045F2DC00C2F200000121017084
:10482000FFE74998B0F8C800012851D1FFE749983F
:1048300005F028FB00284AD1FFE749982F30479917
:10484000259008464FF026F86A465160106046F2FF
:104850004822C0F6050206212598FBF799FE4999E2
:104860003531469A2490104623914FF013F86A464A
:104870005160106046F24E20C0F605000721239AD1
:10488000229010462191229AFBF782FE49993C31F1
:10489000459A209010461F914EF0FCFF6A465160E9
:1048A00010601F982199229AFBF772FE49995331A3
:1048B000449A1E9010461D914EF0ECFF6A465160DE
:1048C00010601D982199229AFBF762FEFFE762E0D3
:1048D00038F064FE1C904BF0EDFA05301C998142D3
:1048E00007DBFFE745F62230C2F20000002101702D
:1048F00050E0499805F0C6FA00284AD1FFE74998E8
:104900002F3047991B9008464EF0C4FF6A4651600D
:10491000106046F24822C0F6050206211B98FBF7FC
:1049200037FE49993531469A1A90104619914EF042
:10493000B1FF6A465160106046F24E20C0F6050095
:104940000721199A189010461791189AFBF720FE24
:1049500049993C31459A1690104615914EF09AFFB0
:104960006A465160106015981799189AFBF710FE67
:1049700049995331449A1490104613914EF08AFF8E
:104980006A465160106013981799189AFBF700FE59
:10499000FFE7FFE7FFE749980021C171499881606F
:1049A0004998C1604998016147F6B460C2F20000BD
:1049B0000160FFE7FFE7499840790A2840F0FC8052
:1049C000FFE74998C1790131C171C8B20328C0F22B
:1049D000F280FFE749980169C07912914FF092F98E
:1049E00012991190084611994FF042F84790499852
:1049F000C168C07910914FF085F910990F90084661
:104A00000F994FF035F8469049988168C0790E911A
:104A10004FF078F90E990D9008460D994FF028F84F
:104A2000459047F6B460C2F2000000684999C97920
:104A30000C9008464FF066F90C990B9008460B99BC
:104A40004FF016F844904BF059F800284DD0FFE78E
:104A50004BF09CF9022848DBFFE745F2DC00C2F28C
:104A600000000078002817D0FFE745F2DC00C2F212
:104A70000000002101704998983022F06BFF49989E
:104A8000A43022F067FF4998B03022F063FF4998C4
:104A9000BC3022F05FFFFFE749989830459922F03B
:104AA000CDFF4998A430469922F0C8FF4998B0300C
:104AB000479922F0C3FF4998BC30449922F0BEFFC9
:104AC0004998B03022F070FF47904998983022F012
:104AD0006BFF45904998A43022F066FF46904998B4
:104AE000BC3022F061FF449006E045F2DC00C2F2E7
:104AF000000001210170FFE7499805F0C3F9002883
:104B00004AD1FFE749982F3047990A9008464EF05E
:104B1000C1FE6A465160106046F24822C0F60502A6
:104B200006210A98FBF734FD49993531469A0990D8
:104B3000104608914EF0AEFE6A465160106046F293
:104B40004E20C0F605000721089A079010460691EE
:104B5000079AFBF71DFD49993C31459A059010468F
:104B600004914EF097FE6A465160106004980699D1
:104B7000079AFBF70DFD49995331449A039010466B
:104B800002914EF087FE6A465160106002980699C5
:104B9000079AFBF7FDFCFFE749980021C17149988E
:104BA00081604998C1604998016147F6B460C2F2DA
:104BB00000000160FFE7FFE7FFE74AB080BD0000AB
:104BC00080B584B013468C460390ADF80A108DF87A
:104BD00009200398002801D1FFE725E0BDF80A006D
:104BE000ADF804009DF8090045F24C61C2F20001E5
:104BF00001F8450F06204870052088701420C87001
:104C00009DF8050008719DF804004871082001F81E
:104C1000420C0090084600991BF020FB43F074FB07
:104C2000122043F0AFFBFFE704B080BD80B584B035
:104C30000A4603908DF80B100398002801D1FFE776
:104C40001FE09DF80B0045F24C61C2F2000101F833
:104C5000450F06204870052088701520C870002078
:104C6000087179204871082001F8420C019008462B
:104C700001991BF0F3FA43F047FB132043F082FB4A
:104C8000FFE704B080BD000080B584B013468C46B9
:104C90000390ADF80A108DF809200398002801D17F
:104CA000FFE725E0BDF80A00ADF804009DF8090013
:104CB00045F24C61C2F2000101F8450F0620487030
:104CC000052088701020C8709DF8050008719DF8B7
:104CD00004004871082001F8420C00900846009931
:104CE0001BF0BCFA43F010FB122043F04BFBFFE734
:104CF00004B080BD80B584B001468DF80F009DF8EA
:104D00000F0045F24C62C2F2000202F8450F032088
:104D10005070052090700020D070107108205071E4
:104D200002F8420C02901046029B01911946009233
:104D30001BF094FA0298009901F8420C0C2043F001
:104D400021FB04B080BD000080B584B00A4603900A
:104D50008DF80B109DF80B0045F24C61C2F200017A
:104D600001F8450F03204870052088700020C870A6
:104D700008710820487101F8420C01900846019919
:104D800000921BF06BFA43F0BFFA019843F0FAFA75
:104D900004B080BD80B582B00A4601908DF8031042
:104DA0000198002801D1FFE746E09DF803004A285A
:104DB00017D1FFE745F24C60C2F200004A2180F8AB
:104DC0004510032180F84610052180F84710C021C6
:104DD00080F84810002180F84910102180F84A100E
:104DE0001BE09DF803000A2816D1FFE745F24C604E
:104DF000C2F200000A2180F84510032180F8461015
:104E0000052180F84710002180F8481080F84910EB
:104E1000082180F84A10FFE7FFE745F24C60C2F234
:104E200000000821C17045301BF018FA43F06CFAFD
:104E3000022043F0A7FAFFE702B080BD80B584B03E
:104E40000A4603908DF80B100398002801D1FFE764
:104E50001BE09DF80B0045F24C61C2F2000101F825
:104E6000450F03204870052088700020C870087125
:104E70000820487101F8420C0190084601991BF086
:104E8000EDF9042043F07EFAFFE704B080BD000096
:104E900080B584B00A4603908DF80B109DF80B0086
:104EA00045F24C61C2F2000101F8450F0320487041
:104EB000052088701020C8700020087101204871FA
:104EC000082001F8420C01900846019900921BF05D
:104ED000C5F943F019FA0A2043F054FA04B080BD32
:104EE00080B584B013468C460390ADF80A108DF857
:104EF00009200398002801D1FFE725E0BDF80A004A
:104F0000ADF804009DF8090045F24C61C2F20001C1
:104F100001F8450F06204870052088700720C870EA
:104F20009DF8050008719DF804004871082001F8FB
:104F3000420C0090084600991BF090F943F0E4F908
:104F4000122043F01FFAFFE704B080BD80B584B0A3
:104F500013468C460390ADF80A108DF8092003988B
:104F6000002801D1FFE728E0BDF80A0000EB80002F
:104F70004000ADF804009DF8090045F24C61C2F212
:104F8000000101F8450F0620487005208870882030
:104F9000C8709DF8050008719DF80400487108204C
:104FA00001F8420C0090084600991BF057F943F0B5
:104FB000ABF90B2043F0E6F9FFE704B080BD000039
:104FC00080B584B013468C460390ADF80A108DF876
:104FD00009200398002801D1FFE728E0BDF80A0066
:104FE00000EB80004000ADF804009DF8090045F298
:104FF0004C61C2F2000101F8450F062048700520FF
:1050000088708720C8709DF8050008719DF804001D
:105010004871082001F8420C0090084600991BF0E6
:105020001DF943F071F90B2043F0ACF9FFE704B030
:1050300080BD000080B58AB041F0EEFE0238014626
:105040001128089100F284810899DFE811F03F00EF
:105050008101A1008101810181016E008101810135
:10506000DC00120081018101810181018101430184
:10507000630145F24C60C2F200008079042824D11B
:10508000FFE75F208DF827009DF8270003F0B6FDAD
:1050900041F07AFE37F0C2FF40795F2804D1FFE784
:1050A00037F0BCFF079003E037F0BEFF0790FFE743
:1050B000079845F24C61C2F20001083100F0FCF99A
:1050C00037F0ACFF00F0F6FCFFE742E145F24C6040
:1050D000C2F200008079042826D1FFE745F24C6037
:1050E000C2F20000C0790C281ED1FFE722F0C2FBFB
:1050F00037F094FF40795F2804D1FFE737F08EFF47
:10510000069003E037F090FF0690FFE7069845F21F
:105110004C61C2F2000108310C224BF055FE37F011
:105120007DFF00F09FFCFFE713E145F24C60C2F207
:105130000000807904282AD1FFE722F09BFB37F09A
:105140006DFF40795F2804D1FFE737F067FF0590D6
:1051500003E037F069FF0590FFE7059845F24C61E1
:10516000C2F2000108314BF007FE37F057FF4079DB
:105170005F2804D1FFE737F051FF049003E037F0D8
:1051800053FF0490FFE7049806F0F6FDFFE7E0E028
:1051900045F24C60C2F200008079042832D1FFE76A
:1051A00045F24C60C2F20000C0791C282AD1FFE70A
:1051B00022F060FB37F032FF40795F2804D1FFE72F
:1051C00037F02CFF039003E037F02EFF0390FFE74A
:1051D000039845F24C61C2F20001083100F06CF90D
:1051E00037F01CFF40795F2804D1FFE737F016FF46
:1051F000029003E037F018FF0290FFE7029806F0F4
:10520000ABFDFFE7A5E045F24C60C2F200008079FB
:10521000102840F05E80FFE745F24C60C2F20000CB
:10522000C0799C2840F05580FFE722F023FB39F03D
:105230001DFA033801464F28019100F24880019978
:10524000DFE801F028454545454545454545454587
:1052500045454545454545454545454545454545FE
:1052600045454545454545454545454545454545EE
:1052700045454545454545454545454545454545DE
:105280004545452845284545454545454545452825
:1052900028282828022001212EF0B4F839F0ECF952
:1052A0008068006945F29D11C0F60501816039F002
:1052B000E3F98068006944F64171C0F60501C160F8
:1052C00039F0DAF9806800690421417100E0FFE7F4
:1052D000FFE73EE045F24C60C2F20000C0799C2836
:1052E00017D1FFE722F0C6FA39F0C0F941280AD0F9
:1052F000FFE739F0BBF95A2805D0FFE739F0B6F9D6
:105300004D2805D1FFE7022001212EF07BF8FFE7B1
:10531000FFE71EE045F24C60C2F20000C0799C2815
:1053200015D1FFE745F24C60C2F20000007A512827
:105330000DD1FFE722F09EFA39F098F9032805D144
:10534000FFE7022001212EF05DF8FFE7FFE700E014
:10535000FFE70AB080BD000080B58AB00A46099018
:1053600008910998002801D1FFE74BE002A81AF044
:10537000E5F80298DDF80B10CDF8131004900898AA
:1053800006900498DDF81310CDF8031000900098F3
:10539000019922F003FC079045F24C60C2F2000034
:1053A0005F2100F8451F102141709C21817066210A
:1053B000C1700021017104214171082181719DF8A2
:1053C0001D10C1719DF81C1001729DF81F104172D3
:1053D0009DF81E1081729DF81910C1729DF8181069
:1053E00001739DF81B1041739DF81A1081731121F0
:1053F00000F8421C1AF032FF42F086FF0B2042F008
:10540000C1FFFFE70AB080BD80B58AB00A460990A7
:1054100008910998002801D1FFE74BE002A81AF093
:105420008DF80298DDF80B10CDF813100490089851
:1054300006900498DDF81310CDF803100090009842
:10544000019922F0ABFB079045F24C60C2F20000DC
:105450005F2100F8451F102141709C2181706A2155
:10546000C1700021017104214171082181719DF8F1
:105470001D10C1719DF81C1001729DF81F10417222
:105480009DF81E1081729DF81910C1729DF81810B8
:1054900001739DF81B1041739DF81A10817311213F
:1054A00000F8421C1AF0DAFE42F02EFF0B2042F008
:1054B00069FFFFE70AB080BD80B5A0B01F901E91C4
:1054C00000201D901C901B901F98002801D1FFE721
:1054D000FDE11E9840781F9981F878001E980078A9
:1054E0001F9981F879001E98C0781F9981F87A0079
:1054F0001E9880781F9981F87B001E9840791F992B
:1055000081F870001E9800791F9981F871001E982B
:10551000C0791F9981F872001E9880791F9981F8CF
:1055200073001E98407A1F9981F874001E98007AC3
:105530001F9981F875001E98C07A1F9981F876002E
:105540001E98807A1F9981F877001E98407B1F99DA
:1055500081F87C001E98007B1F9981F87D001E98C1
:10556000C07B1F9981F87E001E98807B1F9981F86F
:105570007F001E98407C1F9981F880001E98007C57
:105580001F9981F881001E98C07C1F9981F88200C4
:105590001E98807C1F9981F883001E98407D1F997A
:1055A00081F884001E98007D1F9981F885001E985F
:1055B000C07D1F9981F886001E98807D1F9981F813
:1055C00087001E98407E1F9981F888001E98007EF3
:1055D0001F9981F889001E98C07E1F9981F88A0062
:1055E0001E98807E1F9981F88B004AF053FC00289A
:1055F0003AD0FFE71F98016F1A9008464EF04AF91B
:105600004CF6CD42CCF6CC424CF6CC43C3F6FC7300
:105610004DF022FF00220023C4F240034DF0CCFBEA
:105620004DF098FB1A9908671F98006F0021C4F28B
:105630000C314EF003FA002806D1FFE71F98002135
:10564000C4F20C3101670EE01F98006F4FF08441E7
:105650004EF0EDF9002805D1FFE71F984FF0844187
:105660000167FFE7FFE7FFE71F9800788008C007A2
:10567000002844D0FFE71F98017801F0FB0101707A
:105680001F98816F41611F9800F12F01006F1991E0
:105690004EF000F96A465160106046F26022C0F692
:1056A000050206211998FAF773FF1F9901F13502D7
:1056B000496F1890084617924EF0ECF86A46516010
:1056C000106046F26620C0F605000721179A169072
:1056D00010461591169AFAF75BFF1F9901F13C02EB
:1056E000896F1490084613924EF0D4F86A465160C0
:1056F000106013981599169AFAF74AFFE7E01F9879
:105700008168826F1290084611464EF0EFF81299A8
:1057100088601F98C268416F119010464EF0E6F8FD
:105720001199C8601F980269016F109010464EF0E1
:10573000DDF8109908611F9800F0CAFB1F98816F6F
:1057400041611F98C1790131C171C8B20328C0F20B
:10575000BD80FFE71F980169C0790F914EF0D2FA22
:105760000F990E9008460E994EF082F91D901F98E1
:10577000C168C0790D914EF0C5FA0D990C9008469C
:105780000C994EF075F91C901F988168C0790B91A7
:105790004EF0B8FA0B990A9008460A994EF068F94B
:1057A0001B904AF0ABF900283FD0FFE74AF0EEFA31
:1057B00002283ADBFFE745F2DC00C2F20000007885
:1057C000002813D0FFE745F2DC00C2F20000002100
:1057D00001701F98983022F0BDF81F98A43022F075
:1057E000B9F81F98B03022F0B5F8FFE71F9898304D
:1057F0001B9922F023F91F98A4301C9922F01EF95E
:105800001F98B0301D9922F019F91F98B03022F07E
:10581000CBF81D901F98983022F0C6F81B901F9867
:10582000A43022F0C1F81C9006E045F2DC00C2F280
:10583000000001210170FFE71F9804F023FB0028FE
:105840003AD1FFE71F982F301D99099008464EF076
:1058500021F86A465160106046F26022C0F60502E7
:1058600006210998FAF794FE1F9935311C9A089081
:10587000104607914EF00EF86A465160106046F2ED
:105880006620C0F605000721079A0690104605918C
:10589000069AFAF77DFE1F993C311B9A0490104638
:1058A00003914DF0F7FF6A46516010600398059927
:1058B000069AFAF76DFEFFE71F980021C1711F9845
:1058C00081601F98C1601F980161FFE7FFE720B06A
:1058D00080BD000080B582B001900198002801D100
:1058E000FFE71BE045F24C60C2F200005F2100F8C8
:1058F000451F062141709C2181705321C1700021F8
:10590000017101214171082100F8421C1AF0A6FC26
:1059100042F0FAFC122042F035FDFFE702B080BDF4
:1059200080B582B001900198002801D1FFE71BE00B
:1059300045F24C60C2F200005F2100F8451F0621CD
:1059400041709C2181705121C170002101710121A0
:105950004171082100F8421C1AF080FC42F0D4FC8E
:10596000132042F00FFDFFE702B080BD80B58AB082
:105970000A46099008910998002801D1FFE74BE0F9
:1059800002A819F0DBFD0298DDF80B10CDF813101A
:105990000490089806900498DDF81310CDF80310D1
:1059A00000900098019922F0F9F8079045F24C60B8
:1059B000C2F200005F2100F8451F102141709C21B8
:1059C00081706E21C1700021017104214171082193
:1059D00081719DF81D10C1719DF81C1001729DF818
:1059E0001F1041729DF81E1081729DF81910C1722E
:1059F0009DF8181001739DF81B1041739DF81A1043
:105A00008173112100F8421C1AF028FC42F07CFC42
:105A10000B2042F0B7FCFFE70AB080BD80B582B032
:105A200045F24C60C2F200005F2100F8451F0421DE
:105A30004170752181706921C170002101710621B9
:105A40004171082100F8421C019000911AF006FCF7
:105A50000098019901F8420C0C2042F093FC02B02E
:105A600080BD000080B582B001900198002801D16E
:105A7000FFE71CE045F24C60C2F200005F2100F835
:105A8000451F04214170752181704421C17000219E
:105A9000017102214171082100F8421C00911AF0A5
:105AA000DDFB42F031FC009842F06CFCFFE702B0F5
:105AB00080BD000080B582B001900198002801D11E
:105AC000FFE71BE045F24C60C2F200005F2100F8E6
:105AD000451F04214170752181703021C170002162
