:020000040800F2
:10000000809D00203D0200087DBB00085DA0000827
:1000100011AB0008452F00089DD600080000000025
:100020000000000000000000000000003DC50008C6
:100030003B6C000800000000A9C2000889C9000844
:10004000570200085702000857020008570200082C
:10005000570200085702000857020008570200081C
:10006000570200085702000857020008570200080C
:100070005702000849540008570200085554000868
:100080006154000857020008570200085702000890
:1000900057020008570200085702000857020008DC
:1000A00057020008570200085702000857020008CC
:1000B0000DCA00085702000857020008570200083E
:1000C00057020008570200085702000857020008AC
:1000D0005702000891D50008A9D50008C1D500082D
:1000E000570200085702000857020008570200088C
:1000F00057020008000000005702000857020008DD
:10010000570200085702000857020008570200086B
:1001100057020008570200085702000800000000BC
:100120005702000800F002F800F078F80AA090E802
:10013000000C82448344AAF10107DA4501D100F0A2
:100140006DF8AFF2090EBAE80F0013F0010F18BFF7
:10015000FB1A43F001031847B01A0200D01A02003C
:1001600010F8013B0A4413F0030408BF10F8014BD8
:100170001D1108BF10F8015B641E05D010F8016B5B
:10018000641E01F8016BF9D1002D15D010F8014B58
:1001900003F00C030C2BA1EB04040ABF10F8013B85
:1001A000A4EB8314A4EB032405F1010314F8016B01
:1001B0005B1E01F8016BF9D5914238BF10F8013B85
:1001C000D1D370470023002400250026103A28BF11
:1001D00078C1FBD8520728BF30C148BF0B607047B9
:1001E00066291FF02F84642900F0C8810020704721
:1001F0001FB59DE8030000F061FB00F0B7FE0400AE
:10020000002000211EF020FB401C60600020002127
:100210001EF004FBE0601FBD10B510BD00F0F0FF44
:100220001146FFF7E5FF19F00FFF01F093FA03B451
:10023000FFF7F2FF03BC01F003FB00000948804711
:1002400009480047FEE7FEE7FEE7FEE7FEE7FEE7B8
:10025000FEE7FEE7FEE7FEE704480549054A064BD0
:100260007047000009CA000825010008807D0020B1
:10027000809D0020808D0020808D002070B5A0FB27
:100280000140B4F1805170F1000024BF002070BD26
:10029000204600F007F805001CBF214600F0A5FA33
:1002A000284670BD70B5064600F0ECFA056806F108
:1002B0000B0020F00704B4429CBF002070BD2B4609
:1002C0006A68BAB11068A04210D304F108018842EC
:1002D0003CBF5068586007D35168101941601168DD
:1002E000091B016058601460101D70BD13465268F0
:1002F000002AE7D12146284600F0CCFA0028DED1BA
:1003000070BD70B50446051F00F0BCFA0068002CF3
:1003100014BF446870BD002C18BFAC423CBF2046DF
:100320006468F8D301680A18AA4218BF456003D16F
:100330002A6805461144016028684119A1421CBF82
:100340006C6070BD6168696021680844286070BD98
:1003500070B50D460646041F00F094FAD0F800C0B0
:10036000C5B1E6B105F10B0020F00703AB423CBF7D
:10037000002070BD2068984238BFDCF8042013D3F9
:10038000C11A08292FD3E01840F8041B2360FFF797
:10039000B8FF28E03046FFF7B4FF002070BD2846C4
:1003A000BDE87040FFF77EBF002A18BFA2423CBFE5
:1003B00094465268F8D30119914216D11168084445
:1003C000984212D3C11A08293CBF2060506808D354
:1003D0005168E0184160216812681144C91A01602F
:1003E0002360CCF80400201D70BD181FFFF75AFFD2
:1003F000050007D021680A1F211D00F081FD201D86
:10040000FFF77FFF284670BD53EA020C00F06980B9
:100410002DE9F04B4FF00006002B1FBFB3FA83F518
:1004200003FA05F424FA05F65E4012BF1643B2FA49
:1004300082F502FA05F4C5F120051EBF22FA05FC7B
:1004400044EA0C04203556EA044C4FEA144418BF21
:10045000641C4FF000084FF00009904271EB030C50
:1004600039D3002919BFB1FA81F701FA07F6B0FABA
:1004700080F700FA07F6C7F120071EBF20FA07FC35
:1004800046EA0C062037B6FBF4FCA7EB0507103F45
:1004900007F01F0BCBF120060CFA0BFB2CFA06F62B
:1004A00044BFB3460026202FA4BF5E464FF0000B8A
:1004B0005BEA060C08BF4FF0010B19EB0B09ABFB15
:1004C000027C48EB0608C01B06FB02CC0BFB03CCEE
:1004D00071EB0C01C1E70B46024641464846BDE8B8
:1004E000F08B13B54FF000004FF00001AFF3008028
:1004F000BDE81C40704700000FB41CB50C0007AAF3
:10050000009001D02044401E074B7B446946019077
:10051000069800F082FC002C03D06946002000F011
:100520008FFC1CBC5DF814FB3D09000070B504464F
:1005300085690068C10601D5302600E02026C00785
:1005400007D070BDD4E9012130469047206A401C95
:1005500020626D1EF6D570BD70B5044685690078C1
:10056000C00707D170BDD4E9012120209047206A3F
:10057000401C20626D1EF6D570BD00002DE9F041D3
:100580000646002410687529314616A510D0AFF331
:100590000080002802DA404213A507E031688A078C
:1005A00001D512A502E0490704D511A5012401E0F7
:1005B000AFF3008000210A2206F1240709E0B0FB16
:1005C000F2FCB0FBF2F302FB1C003030785418460A
:1005D000491C0028F3D123462A463046BDE8F041A5
:1005E00000F0ADB9000000002D0000002B0000005D
:1005F000200000002DE9F05F894604464FF0000A14
:10060000DFF824B1FB44C0F820A02046E168884709
:1006100000287DD0252806D0D4E901219047206A02
:10062000401C2062F1E700255F462046E1688847CC
:100630002028064607DB312E05D2B81910F8200C09
:1006400008B10543F1E7A80701D525F00405C4F872
:100650001CA00027C4F818A02A2E09D030460DF09F
:10066000B8FA38B304EB8708303EC8F8186019E0D0
:1006700059F8041B204604EB87029161E168884722
:10068000012F064618D1E069002820DA25F0200560
:100690001DE0D8F8180000EB800006EB4000303871
:1006A000C8F818002046E168884706460DF091FA20
:1006B0000028EED1012F0AD02E2E08D12046E16865
:1006C00088477F1C0646022F45F02005C4DBA06941
:1006D000002803DA404245F00105A061E80701D097
:1006E00025F01005A6B1A6F14100192802D8203640
:1006F00045F400654A463146204625604D46FFF7E1
:100700006FFD60B1012807D0ED1D25F0070000E066
:1007100007E000F1080978E705F1040975E73046BC
:100720007AE7206ABDE8F09F5815020030B505460B
:100730000B462A4613F8014B12F8010B08B1A042F0
:10074000F8D01CB1002802D06D1CF1E7284630BD5E
:10075000032A40F2308010F0030C00F0158011F8ED
:10076000013BBCF1020F624498BF11F801CB00F8C5
:10077000013B38BF11F8013BA2F1040298BF00F819
:1007800001CB38BF00F8013B11F0030300F0B88340
:10079000083AC0F0088051F8043B083A51F804CBFD
:1007A000A0E80810F5E7121D5CBF51F8043B40F8C3
:1007B000043BAFF30080D20724BF11F8013B11F8CE
:1007C00001CB48BF11F8012B24BF00F8013B00F812
:1007D00001CB48BF00F8012B704702F0FF0343EA4A
:1007E000032242EA024200F002B84FF0000204295C
:1007F000C0F0128010F0030C00F01B80CCF1040C50
:10080000BCF1020F18BF00F8012BA8BF20F8022B83
:10081000A1EB0C0100F00DB85FEAC17C24BF00F829
:10082000012B00F8012B48BF00F8012B70474FF057
:10083000000200B5134694469646203922BFA0E830
:100840000C50A0E80C50B1F12001BFF4F7AF09073C
:1008500028BFA0E80C5048BF0CC05DF804EB89002D
:1008600028BF40F8042B08BF704748BF20F8022B70
:1008700011F0804F18BF00F8012B70477047704788
:100880007047000000487047287D0020704770477F
:100890007047704738B504460A4600206946AFF3F2
:1008A0000080002808BF38BD02460099204600F0AD
:1008B00065FB012038BD012000F09ABCF8B5AFF30C
:1008C0000080054600200C46102000BF0646A819EF
:1008D000A0420DD9324669460020AFF300800700E0
:1008E00008BF00F085FC0098A04218BF0546C41957
:1008F000FFF7C8FF05600746F01D20F00700461906
:10090000284600F00AF8B44208BFF8BDA21B3146E1
:100910003868BDE8F84000F031BB00210160C0E953
:10092000011070471020704710B500F023FB0068DD
:1009300010BD10B5044600F01DFB046010BD2DE98C
:10094000F0470D4699469246044600F12408016896
:10095000880604D5E06921F01001216000E0012043
:10096000A84201DD471B00E00027A1697A1902EBCC
:100970000900081AA0612078C00602D42046FFF7BB
:10098000D5FD002608E0D4E901211AF806009047B9
:10099000206A401C761C20624E45F4DB2078C0069D
:1009A0000AD52046FFF7C2FD06E0D4E90121302038
:1009B0009047206A401C2062381EA7F10107F4DC32
:1009C00007E0D4E9012118F805009047206A401C8F
:1009D0002062281EA5F10105F3DC2046FFF7BCFDCF
:1009E0002078000602D50220BDE8F0870120FBE751
:1009F00070472DE9FF4F0C461E464FF0FF378BB076
:100A0000D2E90001DDF860800A908A46C1F30A55F8
:100A100005B93D46002108464FF00000BAF1000F2D
:100A200000F4400005DA00EB80004FF4400101EAD9
:100A300050004FEA9059B9F1010F00DDB9460A980C
:100A400050EA4A000ED044F61050A5F2FF35454357
:100A50002F14B8F1000F1ED07542291E1EDDC9F1FA
:100A600000021CE0B8F1010F4FF0000001D030216E
:100A700003E0F24305E02154401CB042FBDB30466A
:100A80000022002121540B99C1F80880C1E90020FF
:100A90000FB0BDE8F08FBD1B6D1CDEE74A4600DAE3
:100AA000694206A800F032FB06AB93E8070003ABEF
:100AB00083E8070050460A9901F033F98DE80700F2
:100AC000A0F500501F3800900398002D0ADD42F277
:100AD0001F014A460844002303A90390684601F019
:100AE000DFFB09E0A0F500504A461F38002303A9A8
:100AF0000390684601F0FEFB8DE807000004000C3F
:100B000003D04FF0FF30410800E01046B8F1000F6D
:100B100003D00022009215461EE0751E05D400F099
:100B200047FA303262556D1EF9D5B34601220843AB
:100B300002D000227F1C04E02078302801D100225E
:100B40007F1E002A099784D01DE0112D07DA00F0DE
:100B50002FFA303262556D1C50EA0102F5D108437C
:100B600002D00098C8B10EE00021681E05E0235CA9
:100B7000625C63542254401E491C8142F7DBAB4641
:100B8000A81B401E0990002004F80B000B98099A3E
:100B9000C0F80880C0E9002B7AE711264FF0000862
:100BA00057E72DE9F04F88460446D21D22F0070191
:100BB00091B0D1E90001CDE90A010CF065FF0246D0
:100BC0000B98C00F01D02D2007E02068810701D5C8
:100BD0002B2002E0202101EAC000032A099001D065
:100BE000072A05DB03464146204600F02FFA0BE1B9
:100BF0002078800601D5E06900E00620B8F1650F95
:100C0000814606D0B8F1660F18D0B8F1670F70D1E1
:100C100031E00020B9F1110F009001DB112301E058
:100C200009F101030AAA01A90CA8FFF7E2FEDDE918
:100C30000C70002609F10105834647E001204B4670
:100C400000904FF000470AAA01A90CA8FFF7D1FEB7
:100C5000DDE90DB00C995D46002610B909F10100DF
:100C60000D18B9EB050003D4C0F1FF3609F10105F9
:100C7000A5EB09002BE0B9F1010F01DA4FF00109F2
:100C80000020B9F1110F0090484601DD112300E06A
:100C900003460AAA01A90CA8FFF7ABFEDDE90C7018
:100CA0004D4600268346207800070AD4AB4500DA7B
:100CB0005D4601A8012D04DD411911F8011C302900
:100CC00007D04F4502DA17F1040F04DA01208246FB
:100CD0000FE06D1EEEE7002F02DCED1B3E4403E04B
:100CE000781CA84200DD7D1CB81B00F1010A4FF002
:100CF00000472078000703D4AA4501DB4FF0FF3AF4
:100D00000021B7F1004F0DF143088DF8431024D0B6
:100D100002202B23002F01DA7F422D230A21021EFD
:100D2000A0F1010000DC5FB197FBF1FC97FBF1F251
:100D300001FB1C7C17460CF1300C08F801CDEEE7E6
:100D4000A8F1010003702188090501D5452100E0C3
:100D50006521A0F1010800F8011C09980FA9A1EB79
:100D60000807FF1D00B10120411901EBEA70A169DC
:100D70003844081A401EA0612078C00602D42046DC
:100D8000FFF7D4FB099828B1D4E901219047206AE4
:100D9000401C20622078C00622D52046FFF7C6FB03
:100DA0001EE0002E04DBB34502DD01A8805D00E0FB
:100DB0003020D4E901219047206A401C2062761C33
:100DC000AAF101005FEA000A0AD100F0CFF8C0687A
:100DD0000168405CD4E901219047206A401C2062F0
:100DE000281EA5F10105DCDC07E0D4E9012118F893
:100DF000010B9047206A401C2062381EA7F10107B2
:100E0000F3DC2046FFF7A8FB032011B041E6000009
:100E100001694A1C02610878704700B58FB0CDE9BE
:100E200001310021059105497944CDE903101146AE
:100E30006846FFF7DFFB0FB000BD0000E5FFFFFFD6
:100E40000A6802F8010B0A607047D1E900239A4250
:100E500002D2531C0B601070704700000FB40023C7
:100E600000B589B00CA900910B99CB60214B7B4454
:100E70000693214B7B44079304236FF00042CDE996
:100E800001321E4A7A446B460892024600201EF048
:100E90003BFE09B05DF814FB70B506464FF0FF301D
:100EA00015460C46324686B00091CDE901016946EF
:100EB0000020049004A8FFF7D1FF024604982118EF
:100EC00025B108B1084600E02046286004980028B3
:100ED0000DD0002A02DD0098884208D03246081B57
:100EE00069460094CDE9010404A8FFF7B7FF06B0F6
:100EF00070BD00005B02000073020000B30100003F
:100F000010B5203AC0F00B80B1E81850203AA0E8A4
:100F10001850B1E81850A0E81850BFF4F5AF5FEAD8
:100F2000027C24BFB1E81850A0E8185044BF18C98B
:100F300018C0BDE810405FEA827C24BF51F8043B32
:100F400040F8043B08BF7047D20728BF31F8023B86
:100F500048BF11F8012B28BF20F8023B48BF00F81A
:100F6000012B704700487047207D002000487047E3
:100F7000407D002000487047207D002003464068E7
:100F80008C46002818BF88423CBF03464068F8D30F
:100F900018681844884207D00CF1030020F00700BD
:100FA000001D411A521A0146081D0A60FFF7A9B92F
:100FB00030B5B0F10A024FEA900E71F100034EEA2B
:100FC000817EB0EB0E0061EB91014FEA101E4EEAFC
:100FD000017E10EB0E0041EB11114FEA102E4EEA8C
:100FE000016E10EB0E0041EB11214FEA104E4EEA5C
:100FF000014E10EB0E0041EB1141401841F1000190
:101000004FEAD00040EA41704FEAD10110EB800571
:101010004FEA810444EA907444EB01046D1944EBF7
:101020000404521BA3414FF0000348BF0A3200D50D
:1010300030BD401C41F1000130BD10B5044600F048
:1010400005F90068005D00F0010010BD2DE9F041D8
:101050001F46044603260168072A01F4006004DBEA
:1010600008B116A505E016A503E008B115A500E036
:1010700015A521F010002060A069C01EA0610FB16D
:10108000401EA0612046FFF751FA4FB1D4E901217B
:1010900038469047206A401C2062C01C206206E04F
:1010A000206AFAE7D4E9012115F8010B9047761E72
:1010B000F8D22046FFF750FABDE8F0814E414E00CD
:1010C0006E616E00494E4600696E6600426842B12C
:1010D000016811F8013B23B1521EC0E90012184605
:1010E00070470121C160881E704742685AB1C368C9
:1010F000016843B983688B4205D0491E521CC0E980
:101100000012002070474FF0FF3070472DE9F04784
:10111000814616468AB0354878440DC88DE80D00E2
:1011200032487844801C03AC0DC884E80D0041F6B9
:101130009B300844372190FBF1F290FBF1F5A5F1CB
:10114000800501FB12041B3C02D56442012000E033
:101150000020DFF898A080460027FA44AAF1BE0AD2
:101160000EE0E0070AD03246684607EB470101234C
:101170000AEB810101F0BEF88DE8070064107F1CC6
:10118000002CEED1194F7F44AE3F19E0E80715D08F
:1011900007EB04100DF1180A90E80E008AE80E0023
:1011A000C068F04201D1981908903246012306A97F
:1011B00003A801F09FF803AB83E807006D10641CDF
:1011C000002DE3D14FF0010332466946B8F1000F1C
:1011D00003A802D001F064F801E001F08BF8C9E93E
:1011E0000001C9F808200AB0BDE8F087D40A02005F
:1011F00010B500F0BDFABDE8104000F0B4BA704779
:101200007546FFF7AFFEAE4605006946534620F02F
:101210000700854618B020B5FFF71EF8BDE820404E
:101220004FF000064FF000074FF000084FF0000BA2
:1012300021F00701AC46ACE8C009ACE8C009ACE855
:10124000C009ACE8C0098D467047000010B5FFF733
:101250008DFE001D10BD00BFF1D501002DE9FF4F2F
:1012600006468BB00878FF2806D0491C2D2805D0EB
:1012700000244FF0000908E000200CE00124F8E70A
:1012800009EB8903491C00EB43090878FF28F7D1D3
:1012900014B1C9F100008146107800252C46AA46F9
:1012A00029462D2801D02B2804D1521C2D2813D0DB
:1012B000002082468B461078FF280FD04FF0000C9C
:1012C0000A21521CA5FB017804FB018105FB0C11CE
:1012D000C5194BEB0104EEE70120EAE700210846BF
:1012E0004FF00000BAF1000F02D000EB8000400880
:1012F000C0F38157012F01DD4FF0FF370E9955EAFA
:10130000040009EB01080BD04FF0020918F5FA7F31
:1013100016DA4FEACA70002F706008DD012007E07E
:101320004FEACA70C6E900B00FB0BDE8F08F0020E8
:101330003060FFF71FFEC0F800901821084616E045
:10134000B8F5FA7F18DD002F02DAF748784401E09B
:10135000F6487844D0E90010C6E9001040EACA70A7
:101360007060FFF707FEC0F80090142108460FB028
:10137000BDE8F04F1EF063BB002108464FF00000AF
:10138000B8F10001099002DAC7F1000200E03A4624
:1013900001DAC8F1000106A8FFF7B8FE06AB93E832
:1013A000070003AB83E8070044F23E005BEA040158
:1013B0000090584604D144F21E012C465D4600912F
:1013C000210C0904014306D10099240444EA154480
:1013D0002D041039009104F07F41014306D100999A
:1013E000240244EA15642D020839009104F070418A
:1013F000014306D10099240144EA15742D01091F07
:10140000009104F04041014306D10099A40044EA50
:101410009574AD00891E009104F00041084304D189
:1014200000986D196441401E00904FF001033A4648
:101430006846B8F1000FCDE9014503A902DD00F0CF
:101440006EFF01E000F041FFBAF1000F04460D46C7
:1014500001D084F00044002108464FF000000999B3
:1014600040F2FF77484010F00C0F07D124F0004005
:10147000284303D0C4F30A50B84212D1FFF77AFDD3
:10148000C0F80090C4F30A50B8420AD1A848784482
:10149000D0E90010C6E9001004F000410843706074
:1014A00042E7C6E900543FE72DE9FF4F1F464FF0E2
:1014B000000A4FF0FF38454691B0D7E90146CDF814
:1014C0003CA0FFF753FDC0680168405C1090B9690B
:1014D00012986D1C8847396A814688470028F6D1E2
:1014E000B9F1FF3F0AD0002E24F4D06411DDB9F128
:1014F0002B0F08D0B9F12D0F0BD102E0404615B0EB
:1015000013E744F48064B96912986D1C8847761E0D
:101510008146600504A901D52D2000E02B20002E76
:1015200001F1010B0DF130088DF810003FDDB9F12C
:10153000690F08D0B9F1490F05D0B9F16E0F02D08B
:10154000B9F14E0F1CD13B4601A8009580E850022E
:10155000DDE912126FF002001EF0DAFAC11CCED1E2
:101560000EE0B96912986D1C884781461398761E63
:1015700044F4007405600F98401C002E0F9016DD97
:10158000B9F1300FEDD0B9F1780F02D0B9F1580FA1
:101590000DD10F9801280AD13B46CDE90054DDE971
:1015A0001212001F02961EF0B1FAC11CA7D11099A9
:1015B00089453ED144F0800406E01399681CAAF1E5
:1015C000010A44F400740860B9696D1C1298761E13
:1015D000884730288146F0D02BE01099894505D105
:1015E000200603D4761E44F0800418E048460CF030
:1015F000F0FA08B3761E0DF123018B4544F4007414
:1016000008D2A9F130000BF8010B200607D5AAF18A
:10161000010003E0200602D40AF101008246A00581
:1016200002D51399681C0860B96912986D1C884727
:101630008146002ED1DC53E0002E51DDB9F1650F5B
:1016400002D0B9F1450F4BD1A00549D5B9696D1C40
:101650001298761E24F440748847002E81460CDDD3
:101660002B2804D0B9F12D0F07D144F48074B96947
:1016700012986D1C8847761E8146E00501D52D2104
:1016800000E02B2108F8011BCDF8008021E0761E38
:101690000DF13901884544F400740CD2A9F13000F1
:1016A00010F0FF0088F8000002D10099884509D9A0
:1016B00008F1010806E0E00501D51E4801E042F20C
:1016C0000F708246B96912986D1C8847814613983D
:1016D0000560002E04DD48460CF07BFA0028D6D1C8
:1016E000F96912988847FF2053468BF8000088F864
:1016F000000000200A900B9004AA0CA90AA8FFF78A
:10170000ADFDA00502D46FF00100F8E614F0240F3F
:1017100012D0E0071CD13868DDE90A12031D3B60D6
:101720000068C0E9001213E0E0080200D2080200DD
:1017300096070200F1D8FFFF0AA968460CF0D8F915
:10174000E00705D13868009A011D39600068026021
:101750002846D4E610B50446AFF300802046BDE825
:101760001040FEF764BD002801D000F069B8704752
:1017700010B5012805D0002103A000F067F8012072
:1017800010BD09A1F8E7000053494752544D454D9B
:101790003A204F7574206F662068656170206D6512
:1017A0006D6F7279000000003A2048656170206D0D
:1017B000656D6F727920636F727275707465640005
:1017C0004FF0013C50F8042B51F8043B9A4221D1D0
:1017D000A2EB0C03934313EACC1317D150F8042B5C
:1017E00051F8043B9A4215D1A2EB0C03934313EA40
:1017F000CC130BD150F8042B51F8043B9A4209D179
:10180000A2EB0C03934313EACC13DBD04FF00000A0
:10181000704700BFD01A01BAB1FA81F101F0180186
:1018200022FA01F0CB40C1F12001DBB2C0B2C01AF4
:101830002CFA01F3D11A914311EAC311E6D1704792
:1018400001491820ABBEFEE72600020070B5054630
:101850000C460A2000E06D1C00F011F835B1287824
:101860000028F8D102E0641C00F009F814B12078D7
:101870000028F8D1BDE870400A20AFF3008008B519
:1018800069468DF800000320ABBE08BD2DE9FF4F6F
:101890001F464FF03C0987B04FF00042DDE91410BD
:1018A00001F10108DDF858A002EA40500390002041
:1018B00005908346054604460490B969461E08987B
:1018C0008847AAF1010A0290BAF1000F3BDD0298A5
:1018D0002E2815D0102100F016FA00282EDB4FF02C
:1018E000010B0599014317D0B9F1000F0BDB4A46F4
:1018F000C11700F0F5F905430C43A9F1040905E00F
:10190000012004900BE008B145F00105012005908D
:10191000049820B9361D02E0049800B1361FB96959
:10192000089808F101088847BBF1000FAAF1010AE5
:101930000290C9D00999C1F80080C5E702987028C3
:1019400008D0502806D0F96908988847BBF1000FE5
:1019500014D04FE0002002900120BBF1000F049052
:1019600009D0B969089808F101088847AAF1010966
:10197000B9F1000F07DCF969089888476FF001009A
:101980000BB0BDE8F08F2B2804D02D280CD14FF0E0
:10199000FF300490B969089808F101088847A9F157
:1019A0000109B9F1000FE6DD411CE4D00A2100F085
:1019B000AAF90028DFDB029908F1010801EB810197
:1019C00000EB41000290B969089888470A2100F0AD
:1019D0009AF9099AA9F10109B9F1000FC2F800803A
:1019E00001DD0028E7DAF969089888470499029828
:1019F00000FB016655EA040004D004F040410900F0
:101A000002D006E0039898E0A40044EA9574AD0083
:101A1000B61E04F00041080002D16D196441761E23
:101A2000159810F0240F03D04FF00B095C4803E029
:101A30004FF028096FF07D008246564507DAAAEB81
:101A400006018944B9F1410F01DD4FF04109012040
:101A50000021A9F1010200F043F9024628400B469B
:101A60002140084301D0012100E00021501E0291D5
:101A700043F1FF3128402140084301D0012000E01C
:101A800000200299834651EA0B014FD000210846FD
:101A90004FF00000039900F4400039B100EB8000E2
:101AA0004FF4400100EBD07001EA6000801501287E
:101AB00002DD4FF0FF3000E013D0401C36D002981A
:101AC00060B3BBF1000F0CD14A460120002100F0A9
:101AD00007F928402140084301D0012000E0002000
:101AE000E0B101204A46002100F0FAF8034640190F
:101AF0000A4661412D1A8C4111D3B9F1400F09DD1D
:101B0000159810F0240F02D0AAF1340603E0AAF1D0
:101B1000170600E0761C00254FF0004406E05B1E2F
:101B200042F1FF3220EA030521EA0204CAF1010072
:101B3000B04206DA1B490398084301900020009048
:101B40000EE0039AC4F3D321E80A0A43164940EA97
:101B500044500A433146CDE9000268460CF02EF8A5
:101B6000159810F0240F0BD01598C00715D13868C0
:101B7000DDE90012031D3B600068C0E900120CE0C3
:101B800002A869460BF0B4FF1598C00705D1386864
:101B9000029A011D3960006802604046F0E60000CC
:101BA00002FCFFFF0000F07F0000F03F2DE9FF4F37
:101BB00092461D4685B04FF00041DDE9124BDDE94C
:101BC00014727F1E01EA4B50414940F0FF4940EA40
:101BD0000108002122F020004928049102D04E285B
:101BE00028D04CE03BA0012607C88DE80700A96972
:101BF0000698641C88477F1E014606D41DF806001F
:101C000018B121F0200181420BD0E969069888477C
:101C1000032E34D0082E32D06FF0010009B0BDE899
:101C2000F08F761C032E01D0082EE0D1601CCAF87C
:101C30000000DCE7A9690698641C88477F1E2AD447
:101C400020F02000412826D1A9690698641C884705
:101C50007F1E20D420F020004E281CD1A9690698B0
:101C6000641C88477F1E48F4002849F48009CAF89C
:101C7000004001D4282806D0E969069888475FEA21
:101C8000CB7012D022E0A9690698641C88477F1E99
:101C900001D4002803DAE96906988847BCE72928B7
:101CA000F1D1641CCAF80040E9E71BF0240F07D00B
:101CB00028680499031D2B600068C0E9001805E03E
:101CC0002868021D2A600068C0F800902046A5E739
:101CD0000000F07F494E46494E495459000000002B
:101CE000B2F120030AD5C2F1200301FA02F120FA71
:101CF00003F300FA02F041EA0301704700FA03F12E
:101D00004FF0000070473A2800D2303820F020020F
:101D1000412A01D3A2F13700884201D34FF0FF30AE
:101D200070475FEA400C08BF91F0000F4FEA8C2328
:101D30004FEAC12243EA51514FEA1C5018BF00F547
:101D4000F0404FEA300018BF41F000415FEA6C5CA0
:101D500000F02980BCF1FF3F08BF40F08040704791
:101D6000130C06BF12044FF0100C4FF0000C130EB2
:101D700004BF12020CF1080C130F04BF12010CF186
:101D8000040C930F04BF92000CF1020CD30F04BF9C
:101D900052000CF1010C11464FF00002A0F11F009F
:101DA000A0EB0C00704711F0004F08BF704731F0F6
:101DB00000413FF4D5AF0B0C06BF09044FF0100CE7
:101DC0004FF0000C0B0E04BF09020CF1080C0B0FB6
:101DD00004BF09010CF1040C8B0F04BF89000CF146
:101DE000020CCB0F04BF49000CF1010CCCF1200315
:101DF000A0EB0C0022FA03F302FA0CF241EA030111
:101E000000F10100704720F07F4C80EA030023F0CE
:101E10007F47ACEB070303F57C5300F0004003F170
:101E2000FF032DE980494FEA154B09B44FEA1443EB
:101E300025EA0B4E24EA03480FF2042606EB13278B
:101E400049083E785FEA320203FB0667C7F50007E0
:101E500007FB06F64FEA54374FEAD64606F102066C
:101E600007FB066CCCF1005C4FEA1C472CEA074CE0
:101E700007FB06F40CFB06F504EB15464FEA961635
:101E800034BF00204FF000404FEAD13706FB07FC7B
:101E90004FEA1C4C0CFB0BF7D21B03FB0CF761EB5E
:101EA00007010CFB0EF7B0EB074072EB17420CFB7F
:101EB00008F734BFA2EB0742B2EB074261EB1741D0
:101EC0004FEA0C444FEA910706FB07FC4FEA1C4C13
:101ED0000CFB0BF7B0EBC74072EB573203FB0CF770
:101EE00034BFA2EBC742B2EBC74261EB57310CFBE8
:101EF0000EF7B0EBC70072EB57720CFB08F734BF5C
:101F0000A2EBC702B2EBC70261EB5771039F4FEA26
:101F1000816141EA921104EBCC044FEAD1374FEAD8
:101F2000826206FB07FC42EA90124FEA80604FEAA9
:101F30001C4C0CFB0BF7D21B03FB0CF761EB0701EE
:101F40000CFB0EF7B0EB074072EB17420CFB08F7E7
:101F500034BFA2EB0742B2EB074261EB17414FEAF5
:101F60008C554FEA910704EB9C2406FB07FC4FEAD3
:101F70001C4C0CFB0BF7B0EBC74072EB573203FB6A
:101F80000CF734BFA2EBC742B2EBC74261EB57314B
:101F90000CFB0EF7B0EBC70072EB57720CFB08F7A7
:101FA00034BFA2EBC702B2EBC70261EB577115EB6E
:101FB0004C254FEA816141EA92114FEA82624FEA71
:101FC000D13742EA901206FB07FC44F100044FEAC5
:101FD00080604FEA1C4C0CFB0BF7D21B03FB0CF789
:101FE00061EB07010CFB0EF7B0EB074072EB1742F9
:101FF0000CFB08F734BFA2EB0742B2EB074261EBE0
:10200000174115EB1C154FEA813141EA92414FEA25
:10201000823242EA90424FEA80304FEA0C7644F135
:10202000000448EA03434EEA0B484FF0000EB2EBBF
:10203000080C71EB030724BF624639464EEB0E0EC7
:102040004FF0000B0018524149414BEB0B0BB2EB28
:10205000080C71EB03077BF1000B24BF6246394685
:102060004EEB0E0E4FF0000B0018524149414BEB66
:102070000B0BB2EB080C71EB03077BF1000B24BFD9
:10208000624639464EEB0E0E51EA020718BF46F083
:10209000010616EB0E7655F1000254F1000103D54E
:1020A000BDE88901BDE80088BDE88901BDE80048B8
:1020B000B619524141EB0101A3F101037047808041
:1020C0007F7E7D7C7B7A7978777676757473727192
:1020D00071706F6E6E6D6C6C6B6A6A69686867664A
:1020E00066656464636362616160605F5F5E5E5DDC
:1020F0005D5C5C5B5B5A5A59595858575756565550
:1021000055555454535352525251515050504F4FB1
:102110004F4E4E4D4D4D4C4C4C4B4B4B4A4A4A4901
:102120004949484848474747474646464545454444
:1021300044444443434343424242424141410000FC
:1021400046EA0646A3F570534FEA164646EA42565B
:102150004FEAD22242EA415210B54FEAD121A3F10F
:10216000010300F02FF820F0004000F1020C00F015
:10217000004701EB00501146BCF5006F40EA070034
:1021800000D210BDBAF1000F0AD01CB503B44FF055
:1021900004004FF004014FF000000FBCBDE81040F8
:1021A0004FF00001BBF1010FB9BF04484FF0FF3100
:1021B0000348002140EA070010BD00BFFFFFEF7F8A
:1021C0000000F07F002B9C4630D477002BD01CB54C
:1021D0004FEA370703B44FF010004FF01001BAF187
:1021E000000F06D0BCF1000FDCBF40F0080040F04B
:1021F00008014FF000000FBCBDE810400BF1010BCF
:10220000BBF1010F08BF5FEA170722BF12F10102FD
:1022100011F101014FF0004143F1000300F00040D3
:1022200043EA00007047F9D35708D0E746EA06466C
:1022300013F1400F4FEA16461FDD13F1200FDFBFE9
:1022400016430A46002120335B42BED0C3F120076B
:1022500046EA064602FA07F74FEA164646EA070636
:10226000C3F1200722FA03F201FA07F721FA03F17A
:102270004FF0000342EA0702A7E746EA020646EAF1
:1022800006464FEA164646EA0106BCBF46EA06463F
:10229000360C4FF000034FF000024FF0000194E7BE
:1022A0002DE9804C9A46934670B491E8380007C8EF
:1022B00031EA400C48BF34EA430C03D5FFF7A3FDD5
:1022C000FFF780FFF0BCBDE8008C2DE9804C9A46FA
:1022D000934670B491E8380007C831EA400C48BF13
:1022E00034EA430C03D5FFF78EFDFFF729FFF0BC5E
:1022F000BDE8008C2DE9804C9A46934670B491E875
:10230000380007C810F0804F08BF13F0804F03D18A
:1023100000F01AF8FFF756FFF0BCBDE8008C2DE97D
:10232000804C9A46934670B491E8380007C810F084
:10233000804F08BF13F0804F03D100F005F8FFF77E
:10234000FFFEF0BCBDE8008C20F07F4780EA030070
:1023500023F07F4C07EB0C03A3F57C5300F0004007
:10236000A3F1FE0392F0000F00F0B38095F0000F90
:1023700000F077802DE901494FEA11404FEA1446F9
:1023800021EA004800FB06FC24EA064708FB06F6A3
:1023900007FB08F800FB07F718EB06484CEB164C58
:1023A0004FEA124B18EB07484FEA15464CEB174023
:1023B00022EA0B4E0BFB06FC25EA06470EFB06F64F
:1023C00007FB0EFE0BFB07F71EEB064E4CEB164C05
:1023D0004FF000061EEB074E4CEB174B18EB0B08AB
:1023E00040F1000018EB0E0B58EB000840F1000024
:1023F0008F1A4FF000013CBFC943661B14BFB5EBF9
:10240000040C00213CBFC943F61B4FEA17444EEAB7
:102410008E0E27EA04454FEA1C4704FB07622CEAAC
:10242000074C05FB07F70CFB05F604FB0CFC16EB51
:10243000074642EB174216EB0C4642EB1C421BEBE5
:10244000060658EB0202414146EA9E0601D5BDE868
:102450000189B619524141EB0101A3F10103BDE825
:1024600001894FEA14454FEA114724EA054621EA5B
:10247000074C05FB07F406FB07F70CFB06F105FB11
:102480000CFC11EB074144EB17444FEA124711EBE8
:102490000C4144EB1C4422EA074C05FB07F206FB07
:1024A00007F70CFB06F605FB0CFC16EB074642EBA8
:1024B000174216EB0C4642EB1C456A1854F100011A
:1024C00048BF7047B619524141EB0101A3F1010326
:1024D000704795F0000F37D04FEA11424FEA14478A
:1024E00021EA024624EA074C02FB07F106FB07F744
:1024F0000CFB06F402FB0CFC14EB074441EB174108
:102500004FEA154714EB0C4441EB1C4125EA074CFC
:1025100002FB07F506FB07F70CFB06F602FB0CFCBB
:1025200016EB074645EB174516EB0C4645EB1C42F0
:10253000121951F1000148BF7047B619524141EBE1
:102540000101A3F1010370474FEA14454FEA114717
:1025500024EA054621EA074C05FB07F106FB07F7CD
:102560000CFB06F24FF0000605FB0CFC12EB0742D9
:1025700041EB174112EB0C4251EB1C4148BF704735
:10258000921841EB0101A3F10103704770B50446B5
:1025900000680168C943490620D4816821F001011F
:1025A000816006F045FA054613E006F041FA401B4B
:1025B00002280ED920680068C043400609D4E06CA8
:1025C00040F01000E064206D40F001002065012023
:1025D00070BD20680068C0434006E6D5002070BD8D
:1025E000F8B500260446009600680168C94349060C
:1025F0002ED5816841F001018160164816490068B6
:10260000B0FBF1F000EB400000E0401E009000281D
:10261000FBD106F00DFA054615E006F009FA401B5D
:10262000022810D920680068C04340060BD5E06C32
:1026300040F01000E064206D40F00100206584F857
:1026400048600120F8BD20680068C0434006E4D41B
:102650000020F8BD1000002040420F0010B50A48CD
:1026600005F06AFF6421084805F00EFF064805F0F2
:1026700011FE064CA060044805F099FF052006F005
:10268000D1F8A06810BD000048580020D85700209D
:102690002DE9F041002507462E462C460BE0FFF7BA
:1026A000DDFF1CF0DDFB2A4633461CF015F9641CE7
:1026B00005460E46E4B2BC42F1D338461CF0D0FBCE
:1026C00002460B4628463146BDE8F0411CF0C0B931
:1026D0000949094A843AC968D161002104E0D369F3
:1026E000491CC9B21B69D3618142F8D3D069017812
:1026F00041F0010101707047A05500200E490E4ABB
:10270000843AC968D16170B1052811D00A2811D066
:10271000142807D1086900690069D061017841F087
:10272000010101707047087840F00100087070479F
:102730000869F2E70869EFE7A055002010B518F026
:102740001BFE6A4A0B286ED025DC684C022804F177
:10275000080449D004286BD008287CD1907904283B
:1027600079D1D079022876D10DF0E0F814F024FD6B
:102770004079612854D014F025FD21461BF0AEFDB0
:1027800014F01AFD407961284FD014F01BFDBDE80C
:10279000104003F032BA0C2815D012287ED013282E
:1027A00059D1D0799C2856D1107A512853D10DF0A7
:1027B000BDF815F08FFB03284DD10121BDE8104075
:1027C000022011F023B99079042844D1612002F04D
:1027D00065FE18F08BFD46490020087014F0ECFCF3
:1027E000BDE8104000F0A0BA907904286FD1D079EC
:1027F0000C286CD10DF09AF814F0DEFC40796128B9
:102800000BD014F0DFFC0C2221461BF07CFD14F0F1
:10281000D3FCBDE8104000F065BA14F0CDFCF2E73F
:1028200014F0CAFCA9E728E002E014F0C5FCAEE70A
:10283000907904284BD1D079082848D10DF076F84A
:1028400014F0BAFC4079612811D014F0BBFC214689
:1028500000F054F800E03AE014F0AEFC4079612852
:1028600008D014F0AFFCBDE8104003F0BFB914F07D
:10287000A3FCECE714F0A0FCF5E79079102826D132
:10288000D0799C2823D10DF051F815F023FB512865
:1028900001D052281BD10121022000E018E011F0E4
:1028A000B5F815F01DFB8068124900690069816068
:1028B00015F016FB8068104900690069C16015F0C9
:1028C0000FFB80680069006901690420487110BD30
:1028D000D0799C28FBD1107A5728F8D10DF026F832
:1028E00015F0F8FA35283FF468AF10BD44560020C3
:1028F00028550020D3090208D70902082DE9FF5FF7
:10290000040079D0487884F87000087884F8710061
:10291000C87884F87200887884F87300487984F85D
:102920006800087984F86900C87984F86A008879B1
:1029300084F86B00207804F137010291DFF84092AF
:10294000DFF840A2DFF840B204F12A018F4E4207BF
:10295000039165D520F004002070206F6061484528
:1029600038DB1CF0F7FC002233461CF071F8002223
:10297000874B1CF089FA206F07D21CF0EBFC002279
:1029800033461CF065F883A22FE01CF0E3FC002224
:1029900033461CF05DF80022804B1CF075FA0CD217
:1029A000206F1CF0D7FC002233461CF051F81CF0BD
:1029B00013FA03467AA2042124E0206F1CF0CAFC1B
:1029C000002233461CF044F8002233461CF05CFA27
:1029D0001BD2E5E7504503DA1CF0BCFC71A204E011
:1029E00058450ADA1CF0B6FC70A2CDE900010521B9
:1029F0000298FDF781FD08E0BFE01CF023FE0346CE
:102A00006CA205210298FDF777FDA06E1CF0A2FCD8
:102A1000CDE9000168A206210398FDF76DFDA8E04D
:102A2000216FA0681CF0C2FCA060A16E20691CF0A0
:102A3000BDFC2061204601F0E9FE206F6061E07975
:102A4000401CC0B2E0710328E9D31CF033FE0546F8
:102A5000294620691CF018FD00902946A0681CF04A
:102A600013FD05461BF0F0F8DFF85481002720B372
:102A70001BF098F9022820D398F80020404604F172
:102A8000A80104F19008019132B1077040460CF0A2
:102A900095FF01980CF092FF294640460CF0C1FFCB
:102AA000DDE900100CF0BDFF01980CF09DFF0090D7
:102AB00040460CF099FF054602E0012188F800101D
:102AC000204602F03EFF002850D100981CF042FC46
:102AD000CDE9000138A206210398FDF70DFD4D4513
:102AE00028DB28461CF036FC002233461BF0B0FFE2
:102AF000884605460022264B1CF0C6F904D2CDE9D3
:102B0000005824A2052125E0284641460022234BF7
:102B10001CF0BAF906D333462846414600221CF081
:102B2000B3F923D2284641461CF056F903461CA2AD
:102B3000042118E0554504DA28461CF00BFC19A2C4
:102B400005E05D45284609DA1CF004FC17A2CDE932
:102B5000000105210298FDF7CFFC07E01CF072FD93
:102B6000034614A205210298FDF7C6FCE771A76091
:102B70002761BDE8FF5F18F069BEBDE8FF9F000058
:102B800000401C46000020410000C84200408F4029
:102B90000000244025332E3166000000000059401B
:102BA0002533640025332E326600000025342E3193
:102BB000660000002534640025352E3266000000D2
:102BC000105800201CB50C46002832D0684609F089
:102BD00007FCDDE900010CF089FF164A612102F8CB
:102BE000451F102151709C2191706821D1700021E6
:102BF00011710421517108219171010AD171107272
:102C0000010E5172000C9072200AD0721473200EC3
:102C10005073200C90730748112102F8421C453074
:102C200009F000FE18F00AFEBDE81C400B2018F069
:102C300031BE1CBD445600201CB50C46002832D0C5
:102C4000684609F0CDFBDDE900010CF04FFF164AA4
:102C5000612102F8451F102151709C2191706C2157
:102C6000D170002111710421517108219171010A63
:102C7000D1711072010E5172000C9072200AD07244
:102C80001473200E5073200C90730748112102F822
:102C9000421C453009F0C6FD18F0D0FDBDE81C40CF
:102CA0000B2018F0F7BD1CBD445600200C4810B591
:102CB000612100F8451F042141707522827069224C
:102CC000C270002202714171082100F8421C0448C0
:102CD000453009F0A7FDBDE810400C2018F0DABD22
:102CE0004456002010B500281BD00E48612100F882
:102CF000451F04214170752181704521C17000215B
:102D0000017101214171082100F8421C054845303C
:102D100009F088FD18F092FDBDE81040082018F079
:102D2000B9BD10BD4456002010B500281BD00E4878
:102D3000612100F8451F0421417075218170302107
:102D4000C1700021017106214171082100F8421C67
:102D50000548453009F066FD18F070FDBDE81040EB
:102D6000022018F097BD10BD4456002010B5002871
:102D700018D00D486121752200F8451F04214170CB
:102D800082706922C270002202714171082100F82C
:102D9000421C0548453009F045FDBDE810400420BF
:102DA00018F078BD10BD00004456002010B5002872
:102DB00027D0144A40F8681F612102F8451F1021EE
:102DC00051709C2191705721D17000211171022105
:102DD0005171042191714178D17101781172C178DA
:102DE00051728078907207480D2102F8421C4530DC
:102DF00009F018FD18F022FDBDE81040122018F06F
:102E000049BD10BD4456002010B50446F32000F023
:102E100037F8204000D0012010BD000010B5F92087
:102E200000F02EF80A4C2070F82000F029F86070AD
:102E3000F72000F025F8A0706178000340EA011047
:102E40002178BDE8104040EA11100BF075B9000080
:102E50001856002070B5FC2000F012F80446FB2044
:102E600000F00EF80546FA2000F00AF8000340EAE8
:102E7000051040EA1410BDE870400BF053BA000092
:102E800070B50B4D06464FF480740022214628464B
:102E900005F0C9FD30460BF023F90BF01DF906468D
:102EA00001222146284605F0BEFD304670BD0000D7
:102EB00000040240017842784901807841EA8201A9
:102EC0000143C9B2F52000F00BB8417802784901FE
:102ED000807841EA82010143C9B2F420AFF3008057
:102EE0002DE9F0410B4D0F4606464FF48074002249
:102EF0002146284605F097FD30460BF0F1F838469C
:102F00000BF0EEF821462846BDE8F041012205F01D
:102F10008ABD0000000402400949094AC968843A90
:102F20000029D16104D020B1087840F00100087078
:102F300070470869D061017841F001010170704764
:102F4000A0550020FEE700002DE9F04118F014FA2A
:102F5000B449B54CB54D042601F108070C2814D02E
:102F60000ADCA0F102000A2871D2DFE800F03D700F
:102F7000E2707070577071F31238072867D2DFE87B
:102F800000F0EBEA66661A87B600887903285ED1FE
:102F90004A2002F083FA18F0A9F914F00DF94079EB
:102FA0004A2805D014F00EF9394600F0FFFBBAE0CC
:102FB00014F002F9F8E78879032848D10CF0B6FC40
:102FC00014F0FAF840794A280BD014F0FBF839468F
:102FD00000F030F914F0F0F8BDE8F0414A2100F0BB
:102FE00089BE14F0E9F8F2E7887903282FD10CF0B4
:102FF0009DFC14F0E1F840794A280CD014F0E2F876
:103000000122394600F052FB14F0D6F8BDE8F04139
:103010004A2100F053BE14F0CFF8F1E78879032875
:1030200015D10CF083FC14F0C7F840794A280BD076
:1030300014F0C8F8002100F013FB14F0BDF8BDE84F
:10304000F0414A2100F0AEBE14F0B6F8F2E780E09D
:10305000887903287DD10CF069FC14F0ADF8407933
:103060004A280FD014F0AEF8394600F045FB14F0B2
:10307000A3F840794A2808D014F0A4F8BDE8F0413C
:1030800002F0BBBD14F098F8EEE714F095F8F5E700
:10309000887906285DD10CF049FC14F01BFF2B2821
:1030A00015D16349012008700146022010F0AEFCE2
:1030B00014F016FF80680069846014F011FF8068C6
:1030C0000069C56014F00CFF80680069467114F057
:1030D00073F840794A2807D014F074F8BDE8F0413D
:1030E0005049093100F0E0B814F066F8F6E7887945
:1030F000062873D10CF01AFC14F0ECFE2C2812D127
:103100000121022010F082FC14F0EAFE80680069C0
:10311000846014F0E5FE80680069C56014F0E0FE8C
:1031200080680069467114F047F8BDE8F04100F08E
:10313000D5B88879032851D10CF0F8FB14F03CF88D
:1031400040794A2814D014F03DF8394600F02EFB9F
:1031500003E043E012E055E042E014F02DF840793E
:103160004A2808D014F02EF8BDE8F04102F03EBD28
:1031700014F022F8E9E714F01FF8F5E7887906283B
:1031800001D010282AD10CF0D1FB14F0A3FE462860
:1031900011D008DC03280ED036280CD038280AD0ED
:1031A00045281BD107E0472805D0482803D04A28E6
:1031B00001D04B2812D10121022010F027FC14F07D
:1031C0008FFE80680069846014F08AFE8068006960
:1031D000C56014F085FE806800694671BDE8F08125
:1031E00088790628FAD10CF0A1FB14F073FE35287B
:1031F00011D014F06FFE4C280DD014F06BFE49284E
:1032000009D0EBE788790628E8D10CF08FFB14F0A1
:1032100061FE0328E2D1BDE8F0410121022010F057
:10322000F5BB000044560020D3090208D709020864
:103230001C57002010B504000FD049B1487884F81D
:10324000B400087884F8B500B4F8B40030B106E0F2
:10325000012024F8B40F0A20608010BD0220A4F8D9
:10326000B400C87884F8B60088780D4984F8B700AF
:103270000020088094F8B600B4341BF01DF834F830
:10328000B409012801D114F08DFBB4F8B63004F173
:10329000B800BDE8104003A20421FDF72DB90000DD
:1032A000025700202533640000280DD049B14A7828
:1032B00080F8B420097880F8B510B0F8B41021B1C6
:1032C00004E00121A0F8B41070470221A0F8B41066
:1032D00001490020088070470257002010B50028DF
:1032E0001BD00E484A2100F8451F032141700521DB
:1032F00081701D21C17000210171022141710821DD
:1033000000F8421C0548453009F08CFA18F096FA8E
:10331000BDE81040162018F0BDBA10BD445600207C
:1033200010B5002824D013484A2200F8452F102257
:103330004270052282704422C27000220271022271
:103340004271042282710A0AC27101720A0E42722B
:10335000090C81720D2100F8421C0648453009F025
:1033600061FA18F06BFABDE810400B2018F092BA21
:1033700010BD00004456002010B5002824D013488A
:103380004A2200F8452F1022427005228270342212
:10339000C2700022027102224271042282710A0A62
:1033A000C27101720A0E4272090C81720D2100F87D
:1033B000421C0648453009F035FA18F03FFABDE8DE
:1033C00010400B2018F066BA10BD000044560020D3
:1033D00010B500281AD00E484A2200F8452F0622C0
:1033E0004270052282701D22C2700A0A0271417168
:1033F000082100F8421C0648453009F013FA18F07D
:103400001DFABDE81040172018F044BA10BD0000A6
:103410004456002010B500281AD00E484A2200F861
:10342000452F06224270052282701E22C2700A0AAF
:1034300002714171082100F8421C0648453009F02C
:10344000F1F918F0FBF9BDE81040182018F022BA85
:1034500010BD00004456002070B517F08DFF7D4C64
:103460000B2804F108057DD021DC022850D0042867
:1034700079D0082866D00A2876D1A079032873D19C
:103480000CF054FA13F098FE40790A2878D013F023
:1034900099FE294600F030F913F08EFE40790A2893
:1034A00073D013F08FFEBDE8704002F0A6BB0C286D
:1034B00012D0122868D0132856D1A079062853D1EB
:1034C0000CF034FA14F006FD03284DD1BDE870402D
:1034D0000121022010F09ABAA079032844D10A20D1
:1034E00001F0DCFF17F002FF13F066FE40790A28B6
:1034F0000BD013F067FE294600F058F913F05CFE7C
:10350000BDE870400A2100F0F5BB13F055FEF2E76C
:10351000A079032828D10CF009FA13F04DFE407968
:103520000A280CD013F04EFE0022294600F0BEF807
:1035300013F042FEBDE870400A2100F0BFBB13F05B
:103540003BFEF1E7A07903286FD10CF0EFF913F0FF
:1035500033FE40790A2810D013F034FE002100F029
:103560007FF803E034E013E05FE009E013F024FEAD
:10357000BDE870400A2100F015BC13F01DFEEDE718
:1035800013F01AFE85E700E050E013F015FE8AE71D
:10359000A079032849D10CF0C9F913F00DFE407948
:1035A0000A280FD013F00EFE294600F0FFF813F0A2
:1035B00003FE40790A2808D013F004FEBDE87040ED
:1035C00002F014BB13F0F8FDEEE713F0F5FDF5E79C
:1035D000A079062829D10CF0A9F914F07BFC452824
:1035E0000DD006DC03280AD0362808D038281CD194
:1035F00005E0462803D0472801D0482815D10121ED
:10360000022010F003FA14F06BFC80681249006984
:10361000816014F065FC806810490069C16014F095
:103620005FFC806804210069417170BDA0790628A3
:10363000FBD10CF07BF914F04DFC35283FF446AF7C
:1036400014F048FC4C28F9D014F044FC4928F5D07B
:1036500070BD000044560020D3090208D7090208B3
:1036600010B5002815D000222E2499B10B783033E4
:103670008377C4774B78303380F8203080F821206E
:103680008B78303300F81A3F4470C978303181703C
:10369000C27010BD31238377C477302180F82010A9
:1036A00080F8212000F81A3F4470F0E72DE9F0433C
:1036B00000281DD04C2400F8554F4FF0480C4FF017
:1036C0002D08442380F801C0432180F80280312571
:1036D000C3705F2601714F274FF0200945714AB131
:1036E00037228271C67101724772837280F80B9023
:1036F000BDE8F0833822F4E7002805D029B14A78E4
:1037000000F8662F0978417070473221A0F86610E2
:103710007047000010B500281FD001EB81004FF664
:10372000FF7101EA40010D4800F8452F0622427062
:10373000052282708622C2700A0A02714171082134
:1037400000F8421C0548453009F06CF818F076F88E
:10375000BDE810400B2018F09DB810BD4456002065
:1037600010B500281FD001EB81004FF6FF7101EA70
:1037700040010D4800F8452F062242700522827054
:103780008522C2700A0A02714171082100F8421CA8
:103790000548453009F046F818F050F8BDE81040EB
:1037A0000B2018F077B810BD445600202DE9F04FDB
:1037B0008BB00D464FF00001040000917ED0697877
:1037C00061F30700297861F30F20E97880B261F393
:1037D0000707A97861F30F27697961F3070629794B
:1037E00061F30F261BF066FFDFF8A08341461BF054
:1037F0004BFEE066B8B21BF05DFF41461BF044FE95
:10380000206730B207461BF03DFFE1491BF03CFE4C
:10381000A06638461BF00DFB0022DE4B1BF018F9AA
:103820001BF028F8A067E87B60F30706A87B60F32D
:103830000F2630B21BF026FFC4F884001AF0E2FA1B
:10384000A8B1A06E1BF086FDD34AD44B1BF058FBE9
:103850000022D34B1BF040F81BF00CF8D149A066B6
:10386000884203DC4FF08441884200DAA1661AF0F6
:10387000CDF9002500B9E566207804F12A0B42074E
:1038800004F1300A04F1370904F14E0831D520F073
:1038900004002070206F6061A06E1BF05BFDCDE91D
:1038A0000001C1A206215846FCF726FEE06E1BF07F
:1038B00051FDCDE90001BEA2072100E016E050460F
:1038C000FCF71AFE206F1BF045FDCDE90001B8A200
:1038D00007214846FCF710FEA06F1BF03BFDCDE929
:1038E0000001B3A207214046FCF706FE0BB0BDE87D
:1038F000F08F216FA0681BF059FDA060E16EE068B9
:103900001BF054FDE060A16E20691BF04FFD2061AB
:10391000A16F00981BF04AFD0090204600F076FF52
:10392000206F6061617904F19C0007900C30099070
:103930001838A14E03904A297ED1E079401CC0B2CC
:10394000E071032805D213F043FCB0F8B40002285C
:10395000F2D1E0791BF0AEFE0746394620691BF034
:1039600093FD08903946E0681BF08EFD06903946BD
:10397000A0681BF089FD0290394600981BF084FD79
:1039800004901AF055F980B31AF000FA02282DD3EA
:10399000307848B1357003980CF010F807980CF0A7
:1039A0000DF809980CF00AF8DDE902100CF039F86E
:1039B000DDE906100CF035F8DDE908100CF031F8FF
:1039C000DDE903010CF02DF809980CF00DF80890D2
:1039D00003980CF009F8029007980CF005F806908F
:1039E00003980CF001F8049002E0FFE7012030702A
:1039F000B4F8B40001280AD013F0E0FD07461AF02D
:103A00000DFA401D874202D36C4805702DE0204618
:103A100001F097FF48BB08981BF09CFCCDE9000122
:103A200061A206215846FCF767FD06981BF092FC40
:103A30005FA2CDE9000100E01DE007215046FCF740
:103A40005BFD02981BF086FCCDE9000158A207211E
:103A50004846FCF751FD04981BF07CFCCDE90001C1
:103A600053A207214046FCF747FDE571A560E560DC
:103A700000202561009060790A287FF437AFE07953
:103A8000401CC0B2E0710328FFF430AF1BF012FEFF
:103A90000746394620691BF0F7FC08903946E06874
:103AA0001BF0F2FC06903946A0681BF0EDFC02907A
:103AB000394600981BF0E8FC07461AF0B9F880B3C5
:103AC0001AF064F902282DD3307848B13570039884
:103AD0000BF074FF07980BF071FF09980BF06EFF65
:103AE000DDE902100BF09DFFDDE906100BF099FFF8
:103AF000DDE908100BF095FF394603980BF091FFB4
:103B000009980BF071FF089003980BF06DFF02907D
:103B100007980BF069FF069003980BF065FF0746C6
:103B200002E0FFE701203070204601F00AFF38BBB9
:103B300008981BF00FFCCDE900011BA20621584696
:103B4000FCF7DAFC06981BF005FCCDE9000118A291
:103B500007215046FCF7D0FC02981BF0FBFBCDE997
:103B6000000113A207214846FCF7C6FC38461BF0AB
:103B7000F1FBCDE900010EA207214046FCF7BCFC99
:103B8000E571A560E5602561B0E600000000204118
:103B90000000C84200002440CDCCCCCCCCCCFC3FB3
:103BA0000000404000000C4325352E316600000027
:103BB00025362E3166000000105800201C570020CA
:103BC00010B5002819D00D4800F8452F0622427084
:103BD000052282701422C2700A0A02714171082102
:103BE00000F8421C0548453008F01CFE17F026FE80
:103BF000BDE81040122017F04DBE10BD4456002005
:103C000010B500281AD00E4800F8451F0621417053
:103C1000052181701521C170002101717921417147
:103C2000082100F8421C0648453008F0FBFD17F05B
:103C300005FEBDE81040132017F02CBE10BD00009B
:103C40004456002010B5002819D00D4800F8452F23
:103C500006224270052282701022C2700A0A027186
:103C60004171082100F8421C0548453008F0DAFD92
:103C700017F0E4FDBDE81040122017F00BBE10BD98
:103C80004456002070B50C4C0825294604F8450F11
:103C9000032060700520A0700020E07020710648AD
:103CA000657104F8425D453008F0BCFD2570BDE843
:103CB00070400C2017F0EEBD445600200C4810B5A3
:103CC00000F8451F03214170052181700021C1705A
:103CD00001710821417100F8421C0548453008F087
:103CE000A1FD17F0ABFDBDE81040082017F0D2BDD4
:103CF0004456002070B5002833D000230324052546
:103D0000184808224A2902D00A2910D01CE04A216A
:103D100080F8451080F8464080F84750C02180F870
:103D2000481080F84930102180F84A100CE00A2130
:103D300080F8451080F8464080F8475080F84830B9
:103D400080F8493080F84A20C27006481146453054
:103D500008F068FD17F072FDBDE87040022017F012
:103D600099BD70BD4456002010B5002816D00C48EF
:103D700000F8451F03214170052181700021C170A9
:103D800001710821417100F8421C0548453008F0D6
:103D900049FDBDE81040042017F07CBD10BD0000B7
:103DA000445600200D4810B500F8451F032141700E
:103DB000052181701021C170002101710121417123
:103DC000082100F8421C0548453008F02BFD17F08B
:103DD00035FDBDE810400A2017F05CBD44560020B8
:103DE00010B5002819D00D4800F8452F0622427062
:103DF000052282700722C2700A0A027141710821ED
:103E000000F8421C0548453008F00CFD17F016FD7F
:103E1000BDE81040122017F03DBD10BD44560020F3
:103E200010B500281FD001EB81004FF6FF7101EAA9
:103E300040010D4800F8452F06224270052282708D
:103E40008822C2700A0A02714171082100F8421CDE
:103E50000548453008F0E6FC17F0F0FCBDE81040DE
:103E60000B2017F017BD10BD4456002010B50028D8
:103E70001FD001EB81004FF6FF7101EA40010D48B0
:103E800000F8452F06224270052282708722C270F8
:103E90000A0A02714171082100F8421C05484530A8
:103EA00008F0C0FC17F0CAFCBDE810400B2017F06A
:103EB000F1BC10BD4456002070B517F05DFA744C8B
:103EC0000B2804F108056FD01FDC022850D004280D
:103ED00073D008286AD1A079042867D10BF026FD99
:103EE00013F06AF940795F2861D013F06BF9294625
:103EF0001AF0F4F913F060F940795F285AD013F002
:103F000061F9BDE8704001F078BE0C2815D0122888
:103F100073D013284AD1E0799C2847D1207A5128C0
:103F200044D10BF003FD13F0D5FF03283ED1BDE8CB
:103F30007040012102200FF069BDA079042835D11D
:103F40005F2001F0ABFA17F0D1F913F035F94079A1
:103F50005F280AD013F036F9294600F013F913F060
:103F60002BF9BDE8704000F0FFBA13F025F9F3E734
:103F7000A079042877D1E0790C2874D10BF0D6FC15
:103F800013F01AF940795F280BD013F01BF90C22BB
:103F900029461AF0B8F913F00FF9BDE8704000F0A7
:103FA000C1BA13F009F9F2E72BE006E05BE013F089
:103FB00003F99CE713F000F9A3E7A079042852D194
:103FC000E0791C284FD10BF0B1FC13F0F5F84079E3
:103FD0005F280FD013F0F6F8294600F0D3F813F05D
:103FE000EBF840795F2809D013F0ECF8BDE8704099
:103FF00001F0FCBD13F0E0F8EEE735E013F0DCF87B
:10400000F4E7A07910282ED1E0799C282BD10BF071
:104010008DFC13F05FFF41280FD008DC03280CD083
:1040200036280AD0382808D040281CD105E042287C
:1040300003D0432801D0442815D1012102200FF0DC
:10404000E5FC13F04DFF806812490069816013F0B0
:1040500047FF806810490069C16013F041FF806824
:1040600004210069417170BDE0799C28FBD10BF0FF
:104070005DFC13F02FFF35283FF459AF13F02AFFF2
:104080004C28F9D013F026FF3F28F5D070BD000072
:1040900044560020D3090208D70902081CB50C4673
:1040A000002832D0684608F09BF9DDE900010BF0EA
:1040B0001DFD164A5F2102F8451F102151709C21F9
:1040C00091706621D1700021117104215171082174
:1040D0009171010AD1711072010E5172000C90722F
:1040E000200AD0721473200E5073200C907307486E
:1040F000112102F8421C453008F094FB17F09EFB9A
:10410000BDE81C400B2017F0C5BB1CBD4456002069
:104110001CB50C46002832D0684608F061F9DDE98C
:1041200000010BF0E3FC164A5F2102F8451F102145
:1041300051709C2191706A21D1700021117104216C
:10414000517108219171010AD1711072010E5172E1
:10415000000C9072200AD0721473200E5073200C41
:1041600090730748112102F8421C453008F05AFBB1
:1041700017F064FBBDE81C400B2017F08BBB1CBD87
:10418000445600202DE9FE4F04007DD0487884F885
:104190007000087884F87100C87884F87200887814
:1041A00084F87300487904F8680F08796070C8795A
:1041B000A0708879E070487A2071087A6071C87AB6
:1041C000A071887AE071487B2073087B6073C87B9C
:1041D000A073887BE073487C2074087C6074C87C82
:1041E000A074887CE074487D2075087D6075C87D6A
:1041F000A075887DE075487E2076087E6076C87E52
:10420000A076887EE076683C19F0FCFDA8B1A06E2F
:104210001BF0A0F86B4A6C4B1AF072FE00226B4B3D
:104220001AF05AFB1AF026FB6949A066884203DCA3
:104230004FF08441884200DAA166207804F12A0711
:10424000410704F1300604F1370526D520F00400BB
:104250002070206F6061A06E1BF07CF8CDE900013A
:104260005CA206213846FCF747F9E06E1BF072F8B5
:10427000CDE9000159A207213046FCF73DF9206F36
:104280001BF068F855A200E005E0CDE90001072128
:104290002846FCF731F9BDE8FE8F216FA0681BF0BE
:1042A00085F8A060E16EE0681BF080F8E060A16E28
:1042B00020691BF07BF82061204600F0A7FA206FF0
:1042C0006061E079401CC0B2E0710328E3D31BF0C9
:1042D000F1F98046414620691BF0D6F8029041462C
:1042E000E0681BF0D1F883464146A0681BF0CCF88B
:1042F000824619F09DFCDFF8EC904FF0000890B377
:1043000019F044FD02282FD399F8001004F19C0005
:1043100001904A460C3804F1A809009051B182F886
:10432000008000980BF04AFB01980BF047FB4846D1
:104330000BF044FB514600980BF073FB5946019873
:104340000BF06FFB484602990BF06BFB48460BF0F5
:104350004BFB029000980BF047FB824601980BF054
:1043600043FB834603E0FFE7012189F80010204664
:1043700001F0E7FAE8B902981AF0ECFFCDE9000184
:1043800014A206213846FCF7B7F858461AF0E2FFA7
:10439000CDE9000111A207213046FCF7ADF85046E7
:1043A0001AF0D8FFCDE900010CA207212846FCF73E
:1043B000A3F884F80780C4F80880C4F80C80C4F817
:1043C000108068E7CDCCCCCCCCCCFC3F000040408A
:1043D00000000C4325352E326600000025362E32B3
:1043E000660000001058002010B500281BD00E48B1
:1043F0005F2100F8451F062141709C2181705321E7
:10440000C1700021017101214171082100F8421C95
:104410000548453008F006FA17F010FABDE81040DC
:10442000122017F037BA10BD4456002010B50028EE
:104430001BD00E485F2100F8451F062141709C21CA
:1044400081705121C1700021017101214171082148
:1044500000F8421C0548453008F0E4F917F0EEF981
:10446000BDE81040132017F015BA10BD44560020C7
:104470001CB50C46002832D0684607F0B1FFDDE9D4
:1044800000010BF033FB164A5F2102F8451F102193
:1044900051709C2191706E21D17000211171042105
:1044A000517108219171010AD1711072010E51727E
:1044B000000C9072200AD0721473200E5073200CDE
:1044C00090730748112102F8421C453008F0AAF900
:1044D00017F0B4F9BDE81C400B2017F0DBB91CBD88
:1044E0004456002070B50E4C5F20082504F8450F97
:1044F000042060707520A0706920E0700020207199
:1045000006206071064804F8425C2946453008F0F0
:1045100089F904F8425CBDE870400C2017F0BAB984
:104520004456002010B500281BD00E485F2100F82B
:10453000451F04214170752181704421C170002103
:10454000017102214171082100F8421C05484530E3
:1045500008F068F917F072F9BDE81040082017F06C
:1045600099B910BD4456002010B500281BD00E4844
:104570005F2100F8451F04214170752181703021B1
:10458000C1700021017106214171082100F8421C0F
:104590000548453008F046F917F050F9BDE81040DD
:1045A000022017F077B910BD4456002010B500283E
:1045B00019D00D485F2100F8451F04214170752175
:1045C00081706921C170002101710E2141710821A2
:1045D00000F8421C0448453008F024F9BDE81040BA
:1045E000042017F057B910BD445600201CB50C46E6
:1045F000002832D0684607F0F3FEDDE900010BF039
:1046000075FA164A5F2102F8451F102151709C214E
:1046100091707221D1700021117104215171082112
:104620009171010AD1711072010E5172000C9072D9
:10463000200AD0721473200E5073200C9073074818
:10464000112102F8421C453008F0ECF817F0F6F89A
:10465000BDE81C400B2017F01DB91CBD44560020BE
:104660001CB50C46002832D0684607F0B9FEDDE9DB
:1046700000010BF03BFA164A5F2102F8451F10219A
:1046800051709C2191706021D17000211171042121
:10469000517108219171010AD1711072010E51728C
:1046A000000C9072200AD0721473200E5073200CEC
:1046B00090730748112102F8421C453008F0B2F807
:1046C00017F0BCF8BDE81C40122017F0E3B81CBD81
:1046D000445600201CB50C46002832D0684607F02E
:1046E0007FFEDDE900010BF001FA164A5F2102F8B6
:1046F000451F102151709C2191707621D1700021AD
:1047000011710421517108219171010AD171107246
:10471000010E5172000C9072200AD0721473200E98
:104720005073200C90730748112102F8421C453049
:1047300008F078F817F082F8BDE81C400B2017F05D
:10474000A9B81CBD445600201CB500282BD06846D3
:1047500007F046FEDDE900010BF0C8F9124A5F21BF
:1047600002F8451F102151709C2191706421D17075
:10477000002111710221517104219171010AD1713D
:104780001072010E5172000C907207480D2102F850
:10479000421C453008F046F817F050F8BDE81C40C0
:1047A000122017F077B81CBD4456002030B50346E0
:1047B0004FF6FF704AF201040CE013F8012B504051
:1047C0000022C50702D084EA500000E04008521CD5
:1047D000082AF6D3491E89B2EFD230BD30B505465E
:1047E0000C46881E81B22846FFF7E0FF2919C3B2A4
:1047F00011F8022C9A4206D111F8011CB1EB102FCE
:1048000001D1012030BD002030BD00002DE9F0476E
:10481000002504462F4613F05DFBDFF8CC923628C6
:1048200074D013F057FB372870D013F053FB3C289B
:104830006CD013F04FFB3D2868D013F04BFB3E28A3
:1048400064D013F047FB4D2860D013F043FB4E2893
:104850005CD013F03FFB4F2858D013F03BFB54289B
:1048600054D013F037FB502850D013F033FB3A28C4
:104870004CD013F02FFB3B2848D013F02BFB4528DE
:1048800044D013F027FB4A2840D013F023FB4628DE
:104890003CD013F01FFB472838D013F01BFB4B28EC
:1048A00034D013F017FB482830D013F013FB3F2807
:1048B0002CD013F00FFB402828D013F00BFB41281D
:1048C00024D013F007FB422820D013F003FB432829
:1048D0001CD013F0FFFA442818D013F0FBFA51282B
:1048E00014D013F0F7FA522810D013F0F3FA53282B
:1048F0000CD016F03BFD7D4E0C2825D2DFE800F0F1
:10490000161D3E454C535A616870777E0AF05EFE74
:104910004946D9F8040001F014F8002804D048688A
:10492000017821F008010170BDE8F08719F042F824
:1049300056F8205019F086F805E019F065F856F899
:10494000205019F0A9F807464FF00008012FEBD1CD
:104950006169206F1AF0FEFF1AF0FCFC0022064687
:104960000F4613461AF0CAFB414658D82171A07869
:10497000A8B36078401C6070A17059E019F03EF84F
:1049800056F8205019F082F8DDE719F025F856F8AE
:10499000205019F069F8D6E719F012F856F82050AF
:1049A00019F056F8CFE719F023F856F8205019F00F
:1049B00067F8C8E719F016F856F8205019F05AF8B9
:1049C000C1E719F003F856F8205019F047F8BAE794
:1049D00018F0DEFF56F8205019F022F8B3E714E083
:1049E00018F0E2FF56F8205019F026F8ABE718F05F
:1049F000C9FF56F8205019F00DF8A4E718F0CEFFC3
:104A000056F8205019F012F89DE7E078401CC0B22B
:104A1000E0700328B0D36170E1702171ACE7E17000
:104A2000A078012816D06078401C60700120A0702A
:104A300028461AF08FFC02460B46304627F000410C
:104A40001AF05CFB10D884F8018084F8038084F8A5
:104A5000048069E72079401CC0B220710328E5D3A7
:104A60006170E1702171E1E760780328F1D384F887
:104A7000018019F025F988B3207800072ED4D9F8E1
:104A8000040061794D464079884204D116F06EFCED
:104A900014F0EEFE1EE0144E083606F108077068AA
:104AA00042798A420AD168603078287016F05EFC3C
:104AB00014F0DEFE7868686038780AE0786868602C
:104AC0003878287016F052FC14F0D2FE70686860D6
:104AD00030782870012108460EF098FF207840F0C9
:104AE0000800207020E7000014580020541B020822
:104AF00070B516F041FC7F4C801E04F108051228A9
:104B00006FD2DFE800F01AD672D691D636D6D6AC80
:104B100009D651D6D6D6D7E5A079042861D1602030
:104B200000F0BCFC16F0E2FB73490020087012F0A4
:104B300043FBBDE8704000F027BBA079042850D1AA
:104B4000E0790C284DD10AF0F1FE12F035FB4079E6
:104B500060280BD012F036FB0C22294619F0D3FB4B
:104B600012F02AFBBDE8704000F0ECBA12F024FB12
:104B7000F2E7A079042834D1E079022831D10AF093
:104B8000D5FE12F019FB407960280AD012F01AFB0A
:104B9000294619F0A3FB12F00FFBBDE8704000F0AE
:104BA00093BA12F009FBF3E7A079032819D10AF0B0
:104BB000BDFE12F001FB407960280FD012F002FB1D
:104BC000294600F09FF812F0F7FA4079602809D0E2
:104BD00012F0F8FABDE8704001F00FB812F0ECFAEC
:104BE000EEE766E012F0E8FAF4E7A079042860D175
:104BF000E07908285DD10AF099FE12F0DDFA4079DB
:104C0000602805D012F0DEFA294600F083F81DE096
:104C100012F0D2FAF8E712F0CFFA01E012F0D2FA6D
:104C2000BDE8704000F0E2BFA079042841D1E079EE
:104C300004283ED10AF07AFE12F0BEFA40796028CC
:104C40000AD012F0BFFA294600F0ACF912F0B4FA1B
:104C500040796028E2D1DEE712F0AEFAF3E7A079FE
:104C6000102826D1E0799C2823D10AF05FFE13F0AA
:104C700031F9502801D054281BD1012102200EF017
:104C8000C5FE13F02DF980681C49006900690069B0
:104C9000816013F025F9806819490069006900698D
:104CA000C16013F01DF98068042100690069006982
:104CB000417170BDE0799C28FBD10AF037FE13F0FA
:104CC00009F9352810D013F005F928280CD070BD4B
:104CD000E0799C28FBD1207A5128F8D10AF026FEF1
:104CE00013F0F8F80328F2D1BDE87040012102204A
:104CF0000EF08CBE4456002028550020D30902082F
:104D0000D7090208002804D04A7800F8662F0978ED
:104D1000417070472DE9F04F85B004006DD04878A0
:104D200084F87000087884F87100C87884F87200FC
:104D3000887884F87300487984F86800087984F8E2
:104D40006900C87984F86A00887984F86B000026C5
:104D5000E66619F057F8A8B1A06E1AF0FBFA844A7B
:104D6000844B1AF0CDF80022834B19F0B5FD19F0F1
:104D700081FD8249A066884203DC4FF0844188426D
:104D800000DAA1662078DFF8F8A104F137014207C4
:104D900004F12A0804F13007CAF1000B04913FD551
:104DA00020F004002070206F6061A06E1AF0D2FA2B
:104DB000CDE9000173A206214046FBF79DFBE06EA2
:104DC0001AF0C8FACDE900016EA207213846FBF7B8
:104DD00093FB206F10F1FF4F01D2504504DB00EB35
:104DE0000B01B1F1D47F0BD21AF0B4FACDE9000176
:104DF00066A207210498FBF77FFB05B0BDE8F08FA2
:104E00006449421864498A42F7D21AF01BFC0346EF
:104E1000049805B061A2BDE8F04F0721FBF76CBB19
:104E2000216FA0681AF0C2FAA060E16EE0681AF083
:104E3000BDFAE060A16E20691AF0B8FA2061204640
:104E4000FFF7E4FC206F6061E079401CC0B2E071C4
:104E50000328D2D31AF02EFC0546294620691AF001
:104E600013FB01902946E0681AF00EFB02902946D8
:104E7000A0681AF009FB054618F0E0FEDFF8209163
:104E800088B318F089FF02282ED399F8001004F196
:104E90009C0003904A460C3804F1A809009049B1DF
:104EA000167000980AF08AFD03980AF087FD4846BC
:104EB0000AF084FD294600980AF0B3FDDDE90210EE
:104EC0000AF0AFFD484601990AF0ABFD48460AF0EA
:104ED0008BFD019000980AF087FD054603980AF0C3
:104EE00083FD029003E0FFE7012189F800102046CE
:104EF00000F027FD38BB01981AF02CFACDE900012B
:104F000020A206214046FBF7F7FA02981AF022FA8F
:104F1000CDE900011BA207213846FBF7EDFA15F198
:104F2000FF4F01D2554504DB05EB0B00B0F1D47FF8
:104F30000AD228461AF00EFACDE9000113A2072181
:104F40000498FBF7D9FA0DE012482918124881425B
:104F500008D228461AF076FB034610A207210498CF
:104F6000FBF7CAFAE671A660E660266145E7000035
:104F7000CDCCCCCCCCCCFC3F0000404000000C435E
:104F80000000204125352E326600000025352E31E7
:104F900066000000000038BD00A044032535640011
:104FA000105800201CB5040019D0487884F874000B
:104FB000087884F87500C87884F87600887884F8D2
:104FC00077000749606F1AF0BDFB1AF0C3F9CDE90D
:104FD000000104A2082104F14600FBF78DFA1CBD74
:104FE00000007A4425352E326600000010B50028F6
:104FF0001BD00E48602100F8451F062141709C21FE
:1050000081705121C170002101710121417108217C
:1050100000F8421C0548453007F004FC16F00EFC71
:10502000BDE81040132016F035BC10BD44560020DA
:105030007CB50C46050044D0684607F0D1F9DDE99F
:1050400000010AF053FD1F4A6023102182F8453009
:1050500082F84610B5F866109C25B1F5807F2BD0FC
:10506000A1F57063FF3B04D182F84750682182F8B4
:105070004810002102F8491F042151700821917045
:10508000010AD1701071010E5171000C9071200A4B
:10509000D0711472200E5072200C907209481121A8
:1050A00002F8461C453007F0BDFB16F0C7FBBDE813
:1050B0007C400B2016F0EEBB82F8475082F8483057
:1050C000D7E77CBD4456002010B500281BD00E4801
:1050D000602100F8451F032141709C2181704E2101
:1050E000C1700021017101214171082100F8421CA9
:1050F0000548453007F096FB16F0A0FBBDE81040D0
:105100000E2016F0C7BB10BD445600200C4810B549
:10511000602100F8451F04214170752282706922C8
:10512000C270002202714171082100F8421C04483B
:10513000453007F077FBBDE810400C2016F0AABB05
:105140004456002010B500281BD00E48602100F8FE
:10515000451F04214170752181704521C1700021D6
:10516000017101214171082100F8421C05484530B8
:1051700007F058FB16F062FBBDE81040082016F05F
:1051800089BB10BD4456002010B500281BD00E4826
:10519000602100F8451F0421417075218170302184
:1051A000C1700021017106214171082100F8421CE3
:1051B0000548453007F036FB16F040FBBDE81040CF
:1051C000022016F067BB10BD4456002010B5002821
:1051D00018D00D486021752200F8451F0421417048
:1051E00082706922C270002202714171082100F8A8
:1051F000421C0548453007F015FBBDE8104004206F
:1052000016F048BB10BD00004456002010B5002821
:1052100019D00D48602100F8451F04214170752107
:1052200081707821C1700021017102214171082132
:1052300000F8421C0448453007F0F4FABDE810407D
:10524000062016F027BB10BD4456002010B50028DC
:105250001AD00E48602200F8452F062242709C2288
:1052600082704E22C2700A0A02714171082100F850
:10527000421C0648453007F0D5FA16F0DFFABDE8C3
:105280001040122016F006BB10BD0000445600204E
:105290007CB50C46050043D0684607F0A1F8DDE96F
:1052A00000010AF023FC1F4A60219C2382F845106C
:1052B000102182F84610B5F86610B1F5807F2BD02A
:1052C000A1F57065FF3D04D182F847306C2182F86A
:1052D0004810002102F8491F0421517008219170E3
:1052E000010AD1701071010E5171000C9071200AE9
:1052F000D0711472200E5072200C90720948112146
:1053000002F8461C453007F08DFA16F097FABDE812
:105310007C400B2016F0BEBA82F847306421D6E7F5
:105320007CBD00004456002010B5002827D0144A48
:1053300040F8681F602102F8451F102151709C2120
:1053400091705721D17000211171022151710421F6
:1053500091714178D17101781172C1785172807860
:10536000907207480D2102F8421C453007F05AFAA6
:1053700016F064FABDE81040122016F08BBA10BD8A
:10538000445600204FF461710148FBF72EBA00002B
:105390002A78002010B50E4C6421207820F00700F8
:1053A000207004F12800FBF742FA0020C4F8050041
:1053B000C4F80900A4F80D00E07320616061A061E9
:1053C000A4F80300E06120626062A4F8010010BD4F
:1053D000205700200248002101614161816170472E
:1053E0002057002064210148FBF721BA48570020CC
:1053F00002480021C16101624162704720570020CC
:10540000014812F04FBD0000A05500200D48A0F14A
:105410008402C168D161002905D00878430703D50B
:1054200040F0010008707047D0690069D0610378CE
:105430005B0704D5017841F001010170704781429A
:10544000F2D17047A0550020014803F018B90000C0
:10545000945A0020014803F012B900000C5A0020B1
:10546000014803F00CB90000505A002030B590F804
:10547000404004F01C050124AC40C56B6C6004681E
:1054800063604368102B036803D099600068C260B2
:1054900030BD9A600068C16030BD00002DE9F04168
:1054A00006460C25BC20FAF7FDFE04007CD0002740
:1054B000C4F8907004F18000C4F89470C4F8987037
:1054C000C761076247628762C7620763212E31D0D6
:1054D00012DC30461C2E68D2DFE806F06749A6676A
:1054E00068682C2C89C388498967676767C367A682
:1054F0006767672C676767885B2E57D010DC342E90
:1055000071D006DC222E6FD0242E6ED0252E4CD1E9
:10551000E1E04A2E6AD0512E0CD05A2EF7D109E084
:10552000A6F15C000828D6D2DFE800F0217EB86042
:10553000F33FF2F33346CBA2062104F12200FAF73F
:10554000DBFF002518F080FB00282ED018F02AFC85
:10555000014604F190000AF051FA18F023FC0146CC
:1055600004F19C000AF04AFA18F01CFC44E13346AE
:10557000BEA2062104F12200FAF7BEFF012518F0B1
:105580008DFB0028E1D018F037FC014604F19000B3
:105590000AF034FA18F030FC014604F19C000AF0DD
:1055A0002DFA18F029FC27E153E119E13346B1A2A5
:1055B000072104F12200FAF79FFF022518F068FB8B
:1055C0000028C2D018F012FC014604F190000AF045
:1055D00015FA18F00BFC014604F19C000AF00EFAD3
:1055E00018F004FC08E11FE058E093E0E7E0034610
:1055F000A3A2062104F12200FAF77EFF032518F08A
:1056000035FB0028A1D018F0DFFB014604F1900023
:105610000AF0F4F918F0D8FB014604F19C000AF0F6
:10562000EDF918F0D1FBE7E0334698A2072104F129
:105630002200FAF761FF042518F00CFB002884D043
:1056400018F0B6FB014604F190000AF0D7F918F003
:10565000AFFB014604F19C000AF0D0F918F0A8FB5A
:10566000CAE003468BA2072104F12200FAF744FFA7
:10567000052518F007FB002884D018F0B1FB01467F
:1056800004F190000AF0BAF918F0AAFB014604F1FF
:105690009C000AF0B3F918F0A3FBADE0334680A2FA
:1056A000082104F12200FAF727FF062518F0E4FA92
:1056B000002886D018F08EFB014604F190000AF015
:1056C0009DF918F087FB014604F19C000AF096F959
:1056D00018F080FB90E0334674A2052104F122000B
:1056E000FAF70AFF072518F0BBFA002878D018F05F
:1056F00065FB014604F190000AF080F918F05EFBAA
:10570000014604F19C000AF079F918F057FB73E0A8
:1057100039E01CE0334667A2062104F12200FAF7C3
:10572000EBFE082518F07EFA00286AD018F028FB56
:10573000014604F190000AF061F918F021FB0146DE
:1057400004F19C000AF05AF918F01AFB54E03346B1
:105750005BA2072104F12200FAF7CEFE092518F01A
:105760006DFAE8B318F018FB014604F190000AF056
:1057700045F918F011FB014604F19C000AF03EF9CE
:1057800018F00AFB38E0334650A2072104F122004A
:10579000FAF7B2FE0A2518F03FFA08B318F0EAFA51
:1057A000014604F190000AF029F918F0E3FA0146E5
:1057B00004F19C000AF022F918F0DCFA1CE03346F0
:1057C00045A2072104F12200FAF796FE0B2518F0F6
:1057D0002FFA28B118F0DAFA014604F1900000E03F
:1057E0000FE00AF00BF918F0D1FA014604F19C0021
:1057F0000AF004F918F0CAFA014604F1A8000AF008
:10580000FDF884F861702078314620F00B0040F0FC
:105810000400207066712767E7662046A76601F0DE
:10582000DFF9204601F0FCF9202084F82A0030201E
:1058300084F82B002E2184F82C1084F82D0084F895
:105840002E00284884F82F70416821B11030446040
:105850000570BDE8F081234908314C6044600D704B
:10586000F6E70000444F20253032640070482025C0
:10587000303264005475722025303264000000001C
:1058800046434C202530326400000000454320256B
:10589000303264004F525020253032640000000046
:1058A0004E48334E2025303264000000462D20251E
:1058B00030326400434C2D2025303264000000005B
:1058C00043686C202530326400000000426761208C
:1058D0002530326400000000434F442025303264FC
:1058E00000000000145800200248002141600C21F3
:1058F000017070471C5800200248002141600C21B3
:10590000017070472458002000224FF07E5100F0B3
:1059100062BC00000248002141600C210170704708
:105920001458002008687047D0F880007047C06E97
:105930007047006F70470078C0F340007047C06F39
:1059400070470078C0F3C0007047000070B515F0D4
:1059500013FDA34C142804F1080571D2DFE800F010
:1059600070A61870B2707070357050D50A7074F9E6
:105970008FF8F7F6A079032862D15120FFF78EFD4A
:1059800015F0B4FC11F018FCBDE8704000F0A8BBA5
:10599000A079032854D1E0790E2851D109F0C6FF2F
:1059A00011F00AFC407951280CD011F00BFC8C4905
:1059B0000C22093100F064F911F0FEFBBDE87040E3
:1059C00000F06CBB11F0F8FBF1E7A079032837D1A8
:1059D000E079042834D109F0A9FF11F0EDFB4079FA
:1059E00051280AD011F0EEFB294600F030F911F0F1
:1059F000E3FBBDE8704000F0F1BA11F0DDFBF3E726
:105A0000A07903281CD1E079082819D109F08EFF6C
:105A100011F0D2FB407951280FD011F0D3FB294669
:105A200000F0F2F811F0C8FB4079512809D011F0CC
:105A3000C9FBBDE8704000F0E0B811F0BDFBEEE737
:105A400083E011F0B9FBF4E7A07903287DD1E07978
:105A500004287AD109F06AFF11F0AEFB4079512891
:105A60000AD011F0AFFB294600F022F911F0A4FB97
:105A7000BDE8704000F0F0BA11F09EFBF3E7A079AA
:105A8000032873D1E079042870D109F04FFF11F099
:105A900093FB4079512806D011F094FB2946BDE8CC
:105AA000704000F0C8B811F087FBF7E7E0793028C4
:105AB0005CD109F03BFF11F07FFB847911F07CFB96
:105AC000447187E0A079032850D1E0790C284DD1AA
:105AD00009F02CFF11F070FB407951280FD011F024
