:020000040800F2
:10000000002E00200D010008734A00086941000815
:10001000714A000851120008B9560008000000009B
:10002000000000000000000000000000A5500008D3
:100030003D1C000800000000714E00084D510008F2
:1000400027010008270100082701000827010008F0
:1000500027010008270100082701000827010008E0
:1000600027010008270100082701000827010008D0
:10007000270100085D140008270100086914000822
:10008000751400082701000827010008270100084F
:1000900027010008270100082701000827010008A0
:1000A0002701000827010008270100082701000890
:1000B000D151000827010008270100082701000886
:1000C0002701000827010008270100082701000870
:1000D000270100087156000889560008A15600083B
:1000E0002701000827010008270100082701000850
:1000F00027010008DFF810D000F0FCFC00480047A2
:1001000035B10008AFF30080002E0020064880477C
:1001100006480047FEE7FEE7FEE7FEE7FEE7FEE7EC
:10012000FEE7FEE7FEE7FEE7CD510008F500000818
:100130002DE9F05F0546002092469B46884606461C
:10014000814640241BE0284641464746224600F0AF
:10015000B4FB53465A46C01A914110D31146184673
:10016000224600F09BFB2D1A67EB01084F46224602
:100170000120002100F092FB17EB00094E41201EE8
:10018000A4F10104DFDC484631462A464346BDE877
:10019000F09F40EA01039B0703D009E008C9121F42
:1001A00008C0042AFAD203E011F8013B00F8013B31
:1001B000521EF9D27047D2B201E000F8012B491E5D
:1001C000FBD270470022F6E710B513460A460446F4
:1001D0001946FFF7F0FF204610BD30B505462A4608
:1001E0000B4612F8010B13F8014B08B1A042F8D0EE
:1001F0001CB1002802D06D1CF1E7284630BDF0B4D8
:1002000080EA0102D40F4200B2EB410F02D2024653
:10021000084611464A0042D0C30DDDB2C1F3C752B1
:10022000AD1A202D35DAC1F3160141F4000204B1F4
:100230005242C5F1200602FA06F12A411044B3EBFE
:10024000D05F23D0C4B1012DA0EBC35009DCF0BCBA
:100250004FF0004202EAC352DBB200F5000000F0AA
:10026000A6BB400000F1807000EBC350A0F180708D
:1002700040EAD170490009E0490841EAC071A0EBA9
:10028000C35000F50000400800EBC350F0BC00F084
:1002900085BB6142012202EB4101001BF6E7F0BC85
:1002A000704781F00041AAE780F00040A7E780EAAC
:1002B000010210B502F00043400022D04A001FD0D6
:1002C000010E01EB1261C0F35600C2F3560240F476
:1002D000000042F40002A0FB022000047F39140455
:1002E00000D0401C50EA124001D44000491EC2B266
:1002F0000C0604EBD010401C4008802A02D003E01A
:10030000002010BD20F00100002900DA0020184371
:1003100010BD30B480EA010202F0004530F0004226
:1003200021F0004013D090B1C30DD40DC2F31601DB
:10033000C0F31600E41A41F4000140F400027D34D9
:10034000914201D3641C00E04900002C02DA30BC69
:10035000002070474FF400000023914201D3891A16
:10036000034340084FEA4101F7D151B1914202D114
:100370004FF0004105E002D24FF0010101E06FF0C3
:10038000010103EBC450284430BC00F007BB2DE949
:10039000FE4F804681EA0300C00F0C46009021F01A
:1003A000004123F00045B8EB0200A94105D24046C8
:1003B000214690461C460B46024623F0004010435F
:1003C00047D0270DC7F30A00C3F30A510290401A21
:1003D000019040286BDAC3F3130040F4801B0098AF
:1003E000924620B10023D2EB030A63EB0B0B01987A
:1003F0005946C0F14002504600F050FA06460D46FC
:1004000050465946019A00F068FA10EB0800614125
:10041000002487EA115284EAE7731A4340D0009A15
:1004200062B3019A012A4FEA075215DC001B61EB07
:1004300002014FF0004202EA0752CDE90042001CDF
:1004400041F5801132462B4600F0EEFA03B0BDE8CC
:10045000F08F40462146F9E7001B61EB0201001CCA
:1004600041F5801300185B412018A2F5001747EBF7
:10047000030140EAD570B6196D4111E06D084FEAED
:10048000360645EAC0754FEA0752001B61EB0201D0
:10049000001C41F5801149084FEA30000019514114
:1004A00032462B4603B0BDE8F04F00F0AEBA0098DC
:1004B000012240000023D0EB020263EBE0730098BE
:1004C00021464FEAE074B8EB000061EB0401E9E774
:1004D00083F000435BE781F0004158E72DE9FE4FD0
:1004E00081EA030404F0004421F0004100944FF03D
:1004F000000B23F0004350EA01045ED052EA0304EB
:100500005BD0C3F30A54C1F30A552C44A4F2F3346C
:100510000194A0FB0254C1F3130141F48011C3F311
:10052000130343F4801301FB024400FB034E840ACF
:10053000970A44EA815447EA8357A4FB0768029567
:100540008D0A05FB07854FEA932C04FB0C54270505
:10055000029D4FEA065847EA1637B5EB08056EEBE1
:10056000070C870E920E47EA811742EA8312A7FB17
:100570000201B6EB0B0164EB00042B0D43EA0C33D4
:100580005E1844EB1C50DA465146E7FB0201C5F306
:1005900013044FEA0B3343EA14534FEA0432019C2D
:1005A00043EA0603A4F10C040294009CCDE900B4D4
:1005B00000F03AFA03B0BDE8F08F00200146F9E7F9
:1005C0002DE9F04D81EA030404F0004B21F00045D1
:1005D00014464FF0000A23F0004150EA050220D0F3
:1005E00054EA01021DD0C5F30A570246C5F31303AE
:1005F000C1F31300C1F30A5640F4801543F480138D
:10060000A7EB0608101BD64608F2FD3873EB050071
:1006100002D308F1010801E092185B41B8F1000F24
:1006200003DA00200146BDE8F08D00204FF4801170
:10063000064684460EE0171B73EB050705D3121B15
:1006400063EB050306434CEA010C49084FEA30000E
:1006500092185B4150EA0107EDD152EA030012D033
:1006600082EA040083EA0501084305D0101BAB4170
:1006700006D20122002306E000224FF0004302E0F0
:100680006FF0010253101AEB06004CEB085110EB0F
:100690000A0041EB0B01BDE8F04D00F0B6B970B5B2
:1006A00021F0004303430CD0C1F30A550024D5EBDD
:1006B000040564EB0403D617AD1AB34102DB002036
:1006C000014670BD201841EB025170BDC10F80EA98
:1006D000E0700844CA079623002100F068B9962309
:1006E0000022114600F063B90EB5C10F80EAE07038
:1006F0000844CA07002140F233438DE80E000A4641
:100700000B4600F091F903B000BD0EB540F2334145
:1007100002910021CDE900110A460B4600F084F950
:1007200003B000BD20F00040C10DC0F3160040F43E
:1007300000007F2901DA00207047962903DCC1F10F
:100740009601C840704796398840704770B5C1F32C
:100750000A5201F000450024C1F3130140F2FF33B7
:1007600041F480119A4201DA002070BD40F2334317
:100770009A42A2F2334203DC524200F09EF800E0BB
:1007800090402C43F1D0404270BD00F0004230F068
:1007900000400AD0C10D01F56071C0F3160042EAB5
:1007A0000151C208400711437047002001467047BD
:1007B00030B5041E71F1000404DB4FF000444042E8
:1007C00064EB0101141E73F1000405DB1C464FF0BD
:1007D0000043524263EB04038B4208BF824230BDA8
:1007E00030B5041E71F1000404DB4FF000444042B8
:1007F00064EB0101141E73F1000405DB1C464FF08D
:100800000043524263EB0403994208BF904230BD5B
:1008100001F0004330B421F0004150EA010206D05B
:100820000A0DA2F56072C1F31301002A02DC30BC8C
:1008300000207047440F44EAC104C100E01830BCF6
:1008400000EBC25000F0AAB8002801DBC0F1004064
:10085000002901DBC1F1004181427047002801DB22
:10086000C0F10040002901DBC1F10041884270471E
:1008700030B50B46014600202022012409E021FA70
:1008800002F59D4205D303FA02F5491B04FA02F56D
:100890002844151EA2F10102F1DC30BD202A04DB40
:1008A000203A00FA02F1002070479140C2F1200383
:1008B00020FA03F3194390407047202A04DB203AC2
:1008C00021FA02F00021704721FA02F3D040C2F170
:1008D00020029140084319467047202A06DBCB17B7
:1008E000203A41FA02F043EAE07306E041FA02F3EB
:1008F000D040C2F1200291400843194670470000E1
:100900000FB4002300B589B00CA900910B996FF0CA
:100910000042CB601E4B06931E4B07930423CDE988
:1009200001321D4A089202466B46002000F08EF903
:1009300009B05DF814FB70B586B006464FF0FF3085
:100940000091CDE90101002015460C460490324685
:10095000694604A8FFF7D4FF02460498211825B180
:1009600008B1084600E020462860049800280DD011
:10097000002A02DD0098884208D0081B0094CDE9C7
:1009800001043246694604A8FFF7BAFF06B070BDFD
:10099000850E0008A30E0008190B00080029A8BF47
:1009A0007047401C490008BF20F00100704710B498
:1009B000B0FA80FC00FA0CF050EA010404BF10BC4D
:1009C000704749B1CCF1200421FA04F411FA0CF17A
:1009D00018BF012121430843A3EB0C01CB1D4FEAB3
:1009E00000614FEA102042BF002010BC704700EBAE
:1009F000C35010440029A4BF10BC7047401C4900DC
:100A000008BF20F0010010BC704710B5141E73F130
:100A1000000408DA401C41F1000192185B411A43BE
:100A200001D120F0010010BD2DE9F04D92469B460A
:100A300011B1B1FA81F202E0B0FA80F220329046B0
:100A4000FFF72CFF04460F4640EA0A0041EA0B017B
:100A500053465A46084313D0114653EA010019D0B1
:100A6000C8F140025046FFF728FF05460E465046A3
:100A700059464246FFF712FF084305D0012004E023
:100A800020463946BDE8F08D0020054346EAE07671
:100A90002C4337430A986305E40AA0EB08000022C0
:100AA000FD0A44EA47540A3002D500200146E9E72E
:100AB000010510196941DDE9084500196941BDE8E2
:100AC000F04DA2E7C1F30A52C1F3130140F2FF3324
:100AD00041F480119A4202DA00200146704740F248
:100AE00033439A42A2F2334202DC5242FFF7E5BEA0
:100AF000FFF7D4BE064C074D06E0E06840F0010366
:100B000094E8070098471034AC42F6D3FFF7F6FAA2
:100B100054F8000874F80008C0B24FF4F05100F027
:100B2000D1B900002DE9FF4F087883B09946FF281E
:100B300005D0491C2D2804D00024002008E0002006
:100B40000BE00124F9E700EB800003EB4000491CB7
:100B50000B78FF2BF7D104B14042002302931478A5
:100B600019461D462D2C01D02B2C04D1521C2D2CA6
:100B700013D000240294AA461478FF2C0FD00A2523
:100B8000A3FB057801FB05814FF0000C03FB0C1162
:100B9000521CE3194AEB0101EEE70124EAE7814424
:100BA00053EA010002D019F5C87F06DA0398002144
:100BB000C0E9001107B0BDE8F08F0025AE4E2F460A
:100BC000DFF8B882184600F091F9CDE90001B9F1DB
:100BD000000002DAC9F1000400E004460023A74A3D
:100BE0001AEB030B42EB045A12E0E00707D02A4647
:100BF000334638464146FFF771FC074688462A4689
:100C0000334610461946FFF769FC05460E46641048
:100C1000002CEAD1DDE90001B9F1000F5A46534634
:100C200006DAFFF7CDFC3A464346FFF7C9FC05E07C
:100C3000FFF754FC3A464346FFF750FC029A0AB1CC
:100C400081F00041039AC2E90001B3E72DE9FF4FAB
:100C50001F468DB0D7E901464FF0FF382E2045469C
:100C60004FF000090B90B9696D1C0E988847396ADE
:100C7000824688470028F6D1BAF1FF3F0AD024F413
:100C8000D064002E11DDBAF12B0F08D0BAF12D0F70
:100C90000BD102E0404611B08DE744F48064B9699D
:100CA0006D1C0E9888478246761E6946600501D500
:100CB0002D2000E02B208DF8000001F1010B0DF13B
:100CC000200809E0B9696D1C0E98884782460F9884
:100CD00044F40074761E0560002E02DDBAF1300F78
:100CE000F0D00B998A453ED144F0800406E00F997C
:100CF000681CA9F1010944F400740860B9696D1C0D
:100D0000761E0E98884782463028F0D02BE00B994B
:100D10008A4505D1200603D444F08004761E18E0ED
:100D2000504604F0AFFF08B30DF11301761E44F4F2
:100D300000748B4508D2AAF130000BF8010B200695
:100D400007D5A9F1010003E0200602D409F1010052
:100D50008146A00502D50F99681C0860B9696D1C11
:100D60000E9888478246002ED1DC53E0002E51DDDC
:100D7000BAF1650F02D0BAF1450F4BD1A00549D5A4
:100D8000B9696D1C24F44074761E0E98884782461B
:100D9000002E0CDD2B2804D0BAF12D0F07D144F41E
:100DA0008074B9696D1C0E9888478246761EE005EE
:100DB00001D52D2100E02B2108F8011BCDF82C8056
:100DC00021E00DF12901761E44F4007488450CD20F
:100DD000AAF1300010F0FF0088F8000002D10B9952
:100DE000884509D908F1010806E0E00501D5244845
:100DF00001E042F20F708146B9696D1C0E98884778
:100E000082460F980560002E04DD504604F03AFF3C
:100E10000028D6D1F9690E988847FF208BF800008A
:100E200088F800000020069007904B466A4608A903
:100E300006A8FFF777FEA00502D46FF001002AE7AD
:100E400014F0240F0AD0E00714D1DDE90612386847
:100E5000031D3B600068C0E900120BE0DDE90601FC
:100E6000FFF7D6FC0146E00704D13868021D3A605E
:100E70000068016028460EE7000014400000F03FC3
:100E8000F1D8FFFF426842B1016811F8013B23B17C
:100E9000521EC0E90012184670470121C160881E29
:100EA000704742685AB1C368016843B983688B428E
:100EB00005D0491E521CC0E90012002070474FF0B7
:100EC000FF3070477F2801D9002208E0064A02EB74
:100ED0005002C007127800D1120902F00F0201205F
:100EE000904008407047000011F800080EB540F22D
:100EF000334202920022CDE900221346FFF794FD0F
:100F000003B000BD70B58C1810F8015B15F0070335
:100F100001D110F8013B2A1106D110F8012B03E092
:100F200010F8016B01F8016B5B1EF9D12B0705D49A
:100F30000023521E0DD401F8013BFAE710F8013BE3
:100F4000CB1A921C03E013F8015B01F8015B521EFF
:100F5000F9D5A142D8D3002070BD000070B5044679
:100F600000680168C943490621D4816821F0010164
:100F7000816001F0DFFD054614E000BF01F0DAFDFD
:100F8000401B02280ED920680068C043400609D4DF
:100F9000E06C40F01000E064206D40F0010020653E
:100FA000012070BD20680068C0434006E6D50020DF
:100FB00070BD0000F8B50026044600960068016880
:100FC000C94349062FD5816841F001018160174866
:100FD00017490068B0FBF1F000EB400000E0401E54
:100FE00000900028FBD101F0A5FD054616E000BFEA
:100FF00001F0A0FD401B022810D920680068C04302
:1010000040060BD5E06C40F01000E064206D40F02D
:101010000100206584F848600120F8BD2068006860
:10102000C0434006E4D40020F8BD00000C000020BE
:1010300040420F0010B50A4801F0D8FA6421084870
:1010400001F07CFA064801F073F9064C6060044830
:1010500001F007FB052001F02FFC606810BD0000C7
:10106000C4020020680200202DE9F0410024074658
:10107000254626460CE000BFFFF7DCFFFFF745FBE7
:1010800022462B46FFF783F9761C04460D46F6B23E
:10109000BE42F1D33846FFF738FB02460B462046E6
:1010A0002946BDE8F041FFF78BBA00000849084B1C
:1010B000803BC9680022596102E0C968521CD2B263
:1010C0008242FAD35961087840F0010008707047F5
:1010D000B00000200E49CA6880394A6170B1052805
:1010E00011D00A2811D0142807D1D068C068C06870
:1010F0004861017841F0010101707047107840F0BB
:10110000010010707047D068F2E7D068EFE7000088
:10111000B000002010B50446F32000F037F820405E
:1011200000D0012010BD000010B5F92000F02EF80D
:101130000A4C2070F82000F029F86070F72000F0C9
:1011400025F8A0706178000340EA01102178BDE81D
:10115000104040EA111005F069BA000008010020B3
:1011600070B5FC2000F012F80446FB2000F00EF8E9
:101170000546FA2000F00AF8000340EA051040EAAC
:101180001410BDE8704005F045BB000070B50B4E73
:1011900004464FF4807500222946304601F0C5FC14
:1011A000204605F017FA05F011FA044601222946F7
:1011B000304601F0BAFC204670BD00000004024039
:1011C000017842784901807841EA82010143C9B23D
:1011D000F52000F00BB8417802784901807841EAA7
:1011E00082010143C9B2F420AFF300802DE9F04140
:1011F0000B4D0F4606464FF48074002221462846C8
:1012000001F093FC304605F0E5F9384605F0E2F9C7
:1012100021462846BDE8F041012201F086BC0000CD
:10122000000402400949094AC968803A002951610D
:1012300004D020B1087840F0010008707047C868F9
:101240005061017841F0010101707047B000002049
:10125000FEE7000030B503464FF6FF704AF2010486
:101260000DE000BF13F8012B50400022C50702D04B
:1012700084EA500000E04008521C082AF6D3491EB8
:1012800089B2EFD230BD30B505460C46881E81B21A
:101290002846FFF7DFFF2919C3B211F8022C9A4242
:1012A00006D111F8011CB1EB102F01D1012030BD86
:1012B000002030BD2DE9F04707460AF055FFDFF862
:1012C000CC90DFF8CCA0334C4FF00008012848D177
:1012D000F86B6169FEF7E5FFFFF757FA0022054654
:1012E0000E461346FFF77CFA20D884F80480A078D5
:1012F00026F00041012828464A46534608D0FFF709
:1013000057FA02D26078401C60700120A0701FE084
:10131000FFF766FA05D9E078401CC0B2E0700328F8
:10132000F3D384F8018084F80380EEE784F8038027
:10133000A07826F00041002828464A46534612D09D
:10134000FFF736FA02D26078401C607084F80280A1
:101350006078082805D384F80180387840F00800C8
:101360003870BDE8F087FFF73BFA04D884F80180B5
:1013700084F80480EAE72079401CC0B22071032879
:10138000E4D3404684F80480DFE700001904560ED9
:101390002DB28D3F980200204FF461710148FEF795
:1013A00011BF00007822002010B50E4C6421207877
:1013B00020F00700207004F12800FEF703FF002052
:1013C000C4F80500C4F80900A4F80D00E07320611A
:1013D0006061A061A4F80300E06120626062A4F88B
:1013E000010010BDB40100200248002101614161EB
:1013F00081617047B401002064210148FEF7E2BE1C
:10140000DC01002002480021C16101624162704795
:10141000B4010020014808F0AFBF0000B000002078
:101420000D48C16880380029416105D00A7853070A
:1014300003D542F00100087070474269D2684261EA
:1014400013785B0704D5107840F0010010707047E6
:101450009142F2D170470000B0000020014801F035
:1014600068B9000010050020014801F062B90000D1
:1014700088040020014801F05CB90000CC04002081
:1014800030B590F8404004F01C050124AC40C56B19
:101490006C60046863604368102B036803D0996034
:1014A0000068C26030BD9A600068C16030BD000055
:1014B00070B506460D46542009F04AFF040032D0AC
:1014C0001948334619A28461062104F10B0004F087
:1014D000D1FA002284F830202078202120F00B005F
:1014E00040F0040020706670E263A2636263302003
:1014F000A177E0772E2384F8203084F8210084F847
:10150000220084F82320E17521766076A376E076C8
:10151000207762776174A074E37420756075A2759A
:10152000286820652C6070BD98020020444F2D254E
:10153000303258000149002088617047980200202D
:1015400070B50C680D460646002C14D06078B04289
:1015500004D1206D2860204606F068F8206D4078A0
:10156000B04208D12868016D096D0165206DBDE8A4
:10157000704006F05BB870BD02460868002807D0CE
:1015800000E0006D002803D000F10B019142F8D17A
:101590007047406C7047806B7047C06B7047007835
:1015A000C0F340007047007800F001007047006C05
:1015B00070470078C0F3C0007047000010B50AF013
:1015C0003BF9002810D1094C207B082805D008F0F1
:1015D00027FABDE8104000F03FBA0AF03BF9014697
:1015E000206CFFF7C9FFF4E710BD000030000020B9
:1015F000002803D0017841F00201017070470028F3
:1016000003D0017841F001010170704710B5002846
:1016100012D0002284188B5C521CD2B284F8403065
:10162000042AF7D30022091D84188B5C521CD2B205
:1016300084F84430042AF7D310BD002808D00A7873
:1016400000F84C2F4A7842708A788270C978C1704D
:10165000704710B5002811D00A783032C2712E229E
:1016600002724B7830334372002383728C783034AB
:10167000C4700271C97830314171837110BD30B5C9
:10168000002809D0002305E0CC5CC5185B1C85F858
:101690002440DBB29342F7D330BD002808D00A784B
:1016A00000F8482F4A7842708A788270C978C170F1
:1016B000704700000348002101708160C160016132
:1016C0007047000098020020017841F00801017085
:1016D0007047017821F00801017070472DE9F0474B
:1016E000064604680AF034FDFFF74FF807460D463A
:1016F00004F034FF3A462B46FEF749FEFFF788F820
:1017000081460AF05BFD80463068164D002827D0E0
:10171000154E164F002C23D04846E16CFEF7C1FD54
:1017200020F00040B04202DB0AF086F860B140468B
:10173000A16CFEF7B6FD20F00040B84202DB0AF0D3
:101740007BF838B1246DE5E74946A869BDE8F04764
:1017500000F018BA4146A869BDE8F04700F040BA69
:10176000BDE8F087980200209A99993EBD378635EA
:101770002DE9FC5F040050D05FF000002318401CEE
:1017800011F8012BC0B283F834200428F6D30020CE
:101790002318401C11F8012BC0B283F8382004280C
:1017A000F6D300202318401C11F8012BC0B283F897
:1017B0003C200428F6D32178494E4A4D4A0704F1CB
:1017C000110A04F1170904F11E0828D521F00400BC
:1017D0002070E06B6861606BFEF7D7FFCDE9000118
:1017E00041A20621504604F045F9A06BFEF7CDFF5B
:1017F00000223346FEF772FECDE900013CA207212C
:10180000484604F037F9E06BFEF7BFFFCDE9000171
:1018100035A20621404604F02DF9BDE8FC9FE16B9E
:10182000A868FEF7ECFCA860A06BFEF7AEFF0022F4
:101830003346FEF753FE06460F46E868FEF7A5FF5F
:1018400032463B46FEF7A3FDFEF7E2FFE860616B20
:101850002869FEF7D4FC28612046FFF72BFDE06BDA
:1018600068612878401CC0B228700328D5D3FEF7E1
:1018700036FF064631462869FEF74BFD07463146DE
:10188000E868FEF746FD83463146A868FEF741FD4D
:101890000646207800071DD43846FEF776FFCDE9CE
:1018A000000111A20621504604F0E4F85846FEF764
:1018B0006CFFCDE900010EA20721484604F0DAF8DA
:1018C0003046FEF762FFCDE9000107A2062140463F
:1018D00004F0D0F800202870A860E86028619CE738
:1018E000000059409802002025352E326600000085
:1018F00025362E32660000000120704710B5002802
:1019000017D041780B484176032181761121C176A9
:10191000002101774177042181770821C1701930B6
:1019200003F0C1FB0AF004F8BDE810400A200AF0F9
:101930002BB810BD3C0100200A48FF21417603214D
:1019400081763021C17600210177417701218177AD
:101950009E21C177D42180F820100821C1700C206D
:101960000AF012B83C01002010B5002817D04178C9
:101970000B484176032181762421C176002101772D
:101980004177022181770821C170193003F08BFB68
:1019900009F0CEFFBDE81040102009F0F5BF10BDE2
:1019A0003C01002010B5002817D041780B48417643
:1019B000032181760721C176002101774177022139
:1019C00081770821C170193003F06DFB09F0B0FF79
:1019D000BDE81040082009F0D7BF10BD3C01002031
:1019E00010B5002817D041780B4841760321817645
:1019F0000921C176002101774177072181770821EC
:101A0000C170193003F04FFB09F092FFBDE81040A0
:101A1000022009F0B9BF10BD3C01002010B500281C
:101A200017D041780B484176032181761521C17684
:101A3000002101774177022181770821C170193097
:101A400003F031FB09F074FFBDE810400E2009F0EF
:101A50009BBF10BD3C01002010B5002817D0417875
:101A60000B484176032181762621C176002101773A
:101A70004177062181770821C170193003F013FBEB
:101A800009F056FFBDE81040042009F07DBF10BDED
:101A90003C01002070B50D4604002CD028090A280E
:101AA00001D3373000E03030A07305F00F000A2872
:101AB00001D3373000E030300F4AE0736078507661
:101AC000102090763020D0760020107750770121BA
:101AD00091770221D17782F8205082F821000B21E2
:101AE000D17002F1190003F0DEFA09F021FF0120A4
:101AF00009F04AFFA57070BD3C010020016400F0B0
:101B000005B8C0E9101200F001B8000010B50028B7
:101B100034D01B4A10F8011F002302F8191F1021AE
:101B2000517011219170D3701371042353710823E4
:101B3000937190F83F30D37190F84030137290F861
:101B40004130537290F84230937290F84330D37220
:101B500090F84430137390F84530537390F8460072
:101B60009073074802F8161C193003F09CFA09F02C
:101B7000DFFEBDE810400B2009F006BF10BD0000DD
:101B80003C01002010B5002827D040F84C1F134A14
:101B900010F84B1C02F8191F10215170242191706C
:101BA0000021D170117102215171042191710178CC
:101BB000D1714178117281785172C0789072074862
:101BC0000D2102F8161C193003F06DFA09F0B0FE71
:101BD000BDE81040112009F0D7BE10BD3C01002027
:101BE00010B5002827D040F8481F134A10F8471CAA
:101BF00002F8191F10215170152191700021D17028
:101C0000117102215171042191710178D1714178D2
:101C1000117281785172C078907207480D2102F8D4
:101C2000161C193003F03FFA09F082FEBDE810409F
:101C30000F2009F0A9BE10BD3C010020704772B60C
:101C4000FEE700007C224FF44071014803F05CBDC8
:101C5000FC25002002464FF448610148FEF7ABBA6C
:101C6000F805002010B5094C0020207002F044FB5C
:101C70000020FFF7EFFF01202070002400F0FAF9A8
:101C8000641CE4B2C82CF9D310BD00002801002068
:101C90002DE9FF5F1F4616460546A02822D201986F
:101CA000A0281FD20024DFF85CA0DFF85CB0DFF8CA
:101CB0005C9022E0600701D116F8018B04F0070167
:101CC00019F8010010EA080F0E980FD180B100BF7B
:101CD0009BF800202846019900F03AF86D1CEDB2FF
:101CE000A02D08D3002004B0BDE8F09F0028EFD05D
:101CF0009AF80020EEE7641CE4B2BC42DAD301207B
:101D0000F1E70000110000201000002039C6000893
:101D10002DE9F84F00241F4615460E468246A1467F
:101D2000DDF8288010E03B462A4631465046CDF883
:101D30000090FFF7ADFF761CF6B205EBD7057807EC
:101D400000D06D1C641CE4B24445ECD3BDE8F88FB0
:101D500030B5A02801D2A02901D3002030BD0A4C03
:101D6000D50701EB810100F00702084B04EB81016C
:101D700001EBD0009A5C017801D0114300E091435F
:101D80000170012030BD0000F8050020FBF70008BD
:101D90002DE9FC478046DDE90A541E4691460F4670
:101DA00010462B2A65D00ADCA2F120000A2812D2A4
:101DB000DFE800F039651111114D11116C732F28F6
:101DC0003FD004DC2D2849D02E2A04D12DE03A281A
:101DD00031D03F2A47D0364AA9F1610002EB091AF7
:101DE000192807D8CDE90054AAF560723946404653
:101DF00000F062F8A9F13000092808D8CDE90054B4
:101E0000AAF52C7233463946404600F055F8A9F140
:101E10004100192849D8AAF548723346CDE9005443
:101E2000394640463FE0224AF8E7214ACDE90054CE
:101E30001032404637E01E4ACDE900542032404679
:101E400031E01B4ACDE90054303240462BE0184ABD
:101E5000CDE9005440323946404624E0CDE90054F3
:101E6000144A40461FE0134ACDE900541032404660
:101E700019E0104ACDE900542032404613E00D4AE3
:101E8000CDE900543032394640460CE0094ACDE9EC
:101E9000005440323946404605E0064ACDE9005438
:101EA00050323946404600F007F8BDE8FC87000094
:101EB00041C6000871CA00082DE9F84F1F46DDE948
:101EC0000A8915460E468246002410E03B462A4603
:101ED00031465046CDF80090FFF7DAFE761CF6B298
:101EE00005EBD705780700D06D1C641CE4B24445AF
:101EF000ECD3BDE8F88F00002DE9FF4F83B01E46FC
:101F0000DDE911A9DDF840B01500804612D00024AB
:101F10000A4F0DE0CDE900A9285D5B4607EB4012B2
:101F200008EB0410C0B20499FFF7C6FF641CE4B2CA
:101F3000B442EFD307B0BDE8F08F000019D000081D
:101F40002DE9FC479846DDE90A76894605461400E6
:101F50000DD009E0CDE90076434649462846FFF713
:101F600017FF0835EDB2641C2278002AF2D1BDE8D3
:101F7000FC8700007CB5202ADDE9065411D02E2A0A
:101F80000BD0A2F13006092E10D8CDE90054084C30
:101F900004EB8212A2F53C6206E0CDE90054044A4B
:101FA00002E0CDE90054034AFFF786FF7CBD000044
:101FB000D1CA000891CD00082DE9FC479846DDE91B
:101FC0000A768946054614000DD009E0CDE9007671
:101FD000434649462846FFF7CDFF1035EDB2641C55
:101FE0002278002AF2D1BDE8FC8700007CB5202AC7
:101FF000DDE9065413D02E2A0DD0A2F13006092EA9
:1020000012D8CDE90054094C02EB820204EBC20263
:10201000A2F5EB6206E0CDE90054044A02E0CDE906
:102020000054034AFFF748FF7CBD000011CE0008B2
:10203000C9CF00082DE9FC479846DDE90A768946B4
:10204000054614000DD009E0CDE900764346494627
:102050002846FFF7CBFF0B35EDB2641C2278002A2F
:10206000F2D1BDE8FC870000014A10705170704742
:10207000100000202DE9F0411A4C207800282FD0C4
:10208000608868B918486060602003F08FFC702099
:1020900003F08CFC052003F089FC122003F086FC81
:1020A000002514264FF44867A846616811F8010B13
:1020B000616003F03DFC6088401C80B2B0FBF6F12B
:1020C000608006FB110010B9002003F0A1FC6088BD
:1020D000B84201D1A4F802806D1CADB2142DE4D336
:1020E000BDE8F08128010020F805002070B58820A7
:1020F000FFF74CF804468920FFF748F804EB00206E
:10210000384C20808A20FFF741F805468B20FFF7E6
:102110003DF805EB002060808C20FFF737F805467E
:102120008D20FFF733F805EB0020A0808E20FFF70D
:102130002DF805468F20FFF729F805EB0020E080F9
:102140009020FFF723F805469120FFF71FF805EBD5
:10215000002020819220FFF719F805469320FFF711
:1021600015F805EB002060819420FFF70FF8054675
:102170009520FFF70BF805EB0020A0819620FFF7D4
:1021800005F805469720FFF701F805EB0020E081F0
:102190009820FEF7FBFF05469920FEF7F7FF05EBB9
:1021A000002020829A20FEF7F1FF05469B20FEF7D3
:1021B000EDFF05EB002060829C20FEF7E7FF05465F
:1021C0009D20FEF7E3FF05EB0020A0829E20FEF796
:1021D000DDFF05469F20FEF7D9FF05EB0020E082DA
:1021E00070BD0000E0050020F8B50024009490F8D0
:1021F00048202546012A12D0012280F848204A684A
:102200001F23072A0DD20668376C521E02EB82028A
:1022100093409F430B6893401F43376435E002208F
:10222000F8BD0D2A0BD20768FE6BD21F02EB8202AB
:1022300093409E430B6893401E43FE6325E0132AA0
:102240000BD20668B76B0D3A02EB820293409F43B4
:102250000B6893401F43B76317E00668192A0AD238
:10226000776B133A02EB820293409F430B689340D3
:102270001F43776309E0376B193A02EB8202934000
:102280009F430B6893401F4337630A6807230A2A5A
:102290000AD20668776902EB420293409F438B683B
:1022A00093401F4377611CE0142A0BD207683E69F4
:1022B0000A3A02EB420293409E438B6893401E43CE
:1022C0003E610EE01A2A0BD80768FE68143A02EB4A
:1022D000420293409E438B6893401E43FE6000E0A1
:1022E00000BF0A68102A01D0112A17D10D4A1368BD
:1022F0001B0213D4136843F4000313600968102908
:102300000CD10949094A0968B1FBF2F101EB8101DD
:10231000490000E0491E00910029FBD180F8485097
:102320002046F8BD042701400C00002040420F0069
:102330000068806D70470000F8B504004FF000059C
:1023400003D0E06C002610B110E00120F8BD266536
:102350005C4884F84860016841F001010160006850
:1023600000F001000090204600F0B6F8E06CC006D6
:102370007AD4E06C20F4885040F00200E0645248C7
:102380000168626821F44031114301606169E068CD
:102390004FF40073084394F83C2093FAA3F3B3FA84
:1023A00083F3216A9A4011430843022194F82420C0
:1023B00091FAA1F1B1FA81F102FA01F10843616BDE
:1023C000102902D0A36B19430843236819684FF4FE
:1023D0008077C943490629D5A169D4F81CC00843B0
:1023E000A168D4F810E041EA0C01BE450CD0BEF162
:1023F000010F09D04FF0000C41EA0C0194F82CC0F9
:10240000BCF1010F02D00AE0BC46F5E76AB3E26C0A
:1024100042F02002E264226D42F0010222655A6815
:10242000DFF8A8C002EA0C020A435A6021688A68F1
:10243000274B1A4002438A602169B94224D00129FE
:1024400022D021680A6B22F0F8720A632168896839
:10245000204A1140814227D12665E06C20F002001D
:1024600040F00100E0642AE028E0FFE74FF4604C10
:10247000226B9CFAACFCBCFA8CFC521E02FA0CF2E9
:102480000A4342F40061CAE721680A6B4FF0F8770B
:1024900022F0F873A26A97FAA7F7B7FA87F7521EE5
:1024A000BA4013430B63D1E7E06C20F0020040F028
:1024B0001000E064206D40F00100206501252846F1
:1024C000F8BD00002038024004270140FF16FCFC44
:1024D0008DF1FFC0FEFF80BF10B586B00446142109
:1024E0006846FDF76FFE1249206888421DD11148E9
:1024F000016841F400710160006800F4007005900B
:102500000C48001F016841F0100101600068694635
:1025100000F0100005904FF48070009003200190AF
:1025200000200290044800F0D9F906B010BD000068
:102530000024014020380240001002402DE9F04103
:10254000044600680D4681684FF0000749050BD529
:102550008068C00508D5E06C40F02000E06484F895
:1025600048700120BDE8F08100F0E4FA064613E06F
:10257000681C11D025B100F0DDFA801BA8420BD9F0
:1025800020680068800707D4E06C40F00400E06435
:1025900084F848700320E5E7206800688007E7D5E5
:1025A000A06918B921686FF012000860E06C40F46F
:1025B0000070E0642068816811F0405F14D194F8E5
:1025C000241089B9016B11F0F87F02D080684005B2
:1025D0000AD4E06C20F48070E064E06CC00403D4A2
:1025E000E06C40F00100E0640020BBE710B5044659
:1025F00090F84800012822D0012084F848002046A5
:10260000FEF7D8FC00281BD1E16C40F20162914337
:1026100041F48071E16421684A68520505D5E26C95
:1026200022F4005242F48052E264E26CD3044FF090
:10263000000206D5236D23F00603236502E0022085
:1026400010BD226584F848206FF022020A602168DC
:102650008A6812F0405FF3D18A6842F080428A6053
:1026600010BD10B5044690F84800012807D001209D
:1026700084F848002046FEF771FC10B107E0022004
:1026800010BDE16C21F4885141F00101E1640021A9
:1026900084F8481010BD10B590F8211000220229CE
:1026A00005D00421816380F82020012010BD01683D
:1026B0000B6823F00E030B6001680B6823F0010325
:1026C0000B6090F84010C46B01F01C03012101FA6B
:1026D00003F3636080F8211080F82020104610BDBD
:1026E00010B590F821100024022903D00421816341
:1026F00001241AE001680A6822F00E020A600168EB
:102700000A6822F001020A6090F84010C36B01F0E1
:102710001C02012101FA02F25A6080F82110002106
:1027200080F82010416B01B18847204610BD806BB6
:102730007047F0B4C16B0C6801680D6890F84020D8
:1027400002F01C06042202FA06F3234211D06B07A2
:102750000FD50B689B0603D40B6823F004030B60B2
:1027600090F8401001F01C018A40C16B4A60C16AB8
:102770001DE0022303FA06F727424FF0000C4FF04A
:10278000010218D0AF0716D50C68A40605D40C6852
:1027900024F00A040C6080F8212090F8401001F029
:1027A0001C018B40C16B4B6080F820C0816A0029FE
:1027B0001AD0F0BC08470823B340234214D02B079B
:1027C00012D50B6823F00E030B6090F84010C36B1A
:1027D00001F01C0102FA01F15960826380F82120A6
:1027E00080F820C0016BE2E7F0BC704730B528B339
:1027F00008C8134914221944B1FBF2F18900C163DE
:1028000010498163022141771A6847F6F0718A43C3
:10281000D0E900142143D0E902452C432143046947
:1028200021434469214384692143114319600021F4
:102830004163012242770177084630BD012030BD57
:10284000F89FFDBF0060024070B5044690F820007C
:10285000002501280CD0012084F8200094F8216084
:102860000020012E06D084F820000225284670BDE5
:10287000022070BD022684F82160A06320680668EB
:1028800026F0010606602046FEF7FAFDE06A002801
:102890002068016802D041F00E0106E021F0040139
:1028A00001602068016841F00A0101602068016848
:1028B00041F001010160D9E770B5044600F03AF932
:1028C0000546601C02D004484068044400F032F918
:1028D000401BA042FAD370BD000000202DE9F04F4C
:1028E000DFF80C92002209F1040A012503240AF101
:1028F000040B85B00F260BF1040EF0E005FA02F789
:102900001CEA07037ED091F804C00CF0030CBCF164
:10291000010F02D0BCF1020F26D1D0F808C0CDF8CB
:1029200000C04FEA420C04FA0CF8CDF810C0DDF8F4
:1029300000C02CEA080CCDF800C0D1F80C80DDF8FE
:1029400010C008FA0CF8DDF800C048EA0C08C0F81E
:102950000880D0F804C02CEA070C0F79C7F30017E1
:10296000974047EA0C0747600F79FF43BF070ED037
:10297000C7684FEA420804FA08FC27EA0C07D1F8B6
:1029800008C00CFA08FC4CEA070CC0F80CC00F7920
:1029900007F00307022F15D1D70800EB870702972E
:1029A0003F6A4FEA427C4FEADC6806FA08FC27EAF5
:1029B0000C07D1F810C00CFA08FC4CEA070C029F77
:1029C000C7F820C007684FEA420804FA08FC27EA63
:1029D0000C0791F804C00CF0030C0CFA08FC4CEA4C
:1029E000070CC0F800C04F6817F4403F76D0414F45
:1029F000D7F800C04CF0010CC7F800C03F6807F0E2
:102A0000010700E06AE000973B4F22F0030C6744A7
:102A10000297BF684FEA827C4FEA1C7806FA08FCEE
:102A200027EA0C07DFF8D4C0604502D14FF0000C54
:102A30001DE0DFF8CCC0604502D14FF0010C16E07C
:102A4000DFF8C0C0604502D14FF0020C0FE0DFF8A4
:102A5000B8C0604502D14FF0030C08E0DFF8ACC00D
:102A6000604502D14FF0040C01E04FF0050C0CFA68
:102A700008FC4CEA070C029FC7F808C0D9F80070A0
:102A8000CC46D1F804809F435FEAC83800D51F4385
:102A9000CCF80070DAF80070D446D1F804809F4377
:102AA0005FEA883800D51F43CCF80070DBF800706F
:102AB000DC46D1F804809F435FEAC82800D51F4355
:102AC000CCF80070DEF80070F446D1F804809F4323
:102AD0005FEA882800D51F43CCF80070521C0B68B1
:102AE0009C46D3407FF40AAF05B0BDE8F08F0000EC
:102AF0000004014020380240000001400000024074
:102B00000004024000080240000C02400010024095
:102B10000069084000D001207047426921EA0203A1
:102B20000A4043EA0241816170470AB181617047FE
:102B30000904FBE70148806870470000000000209E
:102B400070B5040011D021684CF6CC4008602168B3
:102B500045F255500860D4E9000141602168A06841
:102B60008860FFF7E7FF05460DE0012070BD00BF5C
:102B7000FFF7E0FF401B2A2805D92068C0688007BE
:102B800001D0032070BD2068C0688007F0D12168A3
:102B90004AF6AA200860002070BD00684AF6AA2103
:102BA00001600020704700000248816842681144BB
:102BB000816070470000002010B50024032000F061
:102BC00079F80F2000F008F808B1012401E000F0C6
:102BD00025F8204610BD000070B50E4E05460024B5
:102BE000706898B14FF47A71B1FBF0F00A49096846
:102BF000B1FBF0F000F037FD40B9102D06D20022F5
:102C00002946501E00F036F8356000E001242046C9
:102C100070BD0000000000200C0000200D4808B529
:102C2000016841F000410160016801F0004100913C
:102C3000011F0A6842F001020A60096801F00101FF
:102C40000091016841F080510160006800F08050FF
:102C5000009008BD24380240002809DB00F01F0264
:102C6000012191404009800000F1E020C0F80011EE
:102C700070470000F0B40E4B1B680C46C3F30223F0
:102C8000C3F10705042D00D90425191D072901D218
:102C9000002300E0DB1E012606FA05F1491E214053
:102CA00099409E40761E16403143F0BC02F0FCBEB7
:102CB0000CED00E0064900F0070208684FF6FF033C
:102CC000184040EA0220034A1043086070470000A1
:102CD0000CED00E00000FA05704700002DE9F04718
:102CE0000E46050079D0DFF88481D8F8000000F0A6
:102CF0000100B04214D2012E05D1D8F8001041F0E5
:102D00000401C8F80010D8F8001021F00101314387
:102D1000C8F80010D8F8000000F00100B0425CD103
:102D20002878534C800705D52068A96820F0F0006A
:102D3000084320602878C0075CD04D49686808398E
:102D400002281AD003281BD0096801281BD0890546
:102D5000002966DA216821F0030101432160FFF7B1
:102D6000E9FE6968074641F28830022914D0032938
:102D700020D0012981462AD038E009688903E7E795
:102D800009688901E4E78907E2E700BFFFF7D2FE9F
:102D9000C11B494501D926E081462068C0F3810066
:102DA0000228F3D126E000BFFFF7C4FEC11B49454E
:102DB00001D918E081462068C0F381000328F3D1CF
:102DC00018E000BFFFF7B6FEC11B49450BD82068CD
:102DD000C0F381000128F5D10CE022E0FFF7AAFE44
:102DE000C11B494502D90320BDE8F087206810F0D7
:102DF0000C0FF3D1D8F80010404601F00101B142A8
:102E000011D9012E03D1016841F00401016001686C
:102E100021F0010131430160006800F00100B0427F
:102E200001D00120E0E72878400705D52068E9684F
:102E300020F4E060084320602878000706D5206869
:102E4000296920F4605040EAC100206000F03EF89B
:102E50002168084AC1F30311515CC8400649086063
:102E600006480068BDE8F047FFF7B6BE003C0240E8
:102E70000838024021C600080C0000200000002095
:102E8000014901200867704700004742044805498E
:102E900000680968044AC1F30221515CC8407047C8
:102EA0000C0000200838024031C6000804480549DB
:102EB00000680968044AC1F3C221515CC8407047E8
:102EC0000C0000200838024031C6000870B5154DCE
:102ED0002968154801F00C02042A0CD04410082A75
:102EE0000AD00C2A0AD0281F0068C0F342314FF4E0
:102EF0000040491C884070BD204670BD0B4AC1F39C
:102F00008343D35CC1F381522968521CC90302D5A3
:102F1000A3FB040101E0A3FB00010023FDF708F976
:102F200070BD0000083802400024F40018C60008F4
:102F3000054810B50068000605D5FFF7CDFE02492B
:102F40008020891C087010BD0C3802402DE9F84F14
:102F500004007DD0FC480168006801F00C0700F413
:102F600080362078F94DC00741D0082F12D00C2FA1
:102F700002D1B6F5803F0DD06068012811D008B1AC
:102F8000052818D0286820F480302860286820F4AC
:102F9000802009E02868800329D560680028D8D0FF
:102FA00025E0286840F480302860606890B1FFF721
:102FB000C1FD80460AE0286840F480202860F0E7E0
:102FC000FFF7B8FDA0EB080064287BD828688003D1
:102FD000F6D50CE0FFF7AEFD804605E0FFF7AAFD51
:102FE000A0EB08006428F0D828688003F6D4207885
:102FF000DFF85CB3DFF85C8380074FF001094FF026
:10300000000A35D5042F0AD00C2F00D13EB1E0685C
:10301000F8B1C8F80090FFF78DFD06460BE0286870
:1030200080070BD5E068012812D107E0FFF782FD89
:10303000801B0228C9D828688007F7D5DBF8001064
:10304000226921F4F85141EA0221CBF800100FE087
:1030500077E1C8F800A0FFF76DFD064605E000BF68
:10306000FFF768FD801B0228AFD828688007F7D4D7
:103070002078C00674D53FB1A069E0B3C8F82090AD
:10308000FFF758FD06464AE02868800502D5A0698A
:10309000002884D0206ADBF800105E4601F460410D
:1030A000884210D901F0E6FE0028BDD13068216ABF
:1030B00020F4604008433060217F306861F31F6076
:1030C00030600FE096E0316821F4604101433160E7
:1030D000217F306861F31F603060206A01F0CAFE12
:1030E0000028A1D1216A4FF4004009EB51318840FA
:1030F0009549096800E025E0974AC1F30311515C46
:10310000C8409649086096480068FFF765FD0028AA
:103110006FD125E0FFF70EFD801B02286AD82868D2
:103120008005F7D5DBF80010226A21F460411143D5
:10313000CBF80010227FDBF8001062F31F61CBF8A0
:1031400000100DE0C8F820A0FFF7F4FC064604E0EC
:10315000FFF7F0FC801B02284CD828688005F7D4C4
:103160002078804E000722D57F48616981B1C0F880
:103170000090FFF7DFFC834606E000BFFFF7DAFCB4
:10318000A0EB0B00022835D830688007F6D50EE09A
:10319000C0F800A0FFF7CEFC834605E0FFF7CAFCAD
:1031A000A0EB0B00022825D830688007F6D42078E1
:1031B00040076DD56B484FF0000B10380068C00019
:1031C0000BD468481038016841F0805101600068F4
:1031D0004FF0010B00F08050009064480168C90571
:1031E00014D4016841F480710160FFF7A3FC0090E2
:1031F00008E08DE079E000BFFFF79CFC0099401AE1
:10320000642872D859480068C005F5D5A06801281F
:103210000AD008B1052811D0306820F480703060E1
:10322000306820F4806002E0306840F480703060E4
:10323000A068A8B1FFF77EFC00900DE0306840F474
:1032400080603060F0E700BFFFF774FC0099411A1E
:1032500041F2883081425AD830688005F4D50EE0BA
:10326000FFF768FC009007E0FFF764FC0099411A43
:1032700041F2883081424AD830688005F4D4BBF1ED
:10328000000F05D037481038016821F080510160E7
:10329000606A58B30C2F41D00228504605D0C8F8B8
:1032A0006000FFF747FC044634E04746C8F860007A
:1032B000FFF740FC064604E0FFF73CFC801B0228B9
:1032C00025D828688001F7D4D4E90A1001431E48A4
:1032D000226B036823F47D031A4311430160C7F88E
:1032E0006090FFF727FC044607E010E040E000BFD5
:1032F000FFF720FC001B022809D828688001F7D5B9
:1033000036E000BFFFF716FC001B022802D903209D
:10331000BDE8F88F28688001F4D429E00128F7D0AF
:1033200009480068A26A00F48031914209D1E26A3A
:1033300000F47011914204D1216B00F440008842E6
:1033400016D00120E4E700000838024000380240AF
:10335000043802400000474221C600080C0000204B
:1033600000000020343802408006474200700040D0
:103370000020CDE770B5040009D0606A002540B197
:1033800025616561A56294F8510040B10CE001200F
:1033900070BD6068B0F5827FF4D0E561F2E784F833
:1033A0005050204600F03AF8022084F8510020687E
:1033B000016821F040010160A088218900F4827039
:1033C00001F404410843A18901F400610843217C10
:1033D00001F002010843217D01F001010843218B26
:1033E00001F400710843217F01F03801084394F88B
:1033F000201001F080010843218D01F400510843A1
:1034000021680860A069042101EA10402168486031
:103410006565012084F85100002070BD10B586B0AC
:10342000044614216846FCF7CDFE13492068884203
:1034300020D11248016841F480510160006800F415
:10344000805005900D48001F016841F002010160A5
:103450000068694600F002000590382000900220C4
:10346000019000200290032003900520049004485E
:10347000FFF734FA06B010BD00300140203802409A
:10348000000402402DE9F84F044690F85000002750
:103490000A9E1D4692468B464FF0010901280ED028
:1034A000012084F85000FFF745FB804694F8510056
:1034B000616801280CD0B1F5827F07D102E00220BB
:1034C000BDE8F88FA16809B9042801D00227C2E03D
:1034D000BBF1000F27D0BAF1000F24D01DB394F830
:1034E0005100042802D0052084F8510000206065B6
:1034F000C4F838A0E587A587C4F830B0E586A5866E
:103500002064606420680168490603D4016841F0C2
:1035100040010160E068B0F5006F606805D0E8B375
:10352000012D46D07FE0012795E008B1012D39D16A
:10353000206B21680088C860206B801C2063E08EAF
:10354000401EE0862EE02068816889070FD5E18E55
:1035500069B1B9F1010F0AD1216B0988C160206BF3
:10356000801C2063E08E401EE0864FF0000920683A
:103570008168C9070CD0E18F51B1C068A16B088088
:10358000A06B801CA063E08F401EE0874FF0010914
:10359000FFF7D0FAA0EB0800B04200E009E001D349
:1035A000701C50D1E08E0028CDD1E08F0028CAD108
:1035B0003FE0206B216800780873206B401C20637B
:1035C000E08E401EE0862EE02068816889070FD5D6
:1035D000E18E69B1B9F1010F0AD1216B097801734C
:1035E000206B401C2063E08E401EE0864FF00009F7
:1035F00020688168C9070CD0E18F51B1C068A16B08
:103600000870A06B401CA063E08F401EE0874FF065
:103610000109FFF78FFAA0EB0800B04202D3701C3B
:1036200001D010E07EB1E08E0028CDD1E08F0028DF
:10363000CAD142463146204601F0ACFC28B10127F0
:103640002020606507E0032705E0A06818B920681E
:10365000C16880680090012084F85100002084F83F
:10366000500038462CE710B5401EB0F1807F01D3E2
:10367000012010BD4FF0E02460610F21601702F0BF
:1036800013FA0020A06107202061002010BD000077
:1036900070B590F83820012A26D0012480F83840EF
:1036A000022280F8392003685A689D6822F070066B
:1036B0000A6832435A600268B2F1804F08D00B4B5F
:1036C0009A4205D00A4B9A4202D00A4B9A4204D140
:1036D000496825F080031943916080F83940002142
:1036E00080F83810084670BD022070BD000400400C
:1036F000000800400008014010B5040003D094F811
:10370000390010B107E0012010BD002084F8380016
:10371000204600F017F8022084F83900211D2068A7
:1037200001F05CFD012084F83E0084F83A0084F842
:103730003B0084F83C0084F83D0084F83900002008
:1037400010BD000008B50068B0F1804F12D10A48E2
:10375000016841F0010101600068002200F00100F1
:10376000009005211C20FFF785FABDE808401C20C9
:10377000FFF772BA08BD00002438024090F83910F3
:10378000012901D001207047022180F83910016819
:10379000CA6842F00102CA600068B0F1804F08D0E8
:1037A0000949884205D00949884202D0084988421F
:1037B00004D1816801F00701062903D0016841F0B6
:1037C0000101016000207047000400400008004033
:1037D0000008014070B5044690F83800012817D061
:1037E000012584F83850022084F839002068826866
:1037F00022F0770222F47F4282600868502830D09D
:103800000DDC20284DD005DC98B310283BD148E0D2
:10381000022070BD302844D0402834D139E06028DF
:1038200028D0702806D0B0F5805F2CD0B0F5005FAE
:1038300029D10AE0CB68D1E90121206801F008FD17
:103840002068816841F0770109E0CB68D1E9012166
:10385000206801F0FDFC2068816841F480418160AE
:1038600011E0CA684968206801F004FD5021206811
:1038700007E016E0CA684968206801F00CFD602185
:10388000206801F0EFFC84F83950002084F83800FB
:1038900070BDCA684968206801F0ECFC40212068CE
:1038A000EFE7226801461046EBE7704770B5044623
:1038B000006801694FF00005C943890715D4C16844
:1038C000C943890711D4E91E0161012020762068CF
:1038D00080698007204602D0FFF7E7FF04E000F090
:1038E00078F8204600F076F8257620680169C9430B
:1038F000490717D4C168C943490713D46FF00401BD
:103900000161022020762068806910F4407F204603
:1039100002D0FFF7CAFF04E000F05BF8204600F099
:1039200059F8257620680169C943090716D4C1688A
:10393000C943090712D46FF0080101610420207601
:103940002068C0698007204602D0FFF7AEFF04E080
:1039500000F03FF8204600F03DF825762068016928
:10396000C943C90617D4C168C943C90613D46FF047
:1039700010010161082020762068C06910F4407FA2
:10398000204602D0FFF791FF04E000F022F8204625
:1039900000F020F8257620680169C943C90708D1DD
:1039A000C168C943C90704D1891E0161204600F0DE
:1039B00012F820680169C943490609D4C168C9439E
:1039C000490605D46FF040010161204600F019F866
:1039D00070BD7047704710B50068B0F1804F0FD1CF
:1039E00003F0E2FD07F048FC07F03EF902F074FD39
:1039F00003F044FE07F086FBBDE8104007F0CABFA5
:103A000010BD7047704770B504460068C16821F466
:103A10009071C1602068416921F001014161206B12
:103A2000012804D12068C16821F01001C16020681C
:103A300041694FF0000549060FD5416921F0400169
:103A40004161A06B48B14563A06BFEF724FE20B135
:103A5000A06BFEF76CFE202806D0E585202084F8B8
:103A60003E002563002070BD10202064032070BD3F
:103A7000704710B5044600680068C043C0060AD409
:103A8000204607F015FF204606F066FA2046BDE8FE
:103A9000104003F069BB10BDF8B502680446106819
:103AA000D168536910F00F0F4FF0000553D003F0A9
:103AB000010601F4907737435FD0C20705D0CA05ED
:103AC00003D5226C42F001022264420705D5DA07D1
:103AD00003D0226C42F002022264820705D5DA0785
:103AE00003D0226C42F004022264020707D501F0E1
:103AF0002002324303D0226C42F008022264226C7E
:103B0000002A34D0800604D5880602D5204601F06C
:103B10005CFC20684069216CC0F38010090700D468
:103B200030B3204601F030FC2068416949061BD5BE
:103B3000416921F040014161A06BA8B1584941633E
:103B4000A06BFEF7CDFD002811D0A06B416B01B03A
:103B5000BDE8F040084783060FD58B060DD52046FB
:103B6000BDE8F84001F031BC2046FFF781FFF8BD09
:103B70002046FFF77DFF2564F8BD266B2023012E2C
:103B800052D1C60650D5CE064ED51068506800906A
:103B9000506940062AD5A16B086840680004000CF3
:103BA000EAD0A68D8642E7D9E0858869202818D01A
:103BB000D06820F48070D0602068416921F0010154
:103BC00041612068416921F04001416184F83E3043
:103BD00025632068C16821F01001C160A06BFEF769
:103BE0005AFDA08DE18D401A81B219E0A08DE18DC2
:103BF000401A81B2E08D0028BED00029BCD0D06828
:103C000020F49070D0602068426922F00102426185
:103C100084F83E3025632068C26822F01002C2603A
:103C20002046FFF7EFFEF8BD05062BD50D0629D57A
:103C300094F83D002128F6D1A068B0F5805F01D14D
:103C40002069B0B1206A411C216221680078486077
:103C5000E08C401E0004000CE084E4D12068C168C0
:103C600021F08001C1602068C16841F04001C1605D
:103C7000F8BD206A0088C0F308005060206A801CEC
:103C80002062E5E74006F3D54806F1D5D168204625
:103C900021F04001D16084F83D3000F08CF9F8BD8E
:103CA000BB52000870B5040004D094F83D00002514
:103CB00010B106E0012070BD84F83C50204600F0B1
:103CC00023F8242084F83D002068C16821F40051C5
:103CD000C160204601F0D4FB2068016921F49041C5
:103CE00001612068416921F02A0141612068C168B1
:103CF00041F40051C1602564202084F83D0084F81F
:103D00003E00002070BD00002DE9F04387B006465C
:103D100014216846FCF756FA6049D6F800C0002422
:103D20005F4802250322072380274FF400598C4562
:103D300035D1011DD1F800C04CF4804CC1F800C051
:103D4000096801F480410591016841F001010160B9
:103D50000068029400F0010005905002CDE90005D2
:103D600069465048CDE90323FEF7B8FD4F4D4E4854
:103D7000C5E90004C5E902472C616C61C5E9064943
:103D80002846FEF733FD08B1FDF759FFB563002261
:103D9000022125206E62FEF76DFF25203DE040499F
:103DA000DFF80C810831C4453CD1D1F800C04CF497
:103DB000003CC1F800C0096801F4003105910168B8
:103DC00041F0080101600068029400F008000590CD
:103DD0006020CDE9000569463648CDE90323FEF7AA
:103DE0007DFD324D304844351430C5E90004C5E945
:103DF00002472C614FF440506C61C5E906402846EB
:103E0000FEF7F4FC08B1FDF71AFFB56300220421A8
:103E100026206E62FEF72EFF2620FEF71DFF07B05C
:103E2000BDE8F083DFF89080C445F8D1D1F800C038
:103E30004CF4802CC1F800C0096801F48021059180
:103E4000016841F0040101600068029400F0040080
:103E500005904FF44060CDE9000569461748CDE96B
:103E60000323FEF73BFD114D0F4888352838C5E97F
:103E70000004C5E902472C616C61C5E90649284682
:103E8000FEF7B4FC08B1FDF7DAFEB56300220321AA
:103E900027206E62FEF7EEFE2720BEE700380140C5
:103EA0001C38024000000240586002408804002094
:103EB00000440040000C024000480040000802405E
:103EC00090F83E30202B0ED159B152B190F83C30D1
:103ED000012B08D0012380F83C300023036301F05C
:103EE0005DBB012070470220704710B5044607F003
:103EF00003FD204606F04EF82046BDE8104003F0D2
:103F000055B970472DE9F843044690F83D001F4627
:103F100016460D4620284CD1C5B1BEB194F83C00E0
:103F2000012846D0012084F83C004FF00008C4F876
:103F30004080212084F83D00FEF7FCFDA6848146E8
:103F4000E684A068B0F5805F03D004E00120BDE8FE
:103F5000F883206928B12E465FF0000584F83C8084
:103F60000EE00026FAE78021204601F04FFBA0B9C1
:103F7000AEB116F8010B21684860E08C401EE08469
:103F8000E08C4B464FF0000200970028EBD14FF039
:103F90004001204601F03AFB30B10320D7E735F865
:103FA000020BC0F30800E6E7202084F83D00002063
:103FB000CDE70220CBE7704710B5044600F04DF97D
:103FC000A22000F025F900F076F9022000F020F997
:103FD00000F071F9207803F0C9FA00F019F900F047
:103FE0006AF9607803F0C2FA00F012F900F063F9A0
:103FF000A07803F0BBFA00F00BF900F05CF9E07870
:1040000003F0B4FA00F004F900F055F9207903F058
:10401000ADFA00F0FDF800F04EF9607903F0A6FA71
:1040200000F0F6F800F047F9A07903F09FFA00F0ED
:10403000EFF800F040F9BDE8104000F025B90000AD
:1040400010B500F00AF9A22000F0E2F800F033F910
:10405000022000F0DDF800F02EF900F0FEF8A320B9
:1040600000F0D6F800F027F9012000F0ACF800F0DD
:104070007F0002F027FA1B4C2070012000F0A3F80B
:1040800000F07F0002F01EFA6070012000F09BF843
:1040900000F03F0002F016FAA070012000F093F843
:1040A00000F03F0002F00EFAE070012000F08BF803
:1040B00000F0070002F006FA2071012000F083F8FA
:1040C00000F00F0002F0FEF96071002000F07BF8B4
:1040D00002F0F8F9A07100F0D7F8BDE8104000F048
:1040E00009BF00008901002070B50D46044600F0AC
:1040F000B4F8A22000F08CF800F0DDF8204600F0C3
:1041000087F800F0D8F8284600F082F800F0D3F8DD
:10411000BDE8704000F0B8B810B507F077F900219D
:104120000846FFF7E1FF1F210120FFF7DDFF822195
:104130000D20FFF7D9FF00210E20FFF7D5FFFFF775
:104140007FFF0848417911B1C178002909D10121C7
:104150004171C1700348FFF72FFFBDE81040FFF722
:104160006FBF10BD89010020FEE710B5002007F0E9
:1041700025F907F04BF9002007F028F9022003F099
:1041800000FA012007F01AF9022003F0FAF9BDE85D
:104190001040002007F012B910B5002007F00EF90A
:1041A00007F034F9012007F011F9022003F0E9F9D2
:1041B000012007F003F9022003F0E3F9BDE8104005
:1041C000002007F0FBB870B50646002407F00CF994
:1041D0000025002007F0F2F8022003F0D2F90120B8
:1041E00007F0ECF86006040E07F0F8F808B1641C5C
:1041F000E4B2012003F0C5F96D1CEDB2082DE8D33F
:104200001EB1FFF7B2FF204670BDFFF7C5FFFAE70A
:1042100070B5044607F0FAF8002007F0CFF8002543
:10422000200601D5012000E0002007F0CFF860064D
:10423000040E022003F0A5F9012007F0BFF80220C8
:1042400003F09FF9002007F0B9F8022003F099F974
:104250006D1CEDB2082DE3D370BD10B507F0D6F894
:10426000012007F0B3F8012007F0A8F8042003F0BC
:1042700088F9002007F0AAF8042003F082F9BDE8CD
:104280001040002007F09AB810B507F0BFF80020E2
:1042900007F094F8002007F099F8042003F071F972
:1042A000012007F08BF8012007F090F8BDE81040DE
:1042B000042003F066B910B5002407F095F801203A
:1042C00007F084F8012003F05CF9012007F076F88C
:1042D000012003F056F907E0641CE4B2FA2C03D97C
:1042E000FFF7D2FF012010BD07F078F80028F3D1C6
:1042F00007F064F8002010BD10B5E22001F056FB75
:104300006420FEF7D9FA242001F050FB2B2001F0A5
:104310004DFB812001F04AFBC02001F047FB8420C7
:1043200001F044FB892001F041FBA32001F03EFB9A
:10433000C52001F03BFBC82001F038FB102001F044
:1043400035FBD12001F032FBD52001F02FFBDA2024
:1043500001F02CFBE92001F029FBF42001F026FB01
:10436000252001F023FBF62001F020FB5A2001F06C
:104370001DFBF52001F01AFB002001F017FBF720D0
:1043800001F014FB9F2001F011FBF82001F00EFB5F
:10439000F12001F00BFB9F2001F008FBBDE810406D
:1043A000AD2001F003BBF0B585B0DDE90EE4DDE939
:1043B0000C7CDDE90A568DE8E05000F012F8216827
:1043C0000161206005B0F0BD10B501460068002213
:1043D0000A6003E0046903F029F920460028F9D1B6
:1043E00010BD2DE9F05F07460AA81C4690E8000DB5
:1043F00015460E461420DDF8349006F0A9FF00287B
:104400000FD0C770067185604471C0F80C8080F8C9
:1044100006A080F801B080F802900E99017000218A
:104420000161BDE8F09F00002DE9FE4388460400CD
:104430007ED000251026607830B101280DD00228EA
:1044400025D0032877D138E0CDE900652179E078DF
:104450000823E268FDF730FD6DE0A07920B3012864
:104460000BD0022867D12020CDE900052179E07822
:104470001023E268FDF7A0FD5DE01420CDE9000502
:104480002179E0780B23E268FDF7D4FD53E0B8F121
:10449000000F09D00096CDE9016563792179E078B4
:1044A000A268FDF729FD46E0CDE900652179E078B5
:1044B0000823E268FDF744FD3DE02078E778C00777
:1044C00009D0CDE900652179082328223846FDF777
:1044D0005FFC0837FFB2A0780A2816D2DFE800F0A8
:1044E00015050B3115151555156FCDE90065082318
:1044F000217925227CE0CDE90065217910233F4A0E
:104500003846FDF7D9FC1037FFB22078C00712D02B
:10451000CDE900652179082329223846FDF738FCCA
:10452000CDE9006508370823F8B221793A2200E086
:1045300005E0FDF72DFC2469002C7FF47CAFBDE87D
:10454000FE83CDE90065217908236D223846FDF709
:104550001FFCCDE900650837FFB2217908236722E7
:104560003846FDF715FCCDE900650837FFB2217923
:1045700008232F223846FDF70BFCCDE900650837EC
:104580000823FFB221794C2232E0CDE90065217980
:1045900008236B223846FDF7FBFBCDE900650837A1
:1045A000FFB22179082350223846FDF7F1FBCDE90F
:1045B000006508370823FFB22179612218E0CDE9B0
:1045C00000652179082370223846FDF7E1FBCDE92B
:1045D00000650837FFB22179082370223846FDF7BD
:1045E000D7FBCDE90065083721790823FFB2742293
:1045F0003846FDF7CDFB083786E70000B9E4000830
:104600003EB5002416480094019414490294C0E970
:1046100000148460C460046144618461C461046204
:1046200080F824400125856280F82C401021C0E9E3
:104630000D1480F83C40FDF77FFE08B1FDF7FFFA4E
:104640001720CDE90005694602940548FDF7CCFD29
:10465000002801D0FDF7F3FA3EBD00000024014020
:10466000C4020020114808B5016841F08071016062
:104670000068002200F08070009003210D20FEF7FA
:10468000F9FA0D20FEF7E8FA002202210F20FEF7CA
:10469000F1FA0F20FEF7E0FA002204211020FEF7C5
:1046A000E9FABDE808401020FEF7D6BA1C380240EF
:1046B0002DE9F04F87B014216846FBF783FD87484A
:1046C000016841F010010160016801F010010591DD
:1046D000016841F004010160016801F004010591E5
:1046E000016841F020010160016801F0200105919D
:1046F000016841F001010160016801F001010591CB
:10470000016841F002010160016801F002010591B8
:10471000016841F0080101600068012200F0080012
:1047200005904FF482716E48FEF7FFF9002248F2BF
:1047300040016B48FEF7F9F9DFF8A8B100228121AA
:104740005846FEF7F2F94FF47F4A00225146664878
:10475000FEF7EBF94FF4E074012221466348FEF7BF
:10476000E4F900224FF490516048FEF7DEF901228F
:1047700080215D48FEF7D9F9012221465C48FEF709
:10478000D4F97E200326CDE900060025694602956E
:104790005846FEF7A3F84EF23F00CDE90006694601
:1047A00002955248FEF79AF841F6BB00CDE90006A3
:1047B000694602954A48FEF791F84FF00408012433
:1047C0004FF00209CDE90084CDE9029669464448DC
:1047D000FEF784F8402701AA009782E87000694636
:1047E0003F48FEF77BF84CF60760CDE900066946C6
:1047F00002953F48FEF772F881208DE83100694646
:1048000058460395FEF76AF84FF47E40CDE900055F
:10481000694658460295FEF761F83003CDE9000578
:10482000694633480295FEF759F8CDE900A4CDE971
:10483000024669462C48FEF751F8CDE900746946F6
:104840002A48CDE90245FEF749F84FF49C50CDE9DE
:104850000004CDE9024669462448FEF73FF82702E6
:10486000CDE90074CDE9024669461D48FEF736F8E9
:10487000CDF80080CDE9016569461E48FEF72EF8A7
:10488000E003CDE900040294694615480394FEF75D
:1048900025F81F20CDE90006694602951248FEF76B
:1048A0001DF880208DE8710069460F48FEF716F864
:1048B000C020009001AA112082E8510069460C48EE
:1048C000FEF70CF8CDE90074CDE9024969460848C5
:1048D000FEF704F807B0BDE8F08F00001C38024076
:1048E0000000024000100240000C0240000802409C
:1048F0000004024000140240094810B50749016055
:104900000021416040F6FF718160FEF719F900282F
:1049100003D0BDE81040FDF792B910BD0030004053
:10492000180300200D4810B50B4901604FF4827147
:104930004160002181604FF40072C160C0E906212E
:1049400081620A21C162FEF715FD002803D0BDE88F
:104950001040FDF774B910BD003001402403002061
:1049600010B586B000241748009401940294039473
:1049700004944FF08041059401601F21C0E90114A7
:1049800040F2E731C0E9031480214161FEF7B4FE33
:1049900008B1FDF754F94FF480500090694609487A
:1049A000FEF718FF08B1FDF74AF9049404A9054879
:1049B0000594FEF76DFE002801D0FDF740F906B022
:1049C00010BD00007C0300200C4810B50A490160AE
:1049D0004FF4E1314160002181600C22C160C0E9E7
:1049E00004128161C161FFF75DF9002803D0BDE8C1
:1049F0001040FDF724B910BD00380140BC03002071
:104A00000C4810B50A4901604FF41651416000216D
:104A100081600C22C160C0E904128161C161FFF7AD
:104A200041F9002803D0BDE81040FDF708B910BDDA
:104A300000440040000400200C4810B50A49016001
:104A40004FF416514160002181600C22C160C0E921
:104A500004128161C161FFF725F9002803D0BDE888
:104A60001040FDF7ECB810BD0048004044040020A1
:104A7000FEE7FEF75DFAFEE72DE9F04387B00DF1A2
:104A8000380E81469EE8E011DDE91304CDE904C04B
:104A90008DE8E001484600F09BF8216859B189692A
:104AA0008161216841612168896948612168886163
:104AB00007B0BDE8F0832060FAE770B504460068EF
:104AC000002808D0456902F0B1FD216828468142DE
:104AD000F8D10020206070BD10B5002808D0827980
:104AE000836940698342847902FB0142F9D110460F
:104AF00010BD00002DE9FE438846074604005ED045
:104B0000304E10256078B8B1012836D0022853D134
:104B10002078B8F1000F00F0010009D00095CDE930
:104B200001506379E178A078E268FDF7E5F943E0A8
:104B3000CDE9005022693AE020788007A07911D5AC
:104B40000A2801D2303000E0373030700020707019
:104B50002078082300F00100CDE90050E178A0782A
:104B6000184A27E00A22B0FBF2F130313170B0FB75
:104B7000F2F102FB11003030E9E705F01BFC0E28D2
:104B800002D00F2818D109E02078082300F0010096
:104B9000CDE90050E178A0780B4A0BE020780B4972
:104BA00000F00100CDE90050A07951F82020E17813
:104BB000A0780823FDF7C4F96469BC42A2D1BDE81E
:104BC000FE830000D0000020A3F5000814000020A0
:104BD0002DE9F05F0746DDE90E8A1C4615460E46B4
:104BE0002020DDF830B0DDF8289006F0B1FB002879
:104BF00013D0406180618770C670C560447180F8D1
:104C000006B00D99C17180F80880C0F81090027844
:104C10006AF3410202700B994170BDE8F09F0000F9
:104C20000E48C16880380029416106D04A692AB11E
:104C30008261107840F00100107070474269D268BC
:104C40004261536933B151698161087840F00100D4
:104C5000087070479142F1D170470000B000002009
:104C60002DE9F04387B00DF1380E81469EE8E01142
:104C7000DDE91304CDE904C08DE8E001484600F009
:104C8000CFF8216859B1096901612168C1602168C3
:104C90000969C8602168086107B0BDE8F083206039
:104CA000FAE700002DE9F041054604680B480027AB
:104CB00007604760286800280ED0E668606918B170
:104CC00004F11400FFF7F9FE204602F0AFFC28685B
:104CD0003446A042F1D12F60BDE8F081C800002029
:104CE0002DE9FE4F8A4601211646002873D03B4D20
:104CF0002A680AB16A685AB9286068606A68D26826
:104D00006A60D268824203D0491CC9B20729F5D330
:104D10002C684FF083413046A778FBF770FA834642
:104D20004FF084413046FBF76AFA81461026A846C8
:104D3000A0785D46C01BFBF7C9FC2946FBF7B7FA14
:104D400001464846FBF75BFAFBF7ECFCC5B220785E
:104D500081070BD500F0010205F11100C1B2681EF8
:104D6000C0B205F051F9102007F0BAF92078010718
:104D70000AD500F001000096CDE90160637829466C
:104D800000206268FDF7B8F82078C1060ED4BAF1A9
:104D9000000F0BD000F001000096CDE901606378B0
:104DA000294600206268FDF7A7F809E000F001003D
:104DB000CDE90060082329460020A268FDF7C0F86D
:104DC000606910B15146FFF795FED8F80400E46819
:104DD000C068A042ACD1BDE8FE8F0000C800002032
:104DE0000E4910B5CA688039002A4A6106D0937806
:104DF000834204D1107840F00100107010BD4B695F
:104E0000DB684B619C78844204D1187840F0010043
:104E1000187010BD9A42F2D110BD0000B000002001
:104E20002DE9F05F0746DDE90D8ADDE90A9B1C46A6
:104E300015460E46182006F08BFA002816D0C060E2
:104E40000061877080F8039001780C9A21F00101CD
:104E50006BF3410162F3820168F3C3016AF3041149
:104E600001704660457084600F994161BDE8F09F14
:104E70007047000038B51C49002309681B4A11F02F
:104E8000F00F23D118491C310C68E500184C03D5EC
:104E9000216801F4C0540EE00D6845F080550D60A6
:104EA0000D6805F08055009524680D6804F4C05421
:104EB00025F080550D60B4F5C05F07D1B0F5404FC7
:104EC00004D11068012340F004001060106820F045
:104ED000010018431060106800F00100984201D0F2
:104EE000012038BD002038BD08380240003C024097
:104EF0000070004010B507F03DF900280DD00749BB
:104F00000648491E40780978884206D10122BDE84A
:104F1000104080210248FDF708BE10BD8901002025
:104F2000001002400148C07870470000890100204D
:104F300001488078704700008901002001484078CE
:104F40007047000089010020014840797047000047
:104F50008901002001480078704700008901002085
:104F600001480079704700008901002001488079DC
:104F70007047000089010020054949780844C0B203
:104F80003C2800D33C380249491E08707047000095
:104F90008901002038B504461248134B0068B0FB65
:104FA000F3F04FF47A73584300906068B0F5827F55
:104FB0000DD10B46009200228021204600F016F809
:104FC00070B1606D40F020006065032038BD00982E
:104FD00030B1401E009020688068C0430006F6D5BE
:104FE000002038BD0C00002000366E012DE9F8438A
:104FF0001E46914688460446089DFDF79BFD401BD2
:10500000351AFDF797FD074625480068C0F3CB30F9
:10501000684338E0701C37D0FDF78CFDC01BA842F8
:1050200003D215B1009860B32CE02068416821F0EC
:10503000E00141606068B0F5827F0BD1A068B0F5F7
:10504000004F02D0B0F5806F04D12068016821F0D4
:1050500040010160A06AB0F5005F09D120680168D5
:1050600021F4005101602068016841F400510160A1
:10507000012084F85100002084F850000320BDE88E
:10508000F8830025401E00902068816838EA0100FE
:1050900004D000214945BDD10020F0E70121F9E706
:1050A0000C000020704730B505460C46881E81B2C2
:1050B0002846FCF7CFF8291901F8020D000A4870BC
:1050C00030BD00007C224FF44071014800F07EBBEF
:1050D000FC2500207CB5002510240823164A29460B
:1050E0002846CDE90045FCF72BFFFFF727FF0646D2
:1050F000FFF71EFF034611A206210F48009600F09D
:10510000B9FC06F0C9FB40B10C2810D108230021DE
:105110000D4A3C20CDE9004507E00120CDE90040E3
:10512000094A0823483A00213C20FCF709FFBDE862
:105130007C4005F01BB8000074000020253032646C
:105140003A2530326400000083F60008FDF72CBDDC
:1051500000B593B034216846FBF734F814210DA84C
:10516000FBF730F81848016821F4C05141F40061A0
:1051700001600B200090012010210190CDE9030176
:10518000059002200990C0030A904FF440200B9034
:1051900088040C906846FDF7D9FE08B172B6FEE7A8
:1051A0000F200D9003200E9000200F901090119072
:1051B00001210DA8FDF792FD08B172B6FEE7FDF7DB
:1051C0005FFE13B000BD000000700040704700009B
:1051D0000148FEF76BBB00007C03002070B502683D
:1051E0004FF08046154B164CB04203D0984201D088
:1051F000A04205D122F070054A682A43B0420CD083
:1052000098420AD0A04208D00E4B984205D00E4BCF
:10521000984202D00D4B984203D122F44073CA68E1
:105220001A430B6922F080021A4302608A68C26244
:10523000096881620121416170BD000000040040E5
:105240000008004000080140000C0140001001402F
:1052500010B5846842EA032224F47F440A432243BF
:10526000826010BD826822F070020A4342F007019A
:105270008160704710B5036A046A24F00104046277
:10528000846924F0F00444EA021423F00A020A4379
:105290008461026210BD10B5036A23F0100303623B
:1052A0008369046A23F4704343EA023224F0A003C2
:1052B00043EA01118261016210BD10B5406A00210C
:1052C000C185C184FEF7D4FB10BD70B5446A206867
:1052D000406994F83D10C0F3C0100025212904D185
:1052E00018B1E584204600F067F82068406994F81A
:1052F0003E10C0F38010222904D118B1E585204664
:1053000000F042F8206C40F0100020642046FEF7C8
:10531000AFFB70BD10B50146406A0968096889068F
:105320001BD40021C1850168CA6822F48072CA605A
:1053300001684A6922F001024A6101684A6922F063
:1053400040024A61202180F83E10016B012904D1FE
:105350000168CA6822F01002CA60016B012902D0FC
:10536000FEF7C3FD10BD818DFEF74CFB10BD10B5DF
:10537000406A016B012902D0FEF7C3FD10BD818D8B
:105380004908FEF73FFB10BD0168CA6822F490721D
:10539000CA6001684A6922F001024A61016B012971
:1053A00004D10168CA6822F01002CA60202180F886
:1053B0003E100021016370470168CA6822F0C002F4
:1053C000CA60202180F83D10704708B590F83E1063
:1053D000222901D0022008BD82684FF480539A42EE
:1053E00001D1016921B1816A9A421BD04AB10AE018
:1053F0000268816A5268C2F308020A80816A891CC5
:1054000008E0026972B10268526802F07F020A7015
:10541000816A491C8162C18D491E0904090CC1853C
:1054200003D019E002685268F1E70168CA6822F007
:105430002002CA600168CA6822F48072CA600168EA
:105440004A6922F001024A61202180F83E10016B76
:10545000012903D0FEF749FD002008BD00210163AA
:105460000168CA6822F01002CA6001680A68D206A0
:1054700002D50A6849680091818DFEF7C3FAEBE70F
:105480002DE9F041044600680169E26821F44051C9
:10549000114301612169A068E26908436169114310
:1054A00022680843D16849F20C6399430143D160F3
:1054B00020684169A26921F4407111434161364974
:1054C0002068884202D1FDF7F1FC01E0FDF7DEFC27
:1054D0000246E36964203221B3F5004F02EBC203B8
:1054E00003EB021362682BD09200B3FBF2F5B5FB1D
:1054F000F0F5B3FBF2F66FF018077D4306EB850578
:10550000B3FBF2F601EB0515B5FBF0F5B6FBF0F6D3
:1055100005F0F00505EB0615B3FBF2F6B3FBF2F26E
:10552000B2FBF0F27A4306EB820201EB0211B1FB0F
:10553000F0F000F00F00216828448860BDE8F08199
:105540005200B3FBF2F6B6FBF0F6B3FBF2F7B3FB97
:10555000F2F56FF0180C06FB0CF607EB860601EB74
:10556000C606B5FBF0F5B6FBF0F62D0106F0F80621
:1055700005EB4605B3FBF2F6B3FBF2F2B2FBF0F239
:1055800002FB0CF206EB820201EBC201B1FBF0F070
:1055900000F00700CFE700000038014038B5816215
:1055A00082850025134604460564222084F83E00C7
:1055B000A26B13489062A26B1248D062A26B124891
:1055C0001063A06B0A4645632168A06B091DFDF7B7
:1055D0003BF9206801684168009184F83C50C1683B
:1055E00041F48071C1602068416941F0010141616D
:1055F0002068416941F040014161002038BD000050
:10560000155300086F530008CB5200082DE9F041F4
:10561000984617460E460446069D1DE0681C1BD0A2
:105620002DB1FDF787FAA0EB0800A84214D9206835
:10563000C16821F4D071C1602068416921F0010185
:105640004161202084F83D0084F83E00002084F869
:105650003C000320BDE8F0812068006836EA0000C5
:1056600004D00020B842D9D00020F3E70120F9E7A8
:1056700010B50448FEF710FABDE810400148FEF7E7
:10568000F8B90000BC03002010B50448FEF704FA86
:10569000BDE810400148FEF7ECB90000000400200E
:1056A00010B50448FEF7F8F9BDE810400148FEF7D0
:1056B000E0B9000044040020FEE7000070B50403D8
:1056C00000F0D2F800F07AF80E4D00228021284632
:1056D000FDF72BFA202000F05BF8C4F3074000F040
:1056E00057F8C4F3072000F053F8E0B200F050F888
:1056F000012280212846FDF718FABDE8704000F02D
:105700005DB80000000C02402DE9F041134F154632
:105710000C460646002280213846FDF706FA032093
:1057200000F036F8C4F3074000F032F8C4F3072065
:1057300000F02EF8E0B200F02BF8002405E0FF2086
:1057400000F026F83055641CA4B2AC42F7D33846BA
:10575000BDE8F04101228021FDF7E7B9000C0240CD
:1057600070B50A4D002280212846FDF7DEF905209C
:1057700000F00EF8FF2000F00BF804460122802113
:105780002846FDF7D2F9204670BD0000000C02400B
:1057900001B582B000208DF804000A20009001239A
:1057A00001AA02A90448FDF76DFE10B1FF208DF893
:1057B00004009DF804000EBD240300202DE91040D4
:1057C000FFF7CEFFC007FBD110BD00002DE9F05F51
:1057D000C1F30B06DFF88C800F0BC6F580548946A9
:1057E00082461546A24200D8144639038B464FF430
:1057F00080524046FFF788FF002006E0321818F874
:105800000210FF2903D1401C80B2A042F6D3A0426F
:1058100022D23846FFF752FF002006E01AF8002097
:105820008319401C08F8032080B2A042F6D35946E1
:105830004FF480524FEA080000F02AF8A5420FD03A
:10584000281BA244A144002685B24FF480547F1C3B
:10585000A542CAD82C46C8E7224649465046EBE73F
:10586000BDE8F09F7812002010B5084C002280217E
:105870002046FDF75AF90620FFF78AFF204601224D
:10588000BDE810408021FDF750B90000000C024037
:105890002DE9F0410746C8B2C0F580740E461546A2
:1058A000A24200D814464FF480782246314638464A
:1058B00000F00EF8A54208D0281B2744264485B2E4
:1058C0004446A542F1D82C46EFE7BDE8F081000040
:1058D0002DE9F04115460C460646FFF7C5FF134F6C
:1058E000002280213846FDF720F90220FFF750FF03
:1058F000C4F30740FFF74CFFC4F30720FFF748FF4E
:10590000E0B2FFF745FF002404E0305DFFF740FF01
:10591000641CA4B2AC42F8D3012280213846FDF7C2
:1059200004F9BDE8F041FFF749BF0000000C024058
:10593000810901F0010201F00201C2EB0212C1EB88
:10594000011102EB0111CAB2010901F0010370B5A6
:1059500001F00201C3EB0313C1EB011103EB0111D1
:10596000CCB2810801F0010301F00201C3EB031383
:10597000C1EB011103EB0111CDB200F0010100F008
:105980000200C1EB0111C0EB001001EB0010C6B228
:10599000104600F03DF8204600F03AF8284600F0A6
:1059A00037F83046BDE8704000F032B82DE9F041DC
:1059B000144E04464FF48075002229463046FDF708
:1059C000B4F8114F002269003846FDF7AEF8012205
:1059D00029463846FDF7A9F8002280213846FDF710
:1059E000A4F82146094806F0A3FB002229463846C0
:1059F000FDF79BF829463046BDE8F0410122FDF74E
:105A000094B800000000024000080240000C024070
:105A10002DE9F041144E04464FF4807500222946CA
:105A20003046FDF782F8114F012251023846FDF74A
:105A30007CF8012229463846FDF777F800228021BC
:105A40003846FDF772F82146094806F071FB00223E
:105A500029463846FDF769F829463046BDE8F04149
:105A60000122FDF762B80000000002400008024079
:105A7000000C02400FB47CB50C0009AD01D0611ED2
:105A800000E00021CDE90001064B6A46294608984E
:105A900000F000F9002C02D0009A002111707CBCAB
:105AA0005DF814FB9B6300080907090E002804DB5E
:105AB00000F1E02080F80014704700F00F0000F1C2
:105AC000E02080F8141D704701480068704700000E
:105AD000C002002002E008C8121F08C1002AFAD143
