:020000040800F2
:10000000F09D00203D0200087DCF0008F1AC000803
:1000100011BF0008792F000889FC000800000000CB
:100020000000000000000000000000004DEA000891
:100030007374000800000000B9E7000875EF0008BD
:10004000570200085702000857020008570200082C
:10005000570200085702000857020008570200081C
:10006000570200085702000857020008570200080C
:1000700057020008CD54000857020008D954000860
:10008000E55400085702000857020008570200080C
:1000900057020008570200085702000857020008DC
:1000A00057020008570200085702000857020008CC
:1000B000F9EF00085702000857020008570200082D
:1000C00057020008570200085702000857020008AC
:1000D000570200087DFB000895FB0008ADFB0008F7
:1000E000570200085702000857020008570200088C
:1000F00057020008000000005702000857020008DD
:10010000570200085702000857020008570200086B
:1001100057020008570200085702000800000000BC
:100120005702000800F002F800F078F80AA090E802
:10013000000C82448344AAF10107DA4501D100F0A2
:100140006DF8AFF2090EBAE80F0013F0010F18BFF7
:10015000FB1A43F001031847647E0200847E02000C
:1001600010F8013B0A4413F0030408BF10F8014BD8
:100170001D1108BF10F8015B641E05D010F8016B5B
:10018000641E01F8016BF9D1002D15D010F8014B58
:1001900003F00C030C2BA1EB04040ABF10F8013B85
:1001A000A4EB8314A4EB032405F1010314F8016B01
:1001B0005B1E01F8016BF9D5914238BF10F8013B85
:1001C000D1D370470023002400250026103A28BF11
:1001D00078C1FBD8520728BF30C148BF0B607047B9
:1001E000662925F00785642900F0C8810020704742
:1001F0001FB59DE8030000F061FB00F0B7FE0400AE
:100200000020002124F0F8FB401C60600020002149
:1002100024F0DCFBE0601FBD10B510BD00F0F0FF66
:100220001146FFF7E5FF1FF0ABFA01F093FA03B4B4
:10023000FFF7F2FF03BC01F003FB00000948804711
:1002400009480047FEE7FEE7FEE7FEE7FEE7FEE7B8
:10025000FEE7FEE7FEE7FEE704480549054A064BD0
:1002600070470000F5EF000825010008F07D002030
:10027000F09D0020F08D0020F08D002070B5A0FBD7
:100280000140B4F1805170F1000024BF002070BD26
:10029000204600F007F805001CBF214600F0A5FA33
:1002A000284670BD70B5064600F0ECFA056806F108
:1002B0000B0020F00704B4429CBF002070BD2B4609
:1002C0006A68BAB11068A04210D304F108018842EC
:1002D0003CBF5068586007D35168101941601168DD
:1002E000091B016058601460101D70BD13465268F0
:1002F000002AE7D12146284600F0CCFA0028DED1BA
:1003000070BD70B50446051F00F0BCFA0068002CF3
:1003100014BF446870BD002C18BFAC423CBF2046DF
:100320006468F8D301680A18AA4218BF456003D16F
:100330002A6805461144016028684119A1421CBF82
:100340006C6070BD6168696021680844286070BD98
:1003500070B50D460646041F00F094FAD0F800C0B0
:10036000C5B1E6B105F10B0020F00703AB423CBF7D
:10037000002070BD2068984238BFDCF8042013D3F9
:10038000C11A08292FD3E01840F8041B2360FFF797
:10039000B8FF28E03046FFF7B4FF002070BD2846C4
:1003A000BDE87040FFF77EBF002A18BFA2423CBFE5
:1003B00094465268F8D30119914216D11168084445
:1003C000984212D3C11A08293CBF2060506808D354
:1003D0005168E0184160216812681144C91A01602F
:1003E0002360CCF80400201D70BD181FFFF75AFFD2
:1003F000050007D021680A1F211D00F081FD201D86
:10040000FFF77FFF284670BD53EA020C00F06980B9
:100410002DE9F04B4FF00006002B1FBFB3FA83F518
:1004200003FA05F424FA05F65E4012BF1643B2FA49
:1004300082F502FA05F4C5F120051EBF22FA05FC7B
:1004400044EA0C04203556EA044C4FEA144418BF21
:10045000641C4FF000084FF00009904271EB030C50
:1004600039D3002919BFB1FA81F701FA07F6B0FABA
:1004700080F700FA07F6C7F120071EBF20FA07FC35
:1004800046EA0C062037B6FBF4FCA7EB0507103F45
:1004900007F01F0BCBF120060CFA0BFB2CFA06F62B
:1004A00044BFB3460026202FA4BF5E464FF0000B8A
:1004B0005BEA060C08BF4FF0010B19EB0B09ABFB15
:1004C000027C48EB0608C01B06FB02CC0BFB03CCEE
:1004D00071EB0C01C1E70B46024641464846BDE8B8
:1004E000F08B13B54FF000004FF00001AFF3008028
:1004F000BDE81C40704700000FB41CB50C0007AAF3
:10050000009001D02044401E074B7B446946019077
:10051000069800F082FC002C03D06946002000F011
:100520008FFC1CBC5DF814FB3D09000070B504464F
:1005300085690068C10601D5302600E02026C00785
:1005400007D070BDD4E9012130469047206A401C95
:1005500020626D1EF6D570BD70B5044685690078C1
:10056000C00707D170BDD4E9012120209047206A3F
:10057000401C20626D1EF6D570BD00002DE9F041D3
:100580000646002410687529314616A510D0AFF331
:100590000080002802DA404213A507E031688A078C
:1005A00001D512A502E0490704D511A5012401E0F7
:1005B000AFF3008000210A2206F1240709E0B0FB16
:1005C000F2FCB0FBF2F302FB1C003030785418460A
:1005D000491C0028F3D123462A463046BDE8F041A5
:1005E00000F0ADB9000000002D0000002B0000005D
:1005F000200000002DE9F05F894604464FF0000A14
:10060000DFF824B1FB44C0F820A02046E168884709
:1006100000287DD0252806D0D4E901219047206A02
:10062000401C2062F1E700255F462046E1688847CC
:100630002028064607DB312E05D2B81910F8200C09
:1006400008B10543F1E7A80701D525F00405C4F872
:100650001CA00027C4F818A02A2E09D030460FF09D
:10066000AEFD38B304EB8708303EC8F8186019E0D7
:1006700059F8041B204604EB87029161E168884722
:10068000012F064618D1E069002820DA25F0200560
:100690001DE0D8F8180000EB800006EB4000303871
:1006A000C8F818002046E168884706460FF087FD25
:1006B0000028EED1012F0AD02E2E08D12046E16865
:1006C00088477F1C0646022F45F02005C4DBA06941
:1006D000002803DA404245F00105A061E80701D097
:1006E00025F01005A6B1A6F14100192802D8203640
:1006F00045F400654A463146204625604D46FFF7E1
:100700006FFD60B1012807D0ED1D25F0070000E066
:1007100007E000F1080978E705F1040975E73046BC
:100720007AE7206ABDE8F09F0C79020030B50546F3
:100730000B462A4613F8014B12F8010B08B1A042F0
:10074000F8D01CB1002802D06D1CF1E7284630BD5E
:10075000032A40F2308010F0030C00F0158011F8ED
:10076000013BBCF1020F624498BF11F801CB00F8C5
:10077000013B38BF11F8013BA2F1040298BF00F819
:1007800001CB38BF00F8013B11F0030300F0B88340
:10079000083AC0F0088051F8043B083A51F804CBFD
:1007A000A0E80810F5E7121D5CBF51F8043B40F8C3
:1007B000043BAFF30080D20724BF11F8013B11F8CE
:1007C00001CB48BF11F8012B24BF00F8013B00F812
:1007D00001CB48BF00F8012B704702F0FF0343EA4A
:1007E000032242EA024200F002B84FF0000204295C
:1007F000C0F0128010F0030C00F01B80CCF1040C50
:10080000BCF1020F18BF00F8012BA8BF20F8022B83
:10081000A1EB0C0100F00DB85FEAC17C24BF00F829
:10082000012B00F8012B48BF00F8012B70474FF057
:10083000000200B5134694469646203922BFA0E830
:100840000C50A0E80C50B1F12001BFF4F7AF09073C
:1008500028BFA0E80C5048BF0CC05DF804EB89002D
:1008600028BF40F8042B08BF704748BF20F8022B70
:1008700011F0804F18BF00F8012B70477047704788
:100880007047000000487047947D00207047704713
:100890007047704738B504460A4600206946AFF3F2
:1008A0000080002808BF38BD02460099204600F0AD
:1008B00065FB012038BD012000F09ABCF8B5AFF30C
:1008C0000080054600200C46102000BF0646A819EF
:1008D000A0420DD9324669460020AFF300800700E0
:1008E00008BF00F085FC0098A04218BF0546C41957
:1008F000FFF7C8FF05600746F01D20F00700461906
:10090000284600F00AF8B44208BFF8BDA21B3146E1
:100910003868BDE8F84000F031BB00210160C0E953
:10092000011070471020704710B500F023FB0068DD
:1009300010BD10B5044600F01DFB046010BD2DE98C
:10094000F0470D4699469246044600F12408016896
:10095000880604D5E06921F01001216000E0012043
:10096000A84201DD471B00E00027A1697A1902EBCC
:100970000900081AA0612078C00602D42046FFF7BB
:10098000D5FD002608E0D4E901211AF806009047B9
:10099000206A401C761C20624E45F4DB2078C0069D
:1009A0000AD52046FFF7C2FD06E0D4E90121302038
:1009B0009047206A401C2062381EA7F10107F4DC32
:1009C00007E0D4E9012118F805009047206A401C8F
:1009D0002062281EA5F10105F3DC2046FFF7BCFDCF
:1009E0002078000602D50220BDE8F0870120FBE751
:1009F00070472DE9FF4F0C461E464FF0FF378BB076
:100A0000D2E90001DDF860800A908A46C1F30A55F8
:100A100005B93D46002108464FF00000BAF1000F2D
:100A200000F4400005DA00EB80004FF4400101EAD9
:100A300050004FEA9059B9F1010F00DDB9460A980C
:100A400050EA4A000ED044F61050A5F2FF35454357
:100A50002F14B8F1000F1ED07542291E1EDDC9F1FA
:100A600000021CE0B8F1010F4FF0000001D030216E
:100A700003E0F24305E02154401CB042FBDB30466A
:100A80000022002121540B99C1F80880C1E90020FF
:100A90000FB0BDE8F08FBD1B6D1CDEE74A4600DAE3
:100AA000694206A800F032FB06AB93E8070003ABEF
:100AB00083E8070050460A9901F033F98DE80700F2
:100AC000A0F500501F3800900398002D0ADD42F277
:100AD0001F014A460844002303A90390684601F019
:100AE000DFFB09E0A0F500504A461F38002303A9A8
:100AF0000390684601F0FEFB8DE807000004000C3F
:100B000003D04FF0FF30410800E01046B8F1000F6D
:100B100003D00022009215461EE0751E05D400F099
:100B200047FA303262556D1EF9D5B34601220843AB
:100B300002D000227F1C04E02078302801D100225E
:100B40007F1E002A099784D01DE0112D07DA00F0DE
:100B50002FFA303262556D1C50EA0102F5D108437C
:100B600002D00098C8B10EE00021681E05E0235CA9
:100B7000625C63542254401E491C8142F7DBAB4641
:100B8000A81B401E0990002004F80B000B98099A3E
:100B9000C0F80880C0E9002B7AE711264FF0000862
:100BA00057E72DE9F04F88460446D21D22F0070191
:100BB00091B0D1E90001CDE90A010FF05BFA0246DC
:100BC0000B98C00F01D02D2007E02068810701D5C8
:100BD0002B2002E0202101EAC000032A099001D065
:100BE000072A05DB03464146204600F02FFA0BE1B9
:100BF0002078800601D5E06900E00620B8F1650F95
:100C0000814606D0B8F1660F18D0B8F1670F70D1E1
:100C100031E00020B9F1110F009001DB112301E058
:100C200009F101030AAA01A90CA8FFF7E2FEDDE918
:100C30000C70002609F10105834647E001204B4670
:100C400000904FF000470AAA01A90CA8FFF7D1FEB7
:100C5000DDE90DB00C995D46002610B909F10100DF
:100C60000D18B9EB050003D4C0F1FF3609F10105F9
:100C7000A5EB09002BE0B9F1010F01DA4FF00109F2
:100C80000020B9F1110F0090484601DD112300E06A
:100C900003460AAA01A90CA8FFF7ABFEDDE90C7018
:100CA0004D4600268346207800070AD4AB4500DA7B
:100CB0005D4601A8012D04DD411911F8011C302900
:100CC00007D04F4502DA17F1040F04DA01208246FB
:100CD0000FE06D1EEEE7002F02DCED1B3E4403E04B
:100CE000781CA84200DD7D1CB81B00F1010A4FF002
:100CF00000472078000703D4AA4501DB4FF0FF3AF4
:100D00000021B7F1004F0DF143088DF8431024D0B6
:100D100002202B23002F01DA7F422D230A21021EFD
:100D2000A0F1010000DC5FB197FBF1FC97FBF1F251
:100D300001FB1C7C17460CF1300C08F801CDEEE7E6
:100D4000A8F1010003702188090501D5452100E0C3
:100D50006521A0F1010800F8011C09980FA9A1EB79
:100D60000807FF1D00B10120411901EBEA70A169DC
:100D70003844081A401EA0612078C00602D42046DC
:100D8000FFF7D4FB099828B1D4E901219047206AE4
:100D9000401C20622078C00622D52046FFF7C6FB03
:100DA0001EE0002E04DBB34502DD01A8805D00E0FB
:100DB0003020D4E901219047206A401C2062761C33
:100DC000AAF101005FEA000A0AD100F0CFF8C0687A
:100DD0000168405CD4E901219047206A401C2062F0
:100DE000281EA5F10105DCDC07E0D4E9012118F893
:100DF000010B9047206A401C2062381EA7F10107B2
:100E0000F3DC2046FFF7A8FB032011B041E6000009
:100E100001694A1C02610878704700B58FB0CDE9BE
:100E200001310021059105497944CDE903101146AE
:100E30006846FFF7DFFB0FB000BD0000E5FFFFFFD6
:100E40000A6802F8010B0A607047D1E900239A4250
:100E500002D2531C0B601070704700000FB40023C7
:100E600000B589B00CA900910B99CB60214B7B4454
:100E70000693214B7B44079304236FF00042CDE996
:100E800001321E4A7A446B4608920246002024F042
:100E900013FF09B05DF814FB70B506464FF0FF3044
:100EA00015460C46324686B00091CDE901016946EF
:100EB0000020049004A8FFF7D1FF024604982118EF
:100EC00025B108B1084600E02046286004980028B3
:100ED0000DD0002A02DD0098884208D03246081B57
:100EE00069460094CDE9010404A8FFF7B7FF06B0F6
:100EF00070BD00005B02000073020000B30100003F
:100F000010B5203AC0F00B80B1E81850203AA0E8A4
:100F10001850B1E81850A0E81850BFF4F5AF5FEAD8
:100F2000027C24BFB1E81850A0E8185044BF18C98B
:100F300018C0BDE810405FEA827C24BF51F8043B32
:100F400040F8043B08BF7047D20728BF31F8023B86
:100F500048BF11F8012B28BF20F8023B48BF00F81A
:100F6000012B7047004870478C7D00200048704777
:100F7000AC7D0020004870478C7D0020034640680F
:100F80008C46002818BF88423CBF03464068F8D30F
:100F900018681844884207D00CF1030020F00700BD
:100FA000001D411A521A0146081D0A60FFF7A9B92F
:100FB00030B5B0F10A024FEA900E71F100034EEA2B
:100FC000817EB0EB0E0061EB91014FEA101E4EEAFC
:100FD000017E10EB0E0041EB11114FEA102E4EEA8C
:100FE000016E10EB0E0041EB11214FEA104E4EEA5C
:100FF000014E10EB0E0041EB1141401841F1000190
:101000004FEAD00040EA41704FEAD10110EB800571
:101010004FEA810444EA907444EB01046D1944EBF7
:101020000404521BA3414FF0000348BF0A3200D50D
:1010300030BD401C41F1000130BD10B5044600F048
:1010400005F90068005D00F0010010BD2DE9F041D8
:101050001F46044603260168072A01F4006004DBEA
:1010600008B116A505E016A503E008B115A500E036
:1010700015A521F010002060A069C01EA0610FB16D
:10108000401EA0612046FFF751FA4FB1D4E901217B
:1010900038469047206A401C2062C01C206206E04F
:1010A000206AFAE7D4E9012115F8010B9047761E72
:1010B000F8D22046FFF750FABDE8F0814E414E00CD
:1010C0006E616E00494E4600696E6600426842B12C
:1010D000016811F8013B23B1521EC0E90012184605
:1010E00070470121C160881E704742685AB1C368C9
:1010F000016843B983688B4205D0491E521CC0E980
:101100000012002070474FF0FF3070472DE9F04784
:10111000814616468AB0354878440DC88DE80D00E2
:1011200032487844801C03AC0DC884E80D0041F6B9
:101130009B300844372190FBF1F290FBF1F5A5F1CB
:10114000800501FB12041B3C02D56442012000E033
:101150000020DFF898A080460027FA44AAF1BE0AD2
:101160000EE0E0070AD03246684607EB470101234C
:101170000AEB810101F0BEF88DE8070064107F1CC6
:10118000002CEED1194F7F44AE3F19E0E80715D08F
:1011900007EB04100DF1180A90E80E008AE80E0023
:1011A000C068F04201D1981908903246012306A97F
:1011B00003A801F09FF803AB83E807006D10641CDF
:1011C000002DE3D14FF0010332466946B8F1000F1C
:1011D00003A802D001F064F801E001F08BF8C9E93E
:1011E0000001C9F808200AB0BDE8F087886E020047
:1011F00010B500F0BDFABDE8104000F0B4BA704779
:101200007546FFF7AFFEAE4605006946534620F02F
:101210000700854618B020B5FFF71EF8BDE820404E
:101220004FF000064FF000074FF000084FF0000BA2
:1012300021F00701AC46ACE8C009ACE8C009ACE855
:10124000C009ACE8C0098D467047000010B5FFF733
:101250008DFE001D10BD00BFA13702002DE9FF4F1C
:1012600006468BB00878FF2806D0491C2D2805D0EB
:1012700000244FF0000908E000200CE00124F8E70A
:1012800009EB8903491C00EB43090878FF28F7D1D3
:1012900014B1C9F100008146107800252C46AA46F9
:1012A00029462D2801D02B2804D1521C2D2813D0DB
:1012B000002082468B461078FF280FD04FF0000C9C
:1012C0000A21521CA5FB017804FB018105FB0C11CE
:1012D000C5194BEB0104EEE70120EAE700210846BF
:1012E0004FF00000BAF1000F02D000EB8000400880
:1012F000C0F38157012F01DD4FF0FF370E9955EAFA
:10130000040009EB01080BD04FF0020918F5FA7F31
:1013100016DA4FEACA70002F706008DD012007E07E
:101320004FEACA70C6E900B00FB0BDE8F08F0020E8
:101330003060FFF71FFEC0F800901821084616E045
:10134000B8F5FA7F18DD002F02DAF748784401E09B
:10135000F6487844D0E90010C6E9001040EACA70A7
:101360007060FFF707FEC0F80090142108460FB028
:10137000BDE8F04F24F03BBC002108464FF00000D0
:10138000B8F10001099002DAC7F1000200E03A4624
:1013900001DAC8F1000106A8FFF7B8FE06AB93E832
:1013A000070003AB83E8070044F23E005BEA040158
:1013B0000090584604D144F21E012C465D4600912F
:1013C000210C0904014306D10099240444EA154480
:1013D0002D041039009104F07F41014306D100999A
:1013E000240244EA15642D020839009104F070418A
:1013F000014306D10099240144EA15742D01091F07
:10140000009104F04041014306D10099A40044EA50
:101410009574AD00891E009104F00041084304D189
:1014200000986D196441401E00904FF001033A4648
:101430006846B8F1000FCDE9014503A902DD00F0CF
:101440006EFF01E000F041FFBAF1000F04460D46C7
:1014500001D084F00044002108464FF000000999B3
:1014600040F2FF77484010F00C0F07D124F0004005
:10147000284303D0C4F30A50B84212D1FFF77AFDD3
:10148000C0F80090C4F30A50B8420AD1A848784482
:10149000D0E90010C6E9001004F000410843706074
:1014A00042E7C6E900543FE72DE9FF4F1F464FF0E2
:1014B000000A4FF0FF38454691B0D7E90146CDF814
:1014C0003CA0FFF753FDC0680168405C1090B9690B
:1014D00012986D1C8847396A814688470028F6D1E2
:1014E000B9F1FF3F0AD0002E24F4D06411DDB9F128
:1014F0002B0F08D0B9F12D0F0BD102E0404615B0EB
:1015000013E744F48064B96912986D1C8847761E0D
:101510008146600504A901D52D2000E02B20002E76
:1015200001F1010B0DF130088DF810003FDDB9F12C
:10153000690F08D0B9F1490F05D0B9F16E0F02D08B
:10154000B9F14E0F1CD13B4601A8009580E850022E
:10155000DDE912126FF0020024F0B2FBC11CCED103
:101560000EE0B96912986D1C884781461398761E63
:1015700044F4007405600F98401C002E0F9016DD97
:10158000B9F1300FEDD0B9F1780F02D0B9F1580FA1
:101590000DD10F9801280AD13B46CDE90054DDE971
:1015A0001212001F029624F089FBC11CA7D11099CA
:1015B00089453ED144F0800406E01399681CAAF1E5
:1015C000010A44F400740860B9696D1C1298761E13
:1015D000884730288146F0D02BE01099894505D105
:1015E000200603D4761E44F0800418E048460EF02E
:1015F000E6FD08B3761E0DF123018B4544F400741B
:1016000008D2A9F130000BF8010B200607D5AAF18A
:10161000010003E0200602D40AF101008246A00581
:1016200002D51399681C0860B96912986D1C884727
:101630008146002ED1DC53E0002E51DDB9F1650F5B
:1016400002D0B9F1450F4BD1A00549D5B9696D1C40
:101650001298761E24F440748847002E81460CDDD3
:101660002B2804D0B9F12D0F07D144F48074B96947
:1016700012986D1C8847761E8146E00501D52D2104
:1016800000E02B2108F8011BCDF8008021E0761E38
:101690000DF13901884544F400740CD2A9F13000F1
:1016A00010F0FF0088F8000002D10099884509D9A0
:1016B00008F1010806E0E00501D51E4801E042F20C
:1016C0000F708246B96912986D1C8847814613983D
:1016D0000560002E04DD48460EF071FD0028D6D1CD
:1016E000F96912988847FF2053468BF8000088F864
:1016F000000000200A900B9004AA0CA90AA8FFF78A
:10170000ADFDA00502D46FF00100F8E614F0240F3F
:1017100012D0E0071CD13868DDE90A12031D3B60D6
:101720000068C0E9001213E0946C0200866C0200AD
:101730004A6B0200F1D8FFFF0AA968460EF0CEFC02
:10174000E00705D13868009A011D39600068026021
:101750002846D4E610B50446AFF300802046BDE825
:101760001040FEF764BD002801D000F069B8704752
:1017700010B5012805D0002103A000F067F8012072
:1017800010BD09A1F8E7000053494752544D454D9B
:101790003A204F7574206F662068656170206D6512
:1017A0006D6F7279000000003A2048656170206D0D
:1017B000656D6F727920636F727275707465640005
:1017C0004FF0013C50F8042B51F8043B9A4221D1D0
:1017D000A2EB0C03934313EACC1317D150F8042B5C
:1017E00051F8043B9A4215D1A2EB0C03934313EA40
:1017F000CC130BD150F8042B51F8043B9A4209D179
:10180000A2EB0C03934313EACC13DBD04FF00000A0
:10181000704700BFD01A01BAB1FA81F101F0180186
:1018200022FA01F0CB40C1F12001DBB2C0B2C01AF4
:101830002CFA01F3D11A914311EAC311E6D1704792
:1018400001491820ABBEFEE72600020070B5054630
:101850000C460A2000E06D1C00F011F835B1287824
:101860000028F8D102E0641C00F009F814B12078D7
:101870000028F8D1BDE870400A20AFF3008008B519
:1018800069468DF800000320ABBE08BD2DE9FF4F6F
:101890001F464FF03C0987B04FF00042DDE91410BD
:1018A00001F10108DDF858A002EA40500390002041
:1018B00005908346054604460490B969461E08987B
:1018C0008847AAF1010A0290BAF1000F3BDD0298A5
:1018D0002E2815D0102100F016FA00282EDB4FF02C
:1018E000010B0599014317D0B9F1000F0BDB4A46F4
:1018F000C11700F0F5F905430C43A9F1040905E00F
:10190000012004900BE008B145F00105012005908D
:10191000049820B9361D02E0049800B1361FB96959
:10192000089808F101088847BBF1000FAAF1010AE5
:101930000290C9D00999C1F80080C5E702987028C3
:1019400008D0502806D0F96908988847BBF1000FE5
:1019500014D04FE0002002900120BBF1000F049052
:1019600009D0B969089808F101088847AAF1010966
:10197000B9F1000F07DCF969089888476FF001009A
:101980000BB0BDE8F08F2B2804D02D280CD14FF0E0
:10199000FF300490B969089808F101088847A9F157
:1019A0000109B9F1000FE6DD411CE4D00A2100F085
:1019B000AAF90028DFDB029908F1010801EB810197
:1019C00000EB41000290B969089888470A2100F0AD
:1019D0009AF9099AA9F10109B9F1000FC2F800803A
:1019E00001DD0028E7DAF969089888470499029828
:1019F00000FB016655EA040004D004F040410900F0
:101A000002D006E0039898E0A40044EA9574AD0083
:101A1000B61E04F00041080002D16D196441761E23
:101A2000159810F0240F03D04FF00B095C4803E029
:101A30004FF028096FF07D008246564507DAAAEB81
:101A400006018944B9F1410F01DD4FF04109012040
:101A50000021A9F1010200F043F9024628400B469B
:101A60002140084301D0012100E00021501E0291D5
:101A700043F1FF3128402140084301D0012000E01C
:101A800000200299834651EA0B014FD000210846FD
:101A90004FF00000039900F4400039B100EB8000E2
:101AA0004FF4400100EBD07001EA6000801501287E
:101AB00002DD4FF0FF3000E013D0401C36D002981A
:101AC00060B3BBF1000F0CD14A460120002100F0A9
:101AD00007F928402140084301D0012000E0002000
:101AE000E0B101204A46002100F0FAF8034640190F
:101AF0000A4661412D1A8C4111D3B9F1400F09DD1D
:101B0000159810F0240F02D0AAF1340603E0AAF1D0
:101B1000170600E0761C00254FF0004406E05B1E2F
:101B200042F1FF3220EA030521EA0204CAF1010072
:101B3000B04206DA1B490398084301900020009048
:101B40000EE0039AC4F3D321E80A0A43164940EA97
:101B500044500A433146CDE9000268460EF024FBAA
:101B6000159810F0240F0BD01598C00715D13868C0
:101B7000DDE90012031D3B600068C0E900120CE0C3
:101B800002A869460EF0AAFA1598C00705D1386870
:101B9000029A011D3960006802604046F0E60000CC
:101BA00002FCFFFF0000F07F0000F03F2DE9FF4F37
:101BB00092461D4685B04FF00041DDE9124BDDE94C
:101BC00014727F1E01EA4B50414940F0FF4940EA40
:101BD0000108002122F020004928049102D04E285B
:101BE00028D04CE03BA0012607C88DE80700A96972
:101BF0000698641C88477F1E014606D41DF806001F
:101C000018B121F0200181420BD0E969069888477C
:101C1000032E34D0082E32D06FF0010009B0BDE899
:101C2000F08F761C032E01D0082EE0D1601CCAF87C
:101C30000000DCE7A9690698641C88477F1E2AD447
:101C400020F02000412826D1A9690698641C884705
:101C50007F1E20D420F020004E281CD1A9690698B0
:101C6000641C88477F1E48F4002849F48009CAF89C
:101C7000004001D4282806D0E969069888475FEA21
:101C8000CB7012D022E0A9690698641C88477F1E99
:101C900001D4002803DAE96906988847BCE72928B7
:101CA000F1D1641CCAF80040E9E71BF0240F07D00B
:101CB00028680499031D2B600068C0E9001805E03E
:101CC0002868021D2A600068C0F800902046A5E739
:101CD0000000F07F494E46494E495459000000002B
:101CE000B2F120030AD5C2F1200301FA02F120FA71
:101CF00003F300FA02F041EA0301704700FA03F12E
:101D00004FF0000070473A2800D2303820F020020F
:101D1000412A01D3A2F13700884201D34FF0FF30AE
:101D200070475FEA400C08BF91F0000F4FEA8C2328
:101D30004FEAC12243EA51514FEA1C5018BF00F547
:101D4000F0404FEA300018BF41F000415FEA6C5CA0
:101D500000F02980BCF1FF3F08BF40F08040704791
:101D6000130C06BF12044FF0100C4FF0000C130EB2
:101D700004BF12020CF1080C130F04BF12010CF186
:101D8000040C930F04BF92000CF1020CD30F04BF9C
:101D900052000CF1010C11464FF00002A0F11F009F
:101DA000A0EB0C00704711F0004F08BF704731F0F6
:101DB00000413FF4D5AF0B0C06BF09044FF0100CE7
:101DC0004FF0000C0B0E04BF09020CF1080C0B0FB6
:101DD00004BF09010CF1040C8B0F04BF89000CF146
:101DE000020CCB0F04BF49000CF1010CCCF1200315
:101DF000A0EB0C0022FA03F302FA0CF241EA030111
:101E000000F10100704720F07F4C80EA030023F0CE
:101E10007F47ACEB070303F57C5300F0004003F170
:101E2000FF032DE980494FEA154B09B44FEA1443EB
:101E300025EA0B4E24EA03480FF2042606EB13278B
:101E400049083E785FEA320203FB0667C7F50007E0
:101E500007FB06F64FEA54374FEAD64606F102066C
:101E600007FB066CCCF1005C4FEA1C472CEA074CE0
:101E700007FB06F40CFB06F504EB15464FEA961635
:101E800034BF00204FF000404FEAD13706FB07FC7B
:101E90004FEA1C4C0CFB0BF7D21B03FB0CF761EB5E
:101EA00007010CFB0EF7B0EB074072EB17420CFB7F
:101EB00008F734BFA2EB0742B2EB074261EB1741D0
:101EC0004FEA0C444FEA910706FB07FC4FEA1C4C13
:101ED0000CFB0BF7B0EBC74072EB573203FB0CF770
:101EE00034BFA2EBC742B2EBC74261EB57310CFBE8
:101EF0000EF7B0EBC70072EB57720CFB08F734BF5C
:101F0000A2EBC702B2EBC70261EB5771039F4FEA26
:101F1000816141EA921104EBCC044FEAD1374FEAD8
:101F2000826206FB07FC42EA90124FEA80604FEAA9
:101F30001C4C0CFB0BF7D21B03FB0CF761EB0701EE
:101F40000CFB0EF7B0EB074072EB17420CFB08F7E7
:101F500034BFA2EB0742B2EB074261EB17414FEAF5
:101F60008C554FEA910704EB9C2406FB07FC4FEAD3
:101F70001C4C0CFB0BF7B0EBC74072EB573203FB6A
:101F80000CF734BFA2EBC742B2EBC74261EB57314B
:101F90000CFB0EF7B0EBC70072EB57720CFB08F7A7
:101FA00034BFA2EBC702B2EBC70261EB577115EB6E
:101FB0004C254FEA816141EA92114FEA82624FEA71
:101FC000D13742EA901206FB07FC44F100044FEAC5
:101FD00080604FEA1C4C0CFB0BF7D21B03FB0CF789
:101FE00061EB07010CFB0EF7B0EB074072EB1742F9
:101FF0000CFB08F734BFA2EB0742B2EB074261EBE0
:10200000174115EB1C154FEA813141EA92414FEA25
:10201000823242EA90424FEA80304FEA0C7644F135
:10202000000448EA03434EEA0B484FF0000EB2EBBF
:10203000080C71EB030724BF624639464EEB0E0EC7
:102040004FF0000B0018524149414BEB0B0BB2EB28
:10205000080C71EB03077BF1000B24BF6246394685
:102060004EEB0E0E4FF0000B0018524149414BEB66
:102070000B0BB2EB080C71EB03077BF1000B24BFD9
:10208000624639464EEB0E0E51EA020718BF46F083
:10209000010616EB0E7655F1000254F1000103D54E
:1020A000BDE88901BDE80088BDE88901BDE80048B8
:1020B000B619524141EB0101A3F101037047808041
:1020C0007F7E7D7C7B7A7978777676757473727192
:1020D00071706F6E6E6D6C6C6B6A6A69686867664A
:1020E00066656464636362616160605F5F5E5E5DDC
:1020F0005D5C5C5B5B5A5A59595858575756565550
:1021000055555454535352525251515050504F4FB1
:102110004F4E4E4D4D4D4C4C4C4B4B4B4A4A4A4901
:102120004949484848474747474646464545454444
:1021300044444443434343424242424141410000FC
:1021400046EA0646A3F570534FEA164646EA42565B
:102150004FEAD22242EA415210B54FEAD121A3F10F
:10216000010300F02FF820F0004000F1020C00F015
:10217000004701EB00501146BCF5006F40EA070034
:1021800000D210BDBAF1000F0AD01CB503B44FF055
:1021900004004FF004014FF000000FBCBDE81040F8
:1021A0004FF00001BBF1010FB9BF04484FF0FF3100
:1021B0000348002140EA070010BD00BFFFFFEF7F8A
:1021C0000000F07F002B9C4630D477002BD01CB54C
:1021D0004FEA370703B44FF010004FF01001BAF187
:1021E000000F06D0BCF1000FDCBF40F0080040F04B
:1021F00008014FF000000FBCBDE810400BF1010BCF
:10220000BBF1010F08BF5FEA170722BF12F10102FD
:1022100011F101014FF0004143F1000300F00040D3
:1022200043EA00007047F9D35708D0E746EA06466C
:1022300013F1400F4FEA16461FDD13F1200FDFBFE9
:1022400016430A46002120335B42BED0C3F120076B
:1022500046EA064602FA07F74FEA164646EA070636
:10226000C3F1200722FA03F201FA07F721FA03F17A
:102270004FF0000342EA0702A7E746EA020646EAF1
:1022800006464FEA164646EA0106BCBF46EA06463F
:10229000360C4FF000034FF000024FF0000194E7BE
:1022A0002DE9804C9A46934670B491E8380007C8EF
:1022B00031EA400C48BF34EA430C03D5FFF7A3FDD5
:1022C000FFF780FFF0BCBDE8008C2DE9804C9A46FA
:1022D000934670B491E8380007C831EA400C48BF13
:1022E00034EA430C03D5FFF78EFDFFF729FFF0BC5E
:1022F000BDE8008C2DE9804C9A46934670B491E875
:10230000380007C810F0804F08BF13F0804F03D18A
:1023100000F01AF8FFF756FFF0BCBDE8008C2DE97D
:10232000804C9A46934670B491E8380007C810F084
:10233000804F08BF13F0804F03D100F005F8FFF77E
:10234000FFFEF0BCBDE8008C20F07F4780EA030070
:1023500023F07F4C07EB0C03A3F57C5300F0004007
:10236000A3F1FE0392F0000F00F0B38095F0000F90
:1023700000F077802DE901494FEA11404FEA1446F9
:1023800021EA004800FB06FC24EA064708FB06F6A3
:1023900007FB08F800FB07F718EB06484CEB164C58
:1023A0004FEA124B18EB07484FEA15464CEB174023
:1023B00022EA0B4E0BFB06FC25EA06470EFB06F64F
:1023C00007FB0EFE0BFB07F71EEB064E4CEB164C05
:1023D0004FF000061EEB074E4CEB174B18EB0B08AB
:1023E00040F1000018EB0E0B58EB000840F1000024
:1023F0008F1A4FF000013CBFC943661B14BFB5EBF9
:10240000040C00213CBFC943F61B4FEA17444EEAB7
:102410008E0E27EA04454FEA1C4704FB07622CEAAC
:10242000074C05FB07F70CFB05F604FB0CFC16EB51
:10243000074642EB174216EB0C4642EB1C421BEBE5
:10244000060658EB0202414146EA9E0601D5BDE868
:102450000189B619524141EB0101A3F10103BDE825
:1024600001894FEA14454FEA114724EA054621EA5B
:10247000074C05FB07F406FB07F70CFB06F105FB11
:102480000CFC11EB074144EB17444FEA124711EBE8
:102490000C4144EB1C4422EA074C05FB07F206FB07
:1024A00007F70CFB06F605FB0CFC16EB074642EBA8
:1024B000174216EB0C4642EB1C456A1854F100011A
:1024C00048BF7047B619524141EB0101A3F1010326
:1024D000704795F0000F37D04FEA11424FEA14478A
:1024E00021EA024624EA074C02FB07F106FB07F744
:1024F0000CFB06F402FB0CFC14EB074441EB174108
:102500004FEA154714EB0C4441EB1C4125EA074CFC
:1025100002FB07F506FB07F70CFB06F602FB0CFCBB
:1025200016EB074645EB174516EB0C4645EB1C42F0
:10253000121951F1000148BF7047B619524141EBE1
:102540000101A3F1010370474FEA14454FEA114717
:1025500024EA054621EA074C05FB07F106FB07F7CD
:102560000CFB06F24FF0000605FB0CFC12EB0742D9
:1025700041EB174112EB0C4251EB1C4148BF704735
:10258000921841EB0101A3F10103704770B50446B5
:1025900000680168C943490620D4816821F001011F
:1025A000816007F08FF8054613E007F08BF8401BB9
:1025B00002280ED920680068C043400609D4E06CA8
:1025C00040F01000E064206D40F001002065012023
:1025D00070BD20680068C0434006E6D5002070BD8D
:1025E000F8B500260446009600680168C94349060C
:1025F0002ED5816841F001018160164816490068B6
:10260000B0FBF1F000EB400000E0401E009000281D
:10261000FBD107F057F8054615E007F053F8401BCB
:10262000022810D920680068C04340060BD5E06C32
:1026300040F01000E064206D40F00100206584F857
:1026400048600120F8BD20680068C0434006E4D41B
:102650000020F8BD1000002040420F0010B50A48CD
:1026600006F0B4FD6421084806F058FD064806F05F
:102670005BFC064CA060044806F0E3FD052006F074
:102680001BFFA06810BD0000AC58002010580020AF
:102690002DE9F041002507462E462C460BE0FFF7BA
:1026A000DDFF22F0B5FC2A46334622F0EDF9641C2A
:1026B00005460E46E4B2BC42F1D3384622F0A8FCEF
:1026C00002460B4628463146BDE8F04122F098BA52
:1026D0000949094A983AC9689161002104E093695F
:1026E000491CC9B21B6993618142F8D39069017892
:1026F00041F0010101707047B85500201249124A9B
:10270000983AC968916103281CD005DC98B101286A
:1027100011D002280ED113E0052811D00A2811D0BB
:10272000142807D10869006900699061017841F0B7
:10273000010101707047087840F00100087070478F
:102740000869F2E70869EFE7B855002010B51EF0F8
:10275000C3F9624A0B287CD025DC604C022804F1C6
:10276000080443D0042863D0082873D19079042842
:1027700070D1D07902286DD10FF004FE19F08EFED1
:10278000407961284ED019F08FFE214621F07BFE62
:1027900019F084FE4079612847D019F085FEBDE824
:1027A000104003F0FCBD0C280FD012287ED0132857
:1027B00050D10FF0E7FD1AF0EDFC03284AD10121BA
:1027C000BDE81040022014F043BD907904287BD16D
:1027D000612002F0A5FE1EF039F941490020087081
:1027E00019F05CFEBDE8104000F0B8BA90790428FA
:1027F0006AD1D0790C2867D10FF0C4FD19F04EFED4
:10280000407961280BD019F04FFE0C22214621F0AF
:102810004FFE19F043FEBDE8104000F07DBA19F0FC
:102820003DFEF2E719F03AFEAFE719F037FEB6E7E2
:102830009079042848D1D079082845D10FF0A2FD1D
:1028400019F02CFE4079612812D019F02DFE214696
:1028500001E013E038E000F049F819F01FFE40797C
:10286000612808D019F020FEBDE8104003F090BDAB
:1028700019F014FEEBE719F011FEF5E79079102836
:1028800022D1D0799C281FD10FF07CFD1AF082FC58
:102890005C2801D05D2817D10121022014F0D8FC5A
:1028A0001AF07EFC80680F49006900E00DE081604D
:1028B0001AF076FC80680C490069C1601AF070FC5F
:1028C000806804210069417110BD0FF05BFD1AF0B2
:1028D00061FC3E283FF473AF10BD00007C56002021
:1028E0002C5500208B6B02088F6B02082DE9FF5FCF
:1028F000040079D0487884F87400087884F875006A
:10290000C87884F87600887884F87700487984F865
:102910006C00087984F86D00C87984F86E008879B5
:1029200084F86F00207804F138010291DFF84092BA
:10293000DFF840A2DFF840B204F12B018F4E4207CE
:10294000039165D520F004002070606F60614845F8
:1029500038DB22F0D7FD0022334622F051F9002265
:10296000874B22F069FB606F07D222F0CBFD00227B
:10297000334622F045F983A22FE022F0C3FD002266
:10298000334622F03DF90022804B22F055FB0CD259
:10299000606F22F0B7FD0022334622F031F922F0B9
:1029A000F3FA03467AA2042124E0606F22F0AAFD24
:1029B0000022334622F024F90022334622F03CFB69
:1029C0001BD2E5E7504503DA22F09CFD71A204E03A
:1029D00058450ADA22F096FD70A2CDE900010521E2
:1029E0000298FDF789FD08E0BFE022F003FF0346EF
:1029F0006CA205210298FDF77FFDE06E22F082FDBA
:102A0000CDE9000168A206210398FDF775FDA8E055
:102A1000616FA06822F0A2FDA060E16E206922F043
:102A20009DFD2061204601F01FFF606F6061E0792D
:102A3000401CC0B2E0710328E9D322F013FF054621
:102A40002946206922F0F8FD00902946A06822F06E
:102A5000F3FD054621F090F9DFF85481002720B3FB
:102A600021F04CFA022820D398F80020404604F1C7
:102A7000AC0104F19408019132B1077040460FF0A7
:102A8000C9FC01980FF0C6FC294640460FF0F5FC42
:102A9000DDE900100FF0F1FC01980FF0D1FC00907F
:102AA00040460FF0CDFC054602E0012188F80010F9
:102AB000204602F073FF002850D1009822F022FD3A
:102AC000CDE9000138A206210398FDF715FD4D451B
:102AD00028DB284622F016FD0022334622F090F82B
:102AE000884605460022264B22F0A6FA04D2CDE9FC
:102AF000005824A2052125E0284641460022234B08
:102B000022F09AFA06D3334628464146002222F0A4
:102B100093FA23D22846414622F036FA03461CA2F5
:102B2000042118E0554504DA284622F0EBFC19A2EE
:102B300005E05D45284609DA22F0E4FC17A2CDE95C
:102B4000000105210298FDF7D7FC07E022F052FEB4
:102B5000034614A205210298FDF7CEFCE771A76099
:102B60002761BDE8FF5F1EF095BABDE8FF9F00003A
:102B700000401C46000020410000C84200408F4039
:102B80000000244025332E3166000000000059402B
:102B90002533640025332E326600000025342E31A3
:102BA000660000002534640025352E3266000000E2
:102BB000485800201CB50C46002832D068460BF05F
:102BC00097FEDDE900010FF0BBFC164A612102F817
:102BD000451F102151709C2191706821D1700021F6
:102BE00011710421517108219171010AD171107282
:102BF000010E5172000C9072200AD0721473200ED4
:102C00005073200C90730748112102F8421C453084
:102C10000CF0C0F81EF036FABDE81C400B201EF088
:102C20005DBA1CBD7C5600201CB50C46002832D075
:102C300068460BF05DFEDDE900010FF081FC164AED
:102C4000612102F8451F102151709C2191706C2167
:102C5000D170002111710421517108219171010A73
:102C6000D1711072010E5172000C9072200AD07254
:102C70001473200E5073200C90730748112102F832
:102C8000421C45300CF086F81EF0FCF9BDE81C40F3
:102C90000B201EF023BA1CBD7C56002010B5002866
:102CA0001BD00E48612100F8451F062141709C2170
:102CB00081705121C17000210171012141710821F0
:102CC00000F8421C054845300CF064F81EF0DAF9B3
:102CD000BDE8104013201EF001BA10BD7C56002044
:102CE0000C4810B5612100F8451F04214170752280
:102CF00082706922C270002202714171082100F8BD
:102D0000421C044845300CF045F8BDE810400C204A
:102D10001EF0E4B97C56002010B500281BD00E48E8
:102D2000612100F8451F0421417075218170452102
:102D3000C1700021017101214171082100F8421C7C
:102D4000054845300CF026F81EF09CF9BDE810400F
:102D500008201EF0C3B910BD7C56002010B5002815
:102D60001BD00E48612100F8451F042141707521D8
:102D700081703021C170002101710621417108214B
:102D800000F8421C054845300CF004F81EF07AF9B2
:102D9000BDE8104002201EF0A1B910BD7C560020F5
:102DA00010B5002818D00D486121752200F8451F84
:102DB0000421417082706922C27000220271417147
:102DC000082100F8421C054845300BF0E3FFBDE840
:102DD000104004201EF082B910BD00007C56002077
:102DE00010B5002827D0144A40F86C1F612102F862
:102DF000451F102151709C2191705721D1700021E5
:102E0000117102215171042191714178D1710178C0
:102E10001172C17851728078907207480D2102F8C2
:102E2000421C45300BF0B6FF1EF02CF9BDE81040F7
:102E300012201EF053B910BD7C56002010B5044678
:102E4000F32000F037F8204000D0012010BD000032
:102E500010B5F92000F02EF80A4C2070F82000F090
:102E600029F86070F72000F025F8A0706178000361
:102E700040EA01102178BDE8104040EA11100DF041
:102E800051BC00005056002070B5FC2000F012F834
:102E90000446FB2000F00EF80546FA2000F00AF880
:102EA000000340EA051040EA1410BDE870400DF040
:102EB0002FBD000070B50B4D06464FF48074002204
:102EC0002146284606F0F9FB30460DF0FFFB0DF0D9
:102ED000F9FB064601222146284606F0EEFB304665
:102EE00070BD0000000402400178427849018078FA
:102EF00041EA82010143C9B2F52000F00BB84178E4
:102F000002784901807841EA82010143C9B2F42084
:102F1000AFF300802DE9F0410B4D0F4606464FF40C
:102F2000807400222146284606F0C7FB30460DF08B
:102F3000CDFB38460DF0CAFB21462846BDE8F041DE
:102F4000012206F0BABB0000000402400949094A08
:102F5000C968983A0029916104D020B1087840F0FE
:102F600001000870704708699061017841F0010123
:102F700001707047B8550020FEE700002DE9F041D0
:102F80001DF0AAFDB449B54CB54D042601F1080762
:102F90000C2814D00ADCA0F102000A2871D2DFE864
:102FA00000F03D70E2707070577071F312380728AE
:102FB00067D2DFE800F0EBEA66661A87B600887928
:102FC00003285ED14A2002F0ABFA1DF03FFD19F054
:102FD00065FA40794A2805D019F066FA394600F0BA
:102FE000FFFBBAE019F05AFAF8E78879032848D1CC
:102FF0000FF0C8F919F052FA40794A280BD019F0AD
:1030000053FA394600F030F919F048FABDE8F041BA
:103010004A2100F09DBE19F041FAF2E788790328B1
:103020002FD10FF0AFF919F039FA40794A280CD0B6
:1030300019F03AFA0122394600F052FB19F02EFA43
:10304000BDE8F0414A2100F067BE19F027FAF1E728
:103050008879032815D10FF095F919F01FFA4079F6
:103060004A280BD019F020FA002100F013FB19F0C8
:1030700015FABDE8F0414A2100F0C2BE19F00EFA7F
:10308000F2E780E0887903287DD10FF07BF919F011
:1030900005FA40794A280FD019F006FA394600F0AF
:1030A00045FB19F0FBF940794A2808D019F0FCF9E2
:1030B000BDE8F04103F073B919F0F0F9EEE719F04B
:1030C000EDF9F5E7887906285DD10FF05BF91AF084
:1030D00061F8342815D163490120087001460220A7
:1030E00014F0B6F81AF05CF88068006984601AF091
:1030F00057F880680069C5601AF052F88068006966
:10310000467119F0CBF940794A2807D019F0CCF96B
:10311000BDE8F0415049093100F0E0B819F0BEF9BE
:10312000F6E78879062873D10FF02CF91AF032F8F7
:10313000352812D10121022014F08AF81AF030F853
:103140008068006984601AF02BF880680069C560A7
:103150001AF026F880680069467119F09FF9BDE8F9
:10316000F04100F0D5B88879032851D10FF00AF961
:1031700019F094F940794A2814D019F095F9394694
:1031800000F02EFB03E043E012E055E042E019F0CE
:1031900085F940794A2808D019F086F9BDE8F04150
:1031A00003F0F6B819F07AF9E9E719F077F9F5E7DD
:1031B0008879062801D010282AD10FF0E3F819F0F9
:1031C000E9FF512811D008DC03280ED03F280CD08D
:1031D00041280AD050281BD107E0522805D0532897
:1031E00003D0552801D0562812D10121022014F015
:1031F0002FF819F0D5FF80680069846019F0D0FFBE
:1032000080680069C56019F0CBFF8068006946716D
:10321000BDE8F08188790628FAD10FF0B3F819F0EB
:10322000B9FF3E2811D019F0B5FF57280DD019F07D
:10323000B1FF542809D0EBE788790628E8D10FF0D0
:10324000A1F819F0A7FF0328E2D1BDE8F041012160
:10325000022013F0FDBF00007C5600208B6B02089B
:103260008F6B02085457002010B504000FD049B1ED
:10327000487884F8C400087884F8C500B4F8C4001D
:1032800030B106E0012024F8C40F0A20608010BD90
:103290000220A4F8C400C87884F8C60088780D49D4
:1032A00084F8C7000020088094F8C600C43421F0D8
:1032B000CFF834F8C409012801D119F0E5FCB4F8BD
:1032C000C63004F1C800BDE8104003A20421FDF798
:1032D00013B900003A5700202533640000280DD0B0
:1032E00049B14A7880F8C420097880F8C510B0F850
:1032F000C41021B104E00121A0F8C41070470221DC
:10330000A0F8C41001490020088070473A570020F7
:1033100010B500281BD00E484A2100F8451F032194
:103320004170052181701D21C170002101710221B0
:103330004171082100F8421C054845300BF02AFD78
:103340001DF0A0FEBDE8104016201DF0C7BE10BD48
:103350007C56002010B5002824D013484A2200F8DB
:10336000452F10224270052282704422C270002232
:10337000027102224271042282710A0AC271017230
:103380000A0E4272090C81720D2100F8421C064897
:1033900045300BF0FFFC1DF075FEBDE810400B2022
:1033A0001DF09CBE10BD00007C56002010B500280A
:1033B00024D013484A2200F8452F102242700522DB
:1033C00082703422C27000220271022242710422F1
:1033D00082710A0AC27101720A0E4272090C81726C
:1033E0000D2100F8421C064845300BF0D3FC1DF0BF
:1033F00049FEBDE810400B201DF070BE10BD00005E
:103400007C56002010B500281AD00E484A2200F839
:10341000452F06224270052282701D22C2700A0AC0
:1034200002714171082100F8421C064845300BF03A
:10343000B1FC1DF027FEBDE8104017201DF04EBE68
:1034400010BD00007C56002010B500281AD00E4890
:103450004A2200F8452F06224270052282701E2261
:10346000C2700A0A02714171082100F8421C064824
:1034700045300BF08FFC1DF005FEBDE81040182014
:103480001DF02CBE10BD00007C56002070B51DF054
:1034900023FB7D4C0B2804F108057DD021DC02289C
:1034A00050D0042879D0082866D00A2876D1A0798F
:1034B000032873D10EF066FF18F0F0FF40790A2858
:1034C00078D018F0F1FF294600F030F918F0E6FF47
:1034D00040790A2873D018F0E7FFBDE8704002F089
:1034E0005EBF0C2812D0122868D0132856D1A079BC
:1034F000062853D10EF046FF19F04CFE03284DD19B
:10350000BDE870400121022013F0A2BEA07903287B
:1035100044D10A2002F004F81DF098FA18F0BEFF1A
:1035200040790A280BD018F0BFFF294600F058F95F
:1035300018F0B4FFBDE870400A2100F009BC18F093
:10354000ADFFF2E7A079032828D10EF01BFF18F099
:10355000A5FF40790A280CD018F0A6FF00222946C2
:1035600000F0BEF818F09AFFBDE870400A2100F0A4
:10357000D3BB18F093FFF1E7A07903286FD10EF0C9
:1035800001FF18F08BFF40790A2810D018F08CFF4B
:10359000002100F07FF803E034E013E05FE009E091
:1035A00018F07CFFBDE870400A2100F029BC18F03B
:1035B00075FFEDE718F072FF85E700E050E018F0C6
:1035C0006DFF8AE7A079032849D10EF0DBFE18F0E1
:1035D00065FF40790A280FD018F066FF294600F0F1
:1035E000FFF818F05BFF40790A2808D018F05CFF5C
:1035F000BDE8704002F0CCBE18F050FFEEE718F0C6
:103600004DFFF5E7A079062829D10EF0BBFE19F091
:10361000C1FD50280DD006DC03280AD03F2808D071
:1036200041281CD105E0512803D0522801D053284D
:1036300015D10121022013F00BFE19F0B1FD8068B5
:1036400012490069816019F0ABFD8068104900697A
:10365000C16019F0A5FD806804210069417170BD49
:10366000A0790628FBD10EF08DFE19F093FD3E28BF
:103670003FF446AF19F08EFD5728F9D019F08AFDB6
:103680005428F5D070BD00007C5600208B6B0208DA
:103690008F6B020810B5002815D000222E2499B196
:1036A0000B7830338377C4774B78303380F8203011
:1036B00080F821208B78303300F8193F4470C978A6
:1036C00030318170C27010BD31238377C4773021CF
:1036D00080F8201080F8212000F8193F4470F0E7AE
:1036E0002DE9F04300281DD04C2400F8564F4FF030
:1036F000480C4FF02D08442380F801C0432180F886
:1037000002803125C3705F2601714F274FF02009D9
:1037100045714AB137228271C67101724772837254
:1037200080F80B90BDE8F0833822F4E7002805D03C
:1037300029B14A7800F8682F097841707047322122
:10374000A0F868107047000010B500281FD001EBEA
:1037500081004FF6FF7101EA40010D4800F8452F46
:1037600006224270052282708622C2700A0A027105
:103770004171082100F8421C054845300BF00AFB56
:103780001DF080FCBDE810400B201DF0A7BC10BD53
:103790007C56002010B500281FD001EB81004FF6A9
:1037A000FF7101EA40010D4800F8452F06224270E2
:1037B000052282708522C2700A0A027141710821B5
:1037C00000F8421C054845300BF0E4FA1DF05AFCA5
:1037D000BDE810400B201DF081BC10BD7C560020C0
:1037E0002DE9F04F8BB00D4604007DD0697861F370
:1037F0000700297861F30F20E97880B261F30706AA
:10380000A97861F30F26697961F30707297961F3D4
:103810000F2722F027F8DFF8CC83414621F00CFF78
:103820002067B0B222F01EF8414621F005FF606724
:1038300038B221F0FFFFEC4921F0FEFEE066E87AA5
:1038400060F30706A87A60F30F26B0B221F0E0FB20
:103850000022E64B21F0D4F921F0E4F8E067E87BA0
:1038600060F30707A87B60F30F2738B221F0E2FF6F
:10387000C4F8880020F088FBA8B1E06E21F042FE79
:10388000DB4ADC4B21F014FC0022DB4B21F0FCF87E
:1038900021F0C8F8D949E066884203DC4FF0844142
:1038A000884200DAE16620F061FA002500B9256758
:1038B000207804F12B01420704F1310B04F1380A9E
:1038C00004F14F090A9131D520F004002070606F97
:1038D0006061E06E21F016FECDE90001C8A206216C
:1038E0000A98FCF709FE00E01DE0206F21F00AFEB7
:1038F000CDE90001C4A207215846FCF7FDFD606F29
:1039000021F000FECDE90001BFA207215046FCF7DF
:10391000F3FDE06F21F0F6FDCDE90001BAA2072129
:103920004846FCF7E9FD0BB0BDE8F08F616FA06879
:1039300021F014FEA060216FE06821F00FFEE0602E
:10394000E16E206921F00AFEDFF8C482206146465C
:10395000E16FD8F8000021F001FE3060204600F051
:1039600083FF606F6061617904F1B80009901838D5
:1039700005900C3803901830A64E07904A297DD147
:10398000E079401CC0B2E071032805D218F092FD26
:10399000B0F8C4000228F2D1E07921F063FF0746B5
:1039A0003946206921F048FE06903946E06821F04A
:1039B00043FE04903946A06821F03EFE029039464D
:1039C000D8F8000021F038FE089020F0DDF998B317
:1039D00020F09CFA022830D3307860B1357003981B
:1039E0000EF018FD05980EF015FD07980EF012FD6B
:1039F00009980EF00FFDDDE902100EF03EFDDDE945
:103A000004100EF03AFDDDE906100EF036FDDDE99A
:103A100008100EF032FD07980EF012FD0690039884
:103A20000EF00EFD029005980EF00AFD0490099824
:103A30000EF006FD089002E0FFE701203070B4F8B8
:103A4000C40001280AD018F02BFF074620F0A8FA7E
:103A5000401D874202D3704805702DE0204601F0DA
:103A60009DFF48BB069821F04DFDCDE9000164A201
:103A700006210A98FCF740FD049800E022E021F0BE
:103A800041FDCDE9000160A207215846FCF734FD55
:103A9000029821F037FDCDE900015BA207215046D5
:103AA000FCF72AFD089821F02DFDCDE9000156A272
:103AB00007214846FCF720FDE571A560E56025611A
:103AC000C8F8005060790A287FF42DAFE079401CD7
:103AD000C0B2E0710328FFF426AF21F0C3FE074611
:103AE0003946206921F0A8FD06903946E06821F0AA
:103AF000A3FD04903946A06821F09EFD394602904E
:103B00004746D8F8000021F097FD804620F03CF9A8
:103B100098B320F0FBF9022830D3307860B13570CB
:103B200003980EF077FC05980EF074FC07980EF0E1
:103B300071FC09980EF06EFCDDE902100EF09DFCA0
:103B4000DDE904100EF099FCDDE906100EF095FC9D
:103B5000414609980EF091FC07980EF071FC069012
:103B600003980EF06DFC029005980EF069FC04902D
:103B700009980EF065FC804602E0FFE701203070F6
:103B8000204601F00BFF38BB069821F0BBFCCDE9C5
:103B900000011BA206210A98FCF7AEFC049821F054
:103BA000B1FCCDE9000118A207215846FCF7A4FC9E
:103BB000029821F0A7FCCDE9000113A2072150468D
:103BC000FCF79AFC404621F09DFCCDE900010EA2D5
:103BD00007214846FCF790FCE571A560E56025618A
:103BE0003D60A0E6000020410000C84200002440E3
:103BF000CDCCCCCCCCCCFC3F0000404000000C43F2
:103C000025352E316600000025362E316600000075
:103C100080580020485800205457002010B5002834
:103C200019D00D4800F8452F0622427005228270F7
:103C30001422C2700A0A02714171082100F8421C64
:103C4000054845300BF0A6F81DF01CFABDE8104001
:103C500012201DF043BA10BD7C56002010B500287C
:103C60001AD00E4800F8451F0621417005218170C9
:103C70001521C1700021017179214171082100F8DD
:103C8000421C064845300BF085F81DF0FBF9BDE8F5
:103C9000104013201DF022BA10BD00007C560020F9
:103CA00010B5002819D00D4800F8452F06224270A3
:103CB000052282701022C2700A0A02714171082125
:103CC00000F8421C054845300BF064F81DF0DAF9A5
:103CD000BDE8104012201DF001BA10BD7C56002036
:103CE00070B50C4C0825294604F8450F0320607078
:103CF0000520A0700020E07020710648657104F86E
:103D0000425D45300BF046F82570BDE870400C2050
:103D10001DF0E4B97C5600200C4810B500F8451F92
:103D200003214170052181700021C17001710821BA
:103D3000417100F8421C054845300BF02BF81DF08E
:103D4000A1F9BDE8104008201DF0C8B97C5600203C
:103D500070B5002833D00023032405251848082215
:103D60004A2902D00A2910D01CE04A2180F84510C7
:103D700080F8464080F84750C02180F8481080F80D
:103D80004930102180F84A100CE00A2180F84510D3
:103D900080F8464080F8475080F8483080F8493035
:103DA00080F84A20C2700648114645300AF0F2FFFA
:103DB0001DF068F9BDE8704002201DF08FB970BD9C
:103DC0007C56002010B5002816D00C4800F8451F7E
:103DD00003214170052181700021C170017108210A
:103DE000417100F8421C054845300AF0D3FFBDE898
:103DF000104004201DF072B910BD00007C56002058
:103E00000D4810B500F8451F032141700521817050
:103E10001021C1700021017101214171082100F8B8
:103E2000421C054845300AF0B5FF1DF02BF9BDE8EE
:103E300010400A201DF052B97C56002010B5002811
:103E400019D00D4800F8452F0622427005228270D5
:103E50000722C2700A0A02714171082100F8421C4F
:103E6000054845300AF096FF1DF00CF9BDE81040FA
:103E700012201DF033B910BD7C56002010B500286B
:103E80001FD001EB81004FF6FF7101EA40010D48A0
:103E900000F8452F06224270052282708822C270E7
:103EA0000A0A02714171082100F8421C0548453098
:103EB0000AF070FF1DF0E6F8BDE810400B201DF081
:103EC0000DB910BD7C56002010B500281FD001EBA5
:103ED00081004FF6FF7101EA40010D4800F8452FBF
:103EE00006224270052282708722C2700A0A02717D
:103EF0004171082100F8421C054845300AF04AFF8C
:103F00001DF0C0F8BDE810400B201DF0E7B810BD53
:103F10007C56002070B51CF0DFFD744C0B2804F1BA
:103F200008056FD01FDC022850D0042873D0082861
:103F30006AD1A079042867D10EF024FA18F0AEFAFD
:103F400040795F2861D018F0AFFA294620F09BFA3B
:103F500018F0A4FA40795F285AD018F0A5FABDE805
:103F6000704002F01CBA0C2815D0122873D0132808
:103F70004AD1E0799C2847D1207A512844D10EF0CB
:103F800001FA19F007F903283ED1BDE8704001217C
:103F9000022013F05DB9A079042835D15F2001F02B
:103FA000BFFA1CF053FD18F079FA40795F280AD067
:103FB00018F07AFA294600F013F918F06FFABDE804
:103FC000704000F0FFBA18F069FAF3E7A07904280E
:103FD00077D1E0790C2874D10EF0D4F918F05EFA9C
:103FE00040795F280BD018F05FFA0C22294620F0A8
:103FF0005FFA18F053FABDE8704000F0C1BA18F04B
:104000004DFAF2E72BE006E05BE018F047FA9CE798
:1040100018F044FAA3E7A079042852D1E0791C28CB
:104020004FD10EF0AFF918F039FA40795F280FD070
:1040300018F03AFA294600F0D3F818F02FFA407930
:104040005F2809D018F030FABDE8704002F0A0B93E
:1040500018F024FAEEE735E018F020FAF4E7A0793A
:1040600010282ED1E0799C282BD10EF08BF919F075
:1040700091F84C280FD008DC03280CD03F280AD038
:10408000412808D04B281CD105E04D2803D04E28EC
:1040900001D04F2815D10121022013F0D9F819F0D1
:1040A0007FF8806812490069816019F079F88068AA
:1040B00010490069C16019F073F880680421006933
:1040C000417170BDE0799C28FBD10EF05BF919F0CD
:1040D00061F83E283FF459AF19F05CF85728F9D041
:1040E00019F058F84A28F5D070BD00007C56002021
:1040F0008B6B02088F6B02081CB50C46002832D06F
:1041000068460AF0F5FBDDE900010EF019FA164ADF
:104110005F2102F8451F102151709C21917066218A
:10412000D170002111710421517108219171010A8E
:10413000D1711072010E5172000C9072200AD0726F
:104140001473200E5073200C90730748112102F84D
:10415000421C45300AF01EFE1CF094FFBDE81C40D6
:104160000B201CF0BBBF1CBD7C5600201CB50C46B0
:10417000002832D068460AF0BBFBDDE900010EF0F2
:10418000DFF9164A5F2102F8451F102151709C216A
:1041900091706A21D170002111710421517108219F
:1041A0009171010AD1711072010E5172000C90725E
:1041B000200AD0721473200E5073200C907307489D
:1041C000112102F8421C45300AF0E4FD1CF05AFFB0
:1041D000BDE81C400B201CF081BF1CBD7C5600209C
:1041E0002DE9FE4F04007DD0487884F874000878EB
:1041F00084F87500C87884F87600887884F87700A9
:10420000487904F86C0F08796070C879A0708879D3
:10421000E070487A2071087A6071C87AA071887A53
:10422000E071487B2073087B6073C87BA073887B38
:10423000E073487C2074087C6074C87CA074887C1F
:10424000E074487D2075087D6075C87DA075887D07
:10425000E075487E2076087E6076C87EA076887EEF
:10426000E0766C3C1FF090FEA8B1E06E21F04AF9B8
:104270006B4A6C4B20F01CFF00226B4B20F004FCBF
:1042800020F0D0FB6949E066884203DC4FF08441AE
:10429000884200DAE166207804F12B07410704F137
:1042A000310604F1380526D520F004002070606F37
:1042B0006061E06E21F026F9CDE900015CA20621E3
:1042C0003846FCF719F9206F21F01CF9CDE90001FF
:1042D00059A207213046FCF70FF9606F21F012F95F
:1042E00055A200E005E0CDE9000107212846FCF7D2
:1042F00003F9BDE8FE8F616FA06821F02FF9A0607F
:10430000216FE06821F02AF9E060E16E206921F078
:1043100025F92061204600F0A7FA606F6061E0791E
:10432000401CC0B2E0710328E3D321F09BFA804621
:104330004146206921F080F902904146E06821F071
:104340007BF983464146A06821F076F982461FF04A
:104350001BFDDFF8EC904FF0000890B31FF0D6FD86
:1043600002282FD399F8001004F1A00001904A46CA
:104370000C3804F1AC09009051B182F8008000982B
:104380000EF048F801980EF045F848460EF042F855
:10439000514600980EF071F8594601980EF06DF8EC
:1043A000484602990EF069F848460EF049F8029026
:1043B00000980EF045F8824601980EF041F88346C9
:1043C00003E0FFE7012189F80010204601F0E6FA3A
:1043D000E8B9029821F096F8CDE9000114A206216F
:1043E0003846FCF789F8584621F08CF8CDE90001F1
:1043F00011A207213046FCF77FF8504621F082F8E1
:10440000CDE900010CA207212846FCF775F884F8D5
:104410000780C4F80880C4F80C80C4F8108068E7EE
:10442000CDCCCCCCCCCCFC3F0000404000000C43B9
:1044300025352E326600000025362E32660000003B
:104440004858002010B500281BD00E485F2100F806
:10445000451F062141709C2181705321C1700021AC
:10446000017101214171082100F8421C05484530C5
:104470000AF090FC1CF006FEBDE8104012201CF073
:104480002DBE10BD7C56002010B500281BD00E4854
:104490005F2100F8451F062141709C218170512148
:1044A000C1700021017101214171082100F8421CF5
:1044B000054845300AF06EFC1CF0E4FDBDE81040F4
:1044C00013201CF00BBE10BD7C5600201CB50C4602
:1044D000002832D068460AF00BFADDE900010EF040
:1044E0002FF8164A5F2102F8451F102151709C21B8
:1044F00091706E21D1700021117104215171082138
:104500009171010AD1711072010E5172000C9072FA
:10451000200AD0721473200E5073200C9073074839
:10452000112102F8421C45300AF034FC1CF0AAFDAF
:10453000BDE81C400B201CF0D1BD1CBD7C560020EA
:1045400070B50E4C5F20082504F8450F04206070FC
:104550007520A0706920E070002020710620607135
:10456000064804F8425C294645300AF013FC04F87A
:10457000425CBDE870400C201CF0B0BD7C560020B1
:1045800010B500281BD00E485F2100F8451F0421FC
:104590004170752181704421C17000210171022197
:1045A0004171082100F8421C054845300AF0F2FB31
:1045B0001CF068FDBDE8104008201CF08FBD10BD48
:1045C0007C56002010B500281BD00E485F2100F853
:1045D000451F04214170752181703021C170002177
:1045E000017106214171082100F8421C054845303F
:1045F0000AF0D0FB1CF046FDBDE8104002201CF084
:104600006DBD10BD7C56002010B5002819D00D4896
:104610005F2100F8451F04214170752181706921D7
:10462000C170002101710E214171082100F8421C66
:10463000044845300AF0AEFBBDE8104004201CF0F1
:104640004DBD10BD7C5600201CB50C46002832D054
:1046500068460AF04DF9DDE900010DF071FF164AD8
:104660005F2102F8451F102151709C219170722129
:10467000D170002111710421517108219171010A39
:10468000D1711072010E5172000C9072200AD0721A
:104690001473200E5073200C90730748112102F8F8
:1046A000421C45300AF076FB1CF0ECFCBDE81C40D7
:1046B0000B201CF013BD1CBD7C5600201CB50C4605
:1046C000002832D068460AF013F9DDE900010DF048
:1046D00037FF164A5F2102F8451F102151709C21B7
:1046E00091706021D1700021117104215171082154
:1046F0009171010AD1711072010E5172000C907209
:10470000200AD0721473200E5073200C9073074847
:10471000112102F8421C45300AF03CFB1CF0B2FCAF
:10472000BDE81C4012201CF0D9BC1CBD7C560020EA
:104730001CB50C46002832D068460AF0D9F8DDE9ED
:1047400000010DF0FDFE164A5F2102F8451F102101
:1047500051709C2191707621D1700021117104213A
:10476000517108219171010AD1711072010E5172BB
:10477000000C9072200AD0721473200E5073200C1B
:1047800090730748112102F8421C45300AF002FBE1
:104790001CF078FCBDE81C400B201CF09FBC1CBD2D
:1047A0007C5600201CB500282BD068460AF0A0F8E3
:1047B000DDE900010DF0C4FE124A5F2102F8451F39
:1047C000102151709C2191706421D17000211171D0
:1047D0000221517104219171010AD1711072010EEF
:1047E0005172000C907207480D2102F8421C4530AE
:1047F0000AF0D0FA1CF046FCBDE81C4012201CF068
:104800006DBC1CBD7C56002030B503464FF6FF70D2
:104810004AF201040CE013F8012B50400022C507B6
:1048200002D084EA500000E04008521C082AF6D367
:10483000491E89B2EFD230BD30B505460C46881E00
:1048400081B22846FFF7E0FF2919C3B211F8022C04
:104850009A4206D111F8011CB1EB102F01D10120B1
:1048600030BD002030BD00002DE9F0470025044692
:104870002F4618F08FFCDFF8F4923F287BD018F019
:1048800089FC402877D018F085FC472873D018F0B1
:1048900081FC48286FD018F07DFC49286BD018F0B7
:1048A00079FC582867D018F075FC592863D018F0A7
:1048B00071FC5A285FD018F06DFC5F285BD018F0AF
:1048C00069FC5B2857D018F065FC452853D018F0D8
:1048D00061FC46284FD018F05DFC50284BD018F0F2
:1048E00059FC552847D018F055FC512843D018F0F2
:1048F00051FC52283FD018F04DFC56283BD018F000
:1049000049FC532837D018F045FC4A2833D018F01A
:1049100041FC4B282FD018F03DFC4C282BD018F030
:1049200039FC4D2827D018F035FC4E2823D018F03C
:1049300031FC4F281FD018F02DFC5C281BD018F03C
:1049400029FC5D2817D018F025FC5E2813D018F03C
:1049500021FC42280FD01CF0B9F8854E0E2828D231
:1049600000E008E0DFE800F0171E3F464D545B62B0
:104970006A71787F868D0DF055FB4946D9F80400A1
:1049800001F00CF8002804D04868017821F00801F3
:104990000170BDE8F0871FF0BFF856F820501FF0F7
:1049A00001F905E01FF0E4F856F820501FF028F94F
:1049B00007464FF00008012FEBD16169606F21F0CD
:1049C000A1F820F09FFD002206460F46134620F076
:1049D0006DFC414666D82171A07870B36078401CA8
:1049E0006070A17067E01FF0BDF856F820501FF00E
:1049F00001F9DDE71FF09DF856F820501FF0DFF8B1
:104A0000D6E71FF08FF856F820501FF0D1F8CFE707
:104A10001FF0A2F856F820501FF0E6F8C8E71FF084
:104A20008FF856F820501FF0D3F8C1E71FF080F838
:104A300056F820501FF0C2F8BAE729E01FF05EF8E0
:104A400056F820501FF0A0F8B2E71FF05FF856F8B4
:104A500020501FF0A1F8ABE71FF04AF856F820509D
:104A60001FF08CF8A4E71FF04BF856F820501FF009
:104A70008DF89DE71FF05EF856F820501FF0A2F861
:104A800096E71FF063F856F820501FF0A7F88FE75D
:104A9000E078401CC0B2E0700328A2D36170E170DE
:104AA00021719EE7E170A078012816D06078401C43
:104AB00060700120A070284620F024FD02460B46BD
:104AC000304627F0004120F0F1FB10D884F8018037
:104AD00084F8038084F804805BE72079401CC0B22E
:104AE00020710328E5D36170E1702171E1E76078FE
:104AF0000328F1D384F801801FF090F988B320785F
:104B000000072ED4D9F8040061794D4640798842D7
:104B100004D11BF0DBFF1AF009FA1EE0134E083631
:104B200006F10807706842798A420AD168603078D5
:104B300028701BF0CBFF1AF0F9F9786868603878B4
:104B40000AE078686860387828701BF0BFFF1AF0B8
:104B5000EDF970686860307828700121084612F01D
:104B600077FB207840F00800207012E74C580020B6
:104B7000087F020870B51BF0AFFF7F4C801E04F168
:104B8000080512286FD2DFE800F01AD672D691D647
:104B900036D6D6AC09D651D6D6D6D7E5A0790428D4
:104BA00061D1602000F0BCFC1BF050FF7349002075
:104BB000087017F073FCBDE8704000F027BBA079C7
:104BC000042850D1E0790C284DD10DF0DBFB17F013
:104BD00065FC407960280BD017F066FC0C22294652
:104BE0001FF066FC17F05AFCBDE8704000F0ECBA0C
:104BF00017F054FCF2E7A079042834D1E0790228B8
:104C000031D10DF0BFFB17F049FC407960280AD084
:104C100017F04AFC29461FF036FC17F03FFCBDE8B0
:104C2000704000F093BA17F039FCF3E7A07903283D
:104C300019D10DF0A7FB17F031FC407960280FD097
:104C400017F032FC294600F09FF817F027FC407956
:104C5000602809D017F028FCBDE8704001F09FBB28
:104C600017F01CFCEEE766E017F018FCF4E7A079FB
:104C7000042860D1E07908285DD10DF083FB17F09E
:104C80000DFC4079602805D017F00EFC294600F095
:104C900083F81DE017F002FCF8E717F0FFFB01E0D6
:104CA00017F002FCBDE8704001F072BBA079042847
:104CB00041D1E07904283ED10DF064FB17F0EEFB02
:104CC000407960280AD017F0EFFB294600F0ACF9D4
:104CD00017F0E4FB40796028E2D1DEE717F0DEFB55
:104CE000F3E7A079102826D1E0799C2823D10DF094
:104CF00049FB18F04FFA5B2801D05F281BD1012136
:104D0000022012F0A5FA18F04BFA80681C490069DD
:104D100000690069816018F043FA806819490069E8
:104D200000690069C16018F03BFA806804210069DD
:104D300000690069417170BDE0799C28FBD10DF0DC
:104D400021FB18F027FA3E2810D018F023FA31285A
:104D50000CD070BDE0799C28FBD1207A5128F8D185
:104D60000DF010FB18F016FA0328F2D1BDE87040E0
:104D70000121022012F06CBA7C5600202C55002034
:104D80008B6B02088F6B0208002804D04A7800F869
:104D9000682F0978417070472DE9F04F85B0040005
:104DA0006DD0487884F87400087884F87500C87865
:104DB00084F87600887884F87700487984F86C0065
:104DC000087984F86D00C87984F86E00887984F8D1
:104DD0006F00002626671FF0D7F8A8B1E06E20F01C
:104DE00091FB844A844B20F063F90022834B1FF02F
:104DF0004BFE1FF017FE8249E066884203DC4FF04D
:104E00008441884200DAE1662078DFF8F8A104F1F5
:104E10003801420704F12B0804F13107CAF1000BF5
:104E200004913FD520F004002070606F6061E06E57
:104E300020F068FBCDE9000173A206214046FBF794
:104E40005BFB206F20F05EFBCDE900016EA2072125
:104E50003846FBF751FB606F10F1FF4F01D2504510
:104E600004DB00EB0B01B1F1D47F0BD220F04AFB45
:104E7000CDE9000166A207210498FBF73DFB05B0D0
:104E8000BDE8F08F6449421864498A42F7D220F0A5
:104E9000B1FC0346049805B061A2BDE8F04F0721BC
:104EA000FBF72ABB616FA06820F058FBA060216F60
:104EB000E06820F053FBE060E16E206920F04EFBDB
:104EC00020612046FFF7D0FC606F6061E079401CF4
:104ED000C0B2E0710328D2D320F0C4FC05462946B5
:104EE000206920F0A9FB01902946E06820F0A4FB8E
:104EF00002902946A06820F09FFB05461EF04AFF5D
:104F0000DFF8209188B31FF007F802282ED399F814
:104F1000001004F1A00003904A460C3804F1AC09DB
:104F2000009049B1167000980DF074FA03980DF0D6
:104F300071FA48460DF06EFA294600980DF09DFA78
:104F4000DDE902100DF099FA484601990DF095FA45
:104F500048460DF075FA019000980DF071FA05467B
:104F600003980DF06DFA029003E0FFE7012189F844
:104F70000010204600F012FD38BB019820F0C2FA64
:104F8000CDE9000120A206214046FBF7B5FA0298C0
:104F900020F0B8FACDE900011BA207213846FBF743
:104FA000ABFA15F1FF4F01D2554504DB05EB0B00C1
:104FB000B0F1D47F0AD2284620F0A4FACDE900014E
:104FC00013A207210498FBF797FA0DE0124829185D
:104FD0001248814208D2284620F00CFC034610A259
:104FE00007210498FBF788FAE671A660E66026615F
:104FF00045E70000CDCCCCCCCCCCFC3F0000404001
:1050000000000C430000204125352E3266000000D0
:1050100025352E3166000000000038BD00A0440395
:1050200025356400485800201CB5040019D0487884
:1050300084F87800087884F87900C87884F87A00D1
:10504000887884F87B000749A06F20F053FC20F09B
:1050500059FACDE9000104A2082104F14700FBF749
:105060004BFA1CBD00007A4425352E326600000044
:1050700010B500281BD00E48602100F8451F0621FE
:1050800041709C2181705121C17000210171012169
:105090004171082100F8421C0548453009F07AFEAC
:1050A0001BF0F0FFBDE8104013201CF017B810BD36
:1050B0007C5600207CB50C46050044D0684609F0BB
:1050C00017FCDDE900010DF03BFA1F4A60231021B7
:1050D00082F8453082F84610B5F868109C25B1F585
:1050E000807F2BD0A1F57063FF3B04D182F847503D
:1050F000682182F84810002102F8491F04215170EC
:1051000008219170010AD1701071010E5171000CCB
:105110009071200AD0711472200E5072200C90727F
:105120000948112102F8461C453009F033FE1BF0F6
:10513000A9FFBDE87C400B201BF0D0BF82F8475090
:1051400082F84830D7E77CBD7C56002010B5002897
:105150001BD00E48602100F8451F032141709C219F
:1051600081704E21C170002101710121417108211E
:1051700000F8421C0548453009F00CFE1BF082FF88
:10518000BDE810400E201BF0A9BF10BD7C560020CA
:105190000C4810B5602100F8451F042141707522AC
:1051A00082706922C270002202714171082100F8E8
:1051B000421C0448453009F0EDFDBDE810400C20CC
:1051C0001BF08CBF7C56002010B500281BD00E4869
:1051D000602100F8451F042141707521817045212F
:1051E000C1700021017101214171082100F8421CA8
:1051F0000548453009F0CEFD1BF044FFBDE81040E6
:1052000008201BF06BBF10BD7C56002010B5002895
:105210001BD00E48602100F8451F04214170752104
:1052200081703021C1700021017106214171082176
:1052300000F8421C0548453009F0ACFD1BF022FF88
:10524000BDE8104002201BF049BF10BD7C56002075
:1052500010B5002818D00D486021752200F8451FB0
:105260000421417082706922C27000220271417172
:10527000082100F8421C0548453009F08BFDBDE8C7
:10528000104004201BF02ABF10BD00007C560020F7
:1052900010B5002819D00D48602100F8451F0421E1
:1052A0004170752181707821C17000210171022146
:1052B0004171082100F8421C0448453009F06AFD9C
:1052C000BDE8104006201BF009BF10BD7C56002031
:1052D00010B500281AD00E48602200F8452F06228B
:1052E00042709C2282704E22C2700A0A0271417181
:1052F000082100F8421C0648453009F04BFD1BF020
:10530000C1FEBDE8104012201BF0E8BE10BD000039
:105310007C5600207CB50C46050043D0684609F059
:10532000E7FADDE900010DF00BF91F4A60219C232B
:1053300082F84510102182F84610B5F86810B1F5D2
:10534000807F2BD0A1F57065FF3D04D182F84730F6
:105350006C2182F84810002102F8491F0421517085
:1053600008219170010AD1701071010E5171000C69
:105370009071200AD0711472200E5072200C90721D
:105380000948112102F8461C453009F003FD1BF0C5
:1053900079FEBDE87C400B201BF0A0BE82F84730B0
:1053A0006421D6E77CBD00007C56002010B50028A3
:1053B00027D0144A40F86C1F602102F8451F1021C5
:1053C00051709C2191705721D170002111710221DF
:1053D0005171042191714178D17101781172C178B4
:1053E00051728078907207480D2102F8421C4530B6
:1053F00009F0D0FC1BF046FEBDE8104012201BF067
:105400006DBE10BD7C5600204FF461710148FBF762
:10541000ECB900009A78002010B50E4C6421207879
:1054200020F00700207004F12800FBF700FA0020AC
:10543000C4F80500C4F80900A4F80D00E073206169
:105440006061A061A4F80300E06120626062A4F8DA
:10545000010010BD58570020024800210161416140
:10546000816170475857002064210148FBF7DFB97C
:105470008057002002480021C161016241627047EB
:1054800058570020014817F06DBE0000B8550020A5
:105490000D48A0F19802C1689161002905D00878F3
:1054A000430703D540F00100087070479069006918
:1054B000906103785B0704D5017841F00101017028
:1054C00070478142F2D17047B8550020014803F07F
:1054D00020BF0000F85A0020014803F01ABF000066
:1054E000705A0020014803F014BF0000B45A002095
:1054F00030B590F8404004F01C050124AC40C56B69
:105500006C60046863604368102B036803D0996083
:105510000068C26030BD9A600068C16030BD0000A4
:105520002DE9F04706460E25CC20FAF7BBFE040015
:1055300072D00027C4F8947004F18000C4F8987009
:10554000C4F89C70076247628762C762076347635B
:105550004E2E0BD014DC212E21D008DC012E3BD0A6
:10556000092E77D00A2E76D01D2E75D17AE1222E03
:1055700073D0342E73D04A2EF5D04D2EF5D154E190
:10558000A6F15100112867D2DFE800F009666666CF
:10559000666666666609472669A3F8C0DC0033467E
:1055A000C8A2062104F12300FAF7A6FF00251EF089
:1055B000F7FB002850D01EF0B5FC014604F1940022
:1055C0000CF048FF1EF0AEFC014604F1A0000CF008
:1055D00041FF1EF0A7FC1BE03346BCA2062104F1EC
:1055E0002300FAF789FF01251EF006FC0028E1D010
:1055F0001EF0C4FC014604F194000CF02BFF1EF0D9
:10560000BDFC014604F1A0000CF024FF1EF0B6FC26
:10561000014604F1AC00D8E005E13346ADA2072114
:1056200004F12300FAF768FF02251EF0DFFB0028D3
:10563000C0D01EF09DFC014604F194000CF00AFF5E
:105640001EF096FC014604F1A0000CF003FF1EF0D2
:105650008FFCDDE720E091E0A1E03AE0FFE7334690
:105660009FA2072104F12300FAF746FF04251EF04C
:105670009DFB00289ED01EF05BFC014604F19400C7
:105680000CF0E8FE1EF054FC014604F1A0000CF002
:10569000E1FE1EF04DFCBBE7334693A2072104F167
:1056A0002300FAF729FF05251EF09AFB002876D083
:1056B0001EF058FC014604F194000CF0CBFE1EF0E5
:1056C00051FC014604F1A0000CF0C4FE1EF04AFC9F
:1056D0009EE7334687A2082104F12300FAF70CFF66
:1056E00006251EF071FB002871D01EF02FFC01462C
:1056F00004F194000CF0AEFE1EF028FC014604F10B
:10570000A0000CF0A7FE1EF021FC81E733467CA22E
:10571000072104F12300FAF7EFFE09251EF03AFBFA
:10572000E8B31EF0F9FB014604F194000CF092FE80
:105730001EF0F2FB014604F1A0000CF08BFE1EF0FF
:10574000EBFB65E7334671A2072104F12300FAF76A
:10575000D3FE0A251EF010FB08B31EF0CFFB014656
:1057600004F194000CF076FE1EF0C8FB014604F133
:10577000A0000CF06FFE1EF0C1FB49E7334666A2A5
:10578000072104F12300FAF7B7FE0B251EF0FCFAFF
:1057900028B11EF0BBFB014604F1940000E016E0C6
:1057A0000CF058FE1EF0B2FB014604F1A0000CF014
:1057B00051FE1EF0ABFB014604F1AC000CF04AFEBA
:1057C0001EF0A4FB014604F1B8000CF043FE84F87F
:1057D000627020784FF0300820F00B0040F0040099
:1057E00020706671676727674FF02E09E766612EA4
:1057F00057D03146204601F0EFFD204601F02CFE47
:10580000202084F82B0084F82C8084F82D9084F8D4
:105810002E80444884F82F8084F830704168E1B3CA
:10582000103044600570BDE8F08733463EA2082181
:1058300004F12300FAF760FE0C251EF0BFFA0028E1
:10584000C5D01EF07DFB014604F194000CF002FE71
:105850001EF076FB014604F1A0000CF0FBFD1EF0EB
:105860006FFBD5E6334633A2082104F12300FAF793
:1058700043FE0D251EF0AEFA0028A8D01EF06CFBEA
:10588000014604F194000CF0E5FD1EF065FB0146B5
:1058900004F1A0000CF0DEFD00E00DE01EF05CFB6A
:1058A000B6E684F8388084F8399084F83A8084F831
:1058B0003B8084F83C70A3E71A4908314C6044608F
:1058C0000D70AFE7444F202530326400704820252A
:1058D00030326400547572202530326400000000BC
:1058E00045432025303264004F5250202530326429
:1058F000000000004E48334E202530326400000086
:1059000043686C202530326400000000426761204B
:105910002530326400000000434F442025303264BB
:10592000000000004C5800204D4C535320253032CD
:10593000640000004F6957202530326400000000E9
:105940000248002141600E21017070475458002028
:105950000248002141600E21017070475C58002010
:1059600000224FF07E5101F033B8000002480021C0
:1059700041600E21017070474C5800200868704744
:10598000D0F884007047006F7047406F7047007810
:10599000C0F340007047D0F8800070470078C0F333
:1059A000C000704770B51BF097F8A34C142804F1A1
:1059B000080571D2DFE800F070A61870B270707040
:1059C000357050D50A7074F98FF8F7F6A07903286E
:1059D00062D15120FFF7A4FD1BF038F816F05EFDF0
:1059E000BDE8704000F078BFA079032854D1E07979
:1059F0000E2851D10CF0C6FC16F050FD407951280C
:105A00000CD016F051FD8C490C22093100F00AFD32
:105A100016F044FDBDE8704000F03CBF16F03EFDBE
:105A2000F1E7A079032837D1E079042834D10CF0CC
:105A3000A9FC16F033FD407951280AD016F034FD48
:105A4000294600F0D6FC16F029FDBDE8704000F0B4
:105A5000C1BE16F023FDF3E7A07903281CD1E0793D
:105A6000082819D10CF08EFC16F018FD4079512849
:105A70000FD016F019FD294600F098FC16F00EFD27
:105A80004079512809D016F00FFDBDE8704000F0B4
:105A900086BC16F003FDEEE783E016F0FFFCF4E7AA
:105AA000A07903287DD1E07904287AD10CF06AFC32
:105AB00016F0F4FC407951280AD016F0F5FC29467E
:105AC00000F0C8FC16F0EAFCBDE8704000F0C0BE73
:105AD00016F0E4FCF3E7A079032873D1E0790428F9
