:020000040800F2
:10000000489E00203D020008C9F60008C9D000083B
:1000100059E60008AD2F0008112A01080000000071
:100020000000000000000000000000000D120108A8
:10003000ED870008000000004D0F0108A51701081A
:10004000570200085702000857020008570200082C
:10005000570200085702000857020008570200081C
:10006000570200085702000857020008570200080C
:1000700057020008C156000857020008CD56000874
:10008000D956000857020008570200085702000816
:1000900057020008570200085702000857020008DC
:1000A00057020008570200085702000857020008CC
:1000B000811D010857020008570200085702000876
:1000C00057020008570200085702000857020008AC
:1000D00057020008052901081D29010835290108D2
:1000E000570200085702000857020008570200088C
:1000F00057020008000000005702000857020008DD
:10010000570200085702000857020008570200086B
:1001100057020008570200085702000800000000BC
:100120005702000800F002F800F078F80AA090E802
:10013000000C82448344AAF10107DA4501D100F0A2
:100140006DF8AFF2090EBAE80F0013F0010F18BFF7
:10015000FB1A43F00103184710D8020030D8020000
:1001600010F8013B0A4413F0030408BF10F8014BD8
:100170001D1108BF10F8015B641E05D010F8016B5B
:10018000641E01F8016BF9D1002D15D010F8014B58
:1001900003F00C030C2BA1EB04040ABF10F8013B85
:1001A000A4EB8314A4EB032405F1010314F8016B01
:1001B0005B1E01F8016BF9D5914238BF10F8013B85
:1001C000D1D370470023002400250026103A28BF11
:1001D00078C1FBD8520728BF30C148BF0B607047B9
:1001E00066292BF04F81642900F0C88100207047F8
:1001F0001FB59DE8030000F061FB00F0B7FE0400AE
:10020000002000212AF006F8401C60600020002138
:1002100029F0EAFFE0601FBD10B510BD00F0F0FF4F
:100220001146FFF7E5FF24F07BF801F093FA03B4E1
:10023000FFF7F2FF03BC01F003FB00000948804711
:1002400009480047FEE7FEE7FEE7FEE7FEE7FEE7B8
:10025000FEE7FEE7FEE7FEE704480549054A064BD0
:10026000704700002518010825010008487E00207D
:10027000489E0020488E0020488E002070B5A0FBCC
:100280000140B4F1805170F1000024BF002070BD26
:10029000204600F007F805001CBF214600F0A5FA33
:1002A000284670BD70B5064600F0ECFA056806F108
:1002B0000B0020F00704B4429CBF002070BD2B4609
:1002C0006A68BAB11068A04210D304F108018842EC
:1002D0003CBF5068586007D35168101941601168DD
:1002E000091B016058601460101D70BD13465268F0
:1002F000002AE7D12146284600F0CCFA0028DED1BA
:1003000070BD70B50446051F00F0BCFA0068002CF3
:1003100014BF446870BD002C18BFAC423CBF2046DF
:100320006468F8D301680A18AA4218BF456003D16F
:100330002A6805461144016028684119A1421CBF82
:100340006C6070BD6168696021680844286070BD98
:1003500070B50D460646041F00F094FAD0F800C0B0
:10036000C5B1E6B105F10B0020F00703AB423CBF7D
:10037000002070BD2068984238BFDCF8042013D3F9
:10038000C11A08292FD3E01840F8041B2360FFF797
:10039000B8FF28E03046FFF7B4FF002070BD2846C4
:1003A000BDE87040FFF77EBF002A18BFA2423CBFE5
:1003B00094465268F8D30119914216D11168084445
:1003C000984212D3C11A08293CBF2060506808D354
:1003D0005168E0184160216812681144C91A01602F
:1003E0002360CCF80400201D70BD181FFFF75AFFD2
:1003F000050007D021680A1F211D00F081FD201D86
:10040000FFF77FFF284670BD53EA020C00F06980B9
:100410002DE9F04B4FF00006002B1FBFB3FA83F518
:1004200003FA05F424FA05F65E4012BF1643B2FA49
:1004300082F502FA05F4C5F120051EBF22FA05FC7B
:1004400044EA0C04203556EA044C4FEA144418BF21
:10045000641C4FF000084FF00009904271EB030C50
:1004600039D3002919BFB1FA81F701FA07F6B0FABA
:1004700080F700FA07F6C7F120071EBF20FA07FC35
:1004800046EA0C062037B6FBF4FCA7EB0507103F45
:1004900007F01F0BCBF120060CFA0BFB2CFA06F62B
:1004A00044BFB3460026202FA4BF5E464FF0000B8A
:1004B0005BEA060C08BF4FF0010B19EB0B09ABFB15
:1004C000027C48EB0608C01B06FB02CC0BFB03CCEE
:1004D00071EB0C01C1E70B46024641464846BDE8B8
:1004E000F08B13B54FF000004FF00001AFF3008028
:1004F000BDE81C40704700000FB41CB50C0007AAF3
:10050000009001D02044401E074B7B446946019077
:10051000069800F082FC002C03D06946002000F011
:100520008FFC1CBC5DF814FB3D09000070B504464F
:1005300085690068C10601D5302600E02026C00785
:1005400007D070BDD4E9012130469047206A401C95
:1005500020626D1EF6D570BD70B5044685690078C1
:10056000C00707D170BDD4E9012120209047206A3F
:10057000401C20626D1EF6D570BD00002DE9F041D3
:100580000646002410687529314616A510D0AFF331
:100590000080002802DA404213A507E031688A078C
:1005A00001D512A502E0490704D511A5012401E0F7
:1005B000AFF3008000210A2206F1240709E0B0FB16
:1005C000F2FCB0FBF2F302FB1C003030785418460A
:1005D000491C0028F3D123462A463046BDE8F041A5
:1005E00000F0ADB9000000002D0000002B0000005D
:1005F000200000002DE9F05F894604464FF0000A14
:10060000DFF824B1FB44C0F820A02046E168884709
:1006100000287DD0252806D0D4E901219047206A02
:10062000401C2062F1E700255F462046E1688847CC
:100630002028064607DB312E05D2B81910F8200C09
:1006400008B10543F1E7A80701D525F00405C4F872
:100650001CA00027C4F818A02A2E09D0304612F09A
:1006600072FC38B304EB8708303EC8F8186019E014
:1006700059F8041B204604EB87029161E168884722
:10068000012F064618D1E069002820DA25F0200560
:100690001DE0D8F8180000EB800006EB4000303871
:1006A000C8F818002046E1688847064612F04BFC5F
:1006B0000028EED1012F0AD02E2E08D12046E16865
:1006C00088477F1C0646022F45F02005C4DBA06941
:1006D000002803DA404245F00105A061E80701D097
:1006E00025F01005A6B1A6F14100192802D8203640
:1006F00045F400654A463146204625604D46FFF7E1
:100700006FFD60B1012807D0ED1D25F0070000E066
:1007100007E000F1080978E705F1040975E73046BC
:100720007AE7206ABDE8F09FB8D2020030B50546EE
:100730000B462A4613F8014B12F8010B08B1A042F0
:10074000F8D01CB1002802D06D1CF1E7284630BD5E
:10075000032A40F2308010F0030C00F0158011F8ED
:10076000013BBCF1020F624498BF11F801CB00F8C5
:10077000013B38BF11F8013BA2F1040298BF00F819
:1007800001CB38BF00F8013B11F0030300F0B88340
:10079000083AC0F0088051F8043B083A51F804CBFD
:1007A000A0E80810F5E7121D5CBF51F8043B40F8C3
:1007B000043BAFF30080D20724BF11F8013B11F8CE
:1007C00001CB48BF11F8012B24BF00F8013B00F812
:1007D00001CB48BF00F8012B704702F0FF0343EA4A
:1007E000032242EA024200F002B84FF0000204295C
:1007F000C0F0128010F0030C00F01B80CCF1040C50
:10080000BCF1020F18BF00F8012BA8BF20F8022B83
:10081000A1EB0C0100F00DB85FEAC17C24BF00F829
:10082000012B00F8012B48BF00F8012B70474FF057
:10083000000200B5134694469646203922BFA0E830
:100840000C50A0E80C50B1F12001BFF4F7AF09073C
:1008500028BFA0E80C5048BF0CC05DF804EB89002D
:1008600028BF40F8042B08BF704748BF20F8022B70
:1008700011F0804F18BF00F8012B70477047704788
:100880007047000000487047EC7D002070477047BB
:100890007047704738B504460A4600206946AFF3F2
:1008A0000080002808BF38BD02460099204600F0AD
:1008B00065FB012038BD012000F09ABCF8B5AFF30C
:1008C0000080054600200C46102000BF0646A819EF
:1008D000A0420DD9324669460020AFF300800700E0
:1008E00008BF00F085FC0098A04218BF0546C41957
:1008F000FFF7C8FF05600746F01D20F00700461906
:10090000284600F00AF8B44208BFF8BDA21B3146E1
:100910003868BDE8F84000F031BB00210160C0E953
:10092000011070471020704710B500F023FB0068DD
:1009300010BD10B5044600F01DFB046010BD2DE98C
:10094000F0470D4699469246044600F12408016896
:10095000880604D5E06921F01001216000E0012043
:10096000A84201DD471B00E00027A1697A1902EBCC
:100970000900081AA0612078C00602D42046FFF7BB
:10098000D5FD002608E0D4E901211AF806009047B9
:10099000206A401C761C20624E45F4DB2078C0069D
:1009A0000AD52046FFF7C2FD06E0D4E90121302038
:1009B0009047206A401C2062381EA7F10107F4DC32
:1009C00007E0D4E9012118F805009047206A401C8F
:1009D0002062281EA5F10105F3DC2046FFF7BCFDCF
:1009E0002078000602D50220BDE8F0870120FBE751
:1009F00070472DE9FF4F0C461E464FF0FF378BB076
:100A0000D2E90001DDF860800A908A46C1F30A55F8
:100A100005B93D46002108464FF00000BAF1000F2D
:100A200000F4400005DA00EB80004FF4400101EAD9
:100A300050004FEA9059B9F1010F00DDB9460A980C
:100A400050EA4A000ED044F61050A5F2FF35454357
:100A50002F14B8F1000F1ED07542291E1EDDC9F1FA
:100A600000021CE0B8F1010F4FF0000001D030216E
:100A700003E0F24305E02154401CB042FBDB30466A
:100A80000022002121540B99C1F80880C1E90020FF
:100A90000FB0BDE8F08FBD1B6D1CDEE74A4600DAE3
:100AA000694206A800F032FB06AB93E8070003ABEF
:100AB00083E8070050460A9901F033F98DE80700F2
:100AC000A0F500501F3800900398002D0ADD42F277
:100AD0001F014A460844002303A90390684601F019
:100AE000DFFB09E0A0F500504A461F38002303A9A8
:100AF0000390684601F0FEFB8DE807000004000C3F
:100B000003D04FF0FF30410800E01046B8F1000F6D
:100B100003D00022009215461EE0751E05D400F099
:100B200047FA303262556D1EF9D5B34601220843AB
:100B300002D000227F1C04E02078302801D100225E
:100B40007F1E002A099784D01DE0112D07DA00F0DE
:100B50002FFA303262556D1C50EA0102F5D108437C
:100B600002D00098C8B10EE00021681E05E0235CA9
:100B7000625C63542254401E491C8142F7DBAB4641
:100B8000A81B401E0990002004F80B000B98099A3E
:100B9000C0F80880C0E9002B7AE711264FF0000862
:100BA00057E72DE9F04F88460446D21D22F0070191
:100BB00091B0D1E90001CDE90A0112F01FF9024616
:100BC0000B98C00F01D02D2007E02068810701D5C8
:100BD0002B2002E0202101EAC000032A099001D065
:100BE000072A05DB03464146204600F02FFA0BE1B9
:100BF0002078800601D5E06900E00620B8F1650F95
:100C0000814606D0B8F1660F18D0B8F1670F70D1E1
:100C100031E00020B9F1110F009001DB112301E058
:100C200009F101030AAA01A90CA8FFF7E2FEDDE918
:100C30000C70002609F10105834647E001204B4670
:100C400000904FF000470AAA01A90CA8FFF7D1FEB7
:100C5000DDE90DB00C995D46002610B909F10100DF
:100C60000D18B9EB050003D4C0F1FF3609F10105F9
:100C7000A5EB09002BE0B9F1010F01DA4FF00109F2
:100C80000020B9F1110F0090484601DD112300E06A
:100C900003460AAA01A90CA8FFF7ABFEDDE90C7018
:100CA0004D4600268346207800070AD4AB4500DA7B
:100CB0005D4601A8012D04DD411911F8011C302900
:100CC00007D04F4502DA17F1040F04DA01208246FB
:100CD0000FE06D1EEEE7002F02DCED1B3E4403E04B
:100CE000781CA84200DD7D1CB81B00F1010A4FF002
:100CF00000472078000703D4AA4501DB4FF0FF3AF4
:100D00000021B7F1004F0DF143088DF8431024D0B6
:100D100002202B23002F01DA7F422D230A21021EFD
:100D2000A0F1010000DC5FB197FBF1FC97FBF1F251
:100D300001FB1C7C17460CF1300C08F801CDEEE7E6
:100D4000A8F1010003702188090501D5452100E0C3
:100D50006521A0F1010800F8011C09980FA9A1EB79
:100D60000807FF1D00B10120411901EBEA70A169DC
:100D70003844081A401EA0612078C00602D42046DC
:100D8000FFF7D4FB099828B1D4E901219047206AE4
:100D9000401C20622078C00622D52046FFF7C6FB03
:100DA0001EE0002E04DBB34502DD01A8805D00E0FB
:100DB0003020D4E901219047206A401C2062761C33
:100DC000AAF101005FEA000A0AD100F0CFF8C0687A
:100DD0000168405CD4E901219047206A401C2062F0
:100DE000281EA5F10105DCDC07E0D4E9012118F893
:100DF000010B9047206A401C2062381EA7F10107B2
:100E0000F3DC2046FFF7A8FB032011B041E6000009
:100E100001694A1C02610878704700B58FB0CDE9BE
:100E200001310021059105497944CDE903101146AE
:100E30006846FFF7DFFB0FB000BD0000E5FFFFFFD6
:100E40000A6802F8010B0A607047D1E900239A4250
:100E500002D2531C0B601070704700000FB40023C7
:100E600000B589B00CA900910B99CB60214B7B4454
:100E70000693214B7B44079304236FF00042CDE996
:100E800001321E4A7A446B460892024600202AF03C
:100E900081FB09B05DF814FB70B506464FF0FF30DA
:100EA00015460C46324686B00091CDE901016946EF
:100EB0000020049004A8FFF7D1FF024604982118EF
:100EC00025B108B1084600E02046286004980028B3
:100ED0000DD0002A02DD0098884208D03246081B57
:100EE00069460094CDE9010404A8FFF7B7FF06B0F6
:100EF00070BD00005B02000073020000B30100003F
:100F000010B5203AC0F00B80B1E81850203AA0E8A4
:100F10001850B1E81850A0E81850BFF4F5AF5FEAD8
:100F2000027C24BFB1E81850A0E8185044BF18C98B
:100F300018C0BDE810405FEA827C24BF51F8043B32
:100F400040F8043B08BF7047D20728BF31F8023B86
:100F500048BF11F8012B28BF20F8023B48BF00F81A
:100F6000012B704700487047E47D0020004870471F
:100F7000047E002000487047E47D0020034640685E
:100F80008C46002818BF88423CBF03464068F8D30F
:100F900018681844884207D00CF1030020F00700BD
:100FA000001D411A521A0146081D0A60FFF7A9B92F
:100FB00030B5B0F10A024FEA900E71F100034EEA2B
:100FC000817EB0EB0E0061EB91014FEA101E4EEAFC
:100FD000017E10EB0E0041EB11114FEA102E4EEA8C
:100FE000016E10EB0E0041EB11214FEA104E4EEA5C
:100FF000014E10EB0E0041EB1141401841F1000190
:101000004FEAD00040EA41704FEAD10110EB800571
:101010004FEA810444EA907444EB01046D1944EBF7
:101020000404521BA3414FF0000348BF0A3200D50D
:1010300030BD401C41F1000130BD10B5044600F048
:1010400005F90068005D00F0010010BD2DE9F041D8
:101050001F46044603260168072A01F4006004DBEA
:1010600008B116A505E016A503E008B115A500E036
:1010700015A521F010002060A069C01EA0610FB16D
:10108000401EA0612046FFF751FA4FB1D4E901217B
:1010900038469047206A401C2062C01C206206E04F
:1010A000206AFAE7D4E9012115F8010B9047761E72
:1010B000F8D22046FFF750FABDE8F0814E414E00CD
:1010C0006E616E00494E4600696E6600426842B12C
:1010D000016811F8013B23B1521EC0E90012184605
:1010E00070470121C160881E704742685AB1C368C9
:1010F000016843B983688B4205D0491E521CC0E980
:101100000012002070474FF0FF3070472DE9F04784
:10111000814616468AB0354878440DC88DE80D00E2
:1011200032487844801C03AC0DC884E80D0041F6B9
:101130009B300844372190FBF1F290FBF1F5A5F1CB
:10114000800501FB12041B3C02D56442012000E033
:101150000020DFF898A080460027FA44AAF1BE0AD2
:101160000EE0E0070AD03246684607EB470101234C
:101170000AEB810101F0BEF88DE8070064107F1CC6
:10118000002CEED1194F7F44AE3F19E0E80715D08F
:1011900007EB04100DF1180A90E80E008AE80E0023
:1011A000C068F04201D1981908903246012306A97F
:1011B00003A801F09FF803AB83E807006D10641CDF
:1011C000002DE3D14FF0010332466946B8F1000F1C
:1011D00003A802D001F064F801E001F08BF8C9E93E
:1011E0000001C9F808200AB0BDE8F08734C8020041
:1011F00010B500F0BDFABDE8104000F0B4BA704779
:101200007546FFF7AFFEAE4605006946534620F02F
:101210000700854618B020B5FFF71EF8BDE820404E
:101220004FF000064FF000074FF000084FF0000BA2
:1012300021F00701AC46ACE8C009ACE8C009ACE855
:10124000C009ACE8C0098D467047000010B5FFF733
:101250008DFE001D10BD00BFBD8F02002DE9FF4FA8
:1012600006468BB00878FF2806D0491C2D2805D0EB
:1012700000244FF0000908E000200CE00124F8E70A
:1012800009EB8903491C00EB43090878FF28F7D1D3
:1012900014B1C9F100008146107800252C46AA46F9
:1012A00029462D2801D02B2804D1521C2D2813D0DB
:1012B000002082468B461078FF280FD04FF0000C9C
:1012C0000A21521CA5FB017804FB018105FB0C11CE
:1012D000C5194BEB0104EEE70120EAE700210846BF
:1012E0004FF00000BAF1000F02D000EB8000400880
:1012F000C0F38157012F01DD4FF0FF370E9955EAFA
:10130000040009EB01080BD04FF0020918F5FA7F31
:1013100016DA4FEACA70002F706008DD012007E07E
:101320004FEACA70C6E900B00FB0BDE8F08F0020E8
:101330003060FFF71FFEC0F800901821084616E045
:10134000B8F5FA7F18DD002F02DAF748784401E09B
:10135000F6487844D0E90010C6E9001040EACA70A7
:101360007060FFF707FEC0F80090142108460FB028
:10137000BDE8F04F2AF083B8002108464FF0000086
:10138000B8F10001099002DAC7F1000200E03A4624
:1013900001DAC8F1000106A8FFF7B8FE06AB93E832
:1013A000070003AB83E8070044F23E005BEA040158
:1013B0000090584604D144F21E012C465D4600912F
:1013C000210C0904014306D10099240444EA154480
:1013D0002D041039009104F07F41014306D100999A
:1013E000240244EA15642D020839009104F070418A
:1013F000014306D10099240144EA15742D01091F07
:10140000009104F04041014306D10099A40044EA50
:101410009574AD00891E009104F00041084304D189
:1014200000986D196441401E00904FF001033A4648
:101430006846B8F1000FCDE9014503A902DD00F0CF
:101440006EFF01E000F041FFBAF1000F04460D46C7
:1014500001D084F00044002108464FF000000999B3
:1014600040F2FF77484010F00C0F07D124F0004005
:10147000284303D0C4F30A50B84212D1FFF77AFDD3
:10148000C0F80090C4F30A50B8420AD1A848784482
:10149000D0E90010C6E9001004F000410843706074
:1014A00042E7C6E900543FE72DE9FF4F1F464FF0E2
:1014B000000A4FF0FF38454691B0D7E90146CDF814
:1014C0003CA0FFF753FDC0680168405C1090B9690B
:1014D00012986D1C8847396A814688470028F6D1E2
:1014E000B9F1FF3F0AD0002E24F4D06411DDB9F128
:1014F0002B0F08D0B9F12D0F0BD102E0404615B0EB
:1015000013E744F48064B96912986D1C8847761E0D
:101510008146600504A901D52D2000E02B20002E76
:1015200001F1010B0DF130088DF810003FDDB9F12C
:10153000690F08D0B9F1490F05D0B9F16E0F02D08B
:10154000B9F14E0F1CD13B4601A8009580E850022E
:10155000DDE912126FF002002AF020F8C11CCED192
:101560000EE0B96912986D1C884781461398761E63
:1015700044F4007405600F98401C002E0F9016DD97
:10158000B9F1300FEDD0B9F1780F02D0B9F1580FA1
:101590000DD10F9801280AD13B46CDE90054DDE971
:1015A0001212001F029629F0F7FFC11CA7D1109953
:1015B00089453ED144F0800406E01399681CAAF1E5
:1015C000010A44F400740860B9696D1C1298761E13
:1015D000884730288146F0D02BE01099894505D105
:1015E000200603D4761E44F0800418E0484611F02B
:1015F000AAFC08B3761E0DF123018B4544F4007458
:1016000008D2A9F130000BF8010B200607D5AAF18A
:10161000010003E0200602D40AF101008246A00581
:1016200002D51399681C0860B96912986D1C884727
:101630008146002ED1DC53E0002E51DDB9F1650F5B
:1016400002D0B9F1450F4BD1A00549D5B9696D1C40
:101650001298761E24F440748847002E81460CDDD3
:101660002B2804D0B9F12D0F07D144F48074B96947
:1016700012986D1C8847761E8146E00501D52D2104
:1016800000E02B2108F8011BCDF8008021E0761E38
:101690000DF13901884544F400740CD2A9F13000F1
:1016A00010F0FF0088F8000002D10099884509D9A0
:1016B00008F1010806E0E00501D51E4801E042F20C
:1016C0000F708246B96912986D1C8847814613983D
:1016D0000560002E04DD484611F035FC0028D6D107
:1016E000F96912988847FF2053468BF8000088F864
:1016F000000000200A900B9004AA0CA90AA8FFF78A
:10170000ADFDA00502D46FF00100F8E614F0240F3F
:1017100012D0E0071CD13868DDE90A12031D3B60D6
:101720000068C0E9001213E040C6020032C60200A1
:10173000F6C40200F1D8FFFF0AA9684611F092FB37
:10174000E00705D13868009A011D39600068026021
:101750002846D4E610B50446AFF300802046BDE825
:101760001040FEF764BD002801D000F069B8704752
:1017700010B5012805D0002103A000F067F8012072
:1017800010BD09A1F8E7000053494752544D454D9B
:101790003A204F7574206F662068656170206D6512
:1017A0006D6F7279000000003A2048656170206D0D
:1017B000656D6F727920636F727275707465640005
:1017C0004FF0013C50F8042B51F8043B9A4221D1D0
:1017D000A2EB0C03934313EACC1317D150F8042B5C
:1017E00051F8043B9A4215D1A2EB0C03934313EA40
:1017F000CC130BD150F8042B51F8043B9A4209D179
:10180000A2EB0C03934313EACC13DBD04FF00000A0
:10181000704700BFD01A01BAB1FA81F101F0180186
:1018200022FA01F0CB40C1F12001DBB2C0B2C01AF4
:101830002CFA01F3D11A914311EAC311E6D1704792
:1018400001491820ABBEFEE72600020070B5054630
:101850000C460A2000E06D1C00F011F835B1287824
:101860000028F8D102E0641C00F009F814B12078D7
:101870000028F8D1BDE870400A20AFF3008008B519
:1018800069468DF800000320ABBE08BD2DE9FF4F6F
:101890001F464FF03C0987B04FF00042DDE91410BD
:1018A00001F10108DDF858A002EA40500390002041
:1018B00005908346054604460490B969461E08987B
:1018C0008847AAF1010A0290BAF1000F3BDD0298A5
:1018D0002E2815D0102100F016FA00282EDB4FF02C
:1018E000010B0599014317D0B9F1000F0BDB4A46F4
:1018F000C11700F0F5F905430C43A9F1040905E00F
:10190000012004900BE008B145F00105012005908D
:10191000049820B9361D02E0049800B1361FB96959
:10192000089808F101088847BBF1000FAAF1010AE5
:101930000290C9D00999C1F80080C5E702987028C3
:1019400008D0502806D0F96908988847BBF1000FE5
:1019500014D04FE0002002900120BBF1000F049052
:1019600009D0B969089808F101088847AAF1010966
:10197000B9F1000F07DCF969089888476FF001009A
:101980000BB0BDE8F08F2B2804D02D280CD14FF0E0
:10199000FF300490B969089808F101088847A9F157
:1019A0000109B9F1000FE6DD411CE4D00A2100F085
:1019B000AAF90028DFDB029908F1010801EB810197
:1019C00000EB41000290B969089888470A2100F0AD
:1019D0009AF9099AA9F10109B9F1000FC2F800803A
:1019E00001DD0028E7DAF969089888470499029828
:1019F00000FB016655EA040004D004F040410900F0
:101A000002D006E0039898E0A40044EA9574AD0083
:101A1000B61E04F00041080002D16D196441761E23
:101A2000159810F0240F03D04FF00B095C4803E029
:101A30004FF028096FF07D008246564507DAAAEB81
:101A400006018944B9F1410F01DD4FF04109012040
:101A50000021A9F1010200F043F9024628400B469B
:101A60002140084301D0012100E00021501E0291D5
:101A700043F1FF3128402140084301D0012000E01C
:101A800000200299834651EA0B014FD000210846FD
:101A90004FF00000039900F4400039B100EB8000E2
:101AA0004FF4400100EBD07001EA6000801501287E
:101AB00002DD4FF0FF3000E013D0401C36D002981A
:101AC00060B3BBF1000F0CD14A460120002100F0A9
:101AD00007F928402140084301D0012000E0002000
:101AE000E0B101204A46002100F0FAF8034640190F
:101AF0000A4661412D1A8C4111D3B9F1400F09DD1D
:101B0000159810F0240F02D0AAF1340603E0AAF1D0
:101B1000170600E0761C00254FF0004406E05B1E2F
:101B200042F1FF3220EA030521EA0204CAF1010072
:101B3000B04206DA1B490398084301900020009048
:101B40000EE0039AC4F3D321E80A0A43164940EA97
:101B500044500A433146CDE90002684611F0E8F9E5
:101B6000159810F0240F0BD01598C00715D13868C0
:101B7000DDE90012031D3B600068C0E900120CE0C3
:101B800002A8694611F06EF91598C00705D13868AA
:101B9000029A011D3960006802604046F0E60000CC
:101BA00002FCFFFF0000F07F0000F03F2DE9FF4F37
:101BB00092461D4685B04FF00041DDE9124BDDE94C
:101BC00014727F1E01EA4B50414940F0FF4940EA40
:101BD0000108002122F020004928049102D04E285B
:101BE00028D04CE03BA0012607C88DE80700A96972
:101BF0000698641C88477F1E014606D41DF806001F
:101C000018B121F0200181420BD0E969069888477C
:101C1000032E34D0082E32D06FF0010009B0BDE899
:101C2000F08F761C032E01D0082EE0D1601CCAF87C
:101C30000000DCE7A9690698641C88477F1E2AD447
:101C400020F02000412826D1A9690698641C884705
:101C50007F1E20D420F020004E281CD1A9690698B0
:101C6000641C88477F1E48F4002849F48009CAF89C
:101C7000004001D4282806D0E969069888475FEA21
:101C8000CB7012D022E0A9690698641C88477F1E99
:101C900001D4002803DAE96906988847BCE72928B7
:101CA000F1D1641CCAF80040E9E71BF0240F07D00B
:101CB00028680499031D2B600068C0E9001805E03E
:101CC0002868021D2A600068C0F800902046A5E739
:101CD0000000F07F494E46494E495459000000002B
:101CE000B2F120030AD5C2F1200301FA02F120FA71
:101CF00003F300FA02F041EA0301704700FA03F12E
:101D00004FF0000070473A2800D2303820F020020F
:101D1000412A01D3A2F13700884201D34FF0FF30AE
:101D200070475FEA400C08BF91F0000F4FEA8C2328
:101D30004FEAC12243EA51514FEA1C5018BF00F547
:101D4000F0404FEA300018BF41F000415FEA6C5CA0
:101D500000F02980BCF1FF3F08BF40F08040704791
:101D6000130C06BF12044FF0100C4FF0000C130EB2
:101D700004BF12020CF1080C130F04BF12010CF186
:101D8000040C930F04BF92000CF1020CD30F04BF9C
:101D900052000CF1010C11464FF00002A0F11F009F
:101DA000A0EB0C00704711F0004F08BF704731F0F6
:101DB00000413FF4D5AF0B0C06BF09044FF0100CE7
:101DC0004FF0000C0B0E04BF09020CF1080C0B0FB6
:101DD00004BF09010CF1040C8B0F04BF89000CF146
:101DE000020CCB0F04BF49000CF1010CCCF1200315
:101DF000A0EB0C0022FA03F302FA0CF241EA030111
:101E000000F10100704720F07F4C80EA030023F0CE
:101E10007F47ACEB070303F57C5300F0004003F170
:101E2000FF032DE980494FEA154B09B44FEA1443EB
:101E300025EA0B4E24EA03480FF2042606EB13278B
:101E400049083E785FEA320203FB0667C7F50007E0
:101E500007FB06F64FEA54374FEAD64606F102066C
:101E600007FB066CCCF1005C4FEA1C472CEA074CE0
:101E700007FB06F40CFB06F504EB15464FEA961635
:101E800034BF00204FF000404FEAD13706FB07FC7B
:101E90004FEA1C4C0CFB0BF7D21B03FB0CF761EB5E
:101EA00007010CFB0EF7B0EB074072EB17420CFB7F
:101EB00008F734BFA2EB0742B2EB074261EB1741D0
:101EC0004FEA0C444FEA910706FB07FC4FEA1C4C13
:101ED0000CFB0BF7B0EBC74072EB573203FB0CF770
:101EE00034BFA2EBC742B2EBC74261EB57310CFBE8
:101EF0000EF7B0EBC70072EB57720CFB08F734BF5C
:101F0000A2EBC702B2EBC70261EB5771039F4FEA26
:101F1000816141EA921104EBCC044FEAD1374FEAD8
:101F2000826206FB07FC42EA90124FEA80604FEAA9
:101F30001C4C0CFB0BF7D21B03FB0CF761EB0701EE
:101F40000CFB0EF7B0EB074072EB17420CFB08F7E7
:101F500034BFA2EB0742B2EB074261EB17414FEAF5
:101F60008C554FEA910704EB9C2406FB07FC4FEAD3
:101F70001C4C0CFB0BF7B0EBC74072EB573203FB6A
:101F80000CF734BFA2EBC742B2EBC74261EB57314B
:101F90000CFB0EF7B0EBC70072EB57720CFB08F7A7
:101FA00034BFA2EBC702B2EBC70261EB577115EB6E
:101FB0004C254FEA816141EA92114FEA82624FEA71
:101FC000D13742EA901206FB07FC44F100044FEAC5
:101FD00080604FEA1C4C0CFB0BF7D21B03FB0CF789
:101FE00061EB07010CFB0EF7B0EB074072EB1742F9
:101FF0000CFB08F734BFA2EB0742B2EB074261EBE0
:10200000174115EB1C154FEA813141EA92414FEA25
:10201000823242EA90424FEA80304FEA0C7644F135
:10202000000448EA03434EEA0B484FF0000EB2EBBF
:10203000080C71EB030724BF624639464EEB0E0EC7
:102040004FF0000B0018524149414BEB0B0BB2EB28
:10205000080C71EB03077BF1000B24BF6246394685
:102060004EEB0E0E4FF0000B0018524149414BEB66
:102070000B0BB2EB080C71EB03077BF1000B24BFD9
:10208000624639464EEB0E0E51EA020718BF46F083
:10209000010616EB0E7655F1000254F1000103D54E
:1020A000BDE88901BDE80088BDE88901BDE80048B8
:1020B000B619524141EB0101A3F101037047808041
:1020C0007F7E7D7C7B7A7978777676757473727192
:1020D00071706F6E6E6D6C6C6B6A6A69686867664A
:1020E00066656464636362616160605F5F5E5E5DDC
:1020F0005D5C5C5B5B5A5A59595858575756565550
:1021000055555454535352525251515050504F4FB1
:102110004F4E4E4D4D4D4C4C4C4B4B4B4A4A4A4901
:102120004949484848474747474646464545454444
:1021300044444443434343424242424141410000FC
:1021400046EA0646A3F570534FEA164646EA42565B
:102150004FEAD22242EA415210B54FEAD121A3F10F
:10216000010300F02FF820F0004000F1020C00F015
:10217000004701EB00501146BCF5006F40EA070034
:1021800000D210BDBAF1000F0AD01CB503B44FF055
:1021900004004FF004014FF000000FBCBDE81040F8
:1021A0004FF00001BBF1010FB9BF04484FF0FF3100
:1021B0000348002140EA070010BD00BFFFFFEF7F8A
:1021C0000000F07F002B9C4630D477002BD01CB54C
:1021D0004FEA370703B44FF010004FF01001BAF187
:1021E000000F06D0BCF1000FDCBF40F0080040F04B
:1021F00008014FF000000FBCBDE810400BF1010BCF
:10220000BBF1010F08BF5FEA170722BF12F10102FD
:1022100011F101014FF0004143F1000300F00040D3
:1022200043EA00007047F9D35708D0E746EA06466C
:1022300013F1400F4FEA16461FDD13F1200FDFBFE9
:1022400016430A46002120335B42BED0C3F120076B
:1022500046EA064602FA07F74FEA164646EA070636
:10226000C3F1200722FA03F201FA07F721FA03F17A
:102270004FF0000342EA0702A7E746EA020646EAF1
:1022800006464FEA164646EA0106BCBF46EA06463F
:10229000360C4FF000034FF000024FF0000194E7BE
:1022A0002DE9804C9A46934670B491E8380007C8EF
:1022B00031EA400C48BF34EA430C03D5FFF7A3FDD5
:1022C000FFF780FFF0BCBDE8008C2DE9804C9A46FA
:1022D000934670B491E8380007C831EA400C48BF13
:1022E00034EA430C03D5FFF78EFDFFF729FFF0BC5E
:1022F000BDE8008C2DE9804C9A46934670B491E875
:10230000380007C810F0804F08BF13F0804F03D18A
:1023100000F01AF8FFF756FFF0BCBDE8008C2DE97D
:10232000804C9A46934670B491E8380007C810F084
:10233000804F08BF13F0804F03D100F005F8FFF77E
:10234000FFFEF0BCBDE8008C20F07F4780EA030070
:1023500023F07F4C07EB0C03A3F57C5300F0004007
:10236000A3F1FE0392F0000F00F0B38095F0000F90
:1023700000F077802DE901494FEA11404FEA1446F9
:1023800021EA004800FB06FC24EA064708FB06F6A3
:1023900007FB08F800FB07F718EB06484CEB164C58
:1023A0004FEA124B18EB07484FEA15464CEB174023
:1023B00022EA0B4E0BFB06FC25EA06470EFB06F64F
:1023C00007FB0EFE0BFB07F71EEB064E4CEB164C05
:1023D0004FF000061EEB074E4CEB174B18EB0B08AB
:1023E00040F1000018EB0E0B58EB000840F1000024
:1023F0008F1A4FF000013CBFC943661B14BFB5EBF9
:10240000040C00213CBFC943F61B4FEA17444EEAB7
:102410008E0E27EA04454FEA1C4704FB07622CEAAC
:10242000074C05FB07F70CFB05F604FB0CFC16EB51
:10243000074642EB174216EB0C4642EB1C421BEBE5
:10244000060658EB0202414146EA9E0601D5BDE868
:102450000189B619524141EB0101A3F10103BDE825
:1024600001894FEA14454FEA114724EA054621EA5B
:10247000074C05FB07F406FB07F70CFB06F105FB11
:102480000CFC11EB074144EB17444FEA124711EBE8
:102490000C4144EB1C4422EA074C05FB07F206FB07
:1024A00007F70CFB06F605FB0CFC16EB074642EBA8
:1024B000174216EB0C4642EB1C456A1854F100011A
:1024C00048BF7047B619524141EB0101A3F1010326
:1024D000704795F0000F37D04FEA11424FEA14478A
:1024E00021EA024624EA074C02FB07F106FB07F744
:1024F0000CFB06F402FB0CFC14EB074441EB174108
:102500004FEA154714EB0C4441EB1C4125EA074CFC
:1025100002FB07F506FB07F70CFB06F602FB0CFCBB
:1025200016EB074645EB174516EB0C4645EB1C42F0
:10253000121951F1000148BF7047B619524141EBE1
:102540000101A3F1010370474FEA14454FEA114717
:1025500024EA054621EA074C05FB07F106FB07F7CD
:102560000CFB06F24FF0000605FB0CFC12EB0742D9
:1025700041EB174112EB0C4251EB1C4148BF704735
:10258000921841EB0101A3F10103704770B50446B5
:1025900000680168C943490620D4816821F001011F
:1025A000816009F077FA054613E009F073FA401BE1
:1025B00002280ED920680068C043400609D4E06CA8
:1025C00040F01000E064206D40F001002065012023
:1025D00070BD20680068C0434006E6D5002070BD8D
:1025E000F8B500260446009600680168C94349060C
:1025F0002ED5816841F001018160164816490068B6
:10260000B0FBF1F000EB400000E0401E009000281D
:10261000FBD109F03FFA054615E009F03BFA401BF3
:10262000022810D920680068C04340060BD5E06C32
:1026300040F01000E064206D40F00100206584F857
:1026400048600120F8BD20680068C0434006E4D41B
:102650000020F8BD1000002040420F0010B50A48CD
:1026600008F09CFF6421084808F040FF064808F085
:1026700043FE064CA060044808F0CBFF052009F09B
:1026800003F9A06810BD0000BC58002010580020BD
:102690002DE9F041002507462E462C460BE0FFF7BA
:1026A000DDFF28F0C3F82A46334627F0FBFD641C03
:1026B00005460E46E4B2BC42F1D3384628F0B6F8DF
:1026C00002460B4628463146BDE8F04127F0A6BE3B
:1026D0000949094A983AC9689161002104E093695F
:1026E000491CC9B21B6993618142F8D39069017892
:1026F00041F0010101707047B85500201249124A9B
:10270000983AC968916103281CD005DC98B101286A
:1027100011D002280ED113E0052811D00A2811D0BB
:10272000142807D10869006900699061017841F0B7
:10273000010101707047087840F00100087070478F
:102740000869F2E70869EFE7B855002010B522F0F4
:10275000C1FF7D4A0B287DD027DC7B4C022804F189
:10276000080445D0032876D0042863D0082873D104
:102770009079042870D1D07902286DD112F08AFEA8
:102780001EF0E6F8407961284ED01EF0E7F82146A9
:1027900027F030FA1EF0DCF84079612847D01EF0AF
:1027A000DDF8BDE8104003F08CBF0C280FD01228D4
:1027B00071D013286BD112F06DFE1EF0ADFF03280F
:1027C00065D10121BDE81040022018F0E5BB9079E9
:1027D00004285CD1612002F09DFF22F035FF5B49A7
:1027E000002008701EF0B4F8BDE8104000F0D0BA28
:1027F000907904284BD1D0790C2848D112F04AFEA8
:102800001EF0A6F8407961280BD01EF0A7F80C2224
:10281000214627F006FA1EF09BF8BDE8104000F0B4
:1028200095BA1EF095F8F2E71EF092F8AFE71EF0A9
:102830008FF8B6E79079042829D1D079082826D1D5
:1028400012F028FE1EF084F84079612813D01EF0A3
:1028500085F802E015E025E019E0214600F080F857
:102860001EF076F84079612808D01EF077F8BDE8B0
:10287000104003F01FBF1EF06BF8EAE71EF068F887
:10288000F5E79079102802D1D0799C284CD010BD62
:102890001EF05EF802E04FE01EF060F8BDE8104068
:1028A00000F016BA90790424042806D1507A012841
:1028B00021D0082838D0092836D012F0EBFD1EF0C0
:1028C0002BFF5F2801D06028E1D10021022018F001
:1028D00063FB1EF027FF80681D49006981601EF0C0
:1028E00021FF806801691B48C8601EF01BFF8068DB
:1028F0000069447110BD12F0CDFD1EF00DFF5F2880
:1029000001D06028F6D10121022018F045FB1EF00D
:1029100009FF80681049006981601EF003FF80682C
:102920000E490069C160E0E712F0B4FD1EF010F836
:1029300040796128B0D1ABE712F0ACFD1EF0ECFE9F
:1029400041283FF43EAF10BD7C5600202C5500209E
:102950007BC4020876C4020867C402086BC402087C
:102960002DE9FE4F04006FD0487884F8780008788D
:1029700084F87900C87884F87A00887884F87B0035
:10298000487904F8700F08796070C879A070887968
:10299000DFF8C881E0704146A06828F061FAA060C5
:1029A000703C26F003FEA8B1206F28F0B9F96C4AFC
:1029B0006C4B27F08BFF00226B4B27F073FC27F04A
:1029C0003FFC6A492067884203DC4FF0844188421B
:1029D00000DA21672078DFF898A1DFF898B104F1D8
:1029E0002F01420704F13C0602912ED520F004008D
:1029F0002070A06F6061B0F5000F03DA28F090F945
:102A00005DA210E0504503DC28F08AF95CA20AE0E0
:102A1000404503DC28F084F95BA204E0584508DC5B
:102A200028F07EF95AA2CDE9000107213046FDF7D2
:102A300063FD206F28F074F9CDE9000156A206214C
:102A40000298FDF759FD83E086E0A16FA06828F0A9
:102A500093F9A060216F206928F08EF9206120464B
:102A600001F024FFA06F6061E079401CC0B2E0710A
:102A700003286DD328F03EFB05462946206928F03F
:102A8000EFF901902946A06828F0EAF9054626F0FA
:102A90003DFCDFF80C91002720B326F023FD02282F
:102AA00020D399F80020484604F1980104F1B009B8
:102AB000009132B10770009812F034FD484612F0D0
:102AC00031FD2946009812F060FD4846019912F048
:102AD0005CFD484612F03CFD0190009812F038FD74
:102AE000054602E0012189F80010204603F0E8F8CD
:102AF00058BB019828F014F9CDE9000126A206215F
:102B00000298FDF7F9FCB5F5000F04DA284628F025
:102B100007F919A213E0554504DC284628F000F90E
:102B200017A20CE0454504DC284628F0F9F816A267
:102B300005E05D4509DC284628F0F2F814A2CDE94D
:102B4000000107213046FDF7D7FCE771A760276138
:102B5000BDE8FE4F23F04CB9BDE8FE8F00007A447B
:102B6000CDCCCCCCCCCCFC3F0000404000000C4392
:102B70000000C84200401C4625362E346600000086
:102B800025362E336600000025362E326600000002
:102B900025362E316600000025352E3266000000F5
:102BA0004C5800201CB50C46002832D068460EF068
:102BB00069FADDE9000112F04BFD164A612102F8C5
:102BC000451F102151709C2191706821D170002106
:102BD00011710421517108219171010AD171107292
:102BE000010E5172000C9072200AD0721473200EE4
:102BF0005073200C90730748112102F8421C453095
:102C00000EF0C0FC23F0ECF8BDE81C400B2023F0D4
:102C100013B91CBD7C5600201CB50C46002832D0D0
:102C200068460EF02FFADDE9000112F011FD164A98
:102C3000612102F8451F102151709C2191706C2177
:102C4000D170002111710421517108219171010A83
:102C5000D1711072010E5172000C9072200AD07264
:102C60001473200E5073200C90730748112102F842
:102C7000421C45300EF086FC23F0B2F8BDE81C4043
:102C80000B2023F0D9B81CBD7C56002010B50028BD
:102C90001BD00E48612100F8451F062141709C2180
:102CA00081705121C1700021017101214171082100
:102CB00000F8421C054845300EF064FC23F090F803
:102CC000BDE81040132023F0B7B810BD7C5600209B
:102CD00010B500281BD00E48612100F8451F0421C3
:102CE0004170752181706621C1700021017101213F
:102CF0004171082100F8421C054845300EF042FCA5
:102D000023F06EF8BDE81040032023F095B810BD05
:102D10007C5600200C4810B5612100F8451F0421A5
:102D20004170752282706922C27000220271417165
:102D3000082100F8421C044845300EF023FCBDE891
:102D400010400C2023F078B87C56002010B50028E5
:102D50001BD00E48612100F8451F042141707521E8
:102D600081704521C170002101710121417108214B
:102D700000F8421C054845300EF004FC23F030F802
:102D8000BDE81040082023F057B810BD7C56002045
:102D900010B500281BD00E48612100F8451F042102
:102DA0004170752181703021C170002101710621AF
:102DB0004171082100F8421C054845300EF0E2FB45
:102DC00023F00EF8BDE81040022023F035B810BD06
:102DD0007C56002010B5002818D00D4861217522BE
:102DE00000F8451F0421417082706922C2700022E0
:102DF00002714171082100F8421C054845300EF06F
:102E0000C1FBBDE81040042023F016B810BD00003F
:102E10007C56002010B5002827D0144A40F8701FB7
:102E2000612102F8451F102151709C21917057219A
:102E3000D1700021117102215171042191714178E9
:102E4000D17101781172C1785172807890720748FF
:102E50000D2102F8421C45300EF094FB22F0C0FF19
:102E6000BDE81040122022F0E7BF10BD7C560020C4
:102E700010B50446F32000F037F8204000D00120C0
:102E800010BD000010B5F92000F02EF80A4C20709B
:102E9000F82000F029F86070F72000F025F8A07005
:102EA0006178000340EA01102178BDE8104040EA53
:102EB000111010F027BB00005056002070B5FC2008
:102EC00000F012F80446FB2000F00EF80546FA2048
:102ED00000F00AF8000340EA051040EA1410BDE8CB
:102EE000704010F005BC000070B50B4D06464FF465
:102EF000807400222146284608F0C7FD304610F0B5
:102F0000D5FA10F0CFFA064601222146284608F0ED
:102F1000BCFD304670BD00000004024001784278DC
:102F20004901807841EA82010143C9B2F52000F0ED
:102F30000BB8417802784901807841EA8201014367
:102F4000C9B2F420AFF300802DE9F0410B4D0F46DC
:102F500006464FF4807400222146284608F095FD6D
:102F6000304610F0A3FA384610F0A0FA2146284661
:102F7000BDE8F041012208F088BD000000040240D5
:102F80000949094AC968983A0029916104D020B1D9
:102F9000087840F001000870704708699061017876
:102FA00041F0010101707047B8550020FEE70000B4
:102FB0002DE9F04122F08EFBB449B54CB54D042605
:102FC00001F108070C2814D00ADCA0F102000A283D
:102FD00071D2DFE800F03D70E2707070577071F3ED
:102FE0001238072867D2DFE800F0EBEA66661A8736
:102FF000B600887903285ED14A2002F08BFB22F0CC
:1030000023FB1DF0A5FC40794A2805D01DF0A6FC45
:10301000394600F003FCBAE01DF09AFCF8E7887925
:10302000032848D112F036FA1DF092FC40794A2864
:103030000BD01DF093FC394600F030F91DF088FCF0
:10304000BDE8F0414A2100F0A5BE1DF081FCF2E789
:10305000887903282FD112F01DFA1DF079FC4079F0
:103060004A280CD01DF07AFC0122394600F056FBAC
:103070001DF06EFCBDE8F0414A2100F06FBE1DF06E
:1030800067FCF1E78879032815D112F003FA1DF0E7
:103090005FFC40794A280BD01DF060FC002100F055
:1030A00013FB1DF055FCBDE8F0414A2100F0CABEFB
:1030B0001DF04EFCF2E780E0887903287DD112F004
:1030C000E9F91DF045FC40794A280FD01DF046FC77
:1030D000394600F049FB1DF03BFC40794A2808D0F6
:1030E0001DF03CFCBDE8F04103F0EBBA1DF030FCF4
:1030F000EEE71DF02DFCF5E7887906285DD112F08A
:10310000C9F91EF009FB372815D163490120087061
:103110000146022017F040FF1EF004FB80680069A2
:1031200084601EF0FFFA80680069C5601EF0FAFA3C
:103130008068006946711DF00BFC40794A2807D071
:103140001DF00CFCBDE8F0415049093100F0E0B839
:103150001DF0FEFBF6E78879062873D112F09AF984
:103160001EF0DAFA382812D10121022017F014FFDC
:103170001EF0D8FA8068006984601EF0D3FA806877
:103180000069C5601EF0CEFA8068006946711DF0C6
:10319000DFFBBDE8F04100F0D5B88879032851D1B4
:1031A00012F078F91DF0D4FB40794A2814D01DF0B4
:1031B000D5FB394600F032FB03E043E012E055E076
:1031C00042E01DF0C5FB40794A2808D01DF0C6FB3F
:1031D000BDE8F04103F06EBA1DF0BAFBE9E71DF05F
:1031E000B7FBF5E78879062801D010282AD112F01C
:1031F00051F91EF091FA542811D008DC03280ED0A2
:1032000042280CD044280AD053281BD107E0552867
:1032100005D0562803D0582801D0592812D10121B1
:10322000022017F0B9FE1EF07DFA80680069846004
:103230001EF078FA80680069C5601EF073FA806835
:1032400000694671BDE8F08188790628FAD112F04C
:1032500021F91EF061FA412811D01EF05DFA5A28BA
:103260000DD01EF059FA572809D0EBE788790628C7
:10327000E8D112F00FF91EF04FFA0328E2D1BDE8B1
:10328000F0410121022017F087BE00007C5600208B
:1032900067C402086BC402085457002010B504002C
:1032A0000FD049B1487884F8C800087884F8C9007C
:1032B000B4F8C80030B106E0012024F8C80F0A2095
:1032C000608010BD0220A4F8C800C87884F8CA0045
:1032D00088780D4984F8CB000020088094F8CA0053
:1032E000C83426F075FC34F8C809012801D11DF056
:1032F00029FFB4F8CA3004F1CC00BDE8104003A2A5
:103300000421FDF7F9B800003A5700202533640086
:1033100000280DD049B14A7880F8C820097880F893
:10332000C910B0F8C81021B104E00121A0F8C810FC
:1033300070470221A0F8C81001490020088070479A
:103340003A57002010B500281BD00E484A2100F83B
:10335000451F03214170052181701D21C17000218D
:10336000017102214171082100F8421C05484530D5
:103370000EF008F922F034FDBDE81040162022F0CE
:103380005BBD10BD7C56002010B5002824D013482A
:103390004A2200F8452F10224270052282704422F2
:1033A000C2700022027102224271042282710A0A52
:1033B000C27101720A0E4272090C81720D2100F86D
:1033C000421C064845300EF0DDF822F009FDBDE84C
:1033D00010400B2022F030BD10BD00007C560020B4
:1033E00010B5002824D013484A2200F8452F102297
:1033F0004270052282703422C270002202710222C1
:103400004271042282710A0AC27101720A0E42726A
:10341000090C81720D2100F8421C064845300EF05F
:10342000B1F822F0DDFCBDE810400B2022F004BD15
:1034300010BD00007C56002010B500281AD00E48A0
:103440004A2200F8452F06224270052282701D2272
:10345000C2700A0A02714171082100F8421C064834
:1034600045300EF08FF822F0BBFCBDE8104017206D
:1034700022F0E2BC10BD00007C56002010B50028F0
:103480001AD00E484A2200F8452F06224270052223
:1034900082701E22C2700A0A02714171082100F86E
:1034A000421C064845300EF06DF822F099FCBDE84C
:1034B0001040182022F0C0BC10BD00007C56002037
:1034C00070B522F007F97D4C0B2804F108057DD07A
:1034D00021DC022850D0042879D0082866D00A2898
:1034E00076D1A079032873D111F0D4FF1DF030FA02
:1034F00040790A2878D01DF031FA294600F034F9D5
:103500001DF026FA40790A2873D01DF027FABDE88D
:10351000704003F0D6B80C2812D0122868D01328B7
:1035200056D1A079062853D111F0B4FF1EF0F4F85B
:1035300003284DD1BDE870400121022017F02CBDB9
:10354000A079032844D10A2002F0E4F822F07CF8A4
:103550001DF0FEF940790A280BD01DF0FFF929462D
:1035600000F05CF91DF0F4F9BDE870400A2100F0AC
:1035700011BC1DF0EDF9F2E7A079032828D111F074
:1035800089FF1DF0E5F940790A280CD01DF0E6F915
:103590000022294600F0C2F81DF0DAF9BDE87040BB
:1035A0000A2100F0DBBB1DF0D3F9F1E7A079032875
:1035B0006FD111F06FFF1DF0CBF940790A2810D0C0
:1035C0001DF0CCF9002100F07FF803E034E013E0B7
:1035D0005FE009E01DF0BCF9BDE870400A2100F091
:1035E00031BC1DF0B5F9EDE71DF0B2F985E700E05B
:1035F00050E01DF0ADF98AE7A079032849D111F018
:1036000049FF1DF0A5F940790A280FD01DF0A6F951
:10361000294600F003F91DF09BF940790A2808D0EB
:103620001DF09CF9BDE8704003F044B81DF090F91E
:10363000EEE71DF08DF9F5E7A079062829D111F004
:1036400029FF1EF069F853280DD006DC03280AD0A4
:10365000422808D044281CD105E0542803D055281E
:1036600001D0562815D10121022017F095FC1EF03B
:1036700059F880681249006981601EF053F880682B
:1036800010490069C1601EF04DF88068042100698E
:10369000417170BDA0790628FBD111F0FBFE1EF030
:1036A0003BF841283FF446AF1EF036F85A28F9D0CF
:1036B0001EF032F85728F5D070BD00007C5600206F
:1036C00067C402086BC4020810B5002817D0002296
:1036D0002E24A9B10B78303380F8223080F82340B3
:1036E0004B78303380F8243080F825208B783033C5
:1036F00000F81D3F4470C97830318170C27010BD30
:10370000312380F8223080F82340302180F82410C3
:1037100080F8252000F81D3F4470EEE72DE9F043C6
:1037200000281DD04C2400F85A4F4FF0480C4FF0A1
:103730002D08442380F801C0432180F80280312500
:10374000C3705F2601714F274FF0200945714AB1C0
:1037500037228271C67101724772837280F80B90B2
:10376000BDE8F0833822F4E7002805D029B14A7873
:1037700000F86C2F0978417070473221A0F86C1066
:103780007047000010B500281FD001EB81004FF6F4
:10379000FF7101EA40010D4800F8452F06224270F2
:1037A000052282708622C2700A0A027141710821C4
:1037B00000F8421C054845300DF0E4FE22F010FBF5
:1037C000BDE810400B2022F037BB10BD7C56002016
:1037D00010B500281FD001EB81004FF6FF7101EA00
:1037E00040010D4800F8452F0622427005228270E4
:1037F0008522C2700A0A02714171082100F8421C38
:10380000054845300DF0BEFE22F0EAFABDE8104052
:103810000B2022F011BB10BD7C5600202DE9F04F8B
:103820008BB00D4604007CD0697861F307002978DD
:1038300061F30F20E97880B261F30706A97861F39C
:103840000F26697961F30707297961F30F2727F0BC
:1038500051FCDFF8D483414627F002FB6067B0B229
:1038600027F048FC414627F0FBFAA06738B227F062
:1038700029FCEE4927F0F4FA2067E87A60F307069E
:10388000A87A60F30F26B0B226F0D0FF0022E84BF2
:1038900026F0C4FD26F0D4FCC4F88000E87B60F379
:1038A0000707A87B60F30F2738B227F00BFCC4F89A
:1038B0008C0025F07BFEA8B1206F27F031FADD4A9D
:1038C000DD4B27F003F80022DC4B26F0EBFC26F062
:1038D000B7FCDB492067884203DC4FF08441884213
:1038E00000DA216725F00CFD002500B96567207816
:1038F00004F12F01420704F1350B04F13C0A04F1F5
:1039000053090A9132D520F004002070A06F606145
:10391000206F27F005FACDE90001CAA206210A9816
:1039200000E020E0FCF7E8FD606F27F0F9F9CDE951
:103930000001C6A207215846FCF7DEFDA06F27F064
:10394000EFF9CDE90001C1A207215046FCF7D4FDF3
:10395000D4F8800027F0E4F9CDE90001BBA20721EB
:103960004846FCF7C9FD0BB0BDE8F08FA16FA06819
:1039700027F002FAA060616FE06827F0FDF9E060CF
:10398000216F206927F0F8F9DFF8C88220614646E8
:10399000D4F88010D8F8000027F0EEF93060204607
:1039A00000F084FFA06F6061617904F1BC000990B0
:1039B000183805900C3803901830A74E07904A2904
:1039C0007DD1E079401CC0B2E071032805D21CF023
:1039D000CBFFB0F8C8000228F2D1E07927F08AFBCB
:1039E00007463946206927F03BFA06903946E068D9
:1039F00027F036FA04903946A06827F031FA029091
:103A00003946D8F8000027F02BFA089025F086FCFC
:103A100098B325F06FFD022830D3307860B135704F
:103A2000039811F07FFD059811F07CFD079811F0C7
:103A300079FD099811F076FDDDE9021011F0A5FD80
:103A4000DDE9041011F0A1FDDDE9061011F09DFD86
:103A5000DDE9081011F099FD079811F079FD069045
:103A6000039811F075FD0290059811F071FD049016
:103A7000099811F06DFD089002E0FFE70120307019
:103A8000B4F8C80001280AD01DF064F9074625F0F3
:103A900099FD401D874202D3704805702DE02046F5
:103AA00002F00EF948BB069827F03AF9CDE900017B
:103AB00064A206210A98FCF71FFD049800E022E0AA
:103AC00027F02EF9CDE9000160A207215846FCF746
:103AD00013FD029827F024F9CDE900015BA207212C
:103AE0005046FCF709FD089827F01AF9CDE90001C6
:103AF00056A207214846FCF7FFFCE571A560E5608A
:103B00002561C8F8005060790A287FF42CAFE0796D
:103B1000401CC0B2E0710328FFF425AF27F0EAFA99
:103B200007463946206927F09BF906903946E06838
:103B300027F096F904903946A06827F091F93946A4
:103B400002904746D8F8000027F08AF9804625F011
:103B5000E5FB98B325F0CEFC022830D3307860B175
:103B60003570039811F0DEFC059811F0DBFC079826
:103B700011F0D8FC099811F0D5FCDDE9021011F024
:103B800004FDDDE9041011F000FDDDE9061011F07F
:103B9000FCFC4146099811F0F8FC079811F0D8FC9C
:103BA0000690039811F0D4FC0290059811F0D0FC17
:103BB0000490099811F0CCFC804602E0FFE7012058
:103BC0003070204602F07CF838BB069827F0A8F841
:103BD000CDE900011BA206210A98FCF78DFC049890
:103BE00027F09EF8CDE9000118A207215846FCF7FE
:103BF00083FC029827F094F8CDE9000113A2072175
:103C00005046FCF779FC404627F08AF8CDE90001E0
:103C10000EA207214846FCF76FFCE571A560E56040
:103C200025613D609FE60000000020410000C84281
:103C300000002440CDCCCCCCCCCCFC3F000040409C
:103C400000000C4325352E316600000025362E314C
:103C500066000000885800204C580020545700206F
:103C600010B5002819D00D4800F8452F06224270E3
:103C7000052282701422C2700A0A02714171082161
:103C800000F8421C054845300DF07CFC22F0A8F8F5
:103C9000BDE81040122022F0CFB810BD7C560020A5
:103CA00010B500281AD00E4800F8451F06214170B3
:103CB000052181701521C1700021017179214171A7
:103CC000082100F8421C064845300DF05BFC22F04C
:103CD00087F8BDE81040132022F0AEB810BD0000F8
:103CE0007C56002010B5002819D00D4800F8452F4B
:103CF00006224270052282701022C2700A0A0271E6
:103D00004171082100F8421C054845300DF03AFC8D
:103D100022F066F8BDE81040122022F08DB810BDE8
:103D20007C56002070B50C4C0825294604F8450F38
:103D3000032060700520A0700020E070207106480C
:103D4000657104F8425D45300DF01CFC2570BDE83E
:103D500070400C2022F070B87C5600200C4810B542
:103D600000F8451F03214170052181700021C170B9
:103D700001710821417100F8421C054845300DF0E1
:103D800001FC22F02DF8BDE81040082022F054B8C4
:103D90007C56002070B5002833D00023032405256D
:103DA000184808224A2902D00A2910D01CE04A21CA
:103DB00080F8451080F8464080F84750C02180F8D0
:103DC000481080F84930102180F84A100CE00A2190
:103DD00080F8451080F8464080F8475080F8483019
:103DE00080F8493080F84A20C270064811464530B4
:103DF0000DF0C8FB21F0F4FFBDE87040022022F076
:103E00001BB870BD7C56002010B5002816D00C4899
:103E100000F8451F03214170052181700021C17008
:103E200001710821417100F8421C054845300DF030
:103E3000A9FBBDE81040042021F0FEBF10BD00002A
:103E40007C5600200D4810B500F8451F0321417035
:103E5000052181701021C170002101710121417182
:103E6000082100F8421C054845300DF08BFB21F07D
:103E7000B7FFBDE810400A2021F0DEBF7C560020CD
:103E800010B5002819D00D4800F8452F06224270C1
:103E9000052282700722C2700A0A0271417108214C
:103EA00000F8421C054845300DF06CFB21F098FFEE
:103EB000BDE81040122021F0BFBF10BD7C5600208D
:103EC00010B500281FD001EB81004FF6FF7101EA09
:103ED00040010D4800F8452F0622427005228270ED
:103EE0008822C2700A0A02714171082100F8421C3E
:103EF000054845300DF046FB21F072FFBDE810404B
:103F00000B2021F099BF10BD7C56002010B5002871
:103F10001FD001EB81004FF6FF7101EA40010D480F
:103F200000F8452F06224270052282708722C27057
:103F30000A0A02714171082100F8421C0548453007
:103F40000DF020FB21F04CFFBDE810400B2021F0CC
:103F500073BF10BD7C56002070B521F0BBFB744CC4
:103F60000B2804F108056FD01FDC022850D004286C
:103F700073D008286AD1A079042867D111F08AFA91
:103F80001CF0E6FC40795F2861D01CF0E7FC294674
:103F900025F030FE1CF0DCFC40795F285AD01CF084
:103FA000DDFCBDE8704002F08CBB0C2815D0122857
:103FB00073D013284AD1E0799C2847D1207A512820
:103FC00044D111F067FA1DF0A7FB03283ED1BDE8EC
:103FD00070400121022016F0DFBFA079042835D1FE
:103FE0005F2001F097FB21F02FFB1CF0B1FC407922
:103FF0005F280AD01CF0B2FC294600F013F91CF02F
:10400000A7FCBDE8704000F0FFBA1CF0A1FCF3E78C
:10401000A079042877D1E0790C2874D111F03AFA0C
:104020001CF096FC40795F280BD01CF097FC0C220A
:10403000294625F0F6FD1CF08BFCBDE8704000F031
:10404000C1BA1CF085FCF2E72BE006E05BE01CF057
:104050007FFC9CE71CF07CFCA3E7A079042852D1EC
:10406000E0791C284FD111F015FA1CF071FC407951
:104070005F280FD01CF072FC294600F0D3F81CF02A
:1040800067FC40795F2809D01CF068FCBDE87040EF
:1040900002F010BB1CF05CFCEEE735E01CF058FCB5
:1040A000F4E7A07910282ED1E0799C282BD111F0CB
:1040B000F1F91DF031FB4F280FD008DC03280CD09C
:1040C00042280AD0442808D04E281CD105E05028A8
:1040D00003D0512801D0522815D10121022016F019
:1040E0005BFF1DF01FFB80681249006981601DF0B5
:1040F00019FB806810490069C1601DF013FB8068DE
:1041000004210069417170BDE0799C28FBD111F058
:10411000C1F91DF001FB41283FF459AF1DF0FCFA35
:104120005A28F9D01DF0F8FA4D28F5D070BD0000DE
:104130007C56002067C402086BC402081CB50C46FC
:10414000002832D068460CF09DFFDDE9000111F037
:104150007FFA164A5F2102F8451F102151709C21F9
:1041600091706621D17000211171042151710821D3
:104170009171010AD1711072010E5172000C90728E
:10418000200AD0721473200E5073200C90730748CD
:10419000112102F8421C45300DF0F4F921F020FE07
:1041A000BDE81C400B2021F047BE1CBD7C56002002
:1041B0001CB50C46002832D068460CF063FFDDE9E0
:1041C000000111F045FA164A5F2102F8451F10213F
:1041D00051709C2191706A21D170002111710421CC
:1041E000517108219171010AD1711072010E517241
:1041F000000C9072200AD0721473200E5073200CA1
:1042000090730748112102F8421C45300DF0BAF9AD
:1042100021F0E6FDBDE81C400B2021F00DBE1CBDC9
:104220007C5600202DE9FE4F04007DD0487884F8AC
:104230007800087884F87900C87884F87A0088785B
:1042400084F87B00487904F8700F08796070C879A9
:10425000A0708879E070487A2071087A6071C87A15
:10426000A071887AE071487B2073087B6073C87BFB
:10427000A073887BE073487C2074087C6074C87CE1
:10428000A074887CE074487D2075087D6075C87DC9
:10429000A075887DE075487E2076087E6076C87EB1
:1042A000A076887EE076703C25F080F9A8B1206F7A
:1042B00026F036FD6B4A6C4B26F008FB00226B4B58
:1042C00025F0F0FF25F0BCFF69492067884203DC38
:1042D0004FF08441884200DA2167207804F12F07EB
:1042E000410704F1350604F13C0526D520F0040011
:1042F0002070A06F6061206F26F012FDCDE90001F3
:104300005CA206213846FCF7F7F8606F26F008FD3E
:10431000CDE9000159A207213046FCF7EDF8A06F66
:1043200026F0FEFC55A200E005E0CDE900010721E2
:104330002846FCF7E1F8BDE8FE8FA16FA06826F0E3
:104340001BFDA060616FE06826F016FDE060216F44
:10435000206926F011FD2061204600F0A7FAA06F29
:104360006061E079401CC0B2E0710328E3D326F01D
:10437000C1FE80464146206926F072FD029041460A
:10438000E06826F06DFD83464146A06826F068FD92
:10439000824624F0C3FFDFF8EC904FF0000890B3A2
:1043A00025F0A8F802282FD399F8001004F1A400F2
:1043B00001904A460C3804F1B009009051B182F8DE
:1043C0000080009811F0AEF8019811F0ABF8484663
:1043D00011F0A8F85146009811F0D7F85946019805
:1043E00011F0D3F84846029911F0CFF8484611F081
:1043F000AFF80290009811F0ABF88246019811F0E6
:10440000A7F8834603E0FFE7012189F80010204662
:1044100001F056FCE8B9029826F082FCCDE90001D3
:1044200014A206213846FCF767F8584626F078FCB7
:10443000CDE9000111A207213046FCF75DF8504696
:1044400026F06EFCCDE900010CA207212846FCF7FE
:1044500053F884F80780C4F80880C4F80C80C4F8C6
:10446000108068E7CDCCCCCCCCCCFC3F00004040E9
:1044700000000C4325352E326600000025362E3212
:10448000660000004C58002010B500281BD00E48D4
:104490005F2100F8451F062141709C218170532146
:1044A000C1700021017101214171082100F8421CF5
:1044B000054845300DF066F821F092FCBDE810404B
:1044C000122021F0B9BC10BD7C56002010B5002888
:1044D0001BD00E485F2100F8451F062141709C212A
:1044E00081705121C17000210171012141710821A8
:1044F00000F8421C054845300DF044F821F070FCEE
:10450000BDE81040132021F097BC10BD7C56002060
:104510001CB50C46002832D068460CF0B3FDDDE92E
:10452000000111F095F8164A5F2102F8451F10218D
:1045300051709C2191706E21D17000211171042164
:10454000517108219171010AD1711072010E5172DD
:10455000000C9072200AD0721473200E5073200C3D
:1045600090730748112102F8421C45300DF00AF8FB
:1045700021F036FCBDE81C400B2021F05DBC1CBDC9
:104580007C56002070B50E4C5F20082504F8450FBE
:10459000042060707520A0706920E07000202071F8
:1045A00006206071064804F8425C294645300CF04C
:1045B000E9FF04F8425CBDE870400C2021F03CBCEF
:1045C0007C56002010B500281BD00E485F2100F853
:1045D000451F04214170752181704421C170002163
:1045E000017102214171082100F8421C0548453043
:1045F0000CF0C8FF21F0F4FBBDE81040082021F0CA
:104600001BBC10BD7C56002010B500281BD00E48E6
:104610005F2100F8451F0421417075218170302110
:10462000C1700021017106214171082100F8421C6E
:10463000054845300CF0A6FF21F0D2FBBDE8104044
:10464000022021F0F9BB10BD7C56002010B50028D7
:1046500019D00D485F2100F8451F042141707521D4
:1046600081706921C170002101710E214171082101
:1046700000F8421C044845300CF084FFBDE81040AF
:10468000042021F0D9BB10BD7C5600201CB50C467F
:10469000002832D068460CF0F5FCDDE9000110F08E
:1046A000D7FF164A5F2102F8451F102151709C2147
:1046B00091707221D1700021117104215171082172
:1046C0009171010AD1711072010E5172000C907239
:1046D000200AD0721473200E5073200C9073074878
:1046E000112102F8421C45300CF04CFF21F078FB00
:1046F000BDE81C400B2021F09FBB1CBD7C56002058
:104700001CB50C46002832D068460CF0BBFCDDE935
:10471000000110F09DFF164A5F2102F8451F10218D
:1047200051709C2191706021D17000211171042180
:10473000517108219171010AD1711072010E5172EB
:10474000000C9072200AD0721473200E5073200C4B
:1047500090730748112102F8421C45300CF012FFFB
:1047600021F03EFBBDE81C40122021F065BB1CBDC2
:104770007C5600201CB50C46002832D068460CF050
:1047800081FCDDE9000110F063FF164A5F2102F8A9
:10479000451F102151709C2191707621D17000210C
:1047A00011710421517108219171010AD1711072A6
:1047B000010E5172000C9072200AD0721473200EF8
:1047C0005073200C90730748112102F8421C4530A9
:1047D0000CF0D8FE21F004FBBDE81C400B2021F0BA
:1047E0002BBB1CBD7C5600201CB500282BD0684676
:1047F0000CF048FCDDE9000110F02AFF124A5F21AD
:1048000002F8451F102151709C2191706421D170D4
:10481000002111710221517104219171010AD1719C
:104820001072010E5172000C907207480D2102F8AF
:10483000421C45300CF0A6FE21F0D2FABDE81C4027
:10484000122021F0F9BA1CBD7C56002030B5034679
:104850004FF6FF704AF201040CE013F8012B5040B0
:104860000022C50702D084EA500000E04008521C34
:10487000082AF6D3491E89B2EFD230BD30B50546BD
:104880000C46881E81B22846FFF7E0FF2919C3B203
:1048900011F8022C9A4206D111F8011CB1EB102F2D
:1048A00001D1012030BD002030BD00002DE9F047CE
:1048B000002504462F461CF02FFFDFF8AC9342285A
:1048C0007DD01CF029FF432879D01CF025FF4A2811
:1048D00075D01CF021FF4B2871D01CF01DFF4C2817
:1048E0006DD01CF019FF5B2869D01CF015FF5C2807
:1048F00065D01CF011FF5D2861D01CF00DFF62280F
:104900005DD01CF009FF5E2859D01CF005FF482837
:1049100055D01CF001FF492851D01CF0FDFE532852
:104920004DD01CF0F9FE582849D01CF0F5FE542853
:1049300045D01CF0F1FE552841D01CF0EDFE592861
:104940003DD01CF0E9FE562839D01CF0E5FE4D287C
:1049500035D01CF0E1FE4E2831D01CF0DDFE4F2892
:104960002DD01CF0D9FE502829D01CF0D5FE51289E
:1049700025D01CF0D1FE522821D01CF0CDFE5F289E
:104980001DD01CF0C9FE602819D01CF0C5FE61289E
:1049900015D01CF0C1FE452811D020F095FEB34E75
:1049A00011282CD200E00AE0DFE800F0192249507B
:1049B000575E686F767D848B9299A0A7AE0010F049
:1049C000B9FB4946D9F8040001F07AF9002804D06F
:1049D0004868017821F008010170BDE8F08724F0F3
:1049E00005FBA249183151F8205024F05DFB05E089
:1049F00024F040FB56F8205024F09CFB0746012F82
:104A0000EBD120F061FEDFF860A26169AAF1040A2F
:104A1000002690B3A06F26F0BDFC26F081F900229D
:104A200007468846134626F04FF874D82671A078BA
:104A3000002871D06078401C6070A670BBE024F044
:104A400013FB56F8205024F06FFBD7E724F0DBFA75
:104A500056F8205024F035FBD0E724F0CDFA56F874
:104A6000205024F027FBC9E724F0E6FA7F490C31F7
:104A700051F8205024F040FBC0E74EE024F0CAFA81
:104A800056F8205024F026FBB8E724F0BBFA56F87D
:104A9000205024F015FBB1E724F09AFA56F8205084
:104AA00024F0F4FAAAE724F09BFA56F8205024F0F8
:104AB000F5FAA3E724F086FA56F8205024F0E0FA3D
:104AC0009CE724F087FA56F8205024F0E1FA95E7A5
:104AD00024F09AFA56F8205024F0F6FA8EE724F0E3
:104AE0009FFA56F8205024F0FBFA87E724F0B6FA34
:104AF00056F8205024F012FB80E724F0A3FA56F871
:104B0000205024F0FFFA79E724F0A2FA56F820505A
:104B100024F0FEFA72E745E039E0606F26F03AFCD7
:104B200026F0FEF821F0004107468846504A514BD6
:104B300025F090FE02D86078401C60709AF8010061
:104B4000401CC0B28AF8010024F00AFE24F022FAC8
:104B500026F0D0FA294626F045FA06D038464146D6
:104B6000454A464B25F0B0FF05D28AF80160002087
:104B700024F0F6FD66704249284626F003FB6FF0EC
:104B8000010126F0E1FC26F07DFAC0B223E0E078D6
:104B9000401CC0B2E0700328FFF44FAF6670E670AF
:104BA00026714AE7E670A07801282BD06078401C77
:104BB00060700120A070284626F0B2F8024628F066
:104BC00000450B463846294625F07EFF02D8667020
:104BD000E6702671032061788142FFF4FEAE6670B4
:104BE00024F0FEFBD8B32078000738D4D9F80400AD
:104BF00061794D46407988420ED120F065FD1EF066
:104C0000BFFE28E02079401CC0B220710328D0D319
:104C10006670E6702671CCE7134E083606F1080779
:104C2000706842798A420AD168603078287020F032
:104C30004BFD1EF0A5FE7868686038780AE0786859
:104C400068603878287020F03FFD1EF099FE70688B
:104C50006860307828700121084616F09DF92078A8
:104C600040F008002070B8E6505800209CD8020898
:104C7000FA7E6ABC7493583F7B14AE47E17A743F66
:104C80000000404070B520F025FDA54C801E04F1C9
:104C9000080512287ED2DFE800F01AB86CAE8DAE9F
:104CA00036AEAEA809AE4CAEAEAEFEFDA07904287D
:104CB00070D1602000F02EFD20F0C6FC9948002144
:104CC00001701BF045FEBDE8704000F099BBA07973
:104CD00004285FD1E0790C285CD110F0DBFB1BF0DD
:104CE00037FE407960280BD01BF038FE0C22294695
:104CF00024F097FF1BF02CFEBDE8704000F05EBB77
:104D00001BF026FEF2E7A079042874D1E07902288E
:104D100071D110F0BFFB1BF01BFE4079602805D05D
:104D20001BF01CFE294624F065FFF6E01BF010FE88
:104D3000F8E7A07903285ED110F0ACFB1BF008FE69
:104D4000407960280FD01BF009FE294600F0F4F8E6
:104D50001BF0FEFD4079602808D01BF0FFFDBDE888
:104D6000704001F0AEBC1BF0F3FDEEE71BF0F0FD70
:104D7000F5E7A07904283ED1E07908283BD110F06E
:104D800089FB1BF0E5FD4079602807D01BF0E6FDAC
:104D9000294600E02FE000F0D7F81DE01BF0D8FD19
:104DA000F6E71BF0D5FD01E01BF0D8FDBDE8704033
:104DB00001F080BCA07904281DD1E07904281AD123
:104DC00010F068FB1BF0C4FD407960280AD01BF08E
:104DD000C5FD294600F000FA1BF0BAFD40796028B5
:104DE000E2D1DEE71BF0B4FDF3E7A079102802D191
:104DF000E0799C285BD070BD1BF0AAFD01E01BF0A0
:104E0000ADFDBDE8704000F079BAA0790425042812
:104E10000AD1607A01282BD0062848D0072846D02E
:104E2000082844D0092842D010F034FB1CF074FC50
:104E30005E2801D06228DED10121022016F0ACF8F4
:104E40001CF070FC80683849006900690069816065
:104E50001CF068FC80683549006900690069C16020
:104E60001CF060FC8068006900690069457170BDD4
:104E700010F010FB1CF050FC5E2801D06228F6D127
:104E80000121022016F088F81CF04CFC80680069B3
:104E9000006901E026E012E00069254981601CF00C
:104EA00041FC80682349006900690069D7E710F078
:104EB000F1FA1BF04DFD40796028A0D19CE7E07924
:104EC0009C28D4D110F0E6FA1CF026FC412803D02F
:104ED0001CF022FC3428CAD1BDE870400121022018
:104EE00016F05AB8E0799C28C1D1207A5128BED159
:104EF00010F0D0FA1CF010FC032803D1012102208D
:104F000016F04AF81BF024FD4079602805D01BF00C
:104F100025FDBDE8704000F013BA1BF019FDF8E75D
:104F20007C5600202C5500207BC4020876C4020861
:104F300067C402086BC40208002804D04A7800F84D
:104F40006C2F0978417070472DE9F04F85B004004F
:104F50006DD0487884F87800087884F87900C878AB
:104F600084F87A00887884F87B00487984F87000A7
:104F7000087984F87100C87984F87200887984F817
:104F800073000026666724F011FBA8B1206F25F09E
:104F9000C7FE844A844B25F099FC0022834B25F000
:104FA00081F925F04DF982492067884203DC4FF0F2
:104FB0008441884200DA21672078DFF8F8A104F103
:104FC0003C01420704F12F0804F13507CAF1000B38
:104FD00004913FD520F004002070A06F6061206F25
:104FE00025F09EFECDE9000173A206214046FBF7A5
:104FF00083FA606F25F094FECDE900016EA20721CF
:105000003846FBF779FAA06F10F1FF4F01D25045F7
:1050100004DB00EB0B01B1F1D47F0BD225F080FE55
:10502000CDE9000166A207210498FBF765FA05B0F7
:10503000BDE8F08F6449421864498A42F7D226F0ED
:1050400021F80346049805B061A2BDE8F04F07219E
:10505000FBF752BAA16FA06825F08EFEA060616FC9
:10506000E06825F089FEE060216F206925F084FE6C
:1050700020612046FFF71AFCA06F6061E079401CB8
:10508000C0B2E0710328D2D326F034F80546294691
:10509000206925F0E5FE01902946E06825F0E0FE54
:1050A00002902946A06825F0DBFE054624F03CF975
:1050B000DFF8209188B324F023FA02282ED399F840
:1050C000001004F1A40003904A460C3804F1B00922
:1050D000009049B11670009810F024FA039810F06F
:1050E00021FA484610F01EFA2946009810F04DFAB1
:1050F000DDE9021010F049FA4846019910F045FA2E
:10510000484610F025FA0190009810F021FA054663
:10511000039810F01DFA029003E0FFE7012189F8DF
:105120000010204600F0CCFD38BB019825F0F8FDBA
:10513000CDE9000120A206214046FBF7DDF90298E7
:1051400025F0EEFDCDE900011BA207213846FBF753
:10515000D3F915F1FF4F01D2554504DB05EB0B00E8
:10516000B0F1D47F0AD2284625F0DAFDCDE900015E
:1051700013A207210498FBF7BFF90DE01248291884
:105180001248814208D2284625F07CFF034610A22F
:1051900007210498FBF7B0F9E671A660E660266186
:1051A00045E70000CDCCCCCCCCCCFC3F000040404F
:1051B00000000C430000204125352E32660000001F
:1051C00025352E3166000000000038BD00A04403E4
:1051D000253564004C5800201CB5040019D04878CF
:1051E00084F87C00087884F87D00C87884F87E0014
:1051F000887884F87F000749E06F25F0C3FF25F029
:105200008FFDCDE9000104A2082104F14B00FBF75A
:1052100073F91CBD00007A4425352E32660000006B
:1052200010B500281BD00E48602100F8451F06214C
:1052300041709C2181705121C170002101710121B7
:105240004171082100F8421C054845300CF09AF9DC
:1052500020F0C6FDBDE81040132020F0EDBD10BDCC
:105260007C5600207CB50C46050044D068460BF007
:1052700009FFDDE9000110F0EBF91F4A602310215E
:1052800082F8453082F84610B5F86C109C25B1F5CF
:10529000807F2BD0A1F57063FF3B04D182F847508B
:1052A000682182F84810002102F8491F042151703A
:1052B00008219170010AD1701071010E5171000C1A
:1052C0009071200AD0711472200E5072200C9072CE
:1052D0000948112102F8461C45300CF053F920F022
:1052E0007FFDBDE87C400B2020F0A6BD82F8475032
:1052F00082F84830D7E77CBD7C56002010B50028E6
:105300001BD00E48602100F8451F04214170752113
:1053100081706621C1700021017101214171082154
:1053200000F8421C054845300CF02CF920F058FDDF
:10533000BDE81040032020F07FBD10BD7C5600204A
:1053400010B500281BD00E48602100F8451F03212E
:1053500041709C2181704E21C17000210171012199
:105360004171082100F8421C054845300CF00AF94B
:1053700020F036FDBDE810400E2020F05DBD10BDD0
:105380007C5600200C4810B5602100F8451F042110
:105390004170752282706922C270002202714171CF
:1053A000082100F8421C044845300CF0EBF8BDE839
:1053B00010400C2020F040BD7C56002010B5002885
:1053C0001BD00E48602100F8451F04214170752153
:1053D00081704521C17000210171012141710821B5
:1053E00000F8421C054845300CF0CCF820F0F8FCE1
:1053F000BDE81040082020F01FBD10BD7C560020E5
:1054000010B500281BD00E48602100F8451F04216C
:105410004170752181703021C17000210171062118
:105420004171082100F8421C054845300CF0AAF8EB
:1054300020F0D6FCBDE81040022020F0FDBC10BDDD
:105440007C56002010B5002818D00D486021752228
:1054500000F8451F0421417082706922C270002249
:1054600002714171082100F8421C054845300CF0DA
:1054700089F8BDE81040042020F0DEBC10BD00001B
:105480007C56002010B5002819D00D48602100F886
:10549000451F04214170752181707821C170002160
:1054A000017102214171082100F8421C0448453075
:1054B0000CF068F8BDE81040062020F0BDBC10BD1F
:1054C0007C56002010B500281AD00E48602200F843
:1054D000452F062242709C2282704E22C2700A0A18
:1054E00002714171082100F8421C064845300CF059
:1054F00049F820F075FCBDE81040122020F09CBC5B
:1055000010BD00007C5600207CB50C46050043D041
:1055100068460BF0B7FDDDE9000110F099F81F4A6D
:1055200060219C2382F84510102182F84610B5F8BE
:105530006C10B1F5807F2BD0A1F57065FF3D04D1D3
:1055400082F847306C2182F84810002102F8491F88
:105550000421517008219170010AD1701071010E5F
:105560005171000C9071200AD0711472200E50728B
:10557000200C90720948112102F8461C45300CF0AD
:1055800001F820F02DFCBDE87C400B2020F054BC3D
:1055900082F847306421D6E77CBD00007C560020AD
:1055A00010B5002827D0144A40F8701F602102F877
:1055B000451F102151709C2191705721D1700021FD
:1055C000117102215171042191714178D1710178D9
:1055D0001172C17851728078907207480D2102F8DB
:1055E000421C45300BF0CEFF20F0FAFBBDE8104026
:1055F000122020F021BC10BD7C5600204FF46171B8
:105600000148FBF7F2B80000B278002010B50E4C4C
:105610006421207820F00700207004F12800FBF7B7
:1056200006F90020C4F80500C4F80900A4F80D002C
:10563000E07320616061A061A4F80300E061206272
:105640006062A4F8010010BD5857002002480021F4
:105650000161416181617047585700206421014810
:10566000FBF7E5B88057002002480021C1610162C4
:10567000416270475857002001481CF035B80000BF
:10568000B85500200D48A0F19802C1689161002929
:1056900005D00878430703D540F001000870704733
:1056A00090690069906103785B0704D5017841F047
:1056B0000101017070478142F2D17047B855002056
:1056C000014806F00EB80000085B0020014806F013
:1056D00008B80000805A0020014806F002B8000017
:1056E000C45A002030B590F8404004F01C05012455
:1056F000AC40C56B6C60046863604368102B036842
:1057000003D099600068C26030BD9A600068C160D3
:1057100030BD00002DE9F04706461125D020FAF7EC
:10572000C1FD04007DD00027C4F8987004F180000A
:10573000C4F89C70C4F8A07047628762C7620763B0
:10574000476387634D2E6DD01EDC1D2E6BD00EDCA3
:10575000092E69D006DC012E43D0032E7ED0052E03
:105760007DD1E1E10A2E0ED00D2EF9D15DE02A2E79
:1057700076D004DC212E17D0222EF1D1CDE0342EAC
:1057800074D04A2EECD121E1A6F14E00142866D245
:10579000DFE800F04965650A65656589FE65656550
:1057A0000A4B276CC3FDE0FF3346FDA2062104F13E
:1057B0002700FAF7A1FE002523F0BCFD00284ED0FB
:1057C00023F0A4FE014604F198000FF0CBFE23F075
:1057D0009DFE014604F1A4000FF0C4FE23F096FEE6
:1057E0001BE03346F0A2062104F12700FAF784FEFD
:1057F000012523F0E3FD0028E1D023F0CBFE014694
:1058000004F198000FF0AEFE23F0C4FE014604F14F
:10581000A4000FF0A7FE23F0BDFE014604F1B00086
:10582000F9E027E128E144E15AE03346E0A207210C
:1058300004F12700FAF760FE022523F0B9FD0028E5
:10584000BDD023F0A1FE014604F198000FF08AFEBE
:1058500023F09AFE014604F1A40002E006E0B4E061
:1058600044E10FF07FFE23F08FFED6E73346D3A24C
:10587000072104F12700FAF73FFE042523F060FD1D
:1058800000289CD023F048FE014604F198000FF058
:1058900069FE23F041FE014604F1A4000FF062FE10
:1058A00023F03AFEB9E73346C6A2072104F12700E8
:1058B000FAF722FE0F2523F069FD00289CD023F083
:1058C00051FE014604F198000FF04CFE23F04AFE11
:1058D000014604F1A4000FF045FE23F043FE9CE7CF
:1058E0003346BBA2072104F12700FAF705FE052580
:1058F00023F046FD002868D023F02EFE014604F177
:1059000098000FF02FFE23F027FE014604F1A400BB
:105910000FF028FE23F020FE7FE73346AFA20821D8
:1059200004F12700FAF7E8FD062523F017FD00280B
:1059300073D023F0FFFD014604F198000FF012FE32
:1059400023F0F8FD014604F1A4000FF00BFE23F054
:10595000F1FD62E73346A4A2072104F12700FAF71C
:10596000CBFD092523F0E0FC78B323F0C9FD014607
:1059700004F198000FF0F6FD23F0C2FD014604F19A
:10598000A4000FF0EFFD23F0BBFD46E701E01DE0B2
:10599000E8E0334697A2072104F12700FAF7ACFDAF
:1059A0000A2523F0B3FC80B123F09CFD014604F1ED
:1059B00098000FF0D7FD23F095FD014604F1A400F7
:1059C0000FF0D0FD23F08EFD27E726E033468CA2B2
:1059D000072104F12700FAF78FFD0B2523F09EFC29
:1059E000D8B123F087FD014604F198000FF0BAFD0D
:1059F00023F080FD014604F1A4000FF0B3FD23F075
:105A000079FD014604F1B0000FF0ACFD23F072FD0A
:105A1000014604F1BC000FF0A5FD84F86670207803
:105A20004FF0300820F00B0040F004002070667149
:105A3000A76767674FF02E092767612E73D031463D
:105A4000204601F05DFE204601F09AFE202084F8F9
:105A50002F0084F8308084F8319084F832806B48CD
:105A600084F8338084F834704168002979D010308C
:105A700044600570BDE8F087334665A2082104F153
:105A80002700FAF739FD0C2523F062FC0028C4D06A
:105A900023F04AFD014604F198000FF063FD23F066
:105AA00043FD014604F1A4000FF05CFD23F03CFD32
:105AB000B3E6334659A2082104F12700FAF71CFD8A
:105AC0000D2523F051FC0028A7D023F039FD014615
:105AD00004F198000FF046FD23F032FD014604F179
