:020000040800F2
:10000000389E00203D0200089DF400089DCE0008A7
:100010002DE40008AD2F00087D220108000000003B
:10002000000000000000000000000000E10F0108D7
:10003000C185000800000000210D010869150108B4
:10004000570200085702000857020008570200082C
:10005000570200085702000857020008570200081C
:10006000570200085702000857020008570200080C
:1000700057020008B556000857020008C15600088C
:10008000CD56000857020008570200085702000822
:1000900057020008570200085702000857020008DC
:1000A00057020008570200085702000857020008CC
:1000B000ED15010857020008570200085702000812
:1000C00057020008570200085702000857020008AC
:1000D000570200087121010889210108A1210108A6
:1000E000570200085702000857020008570200088C
:1000F00057020008000000005702000857020008DD
:10010000570200085702000857020008570200086B
:1001100057020008570200085702000800000000BC
:100120005702000800F002F800F078F80AA090E802
:10013000000C82448344AAF10107DA4501D100F0A2
:100140006DF8AFF2090EBAE80F0013F0010F18BFF7
:10015000FB1A43F00103184744CB020064CB0200B2
:1001600010F8013B0A4413F0030408BF10F8014BD8
:100170001D1108BF10F8015B641E05D010F8016B5B
:10018000641E01F8016BF9D1002D15D010F8014B58
:1001900003F00C030C2BA1EB04040ABF10F8013B85
:1001A000A4EB8314A4EB032405F1010314F8016B01
:1001B0005B1E01F8016BF9D5914238BF10F8013B85
:1001C000D1D370470023002400250026103A28BF11
:1001D00078C1FBD8520728BF30C148BF0B607047B9
:1001E00066292AF0F382642900F0C8810020704754
:1001F0001FB59DE8030000F061FB00F0B7FE0400AE
:100200000020002129F0AAF9401C60600020002194
:1002100029F08EF9E0601FBD10B510BD00F0F0FFB1
:100220001146FFF7E5FF23F019FB01F093FA03B441
:10023000FFF7F2FF03BC01F003FB00000948804711
:1002400009480047FEE7FEE7FEE7FEE7FEE7FEE7B8
:10025000FEE7FEE7FEE7FEE704480549054A064BD0
:1002600070470000E915010825010008387E0020CC
:10027000389E0020388E0020388E002070B5A0FBFC
:100280000140B4F1805170F1000024BF002070BD26
:10029000204600F007F805001CBF214600F0A5FA33
:1002A000284670BD70B5064600F0ECFA056806F108
:1002B0000B0020F00704B4429CBF002070BD2B4609
:1002C0006A68BAB11068A04210D304F108018842EC
:1002D0003CBF5068586007D35168101941601168DD
:1002E000091B016058601460101D70BD13465268F0
:1002F000002AE7D12146284600F0CCFA0028DED1BA
:1003000070BD70B50446051F00F0BCFA0068002CF3
:1003100014BF446870BD002C18BFAC423CBF2046DF
:100320006468F8D301680A18AA4218BF456003D16F
:100330002A6805461144016028684119A1421CBF82
:100340006C6070BD6168696021680844286070BD98
:1003500070B50D460646041F00F094FAD0F800C0B0
:10036000C5B1E6B105F10B0020F00703AB423CBF7D
:10037000002070BD2068984238BFDCF8042013D3F9
:10038000C11A08292FD3E01840F8041B2360FFF797
:10039000B8FF28E03046FFF7B4FF002070BD2846C4
:1003A000BDE87040FFF77EBF002A18BFA2423CBFE5
:1003B00094465268F8D30119914216D11168084445
:1003C000984212D3C11A08293CBF2060506808D354
:1003D0005168E0184160216812681144C91A01602F
:1003E0002360CCF80400201D70BD181FFFF75AFFD2
:1003F000050007D021680A1F211D00F081FD201D86
:10040000FFF77FFF284670BD53EA020C00F06980B9
:100410002DE9F04B4FF00006002B1FBFB3FA83F518
:1004200003FA05F424FA05F65E4012BF1643B2FA49
:1004300082F502FA05F4C5F120051EBF22FA05FC7B
:1004400044EA0C04203556EA044C4FEA144418BF21
:10045000641C4FF000084FF00009904271EB030C50
:1004600039D3002919BFB1FA81F701FA07F6B0FABA
:1004700080F700FA07F6C7F120071EBF20FA07FC35
:1004800046EA0C062037B6FBF4FCA7EB0507103F45
:1004900007F01F0BCBF120060CFA0BFB2CFA06F62B
:1004A00044BFB3460026202FA4BF5E464FF0000B8A
:1004B0005BEA060C08BF4FF0010B19EB0B09ABFB15
:1004C000027C48EB0608C01B06FB02CC0BFB03CCEE
:1004D00071EB0C01C1E70B46024641464846BDE8B8
:1004E000F08B13B54FF000004FF00001AFF3008028
:1004F000BDE81C40704700000FB41CB50C0007AAF3
:10050000009001D02044401E074B7B446946019077
:10051000069800F082FC002C03D06946002000F011
:100520008FFC1CBC5DF814FB3D09000070B504464F
:1005300085690068C10601D5302600E02026C00785
:1005400007D070BDD4E9012130469047206A401C95
:1005500020626D1EF6D570BD70B5044685690078C1
:10056000C00707D170BDD4E9012120209047206A3F
:10057000401C20626D1EF6D570BD00002DE9F041D3
:100580000646002410687529314616A510D0AFF331
:100590000080002802DA404213A507E031688A078C
:1005A00001D512A502E0490704D511A5012401E0F7
:1005B000AFF3008000210A2206F1240709E0B0FB16
:1005C000F2FCB0FBF2F302FB1C003030785418460A
:1005D000491C0028F3D123462A463046BDE8F041A5
:1005E00000F0ADB9000000002D0000002B0000005D
:1005F000200000002DE9F05F894604464FF0000A14
:10060000DFF824B1FB44C0F820A02046E168884709
:1006100000287DD0252806D0D4E901219047206A02
:10062000401C2062F1E700255F462046E1688847CC
:100630002028064607DB312E05D2B81910F8200C09
:1006400008B10543F1E7A80701D525F00405C4F872
:100650001CA00027C4F818A02A2E09D0304612F09A
:10066000A8F838B304EB8708303EC8F8186019E0E2
:1006700059F8041B204604EB87029161E168884722
:10068000012F064618D1E069002820DA25F0200560
:100690001DE0D8F8180000EB800006EB4000303871
:1006A000C8F818002046E1688847064612F081F82D
:1006B0000028EED1012F0AD02E2E08D12046E16865
:1006C00088477F1C0646022F45F02005C4DBA06941
:1006D000002803DA404245F00105A061E80701D097
:1006E00025F01005A6B1A6F14100192802D8203640
:1006F00045F400654A463146204625604D46FFF7E1
:100700006FFD60B1012807D0ED1D25F0070000E066
:1007100007E000F1080978E705F1040975E73046BC
:100720007AE7206ABDE8F09FECC5020030B50546C7
:100730000B462A4613F8014B12F8010B08B1A042F0
:10074000F8D01CB1002802D06D1CF1E7284630BD5E
:10075000032A40F2308010F0030C00F0158011F8ED
:10076000013BBCF1020F624498BF11F801CB00F8C5
:10077000013B38BF11F8013BA2F1040298BF00F819
:1007800001CB38BF00F8013B11F0030300F0B88340
:10079000083AC0F0088051F8043B083A51F804CBFD
:1007A000A0E80810F5E7121D5CBF51F8043B40F8C3
:1007B000043BAFF30080D20724BF11F8013B11F8CE
:1007C00001CB48BF11F8012B24BF00F8013B00F812
:1007D00001CB48BF00F8012B704702F0FF0343EA4A
:1007E000032242EA024200F002B84FF0000204295C
:1007F000C0F0128010F0030C00F01B80CCF1040C50
:10080000BCF1020F18BF00F8012BA8BF20F8022B83
:10081000A1EB0C0100F00DB85FEAC17C24BF00F829
:10082000012B00F8012B48BF00F8012B70474FF057
:10083000000200B5134694469646203922BFA0E830
:100840000C50A0E80C50B1F12001BFF4F7AF09073C
:1008500028BFA0E80C5048BF0CC05DF804EB89002D
:1008600028BF40F8042B08BF704748BF20F8022B70
:1008700011F0804F18BF00F8012B70477047704788
:100880007047000000487047E07D002070477047C7
:100890007047704738B504460A4600206946AFF3F2
:1008A0000080002808BF38BD02460099204600F0AD
:1008B00065FB012038BD012000F09ABCF8B5AFF30C
:1008C0000080054600200C46102000BF0646A819EF
:1008D000A0420DD9324669460020AFF300800700E0
:1008E00008BF00F085FC0098A04218BF0546C41957
:1008F000FFF7C8FF05600746F01D20F00700461906
:10090000284600F00AF8B44208BFF8BDA21B3146E1
:100910003868BDE8F84000F031BB00210160C0E953
:10092000011070471020704710B500F023FB0068DD
:1009300010BD10B5044600F01DFB046010BD2DE98C
:10094000F0470D4699469246044600F12408016896
:10095000880604D5E06921F01001216000E0012043
:10096000A84201DD471B00E00027A1697A1902EBCC
:100970000900081AA0612078C00602D42046FFF7BB
:10098000D5FD002608E0D4E901211AF806009047B9
:10099000206A401C761C20624E45F4DB2078C0069D
:1009A0000AD52046FFF7C2FD06E0D4E90121302038
:1009B0009047206A401C2062381EA7F10107F4DC32
:1009C00007E0D4E9012118F805009047206A401C8F
:1009D0002062281EA5F10105F3DC2046FFF7BCFDCF
:1009E0002078000602D50220BDE8F0870120FBE751
:1009F00070472DE9FF4F0C461E464FF0FF378BB076
:100A0000D2E90001DDF860800A908A46C1F30A55F8
:100A100005B93D46002108464FF00000BAF1000F2D
:100A200000F4400005DA00EB80004FF4400101EAD9
:100A300050004FEA9059B9F1010F00DDB9460A980C
:100A400050EA4A000ED044F61050A5F2FF35454357
:100A50002F14B8F1000F1ED07542291E1EDDC9F1FA
:100A600000021CE0B8F1010F4FF0000001D030216E
:100A700003E0F24305E02154401CB042FBDB30466A
:100A80000022002121540B99C1F80880C1E90020FF
:100A90000FB0BDE8F08FBD1B6D1CDEE74A4600DAE3
:100AA000694206A800F032FB06AB93E8070003ABEF
:100AB00083E8070050460A9901F033F98DE80700F2
:100AC000A0F500501F3800900398002D0ADD42F277
:100AD0001F014A460844002303A90390684601F019
:100AE000DFFB09E0A0F500504A461F38002303A9A8
:100AF0000390684601F0FEFB8DE807000004000C3F
:100B000003D04FF0FF30410800E01046B8F1000F6D
:100B100003D00022009215461EE0751E05D400F099
:100B200047FA303262556D1EF9D5B34601220843AB
:100B300002D000227F1C04E02078302801D100225E
:100B40007F1E002A099784D01DE0112D07DA00F0DE
:100B50002FFA303262556D1C50EA0102F5D108437C
:100B600002D00098C8B10EE00021681E05E0235CA9
:100B7000625C63542254401E491C8142F7DBAB4641
:100B8000A81B401E0990002004F80B000B98099A3E
:100B9000C0F80880C0E9002B7AE711264FF0000862
:100BA00057E72DE9F04F88460446D21D22F0070191
:100BB00091B0D1E90001CDE90A0111F055FD0246DD
:100BC0000B98C00F01D02D2007E02068810701D5C8
:100BD0002B2002E0202101EAC000032A099001D065
:100BE000072A05DB03464146204600F02FFA0BE1B9
:100BF0002078800601D5E06900E00620B8F1650F95
:100C0000814606D0B8F1660F18D0B8F1670F70D1E1
:100C100031E00020B9F1110F009001DB112301E058
:100C200009F101030AAA01A90CA8FFF7E2FEDDE918
:100C30000C70002609F10105834647E001204B4670
:100C400000904FF000470AAA01A90CA8FFF7D1FEB7
:100C5000DDE90DB00C995D46002610B909F10100DF
:100C60000D18B9EB050003D4C0F1FF3609F10105F9
:100C7000A5EB09002BE0B9F1010F01DA4FF00109F2
:100C80000020B9F1110F0090484601DD112300E06A
:100C900003460AAA01A90CA8FFF7ABFEDDE90C7018
:100CA0004D4600268346207800070AD4AB4500DA7B
:100CB0005D4601A8012D04DD411911F8011C302900
:100CC00007D04F4502DA17F1040F04DA01208246FB
:100CD0000FE06D1EEEE7002F02DCED1B3E4403E04B
:100CE000781CA84200DD7D1CB81B00F1010A4FF002
:100CF00000472078000703D4AA4501DB4FF0FF3AF4
:100D00000021B7F1004F0DF143088DF8431024D0B6
:100D100002202B23002F01DA7F422D230A21021EFD
:100D2000A0F1010000DC5FB197FBF1FC97FBF1F251
:100D300001FB1C7C17460CF1300C08F801CDEEE7E6
:100D4000A8F1010003702188090501D5452100E0C3
:100D50006521A0F1010800F8011C09980FA9A1EB79
:100D60000807FF1D00B10120411901EBEA70A169DC
:100D70003844081A401EA0612078C00602D42046DC
:100D8000FFF7D4FB099828B1D4E901219047206AE4
:100D9000401C20622078C00622D52046FFF7C6FB03
:100DA0001EE0002E04DBB34502DD01A8805D00E0FB
:100DB0003020D4E901219047206A401C2062761C33
:100DC000AAF101005FEA000A0AD100F0CFF8C0687A
:100DD0000168405CD4E901219047206A401C2062F0
:100DE000281EA5F10105DCDC07E0D4E9012118F893
:100DF000010B9047206A401C2062381EA7F10107B2
:100E0000F3DC2046FFF7A8FB032011B041E6000009
:100E100001694A1C02610878704700B58FB0CDE9BE
:100E200001310021059105497944CDE903101146AE
:100E30006846FFF7DFFB0FB000BD0000E5FFFFFFD6
:100E40000A6802F8010B0A607047D1E900239A4250
:100E500002D2531C0B601070704700000FB40023C7
:100E600000B589B00CA900910B99CB60214B7B4454
:100E70000693214B7B44079304236FF00042CDE996
:100E800001321E4A7A446B4608920246002029F03D
:100E900025FD09B05DF814FB70B506464FF0FF3034
:100EA00015460C46324686B00091CDE901016946EF
:100EB0000020049004A8FFF7D1FF024604982118EF
:100EC00025B108B1084600E02046286004980028B3
:100ED0000DD0002A02DD0098884208D03246081B57
:100EE00069460094CDE9010404A8FFF7B7FF06B0F6
:100EF00070BD00005B02000073020000B30100003F
:100F000010B5203AC0F00B80B1E81850203AA0E8A4
:100F10001850B1E81850A0E81850BFF4F5AF5FEAD8
:100F2000027C24BFB1E81850A0E8185044BF18C98B
:100F300018C0BDE810405FEA827C24BF51F8043B32
:100F400040F8043B08BF7047D20728BF31F8023B86
:100F500048BF11F8012B28BF20F8023B48BF00F81A
:100F6000012B704700487047D87D0020004870472B
:100F7000F87D002000487047D87D00200346406877
:100F80008C46002818BF88423CBF03464068F8D30F
:100F900018681844884207D00CF1030020F00700BD
:100FA000001D411A521A0146081D0A60FFF7A9B92F
:100FB00030B5B0F10A024FEA900E71F100034EEA2B
:100FC000817EB0EB0E0061EB91014FEA101E4EEAFC
:100FD000017E10EB0E0041EB11114FEA102E4EEA8C
:100FE000016E10EB0E0041EB11214FEA104E4EEA5C
:100FF000014E10EB0E0041EB1141401841F1000190
:101000004FEAD00040EA41704FEAD10110EB800571
:101010004FEA810444EA907444EB01046D1944EBF7
:101020000404521BA3414FF0000348BF0A3200D50D
:1010300030BD401C41F1000130BD10B5044600F048
:1010400005F90068005D00F0010010BD2DE9F041D8
:101050001F46044603260168072A01F4006004DBEA
:1010600008B116A505E016A503E008B115A500E036
:1010700015A521F010002060A069C01EA0610FB16D
:10108000401EA0612046FFF751FA4FB1D4E901217B
:1010900038469047206A401C2062C01C206206E04F
:1010A000206AFAE7D4E9012115F8010B9047761E72
:1010B000F8D22046FFF750FABDE8F0814E414E00CD
:1010C0006E616E00494E4600696E6600426842B12C
:1010D000016811F8013B23B1521EC0E90012184605
:1010E00070470121C160881E704742685AB1C368C9
:1010F000016843B983688B4205D0491E521CC0E980
:101100000012002070474FF0FF3070472DE9F04784
:10111000814616468AB0354878440DC88DE80D00E2
:1011200032487844801C03AC0DC884E80D0041F6B9
:101130009B300844372190FBF1F290FBF1F5A5F1CB
:10114000800501FB12041B3C02D56442012000E033
:101150000020DFF898A080460027FA44AAF1BE0AD2
:101160000EE0E0070AD03246684607EB470101234C
:101170000AEB810101F0BEF88DE8070064107F1CC6
:10118000002CEED1194F7F44AE3F19E0E80715D08F
:1011900007EB04100DF1180A90E80E008AE80E0023
:1011A000C068F04201D1981908903246012306A97F
:1011B00003A801F09FF803AB83E807006D10641CDF
:1011C000002DE3D14FF0010332466946B8F1000F1C
:1011D00003A802D001F064F801E001F08BF8C9E93E
:1011E0000001C9F808200AB0BDE8F08768BB02001A
:1011F00010B500F0BDFABDE8104000F0B4BA704779
:101200007546FFF7AFFEAE4605006946534620F02F
:101210000700854618B020B5FFF71EF8BDE820404E
:101220004FF000064FF000074FF000084FF0000BA2
:1012300021F00701AC46ACE8C009ACE8C009ACE855
:10124000C009ACE8C0098D467047000010B5FFF733
:101250008DFE001D10BD00BF058302002DE9FF4F6C
:1012600006468BB00878FF2806D0491C2D2805D0EB
:1012700000244FF0000908E000200CE00124F8E70A
:1012800009EB8903491C00EB43090878FF28F7D1D3
:1012900014B1C9F100008146107800252C46AA46F9
:1012A00029462D2801D02B2804D1521C2D2813D0DB
:1012B000002082468B461078FF280FD04FF0000C9C
:1012C0000A21521CA5FB017804FB018105FB0C11CE
:1012D000C5194BEB0104EEE70120EAE700210846BF
:1012E0004FF00000BAF1000F02D000EB8000400880
:1012F000C0F38157012F01DD4FF0FF370E9955EAFA
:10130000040009EB01080BD04FF0020918F5FA7F31
:1013100016DA4FEACA70002F706008DD012007E07E
:101320004FEACA70C6E900B00FB0BDE8F08F0020E8
:101330003060FFF71FFEC0F800901821084616E045
:10134000B8F5FA7F18DD002F02DAF748784401E09B
:10135000F6487844D0E90010C6E9001040EACA70A7
:101360007060FFF707FEC0F80090142108460FB028
:10137000BDE8F04F29F027BA002108464FF00000E1
:10138000B8F10001099002DAC7F1000200E03A4624
:1013900001DAC8F1000106A8FFF7B8FE06AB93E832
:1013A000070003AB83E8070044F23E005BEA040158
:1013B0000090584604D144F21E012C465D4600912F
:1013C000210C0904014306D10099240444EA154480
:1013D0002D041039009104F07F41014306D100999A
:1013E000240244EA15642D020839009104F070418A
:1013F000014306D10099240144EA15742D01091F07
:10140000009104F04041014306D10099A40044EA50
:101410009574AD00891E009104F00041084304D189
:1014200000986D196441401E00904FF001033A4648
:101430006846B8F1000FCDE9014503A902DD00F0CF
:101440006EFF01E000F041FFBAF1000F04460D46C7
:1014500001D084F00044002108464FF000000999B3
:1014600040F2FF77484010F00C0F07D124F0004005
:10147000284303D0C4F30A50B84212D1FFF77AFDD3
:10148000C0F80090C4F30A50B8420AD1A848784482
:10149000D0E90010C6E9001004F000410843706074
:1014A00042E7C6E900543FE72DE9FF4F1F464FF0E2
:1014B000000A4FF0FF38454691B0D7E90146CDF814
:1014C0003CA0FFF753FDC0680168405C1090B9690B
:1014D00012986D1C8847396A814688470028F6D1E2
:1014E000B9F1FF3F0AD0002E24F4D06411DDB9F128
:1014F0002B0F08D0B9F12D0F0BD102E0404615B0EB
:1015000013E744F48064B96912986D1C8847761E0D
:101510008146600504A901D52D2000E02B20002E76
:1015200001F1010B0DF130088DF810003FDDB9F12C
:10153000690F08D0B9F1490F05D0B9F16E0F02D08B
:10154000B9F14E0F1CD13B4601A8009580E850022E
:10155000DDE912126FF0020029F0C4F9C11CCED1EE
:101560000EE0B96912986D1C884781461398761E63
:1015700044F4007405600F98401C002E0F9016DD97
:10158000B9F1300FEDD0B9F1780F02D0B9F1580FA1
:101590000DD10F9801280AD13B46CDE90054DDE971
:1015A0001212001F029629F09BF9C11CA7D11099B5
:1015B00089453ED144F0800406E01399681CAAF1E5
:1015C000010A44F400740860B9696D1C1298761E13
:1015D000884730288146F0D02BE01099894505D105
:1015E000200603D4761E44F0800418E0484611F02B
:1015F000E0F808B3761E0DF123018B4544F4007426
:1016000008D2A9F130000BF8010B200607D5AAF18A
:10161000010003E0200602D40AF101008246A00581
:1016200002D51399681C0860B96912986D1C884727
:101630008146002ED1DC53E0002E51DDB9F1650F5B
:1016400002D0B9F1450F4BD1A00549D5B9696D1C40
:101650001298761E24F440748847002E81460CDDD3
:101660002B2804D0B9F12D0F07D144F48074B96947
:1016700012986D1C8847761E8146E00501D52D2104
:1016800000E02B2108F8011BCDF8008021E0761E38
:101690000DF13901884544F400740CD2A9F13000F1
:1016A00010F0FF0088F8000002D10099884509D9A0
:1016B00008F1010806E0E00501D51E4801E042F20C
:1016C0000F708246B96912986D1C8847814613983D
:1016D0000560002E04DD484611F06BF80028D6D1D5
:1016E000F96912988847FF2053468BF8000088F864
:1016F000000000200A900B9004AA0CA90AA8FFF78A
:10170000ADFDA00502D46FF00100F8E614F0240F3F
:1017100012D0E0071CD13868DDE90A12031D3B60D6
:101720000068C0E9001213E074B9020066B9020053
:101730002AB80200F1D8FFFF0AA9684610F0C8FFD6
:10174000E00705D13868009A011D39600068026021
:101750002846D4E610B50446AFF300802046BDE825
:101760001040FEF764BD002801D000F069B8704752
:1017700010B5012805D0002103A000F067F8012072
:1017800010BD09A1F8E7000053494752544D454D9B
:101790003A204F7574206F662068656170206D6512
:1017A0006D6F7279000000003A2048656170206D0D
:1017B000656D6F727920636F727275707465640005
:1017C0004FF0013C50F8042B51F8043B9A4221D1D0
:1017D000A2EB0C03934313EACC1317D150F8042B5C
:1017E00051F8043B9A4215D1A2EB0C03934313EA40
:1017F000CC130BD150F8042B51F8043B9A4209D179
:10180000A2EB0C03934313EACC13DBD04FF00000A0
:10181000704700BFD01A01BAB1FA81F101F0180186
:1018200022FA01F0CB40C1F12001DBB2C0B2C01AF4
:101830002CFA01F3D11A914311EAC311E6D1704792
:1018400001491820ABBEFEE72600020070B5054630
:101850000C460A2000E06D1C00F011F835B1287824
:101860000028F8D102E0641C00F009F814B12078D7
:101870000028F8D1BDE870400A20AFF3008008B519
:1018800069468DF800000320ABBE08BD2DE9FF4F6F
:101890001F464FF03C0987B04FF00042DDE91410BD
:1018A00001F10108DDF858A002EA40500390002041
:1018B00005908346054604460490B969461E08987B
:1018C0008847AAF1010A0290BAF1000F3BDD0298A5
:1018D0002E2815D0102100F016FA00282EDB4FF02C
:1018E000010B0599014317D0B9F1000F0BDB4A46F4
:1018F000C11700F0F5F905430C43A9F1040905E00F
:10190000012004900BE008B145F00105012005908D
:10191000049820B9361D02E0049800B1361FB96959
:10192000089808F101088847BBF1000FAAF1010AE5
:101930000290C9D00999C1F80080C5E702987028C3
:1019400008D0502806D0F96908988847BBF1000FE5
:1019500014D04FE0002002900120BBF1000F049052
:1019600009D0B969089808F101088847AAF1010966
:10197000B9F1000F07DCF969089888476FF001009A
:101980000BB0BDE8F08F2B2804D02D280CD14FF0E0
:10199000FF300490B969089808F101088847A9F157
:1019A0000109B9F1000FE6DD411CE4D00A2100F085
:1019B000AAF90028DFDB029908F1010801EB810197
:1019C00000EB41000290B969089888470A2100F0AD
:1019D0009AF9099AA9F10109B9F1000FC2F800803A
:1019E00001DD0028E7DAF969089888470499029828
:1019F00000FB016655EA040004D004F040410900F0
:101A000002D006E0039898E0A40044EA9574AD0083
:101A1000B61E04F00041080002D16D196441761E23
:101A2000159810F0240F03D04FF00B095C4803E029
:101A30004FF028096FF07D008246564507DAAAEB81
:101A400006018944B9F1410F01DD4FF04109012040
:101A50000021A9F1010200F043F9024628400B469B
:101A60002140084301D0012100E00021501E0291D5
:101A700043F1FF3128402140084301D0012000E01C
:101A800000200299834651EA0B014FD000210846FD
:101A90004FF00000039900F4400039B100EB8000E2
:101AA0004FF4400100EBD07001EA6000801501287E
:101AB00002DD4FF0FF3000E013D0401C36D002981A
:101AC00060B3BBF1000F0CD14A460120002100F0A9
:101AD00007F928402140084301D0012000E0002000
:101AE000E0B101204A46002100F0FAF8034640190F
:101AF0000A4661412D1A8C4111D3B9F1400F09DD1D
:101B0000159810F0240F02D0AAF1340603E0AAF1D0
:101B1000170600E0761C00254FF0004406E05B1E2F
:101B200042F1FF3220EA030521EA0204CAF1010072
:101B3000B04206DA1B490398084301900020009048
:101B40000EE0039AC4F3D321E80A0A43164940EA97
:101B500044500A433146CDE90002684610F01EFEAB
:101B6000159810F0240F0BD01598C00715D13868C0
:101B7000DDE90012031D3B600068C0E900120CE0C3
:101B800002A8694610F0A4FD1598C00705D1386871
:101B9000029A011D3960006802604046F0E60000CC
:101BA00002FCFFFF0000F07F0000F03F2DE9FF4F37
:101BB00092461D4685B04FF00041DDE9124BDDE94C
:101BC00014727F1E01EA4B50414940F0FF4940EA40
:101BD0000108002122F020004928049102D04E285B
:101BE00028D04CE03BA0012607C88DE80700A96972
:101BF0000698641C88477F1E014606D41DF806001F
:101C000018B121F0200181420BD0E969069888477C
:101C1000032E34D0082E32D06FF0010009B0BDE899
:101C2000F08F761C032E01D0082EE0D1601CCAF87C
:101C30000000DCE7A9690698641C88477F1E2AD447
:101C400020F02000412826D1A9690698641C884705
:101C50007F1E20D420F020004E281CD1A9690698B0
:101C6000641C88477F1E48F4002849F48009CAF89C
:101C7000004001D4282806D0E969069888475FEA21
:101C8000CB7012D022E0A9690698641C88477F1E99
:101C900001D4002803DAE96906988847BCE72928B7
:101CA000F1D1641CCAF80040E9E71BF0240F07D00B
:101CB00028680499031D2B600068C0E9001805E03E
:101CC0002868021D2A600068C0F800902046A5E739
:101CD0000000F07F494E46494E495459000000002B
:101CE000B2F120030AD5C2F1200301FA02F120FA71
:101CF00003F300FA02F041EA0301704700FA03F12E
:101D00004FF0000070473A2800D2303820F020020F
:101D1000412A01D3A2F13700884201D34FF0FF30AE
:101D200070475FEA400C08BF91F0000F4FEA8C2328
:101D30004FEAC12243EA51514FEA1C5018BF00F547
:101D4000F0404FEA300018BF41F000415FEA6C5CA0
:101D500000F02980BCF1FF3F08BF40F08040704791
:101D6000130C06BF12044FF0100C4FF0000C130EB2
:101D700004BF12020CF1080C130F04BF12010CF186
:101D8000040C930F04BF92000CF1020CD30F04BF9C
:101D900052000CF1010C11464FF00002A0F11F009F
:101DA000A0EB0C00704711F0004F08BF704731F0F6
:101DB00000413FF4D5AF0B0C06BF09044FF0100CE7
:101DC0004FF0000C0B0E04BF09020CF1080C0B0FB6
:101DD00004BF09010CF1040C8B0F04BF89000CF146
:101DE000020CCB0F04BF49000CF1010CCCF1200315
:101DF000A0EB0C0022FA03F302FA0CF241EA030111
:101E000000F10100704720F07F4C80EA030023F0CE
:101E10007F47ACEB070303F57C5300F0004003F170
:101E2000FF032DE980494FEA154B09B44FEA1443EB
:101E300025EA0B4E24EA03480FF2042606EB13278B
:101E400049083E785FEA320203FB0667C7F50007E0
:101E500007FB06F64FEA54374FEAD64606F102066C
:101E600007FB066CCCF1005C4FEA1C472CEA074CE0
:101E700007FB06F40CFB06F504EB15464FEA961635
:101E800034BF00204FF000404FEAD13706FB07FC7B
:101E90004FEA1C4C0CFB0BF7D21B03FB0CF761EB5E
:101EA00007010CFB0EF7B0EB074072EB17420CFB7F
:101EB00008F734BFA2EB0742B2EB074261EB1741D0
:101EC0004FEA0C444FEA910706FB07FC4FEA1C4C13
:101ED0000CFB0BF7B0EBC74072EB573203FB0CF770
:101EE00034BFA2EBC742B2EBC74261EB57310CFBE8
:101EF0000EF7B0EBC70072EB57720CFB08F734BF5C
:101F0000A2EBC702B2EBC70261EB5771039F4FEA26
:101F1000816141EA921104EBCC044FEAD1374FEAD8
:101F2000826206FB07FC42EA90124FEA80604FEAA9
:101F30001C4C0CFB0BF7D21B03FB0CF761EB0701EE
:101F40000CFB0EF7B0EB074072EB17420CFB08F7E7
:101F500034BFA2EB0742B2EB074261EB17414FEAF5
:101F60008C554FEA910704EB9C2406FB07FC4FEAD3
:101F70001C4C0CFB0BF7B0EBC74072EB573203FB6A
:101F80000CF734BFA2EBC742B2EBC74261EB57314B
:101F90000CFB0EF7B0EBC70072EB57720CFB08F7A7
:101FA00034BFA2EBC702B2EBC70261EB577115EB6E
:101FB0004C254FEA816141EA92114FEA82624FEA71
:101FC000D13742EA901206FB07FC44F100044FEAC5
:101FD00080604FEA1C4C0CFB0BF7D21B03FB0CF789
:101FE00061EB07010CFB0EF7B0EB074072EB1742F9
:101FF0000CFB08F734BFA2EB0742B2EB074261EBE0
:10200000174115EB1C154FEA813141EA92414FEA25
:10201000823242EA90424FEA80304FEA0C7644F135
:10202000000448EA03434EEA0B484FF0000EB2EBBF
:10203000080C71EB030724BF624639464EEB0E0EC7
:102040004FF0000B0018524149414BEB0B0BB2EB28
:10205000080C71EB03077BF1000B24BF6246394685
:102060004EEB0E0E4FF0000B0018524149414BEB66
:102070000B0BB2EB080C71EB03077BF1000B24BFD9
:10208000624639464EEB0E0E51EA020718BF46F083
:10209000010616EB0E7655F1000254F1000103D54E
:1020A000BDE88901BDE80088BDE88901BDE80048B8
:1020B000B619524141EB0101A3F101037047808041
:1020C0007F7E7D7C7B7A7978777676757473727192
:1020D00071706F6E6E6D6C6C6B6A6A69686867664A
:1020E00066656464636362616160605F5F5E5E5DDC
:1020F0005D5C5C5B5B5A5A59595858575756565550
:1021000055555454535352525251515050504F4FB1
:102110004F4E4E4D4D4D4C4C4C4B4B4B4A4A4A4901
:102120004949484848474747474646464545454444
:1021300044444443434343424242424141410000FC
:1021400046EA0646A3F570534FEA164646EA42565B
:102150004FEAD22242EA415210B54FEAD121A3F10F
:10216000010300F02FF820F0004000F1020C00F015
:10217000004701EB00501146BCF5006F40EA070034
:1021800000D210BDBAF1000F0AD01CB503B44FF055
:1021900004004FF004014FF000000FBCBDE81040F8
:1021A0004FF00001BBF1010FB9BF04484FF0FF3100
:1021B0000348002140EA070010BD00BFFFFFEF7F8A
:1021C0000000F07F002B9C4630D477002BD01CB54C
:1021D0004FEA370703B44FF010004FF01001BAF187
:1021E000000F06D0BCF1000FDCBF40F0080040F04B
:1021F00008014FF000000FBCBDE810400BF1010BCF
:10220000BBF1010F08BF5FEA170722BF12F10102FD
:1022100011F101014FF0004143F1000300F00040D3
:1022200043EA00007047F9D35708D0E746EA06466C
:1022300013F1400F4FEA16461FDD13F1200FDFBFE9
:1022400016430A46002120335B42BED0C3F120076B
:1022500046EA064602FA07F74FEA164646EA070636
:10226000C3F1200722FA03F201FA07F721FA03F17A
:102270004FF0000342EA0702A7E746EA020646EAF1
:1022800006464FEA164646EA0106BCBF46EA06463F
:10229000360C4FF000034FF000024FF0000194E7BE
:1022A0002DE9804C9A46934670B491E8380007C8EF
:1022B00031EA400C48BF34EA430C03D5FFF7A3FDD5
:1022C000FFF780FFF0BCBDE8008C2DE9804C9A46FA
:1022D000934670B491E8380007C831EA400C48BF13
:1022E00034EA430C03D5FFF78EFDFFF729FFF0BC5E
:1022F000BDE8008C2DE9804C9A46934670B491E875
:10230000380007C810F0804F08BF13F0804F03D18A
:1023100000F01AF8FFF756FFF0BCBDE8008C2DE97D
:10232000804C9A46934670B491E8380007C810F084
:10233000804F08BF13F0804F03D100F005F8FFF77E
:10234000FFFEF0BCBDE8008C20F07F4780EA030070
:1023500023F07F4C07EB0C03A3F57C5300F0004007
:10236000A3F1FE0392F0000F00F0B38095F0000F90
:1023700000F077802DE901494FEA11404FEA1446F9
:1023800021EA004800FB06FC24EA064708FB06F6A3
:1023900007FB08F800FB07F718EB06484CEB164C58
:1023A0004FEA124B18EB07484FEA15464CEB174023
:1023B00022EA0B4E0BFB06FC25EA06470EFB06F64F
:1023C00007FB0EFE0BFB07F71EEB064E4CEB164C05
:1023D0004FF000061EEB074E4CEB174B18EB0B08AB
:1023E00040F1000018EB0E0B58EB000840F1000024
:1023F0008F1A4FF000013CBFC943661B14BFB5EBF9
:10240000040C00213CBFC943F61B4FEA17444EEAB7
:102410008E0E27EA04454FEA1C4704FB07622CEAAC
:10242000074C05FB07F70CFB05F604FB0CFC16EB51
:10243000074642EB174216EB0C4642EB1C421BEBE5
:10244000060658EB0202414146EA9E0601D5BDE868
:102450000189B619524141EB0101A3F10103BDE825
:1024600001894FEA14454FEA114724EA054621EA5B
:10247000074C05FB07F406FB07F70CFB06F105FB11
:102480000CFC11EB074144EB17444FEA124711EBE8
:102490000C4144EB1C4422EA074C05FB07F206FB07
:1024A00007F70CFB06F605FB0CFC16EB074642EBA8
:1024B000174216EB0C4642EB1C456A1854F100011A
:1024C00048BF7047B619524141EB0101A3F1010326
:1024D000704795F0000F37D04FEA11424FEA14478A
:1024E00021EA024624EA074C02FB07F106FB07F744
:1024F0000CFB06F402FB0CFC14EB074441EB174108
:102500004FEA154714EB0C4441EB1C4125EA074CFC
:1025100002FB07F506FB07F70CFB06F602FB0CFCBB
:1025200016EB074645EB174516EB0C4645EB1C42F0
:10253000121951F1000148BF7047B619524141EBE1
:102540000101A3F1010370474FEA14454FEA114717
:1025500024EA054621EA074C05FB07F106FB07F7CD
:102560000CFB06F24FF0000605FB0CFC12EB0742D9
:1025700041EB174112EB0C4251EB1C4148BF704735
:10258000921841EB0101A3F10103704770B50446B5
:1025900000680168C943490620D4816821F001011F
:1025A000816009F061F9054613E009F05DF9401B0F
:1025B00002280ED920680068C043400609D4E06CA8
:1025C00040F01000E064206D40F001002065012023
:1025D00070BD20680068C0434006E6D5002070BD8D
:1025E000F8B500260446009600680168C94349060C
:1025F0002ED5816841F001018160164816490068B6
:10260000B0FBF1F000EB400000E0401E009000281D
:10261000FBD109F029F9054615E009F025F9401B21
:10262000022810D920680068C04340060BD5E06C32
:1026300040F01000E064206D40F00100206584F857
:1026400048600120F8BD20680068C0434006E4D41B
:102650000020F8BD1000002040420F0010B50A48CD
:1026600008F086FE6421084808F02AFE064808F0B3
:102670002DFD064CA060044808F0B5FE052008F0CA
:10268000EDFFA06810BD0000BC58002010580020CD
:102690002DE9F041002507462E462C460BE0FFF7BA
:1026A000DDFF27F067FA2A46334626F09FFF641CB9
:1026B00005460E46E4B2BC42F1D3384627F05AFA3A
:1026C00002460B4628463146BDE8F04127F04AB89D
:1026D0000949094A983AC9689161002104E093695F
:1026E000491CC9B21B6993618142F8D39069017892
:1026F00041F0010101707047B85500201249124A9B
:10270000983AC968916103281CD005DC98B101286A
:1027100011D002280ED113E0052811D00A2811D0BB
:10272000142807D10869006900699061017841F0B7
:10273000010101707047087840F00100087070478F
:102740000869F2E70869EFE7B855002010B522F0F4
:102750005BFA7D4A0B287DD027DC7B4C022804F1F4
:10276000080445D0032876D0042863D0082873D104
:102770009079042870D1D07902286DD112F0AEFA88
:102780001DF020FC407961284ED01DF021FC21462F
:1027900026F0D4FB1DF016FC4079612847D01DF0CF
:1027A00017FCBDE8104003F062BF0C280FD01228C0
:1027B00071D013286BD112F091FA1EF0BBFA0328E6
:1027C00065D10121BDE81040022017F093BF907938
:1027D00004285CD1612002F097FF22F0CFF95B4919
:1027E000002008701DF0EEFBBDE8104000F0D0BAEC
:1027F000907904284BD1D0790C2848D112F06EFA88
:102800001DF0E0FB407961280BD01DF0E1FB0C22AC
:10281000214626F0AAFB1DF0D5FBBDE8104000F0D4
:1028200095BA1DF0CFFBF2E71DF0CCFBAFE71DF032
:10283000C9FBB6E79079042829D1D079082826D198
:1028400012F04CFA1DF0BEFB4079612813D01DF048
:10285000BFFB02E015E025E019E0214600F080F81A
:102860001DF0B0FB4079612808D01DF0B1FBBDE838
:10287000104003F0F5BE1DF0A5FBEAE71DF0A2FB3A
:10288000F5E79079102802D1D0799C284CD010BD62
:102890001DF098FB02E04FE01DF09AFBBDE81040F0
:1028A00000F016BA90790424042806D1507A012841
:1028B00021D0082838D0092836D012F00FFA1EF09F
:1028C00039FA5F2801D06028E1D10021022017F0F9
:1028D00011FF1EF035FA80681D49006981601EF005
:1028E0002FFA806801691B48C8601EF029FA8068C9
:1028F0000069447110BD12F0F1F91EF01BFA5F2857
:1029000001D06028F6D10121022017F0F3FE1EF05D
:1029100017FA80681049006981601EF011FA80681A
:102920000E490069C160E0E712F0D8F91DF04AFBDA
:1029300040796128B0D1ABE712F0D0F91EF0FAF976
:1029400041283FF43EAF10BD7C5600202C5500209E
:10295000C3B70208BEB70208AFB70208B3B7020890
:102960002DE9FE4F04006FD0487884F8780008788D
:1029700084F87900C87884F87A00887884F87B0035
:10298000487904F8700F08796070C879A070887968
:10299000DFF8C881E0704146A06827F005FCA06020
:1029A000703C25F0D1FFA8B1206F27F05DFB6C4A89
:1029B0006C4B27F02FF900226B4B26F017FE26F008
:1029C000E3FD6A492067884203DC4FF08441884276
:1029D00000DA21672078DFF898A1DFF898B104F1D8
:1029E0002F01420704F13C0602912ED520F004008D
:1029F0002070A06F6061B0F5000F03DA27F034FBA0
:102A00005DA210E0504503DC27F02EFB5CA20AE03B
:102A1000404503DC27F028FB5BA204E0584508DCB6
:102A200027F022FB5AA2CDE9000107213046FDF72D
:102A300063FD206F27F018FBCDE9000156A20621A7
:102A40000298FDF759FD83E086E0A16FA06827F0AA
:102A500037FBA060216F206927F032FB2061204600
:102A600001F024FFA06F6061E079401CC0B2E0710A
:102A700003286DD327F0E2FC05462946206927F09C
:102A800093FB01902946A06827F08EFB054625F0B0
:102A90001DFEDFF80C91002720B325F0F7FE022879
:102AA00020D399F80020484604F1980104F1B009B8
:102AB000009132B10770009812F058F9484612F0B0
:102AC00055F92946009812F084F94846019912F008
:102AD00080F9484612F060F90190009812F05CF914
:102AE000054602E0012189F80010204603F0BEF8F7
:102AF00058BB019827F0B8FACDE9000126A20621BB
:102B00000298FDF7F9FCB5F5000F04DA284627F026
:102B1000ABFA19A213E0554504DC284627F0A4FAC5
:102B200017A20CE0454504DC284627F09DFA16A2C2
:102B300005E05D4509DC284627F096FA14A2CDE9A8
:102B4000000107213046FDF7D7FCE771A760276138
:102B5000BDE8FE4F22F0D0BBBDE8FE8F00007A44F6
:102B6000CDCCCCCCCCCCFC3F0000404000000C4392
:102B70000000C84200401C4625362E346600000086
:102B800025362E336600000025362E326600000002
:102B900025362E316600000025352E3266000000F5
:102BA0004C5800201CB50C46002832D068460EF068
:102BB00053F9DDE9000112F06FF9164A612102F8BC
:102BC000451F102151709C2191706821D170002106
:102BD00011710421517108219171010AD171107292
:102BE000010E5172000C9072200AD0721473200EE4
:102BF0005073200C90730748112102F8421C453095
:102C00000EF0AAFB22F070FBBDE81C400B2022F066
:102C100097BB1CBD7C5600201CB50C46002832D04A
:102C200068460EF019F9DDE9000112F035F9164A8F
:102C3000612102F8451F102151709C2191706C2177
:102C4000D170002111710421517108219171010A83
:102C5000D1711072010E5172000C9072200AD07264
:102C60001473200E5073200C90730748112102F842
:102C7000421C45300EF070FB22F036FBBDE81C40D4
:102C80000B2022F05DBB1CBD7C56002010B5002837
:102C90001BD00E48612100F8451F062141709C2180
:102CA00081705121C1700021017101214171082100
:102CB00000F8421C054845300EF04EFB22F014FB94
:102CC000BDE81040132022F03BBB10BD7C56002015
:102CD00010B500281BD00E48612100F8451F0421C3
:102CE0004170752181706621C1700021017101213F
:102CF0004171082100F8421C054845300EF02CFBBC
:102D000022F0F2FABDE81040032022F019BB10BDFA
:102D10007C5600200C4810B5612100F8451F0421A5
:102D20004170752282706922C27000220271417165
:102D3000082100F8421C044845300EF00DFBBDE8A8
:102D400010400C2022F0FCBA7C56002010B5002860
:102D50001BD00E48612100F8451F042141707521E8
:102D600081704521C170002101710121417108214B
:102D700000F8421C054845300EF0EEFA22F0B4FA95
:102D8000BDE81040082022F0DBBA10BD7C560020C0
:102D900010B500281BD00E48612100F8451F042102
:102DA0004170752181703021C170002101710621AF
:102DB0004171082100F8421C054845300EF0CCFA5C
:102DC00022F092FABDE81040022022F0B9BA10BDFC
:102DD0007C56002010B5002818D00D4861217522BE
:102DE00000F8451F0421417082706922C2700022E0
:102DF00002714171082100F8421C054845300EF06F
:102E0000ABFABDE81040042022F09ABA10BD0000D1
:102E10007C56002010B5002827D0144A40F8701FB7
:102E2000612102F8451F102151709C21917057219A
:102E3000D1700021117102215171042191714178E9
:102E4000D17101781172C1785172807890720748FF
:102E50000D2102F8421C45300EF07EFA22F044FAB1
:102E6000BDE81040122022F06BBA10BD7C56002045
:102E700010B50446F32000F037F8204000D00120C0
:102E800010BD000010B5F92000F02EF80A4C20709B
:102E9000F82000F029F86070F72000F025F8A07005
:102EA0006178000340EA01102178BDE8104040EA53
:102EB00011100FF05DBF00005056002070B5FC20CF
:102EC00000F012F80446FB2000F00EF80546FA2048
:102ED00000F00AF8000340EA051040EA1410BDE8CB
:102EE000704010F03BB8000070B50B4D06464FF433
:102EF000807400222146284608F0B1FC30460FF0CD
:102F00000BFF0FF005FF064601222146284608F078
:102F1000A6FC304670BD00000004024001784278F3
:102F20004901807841EA82010143C9B2F52000F0ED
:102F30000BB8417802784901807841EA8201014367
:102F4000C9B2F420AFF300802DE9F0410B4D0F46DC
:102F500006464FF4807400222146284608F07FFC84
:102F600030460FF0D9FE38460FF0D6FE21462846EF
:102F7000BDE8F041012208F072BC000000040240EC
:102F80000949094AC968983A0029916104D020B1D9
:102F9000087840F001000870704708699061017876
:102FA00041F0010101707047B8550020FEE70000B4
:102FB0002DE9F04121F028FEB449B54CB54D042669
:102FC00001F108070C2814D00ADCA0F102000A283D
:102FD00071D2DFE800F03D70E2707070577071F3ED
:102FE0001238072867D2DFE800F0EBEA66661A8736
:102FF000B600887903285ED14A2002F085FB21F0D3
:10300000BDFD1CF0DFFF40794A2805D01CF0E0FF31
:10301000394600F003FCBAE01CF0D4FFF8E78879E9
:10302000032848D111F05AFE1CF0CCFF40794A2801
:103030000BD01CF0CDFF394600F030F91CF0C2FF78
:10304000BDE8F0414A2100F0A5BE1CF0BBFFF2E74D
:10305000887903282FD111F041FE1CF0B3FF40798D
:103060004A280CD01CF0B4FF0122394600F056FB70
:103070001CF0A8FFBDE8F0414A2100F06FBE1CF033
:10308000A1FFF1E78879032815D111F027FE1CF084
:1030900099FF40794A280BD01CF09AFF002100F0DC
:1030A00013FB1CF08FFFBDE8F0414A2100F0CABEBF
:1030B0001CF088FFF2E780E0887903287DD111F0C9
:1030C0000DFE1CF07FFF40794A280FD01CF080FFD6
:1030D000394600F049FB1CF075FF40794A2808D0BA
:1030E0001CF076FFBDE8F04103F0C1BA1CF06AFFA6
:1030F000EEE71CF067FFF5E7887906285DD111F04F
:10310000EDFD1DF017FE372815D163490120087029
:103110000146022017F0EEFA1DF012FE80680069E9
:1031200084601DF00DFE80680069C5601DF008FE1A
:103130008068006946711CF045FF40794A2807D035
:103140001CF046FFBDE8F0415049093100F0E0B8FD
:103150001CF038FFF6E78879062873D111F0BEFD20
:103160001DF0E8FD382812D10121022017F0C2FA23
:103170001DF0E6FD8068006984601DF0E1FD806857
:103180000069C5601DF0DCFD8068006946711CF0B7
:1031900019FFBDE8F04100F0D5B88879032851D176
:1031A00011F09CFD1CF00EFF40794A2814D01CF051
:1031B0000FFF394600F032FB03E043E012E055E038
:1031C00042E01CF0FFFE40794A2808D01CF000FFC6
:1031D000BDE8F04103F044BA1CF0F4FEE9E71CF04E
:1031E000F1FEF5E78879062801D010282AD111F0E0
:1031F00075FD1DF09FFD542811D008DC03280ED06A
:1032000042280CD044280AD053281BD107E0552867
:1032100005D0562803D0582801D0592812D10121B1
:10322000022017F067FA1DF08BFD8068006984604A
:103230001DF086FD80680069C5601DF081FD806815
:1032400000694671BDE8F08188790628FAD111F04D
:1032500045FD1DF06FFD412811D01DF06BFD5A2872
:103260000DD01DF067FD572809D0EBE788790628B7
:10327000E8D111F033FD1DF05DFD0328E2D1BDE87A
:10328000F0410121022017F035BA00007C560020E1
:10329000AFB70208B3B702085457002010B50400B6
:1032A0000FD049B1487884F8C800087884F8C9007C
:1032B000B4F8C80030B106E0012024F8C80F0A2095
:1032C000608010BD0220A4F8C800C87884F8CA0045
:1032D00088780D4984F8CB000020088094F8CA0053
:1032E000C83425F019FE34F8C809012801D11DF0B1
:1032F00063FAB4F8CA3004F1CC00BDE8104003A270
:103300000421FDF7F9B800003A5700202533640086
:1033100000280DD049B14A7880F8C820097880F893
:10332000C910B0F8C81021B104E00121A0F8C810FC
:1033300070470221A0F8C81001490020088070479A
:103340003A57002010B500281BD00E484A2100F83B
:10335000451F03214170052181701D21C17000218D
:10336000017102214171082100F8421C05484530D5
:103370000DF0F2FF21F0B8FFBDE81040162021F05B
:10338000DFBF10BD7C56002010B5002824D01348A4
:103390004A2200F8452F10224270052282704422F2
:1033A000C2700022027102224271042282710A0A52
:1033B000C27101720A0E4272090C81720D2100F86D
:1033C000421C064845300DF0C7FF21F08DFFBDE8D7
:1033D00010400B2021F0B4BF10BD00007C5600202F
:1033E00010B5002824D013484A2200F8452F102297
:1033F0004270052282703422C270002202710222C1
:103400004271042282710A0AC27101720A0E42726A
:10341000090C81720D2100F8421C064845300DF060
:103420009BFF21F061FFBDE810400B2021F088BF19
:1034300010BD00007C56002010B500281AD00E48A0
:103440004A2200F8452F06224270052282701D2272
:10345000C2700A0A02714171082100F8421C064834
:1034600045300DF079FF21F03FFFBDE810401720F7
:1034700021F066BF10BD00007C56002010B500286A
:103480001AD00E484A2200F8452F06224270052223
:1034900082701E22C2700A0A02714171082100F86E
:1034A000421C064845300DF057FF21F01DFFBDE8D6
:1034B0001040182021F044BF10BD00007C560020B1
:1034C00070B521F0A1FB7D4C0B2804F108057DD0DF
:1034D00021DC022850D0042879D0082866D00A2898
:1034E00076D1A079032873D111F0F8FB1CF06AFDA6
:1034F00040790A2878D01CF06BFD294600F034F999
:103500001CF060FD40790A2873D01CF061FDBDE815
:10351000704003F0ACB80C2812D0122868D01328E1
:1035200056D1A079062853D111F0D8FB1DF002FC2A
:1035300003284DD1BDE870400121022017F0DAB810
:10354000A079032844D10A2002F0DEF821F016FB0E
:103550001CF038FD40790A280BD01CF039FD2946B3
:1035600000F05CF91CF02EFDBDE870400A2100F06F
:1035700011BC1CF027FDF2E7A079032828D111F037
:10358000ADFB1CF01FFD40790A280CD01CF020FD7B
:103590000022294600F0C2F81CF014FDBDE870407E
:1035A0000A2100F0DBBB1CF00DFDF1E7A079032838
:1035B0006FD111F093FB1CF005FD40790A2810D063
:1035C0001CF006FD002100F07FF803E034E013E07A
:1035D0005FE009E01CF0F6FCBDE870400A2100F055
:1035E00031BC1CF0EFFCEDE71CF0ECFC85E700E0E3
:1035F00050E01CF0E7FC8AE7A079032849D111F0DC
:103600006DFB1CF0DFFC40790A280FD01CF0E0FCB9
:10361000294600F003F91CF0D5FC40790A2808D0AF
:103620001CF0D6FCBDE8704003F01AB81CF0CAFCD0
:10363000EEE71CF0C7FCF5E7A079062829D111F0C8
:103640004DFB1DF077FB53280DD006DC03280AD074
:10365000422808D044281CD105E0542803D055281E
:1036600001D0562815D10121022017F043F81DF092
:1036700067FB80681249006981601DF061FB80680A
:1036800010490069C1601DF05BFB8068042100697E
:10369000417170BDA0790628FBD111F01FFB1DF010
:1036A00049FB41283FF446AF1DF044FB5A28F9D0AE
:1036B0001DF040FB5728F5D070BD00007C5600205F
:1036C000AFB70208B3B7020810B5002817D0002220
:1036D0002E24A9B10B78303380F8223080F82340B3
:1036E0004B78303380F8243080F825208B783033C5
:1036F00000F81D3F4470C97830318170C27010BD30
:10370000312380F8223080F82340302180F82410C3
:1037100080F8252000F81D3F4470EEE72DE9F043C6
:1037200000281DD04C2400F85A4F4FF0480C4FF0A1
:103730002D08442380F801C0432180F80280312500
:10374000C3705F2601714F274FF0200945714AB1C0
:1037500037228271C67101724772837280F80B90B2
:10376000BDE8F0833822F4E7002805D029B14A7873
:1037700000F86C2F0978417070473221A0F86C1066
:103780007047000010B500281FD001EB81004FF6F4
:10379000FF7101EA40010D4800F8452F06224270F2
:1037A000052282708622C2700A0A027141710821C4
:1037B00000F8421C054845300DF0CEFD21F094FD87
:1037C000BDE810400B2021F0BBBD10BD7C56002091
:1037D00010B500281FD001EB81004FF6FF7101EA00
:1037E00040010D4800F8452F0622427005228270E4
:1037F0008522C2700A0A02714171082100F8421C38
:10380000054845300DF0A8FD21F06EFDBDE81040E3
:103810000B2021F095BD10BD7C5600202DE9F04F06
:103820008BB00D4604007CD0697861F307002978DD
:1038300061F30F20E97880B261F30706A97861F39C
:103840000F26697961F30707297961F30F2726F0BD
:10385000F5FDDFF8D483414626F0A6FC6067B0B2E0
:1038600026F0ECFD414626F09FFCA06738B226F01A
:10387000CDFDEE4926F098FC2067E87A60F3070654
:10388000A87A60F30F26B0B226F074F90022E84B54
:1038900025F068FF25F078FEC4F88000E87B60F32F
:1038A0000707A87B60F30F2738B226F0AFFDC4F8F6
:1038B0008C0025F049F8A8B1206F26F0D5FBDD4A31
:1038C000DD4B26F0A7F90022DC4B25F08FFE25F01A
:1038D0005BFEDB492067884203DC4FF0844188426D
:1038E00000DA216724F0ECFE002500B96567207836
:1038F00004F12F01420704F1350B04F13C0A04F1F5
:1039000053090A9132D520F004002070A06F606145
:10391000206F26F0A9FBCDE90001CAA206210A9872
:1039200000E020E0FCF7E8FD606F26F09DFBCDE9AC
:103930000001C6A207215846FCF7DEFDA06F26F065
:1039400093FBCDE90001C1A207215046FCF7D4FD4D
:10395000D4F8800026F088FBCDE90001BBA2072146
:103960004846FCF7C9FD0BB0BDE8F08FA16FA06819
:1039700026F0A6FBA060616FE06826F0A1FBE06086
:10398000216F206926F09CFBDFF8C8822061464643
:10399000D4F88010D8F8000026F092FB3060204662
:1039A00000F084FFA06F6061617904F1BC000990B0
:1039B000183805900C3803901830A74E07904A2904
:1039C0007DD1E079401CC0B2E071032805D21CF023
:1039D00005FBB0F8C8000228F2D1E07926F02EFDF0
:1039E00007463946206926F0DFFB06903946E06835
:1039F00026F0DAFB04903946A06826F0D5FB029049
:103A00003946D8F8000026F0CFFB089024F066FE77
:103A100098B324F043FF022830D3307860B135707A
:103A2000039811F0A3F9059811F0A0F9079811F087
:103A30009DF9099811F09AF9DDE9021011F0C9F920
:103A4000DDE9041011F0C5F9DDE9061011F0C1F946
:103A5000DDE9081011F0BDF9079811F09DF9069005
:103A6000039811F099F90290059811F095F90490D6
:103A7000099811F091F9089002E0FFE701203070F9
:103A8000B4F8C80001280AD01CF09EFC074624F0B8
:103A900067FF401D874202D3704805702DE0204625
:103AA00002F0E4F848BB069826F0DEFACDE9000102
:103AB00064A206210A98FCF71FFD049800E022E0AA
:103AC00026F0D2FACDE9000160A207215846FCF7A2
:103AD00013FD029826F0C8FACDE900015BA2072188
:103AE0005046FCF709FD089826F0BEFACDE9000122
:103AF00056A207214846FCF7FFFCE571A560E5608A
:103B00002561C8F8005060790A287FF42CAFE0796D
:103B1000401CC0B2E0710328FFF425AF26F08EFCF4
:103B200007463946206926F03FFB06903946E06893
:103B300026F03AFB04903946A06826F035FB39465A
:103B400002904746D8F8000026F02EFB804624F06D
:103B5000C5FD98B324F0A2FE022830D3307860B1BE
:103B60003570039811F002F9059811F0FFF80798E5
:103B700011F0FCF8099811F0F9F8DDE9021011F0E4
:103B800028F9DDE9041011F024F9DDE9061011F03F
:103B900020F94146099811F01CF9079811F0FCF83A
:103BA0000690039811F0F8F80290059811F0F4F8D7
:103BB0000490099811F0F0F8804602E0FFE7012038
:103BC0003070204602F052F838BB069826F04CFAC6
:103BD000CDE900011BA206210A98FCF78DFC049890
:103BE00026F042FACDE9000118A207215846FCF759
:103BF00083FC029826F038FACDE9000113A20721D0
:103C00005046FCF779FC404626F02EFACDE900013B
:103C10000EA207214846FCF76FFCE571A560E56040
:103C200025613D609FE60000000020410000C84281
:103C300000002440CDCCCCCCCCCCFC3F000040409C
:103C400000000C4325352E316600000025362E314C
:103C500066000000885800204C580020545700206F
:103C600010B5002819D00D4800F8452F06224270E3
:103C7000052282701422C2700A0A02714171082161
:103C800000F8421C054845300DF066FB21F02CFB86
:103C9000BDE81040122021F053BB10BD7C5600201F
:103CA00010B500281AD00E4800F8451F06214170B3
:103CB000052181701521C1700021017179214171A7
:103CC000082100F8421C064845300DF045FB21F064
:103CD0000BFBBDE81040132021F032BB10BD0000EB
:103CE0007C56002010B5002819D00D4800F8452F4B
:103CF00006224270052282701022C2700A0A0271E6
:103D00004171082100F8421C054845300DF024FBA4
:103D100021F0EAFABDE81040122021F011BB10BDDD
:103D20007C56002070B50C4C0825294604F8450F38
:103D3000032060700520A0700020E070207106480C
:103D4000657104F8425D45300DF006FB2570BDE855
:103D500070400C2021F0F4BA7C5600200C4810B5BD
:103D600000F8451F03214170052181700021C170B9
:103D700001710821417100F8421C054845300DF0E1
:103D8000EBFA21F0B1FABDE81040082021F0D8BAD2
:103D90007C56002070B5002833D00023032405256D
:103DA000184808224A2902D00A2910D01CE04A21CA
:103DB00080F8451080F8464080F84750C02180F8D0
:103DC000481080F84930102180F84A100CE00A2190
:103DD00080F8451080F8464080F8475080F8483019
:103DE00080F8493080F84A20C270064811464530B4
:103DF0000DF0B2FA21F078FABDE87040022021F00F
:103E00009FBA70BD7C56002010B5002816D00C4813
:103E100000F8451F03214170052181700021C17008
:103E200001710821417100F8421C054845300DF030
:103E300093FABDE81040042021F082BA10BD0000C2
:103E40007C5600200D4810B500F8451F0321417035
:103E5000052181701021C170002101710121417182
:103E6000082100F8421C054845300DF075FA21F094
:103E70003BFABDE810400A2021F062BA7C560020CF
:103E800010B5002819D00D4800F8452F06224270C1
:103E9000052282700722C2700A0A0271417108214C
:103EA00000F8421C054845300DF056FA21F01CFA86
:103EB000BDE81040122021F043BA10BD7C5600200E
:103EC00010B500281FD001EB81004FF6FF7101EA09
:103ED00040010D4800F8452F0622427005228270ED
:103EE0008822C2700A0A02714171082100F8421C3E
:103EF000054845300DF030FA21F0F6F9BDE81040E4
:103F00000B2021F01DBA10BD7C56002010B50028F2
:103F10001FD001EB81004FF6FF7101EA40010D480F
:103F200000F8452F06224270052282708722C27057
:103F30000A0A02714171082100F8421C0548453007
:103F40000DF00AFA21F0D0F9BDE810400B2021F065
:103F5000F7B910BD7C56002070B520F055FE744CAA
:103F60000B2804F108056FD01FDC022850D004286C
:103F700073D008286AD1A079042867D110F0AEFE6A
:103F80001CF020F840795F2861D01CF021F8294608
:103F900024F0D4FF1CF016F840795F285AD01CF0AA
:103FA00017F8BDE8704002F062BB0C2815D012284B
:103FB00073D013284AD1E0799C2847D1207A512820
:103FC00044D110F08BFE1CF0B5FE03283ED1BDE8B5
:103FD00070400121022016F08DBBA079042835D154
:103FE0005F2001F091FB20F0C9FD1BF0EBFF407951
:103FF0005F280AD01BF0ECFF294600F013F91BF0F4
:10400000E1FFBDE8704000F0FFBA1BF0DBFFF3E713
:10401000A079042877D1E0790C2874D110F05EFEE5
:104020001BF0D0FF40795F280BD01BF0D1FF0C2292
:10403000294624F09AFF1BF0C5FFBDE8704000F050
:10404000C1BA1BF0BFFFF2E72BE006E05BE01BF01C
:10405000B9FF9CE71BF0B6FFA3E7A079042852D173
:10406000E0791C284FD110F039FE1BF0ABFF4079EE
:104070005F280FD01BF0ACFF294600F0D3F81BF0EF
:10408000A1FF40795F2809D01BF0A2FFBDE8704076
:1040900002F0E6BA1BF096FFEEE735E01BF092FF68
:1040A000F4E7A07910282ED1E0799C282BD110F0CC
:1040B00015FE1CF03FFE4F280FD008DC03280CD063
:1040C00042280AD0442808D04E281CD105E05028A8
:1040D00003D0512801D0522815D10121022016F019
:1040E00009FB1CF02DFE80681249006981601CF0FC
:1040F00027FE806810490069C1601CF021FE8068BD
:1041000004210069417170BDE0799C28FBD110F059
:10411000E5FD1CF00FFE41283FF459AF1CF00AFEEC
:104120005A28F9D01CF006FE4D28F5D070BD0000CD
:104130007C560020AFB70208B3B702081CB50C4686
:10414000002832D068460CF087FEDDE9000110F04F
:10415000A3FE164A5F2102F8451F102151709C21D1
:1041600091706621D17000211171042151710821D3
:104170009171010AD1711072010E5172000C90728E
:10418000200AD0721473200E5073200C90730748CD
:10419000112102F8421C45300DF0DEF821F0A4F8A0
:1041A000BDE81C400B2021F0CBB81CBD7C56002084
:1041B0001CB50C46002832D068460CF04DFEDDE9F7
:1041C000000110F069FE164A5F2102F8451F102118
:1041D00051709C2191706A21D170002111710421CC
:1041E000517108219171010AD1711072010E517241
:1041F000000C9072200AD0721473200E5073200CA1
:1042000090730748112102F8421C45300DF0A4F8C4
:1042100021F06AF8BDE81C400B2021F091B81CBDCC
:104220007C5600202DE9FE4F04007DD0487884F8AC
:104230007800087884F87900C87884F87A0088785B
:1042400084F87B00487904F8700F08796070C879A9
:10425000A0708879E070487A2071087A6071C87A15
:10426000A071887AE071487B2073087B6073C87BFB
:10427000A073887BE073487C2074087C6074C87CE1
:10428000A074887CE074487D2075087D6075C87DC9
:10429000A075887DE075487E2076087E6076C87EB1
:1042A000A076887EE076703C24F04EFBA8B1206FAB
:1042B00025F0DAFE6B4A6C4B25F0ACFC00226B4B10
:1042C00025F094F925F060F969492067884203DCFC
:1042D0004FF08441884200DA2167207804F12F07EB
:1042E000410704F1350604F13C0526D520F0040011
:1042F0002070A06F6061206F25F0B6FECDE900014F
:104300005CA206213846FCF7F7F8606F25F0ACFE9A
:10431000CDE9000159A207213046FCF7EDF8A06F66
:1043200025F0A2FE55A200E005E0CDE9000107213D
:104330002846FCF7E1F8BDE8FE8FA16FA06825F0E4
:10434000BFFEA060616FE06825F0BAFEE060216FFB
:10435000206925F0B5FE2061204600F0A7FAA06F85
:104360006061E079401CC0B2E0710328E3D326F01D
:1043700065F880464146206925F016FF02904146C7
:10438000E06825F011FF83464146A06825F00CFF48
:10439000824624F0A3F9DFF8EC904FF0000890B3C8
:1043A00024F07CFA02282FD399F8001004F1A4001D
:1043B00001904A460C3804F1B009009051B182F8DE
:1043C0000080009810F0D2FC019810F0CFFC484615
:1043D00010F0CCFC5146009810F0FBFC59460198B7
:1043E00010F0F7FC4846029910F0F3FC484610F034
:1043F000D3FC0290009810F0CFFC8246019810F098
:10440000CBFC834603E0FFE7012189F8001020463A
:1044100001F02CFCE8B9029825F026FECDE9000158
:1044200014A206213846FCF767F8584625F01CFE12
:10443000CDE9000111A207213046FCF75DF8504696
:1044400025F012FECDE900010CA207212846FCF759
:1044500053F884F80780C4F80880C4F80C80C4F8C6
:10446000108068E7CDCCCCCCCCCCFC3F00004040E9
:1044700000000C4325352E326600000025362E3212
:10448000660000004C58002010B500281BD00E48D4
:104490005F2100F8451F062141709C218170532146
:1044A000C1700021017101214171082100F8421CF5
:1044B000054845300CF050FF20F016FFBDE81040D5
:1044C000122020F03DBF10BD7C56002010B5002802
:1044D0001BD00E485F2100F8451F062141709C212A
:1044E00081705121C17000210171012141710821A8
:1044F00000F8421C054845300CF02EFF20F0F4FE79
:10450000BDE81040132020F01BBF10BD7C560020DA
:104510001CB50C46002832D068460CF09DFCDDE945
:10452000000110F0B9FC164A5F2102F8451F102166
:1045300051709C2191706E21D17000211171042164
:10454000517108219171010AD1711072010E5172DD
:10455000000C9072200AD0721473200E5073200C3D
:1045600090730748112102F8421C45300CF0F4FE0C
:1045700020F0BAFEBDE81C400B2020F0E1BE1CBDBF
:104580007C56002070B50E4C5F20082504F8450FBE
:10459000042060707520A0706920E07000202071F8
:1045A00006206071064804F8425C294645300CF04C
:1045B000D3FE04F8425CBDE870400C2020F0C0BE81
:1045C0007C56002010B500281BD00E485F2100F853
:1045D000451F04214170752181704421C170002163
:1045E000017102214171082100F8421C0548453043
:1045F0000CF0B2FE20F078FEBDE81040082020F05C
:104600009FBE10BD7C56002010B500281BD00E4860
:104610005F2100F8451F0421417075218170302110
:10462000C1700021017106214171082100F8421C6E
:10463000054845300CF090FE20F056FEBDE81040D5
:10464000022020F07DBE10BD7C56002010B5002851
:1046500019D00D485F2100F8451F042141707521D4
:1046600081706921C170002101710E214171082101
:1046700000F8421C044845300CF06EFEBDE81040C6
:10468000042020F05DBE10BD7C5600201CB50C46F9
:10469000002832D068460CF0DFFBDDE9000110F0A5
:1046A000FBFB164A5F2102F8451F102151709C2127
:1046B00091707221D1700021117104215171082172
:1046C0009171010AD1711072010E5172000C907239
:1046D000200AD0721473200E5073200C9073074878
:1046E000112102F8421C45300CF036FE20F0FCFD92
:1046F000BDE81C400B2020F023BE1CBD7C560020D2
:104700001CB50C46002832D068460CF0A5FBDDE94C
:10471000000110F0C1FB164A5F2102F8451F10216D
:1047200051709C2191706021D17000211171042180
:10473000517108219171010AD1711072010E5172EB
:10474000000C9072200AD0721473200E5073200C4B
:1047500090730748112102F8421C45300CF0FCFD13
:1047600020F0C2FDBDE81C40122020F0E9BD1CBDB8
:104770007C5600201CB50C46002832D068460CF050
:104780006BFBDDE9000110F087FB164A5F2102F8A0
:10479000451F102151709C2191707621D17000210C
:1047A00011710421517108219171010AD1711072A6
:1047B000010E5172000C9072200AD0721473200EF8
:1047C0005073200C90730748112102F8421C4530A9
:1047D0000CF0C2FD20F088FDBDE81C400B2020F04D
:1047E000AFBD1CBD7C5600201CB500282BD06846F0
:1047F0000CF032FBDDE9000110F04EFB124A5F21A4
:1048000002F8451F102151709C2191706421D170D4
:10481000002111710221517104219171010AD1719C
:104820001072010E5172000C907207480D2102F8AF
:10483000421C45300CF090FD20F056FDBDE81C40B8
:10484000122020F07DBD1CBD7C56002030B50346F3
:104850004FF6FF704AF201040CE013F8012B5040B0
:104860000022C50702D084EA500000E04008521C34
:10487000082AF6D3491E89B2EFD230BD30B50546BD
:104880000C46881E81B22846FFF7E0FF2919C3B203
:1048900011F8022C9A4206D111F8011CB1EB102F2D
:1048A00001D1012030BD002030BD00002DE9F047CE
:1048B000002504462F461CF03DFADFF8A09342285D
:1048C0007CD01CF037FA432878D01CF033FA4A2801
:1048D00074D01CF02FFA4B2870D01CF02BFA4C2807
:1048E0006CD01CF027FA5B2868D01CF023FA5C28F7
:1048F00064D01CF01FFA5D2860D01CF01BFA6228FF
:104900005CD01CF017FA5E2858D01CF013FA482827
:1049100054D01CF00FFA492850D01CF00BFA532841
:104920004CD01CF007FA582848D01CF003FA542841
:1049300044D01CF0FFF9552840D01CF0FBF9592851
:104940003CD01CF0F7F9562838D01CF0F3F94D286C
:1049500034D01CF0EFF94E2830D01CF0EBF94F2882
:104960002CD01CF0E7F9502828D01CF0E3F951288E
:1049700024D01CF0DFF9522820D01CF0DBF95F288E
:104980001CD01CF0D7F9602818D01CF0D3F961288E
:1049900014D01CF0CFF9452810D020F02FF9B04EDC
:1049A00010282BD200E009E0DFE800F01821484F82
:1049B000565D676E757C838A91989FA60FF0DEFF27
:1049C0004946D9F8040001F051F9002804D048689C
:1049D000017821F008010170BDE8F08723F0FEFCAA
:1049E0009F49183151F8205023F050FD05E023F085
:1049F00033FD56F8205023F089FD0746012FEBD1F7
:104A000020F0FCF8DFF854A26169AAF1040A00263C
:104A100090B3A06F25F062FE25F026FB002207462A
:104A20008846134625F0F4F97ED82671A078002830
:104A30007BD06078401C6070A670B5E023F006FD66
:104A400056F8205023F05CFDD7E723F0D4FC56F84D
:104A5000205023F028FDD0E723F0C6FC56F8205064
:104A600023F01AFDC9E723F0DFFC7D490C3151F832
:104A7000205023F033FDC0E745E023F0C3FC56F897
:104A8000205023F019FDB8E723F0B4FC56F820506D
:104A900023F008FDB1E723F093FC56F8205023F0F3
:104AA000E7FCAAE723F094FC56F8205023F0E8FC3A
:104AB000A3E723F07FFC56F8205023F0D3FC9CE7BB
:104AC00023F080FC56F8205023F0D4FC95E723F027
:104AD00093FC56F8205023F0E9FC8EE723F098FC75
:104AE00056F8205023F0EEFC87E723F0A9FC56F897
:104AF000205023F0FFFC80E723F09CFC56F8205068
:104B000023F0F2FC79E7606F25F0E8FD25F0ACFAC0
:104B100021F0004107468846524A534B25F03EF8A3
:104B200005D86078401C01E035E029E060709AF813
:104B30000100401CC0B28AF8010023F0D3FF23F02B
:104B400021FC25F07BFC294625F0F0FB06D03846F9
:104B50004146464A464B25F05BF905D28AF801608A
:104B6000002023F0BFFF66704249284625F0AEFCC6
:104B70006FF0010125F08CFE25F028FCC0B223E087
:104B8000E078401CC0B2E0700328FFF455AF6670B7
:104B9000E670267150E7E670A07801282BD0607887
:104BA000401C60700120A070284625F05DFA024686
:104BB00028F000450B463846294625F029F902D849
:104BC0006670E6702671032061788142FFF404AFBD
:104BD000667023F0DFFDD8B32078000738D4D9F809
:104BE000040061794D46407988420ED120F006F8E4
:104BF0001EF07CF928E02079401CC0B22071032807
:104C0000D0D36670E6702671CCE7144E083606F1F4
:104C10000807706842798A420AD168603078287043
:104C20001FF0ECFF1EF062F97868686038780AE0DF
:104C300078686860387828701FF0E0FF1EF056F939
:104C400070686860307828700121084615F052FDC0
:104C5000207840F008002070BEE600005058002088
:104C6000D0CB0208FA7E6ABC7493583F7B14AE47DF
:104C7000E17A743F0000404070B51FF0C5FFA54CBD
:104C8000801E04F1080512287ED2DFE800F01AB871
:104C90006CAE8DAE36AEAEA809AE4CAEAEAEFEFD7D
:104CA000A079042870D1602000F02EFD1FF066FF6F
:104CB0009948002101701BF085F9BDE8704000F0B3
:104CC00099BBA07904285FD1E0790C285CD110F061
:104CD00005F81BF077F9407960280BD01BF078F9C4
:104CE0000C22294624F041F91BF06CF9BDE8704014
:104CF00000F05EBB1BF066F9F2E7A079042874D1DE
:104D0000E079022871D10FF0E9FF1BF05BF94079DF
:104D1000602805D01BF05CF9294624F00FF9F6E075
:104D20001BF050F9F8E7A07903285ED10FF0D6FF09
:104D30001BF048F9407960280FD01BF049F929464B
:104D400000F0F4F81BF03EF94079602808D01BF021
:104D50003FF9BDE8704001F08ABC1BF033F9EEE783
:104D60001BF030F9F5E7A07904283ED1E079082856
:104D70003BD10FF0B3FF1BF025F94079602807D035
:104D80001BF026F9294600E02FE000F0D7F81DE0DF
:104D90001BF018F9F6E71BF015F901E01BF018F904
:104DA000BDE8704001F05CBCA07904281DD1E07919
:104DB00004281AD10FF092FF1BF004F94079602803
:104DC0000AD01BF005F9294600F000FA1BF0FAF8AA
:104DD00040796028E2D1DEE71BF0F4F8F3E7A07930
:104DE000102802D1E0799C285BD070BD1BF0EAF856
:104DF00001E01BF0EDF8BDE8704000F079BAA07951
:104E0000042504280AD1607A01282BD0062848D02E
:104E1000072846D0082844D0092842D00FF05EFF6A
:104E20001BF088FF5E2801D06228DED1012102201C
:104E300015F060FC1BF084FF806838490069006948
:104E4000006981601BF07CFF80683549006900695A
:104E50000069C1601BF074FF806800690069006927
:104E6000457170BD0FF03AFF1BF064FF5E2801D062
:104E70006228F6D10121022015F03CFC1BF060FFF6
:104E800080680069006901E026E012E000692549B8
:104E900081601BF055FF8068234900690069006943
:104EA000D7E70FF01BFF1BF08DF840796028A0D1E9
:104EB0009CE7E0799C28D4D10FF010FF1BF03AFF5B
:104EC000412803D01BF036FF3428CAD1BDE870401A
:104ED0000121022015F00EBCE0799C28C1D1207A76
:104EE0005128BED10FF0FAFE1BF024FF032803D196
:104EF0000121022015F0FEFB1BF064F840796028C8
:104F000005D01BF065F8BDE8704000F013BA1BF047
:104F100059F8F8E77C5600202C550020C3B702084A
:104F2000BEB70208AFB70208B3B70208002804D022
:104F30004A7800F86C2F0978417070472DE9F04FDE
:104F400085B004006DD0487884F87800087884F83B
:104F50007900C87884F87A00887884F87B004879EA
:104F600084F87000087984F87100C87984F87200B8
:104F7000887984F873000026666723F0E5FCA8B101
:104F8000206F25F071F8844A844B24F043FE002200
:104F9000834B24F02BFB24F0F7FA824920678842E8
:104FA00003DC4FF08441884200DA21672078DFF883
:104FB000F8A104F13C01420704F12F0804F1350780
:104FC000CAF1000B04913FD520F004002070A06FBF
:104FD0006061206F25F048F8CDE9000173A2062139
:104FE0004046FBF789FA606F25F03EF8CDE90001F5
:104FF0006EA207213846FBF77FFAA06F10F1FF4F32
:1050000001D2504504DB00EB0B01B1F1D47F0BD290
:1050100025F02AF8CDE9000166A207210498FBF7E4
:105020006BFA05B0BDE8F08F6449421864498A42C2
:10503000F7D225F0CBF90346049805B061A2BDE88C
:10504000F04F0721FBF758BAA16FA06825F038F898
:10505000A060616FE06825F033F8E060216F20699F
:1050600025F02EF820612046FFF720FCA06F60613C
:10507000E079401CC0B2E0710328D2D325F0DEF9FC
:1050800005462946206925F08FF801902946E068F9
:1050900025F08AF802902946A06825F085F8054693
:1050A00023F022FBDFF8209188B323F0FDFB0228D8
:1050B0002ED399F8001004F1A40003904A460C384E
:1050C00004F1B009009049B1167000980FF04EFE3F
:1050D00003980FF04BFE48460FF048FE2946009813
:1050E0000FF077FEDDE902100FF073FE48460199DC
:1050F0000FF06FFE48460FF04FFE019000980FF042
:105100004BFE054603980FF047FE029003E0FFE7D1
:10511000012189F80010204600F0A8FD38BB019855
:1051200024F0A2FFCDE9000120A206214046FBF7B2
:10513000E3F9029824F098FFCDE900011BA20721B2
:105140003846FBF7D9F915F1FF4F01D2554504DB7D
:1051500005EB0B00B0F1D47F0AD2284624F084FF7F
:10516000CDE9000113A207210498FBF7C5F90DE072
:10517000124829181248814208D2284625F026F9FB
:10518000034610A207210498FBF7B6F9E671A66062
:10519000E660266145E70000CDCCCCCCCCCCFC3F12
:1051A0000000404000000C430000204125352E3215
:1051B0006600000025352E3166000000000038BD75
:1051C00000A04403253564004C5800201CB50400A1
:1051D00019D0487884F87C00087884F87D00C87875
:1051E00084F87E00887884F87F000749E06F25F016
:1051F0006DF924F039FFCDE9000104A2082104F182
:105200004B00FBF779F91CBD00007A4425352E329E
:105210006600000010B500281BD00E48602100F881
:10522000451F062141709C2181705121C1700021D0
:10523000017101214171082100F8421C05484530E7
:105240000CF08AF820F050F8BDE81040132020F050
:1052500077B810BD7C5600207CB50C46050044D0C4
:1052600068460BF0F9FDDDE900010FF015FE1F4A5D
:105270006023102182F8453082F84610B5F86C1092
:105280009C25B1F5807F2BD0A1F57063FF3B04D145
:1052900082F84750682182F84810002102F8491F1F
:1052A0000421517008219170010AD1701071010E12
:1052B0005171000C9071200AD0711472200E50723E
:1052C000200C90720948112102F8461C45300CF060
:1052D00043F820F009F8BDE87C400B2020F030B8FE
:1052E00082F8475082F84830D7E77CBD7C560020D2
:1052F00010B500281BD00E48602100F8451F04217E
:105300004170752181706621C170002101710121F8
:105310004171082100F8421C054845300CF01CF88A
:105320001FF0E2FFBDE81040032020F009B810BDD7
:105330007C56002010B500281BD00E48602100F8D4
:10534000451F032141709C2181704E21C1700021B5
:10535000017101214171082100F8421C05484530C6
:105360000BF0FAFF1FF0C0FFBDE810400E201FF049
:10537000E7BF10BD7C5600200C4810B5602100F836
:10538000451F04214170752282706922C27000227B
:1053900002714171082100F8421C044845300BF0AD
:1053A000DBFFBDE810400C201FF0CABF7C56002078
:1053B00010B500281BD00E48602100F8451F0421BD
:1053C0004170752181704521C17000210171012159
:1053D0004171082100F8421C054845300BF0BCFF24
:1053E0001FF082FFBDE8104008201FF0A9BF10BDCC
:1053F0007C56002010B500281BD00E48602100F814
:10540000451F04214170752181703021C170002138
:10541000017106214171082100F8421C0548453000
:105420000BF09AFF1FF060FFBDE8104002201FF054
:1054300087BF10BD7C56002010B5002818D00D483D
:105440006021752200F8451F042141708270692295
:10545000C270002202714171082100F8421C054807
:1054600045300BF079FFBDE8104004201FF068BF05
:1054700010BD00007C56002010B5002819D00D4842
:10548000602100F8451F0421417075218170782149
:10549000C1700021017102214171082100F8421CF4
:1054A000044845300BF058FFBDE8104006201FF0BF
:1054B00047BF10BD7C56002010B500281AD00E48FA
:1054C000602200F8452F062242709C2282704E22F4
:1054D000C2700A0A02714171082100F8421C064894
:1054E00045300BF039FF1FF0FFFEBDE810401220E1
:1054F0001FF026BF10BD00007C5600207CB50C4676
:10550000050043D068460BF0A7FCDDE900010FF071
:10551000C3FC1F4A60219C2382F84510102182F8A9
:105520004610B5F86C10B1F5807F2BD0A1F57065F1
:10553000FF3D04D182F847306C2182F848100021E9
:1055400002F8491F0421517008219170010AD1709D
:105550001071010E5171000C9071200AD0711472FB
:10556000200E5072200C90720948112102F8461C3E
:1055700045300BF0F1FE1FF0B7FEBDE87C400B207C
:105580001FF0DEBE82F847306421D6E77CBD000004
:105590007C56002010B5002827D0144A40F8701F10
:1055A000602102F8451F102151709C2191705721F4
:1055B000D170002111710221517104219171417842
:1055C000D17101781172C178517280789072074858
:1055D0000D2102F8421C45300BF0BEFE1FF084FE88
:1055E000BDE8104012201FF0ABBE10BD7C5600205D
:1055F0004FF461710148FBF7F8B80000B278002061
:1056000010B50E4C6421207820F00700207004F1C2
:105610002800FBF70CF90020C4F80500C4F80900C5
:10562000A4F80D00E07320616061A061A4F803009C
:10563000E06120626062A4F8010010BD58570020AC
:105640000248002101614161816170475857002083
:1056500064210148FBF7EBB8805700200248002185
:10566000C1610162416270475857002001481BF038
:1056700049BB0000B85500200D48A0F19802C16850
:105680009161002905D00878430703D540F0010057
:105690000870704790690069906103785B0704D5D2
:1056A000017841F00101017070478142F2D17047E9
:1056B000B8550020014805F0FEBE0000085B002040
:1056C000014805F0F8BE0000805A0020014805F0AE
:1056D000F2BE0000C45A002030B590F8404004F0FB
:1056E0001C050124AC40C56B6C60046863604368B2
:1056F000102B036803D099600068C26030BD9A60C7
:105700000068C16030BD00002DE9F0470646102555
:10571000D020FAF7C7FD04007DD00027C4F89870A8
:1057200004F18000C4F89C70C4F8A07047628762DE
:10573000C7620763476387634D2E6DD01EDC1D2E45
:105740006BD00EDC092E69D006DC012E43D0032E6F
:105750007ED0052E7DD1E1E10A2E0ED00D2EF9D19D
:105760005DE02A2E76D004DC212E17D0222EF1D136
:10577000CDE0342E74D04A2EECD11FE1A6F14E00BC
:10578000142866D2DFE800F04965650A6565658919
:10579000656565650A4B276CC3FDE0FE3346F7A2DD
:1057A000062104F12700FAF7A7FE002522F0A2FF48
:1057B00000284ED023F07EF8014604F198000FF047
:1057C000F5FA23F077F8014604F1A4000FF0EEFAA1
:1057D00023F070F81BE03346EAA2062104F127000B
:1057E000FAF78AFE012522F0C3FF0028E1D023F05A
:1057F0009FF8014604F198000FF0D8FA23F098F8CA
:10580000014604F1A4000FF0D1FA23F091F801460B
:1058100004F1B000F9E027E128E144E15AE0334621
:10582000DAA2072104F12700FAF766FE022522F02A
:1058300099FF0028BDD023F075F8014604F19800C7
:105840000FF0B4FA23F06EF8014604F1A40002E070
:1058500006E0C2E044E10FF0A9FA23F063F8D6E7CE
:105860003346CDA2072104F12700FAF745FE0425AF
:1058700022F046FF00289CD023F022F8014604F1D4
:1058800098000FF093FA23F01BF8014604F1A400EE
:105890000FF08CFA23F014F8B9E73346C0A20721C1
:1058A00004F12700FAF728FE0F2522F04FFF002809
:1058B0009CD023F02BF8014604F198000FF076FA03
:1058C00023F024F8014604F1A4000FF06FFA23F04E
:1058D0001DF89CE73346B5A2072104F12700FAF72B
:1058E0000BFE052522F02CFF002876D023F008F8C7
:1058F000014604F198000FF059FA23F001F801462F
:1059000004F1A4000FF052FA22F0FAFF7FE73346C9
:10591000A9A2082104F12700FAF7EEFD062522F0DE
:10592000FDFE002873D022F0D9FF014604F1980053
:105930000FF03CFA22F0D2FF014604F1A4000FF070
:1059400035FA22F0CBFF62E733469EA2072104F12D
:105950002700FAF7D1FD092522F0C6FEE8B322F0B0
:10596000A3FF014604F198000FF020FA22F09CFFFB
:10597000014604F1A4000FF019FA22F095FF46E762
:1059800000E01BE0334692A2072104F12700FAF75A
:10599000B3FD0A2522F09AFEF8B122F077FF014606
:1059A00004F198000FF002FA22F070FF014604F1B2
:1059B000A4000FF0FBF922F069FF28E7334687A225
:1059C000072104F12700FAF797FD0B2522F086FE48
:1059D00018B122F063FF014600E018E004F19800DE
:1059E0000FF0E4F922F05AFF014604F1A4000FF091
:1059F000DDF922F053FF014604F1B0000FF0D6F9B3
:105A000022F04CFF014604F1BC000FF0CFF984F8FE
:105A1000667020784FF0300820F00B0040F0040052
:105A200020706671A76767674FF02E092767612EA0
:105A300073D03146204601F039FE204601F076FE53
:105A4000202084F82F0084F8308084F8319084F886
:105A50003280654884F8338084F8347041680029C6
:105A600079D0103044600570BDE8F08733465FA2FE
:105A7000082104F12700FAF73FFD0C2522F048FE2B
:105A80000028C4D022F024FF014604F198000FF052
:105A90008DF922F01DFF014604F1A4000FF086F9F4
:105AA00022F016FFB3E6334653A2082104F1270083
:105AB000FAF722FD0D2522F037FE0028A7D022F0AC
:105AC00013FF014604F198000FF070F922F00CFF6B
:105AD000014604F1A4000FF069F922F005FF96E6F3
