:020000040800F2
:10000000C09E00203D0200081D10010815EA0008EE
:10001000ADFF0008AD2F0008FD43010800000000FF
:10002000000000000000000000000000652B010837
:1000300035A1000800000000A52801089131010841
:10004000570200085702000857020008570200082C
:10005000570200085702000857020008570200081C
:10006000570200085702000857020008570200080C
:10007000570200088D5E000857020008995E0008CC
:10008000A55E000857020008570200085702000842
:1000900057020008570200085702000857020008DC
:1000A00057020008570200085702000857020008CC
:1000B0006D37010857020008570200085702000870
:1000C00057020008570200085702000857020008AC
:1000D00057020008F14201080943010821430108C1
:1000E000570200085702000857020008570200088C
:1000F00057020008000000005702000857020008DD
:10010000570200085702000857020008570200086B
:1001100057020008570200085702000800000000BC
:100120005702000800F002F800F078F80AA090E802
:10013000000C82448344AAF10107DA4501D100F0A2
:100140006DF8AFF2090EBAE80F0013F0010F18BFF7
:10015000FB1A43F0010318479C020300BC02030092
:1001600010F8013B0A4413F0030408BF10F8014BD8
:100170001D1108BF10F8015B641E05D010F8016B5B
:10018000641E01F8016BF9D1002D15D010F8014B58
:1001900003F00C030C2BA1EB04040ABF10F8013B85
:1001A000A4EB8314A4EB032405F1010314F8016B01
:1001B0005B1E01F8016BF9D5914238BF10F8013B85
:1001C000D1D370470023002400250026103A28BF11
:1001D00078C1FBD8520728BF30C148BF0B607047B9
:1001E00066292DF09186642900F0C88100207047AF
:1001F0001FB59DE8030000F061FB00F0B7FE0400AE
:10020000002000212CF048FD401C606000200021EF
:100210002CF02CFDE0601FBD10B510BD00F0F0FF0C
:100220001146FFF7E5FF26F011F901F093FA03B448
:10023000FFF7F2FF03BC01F003FB00000948804711
:1002400009480047FEE7FEE7FEE7FEE7FEE7FEE7B8
:10025000FEE7FEE7FEE7FEE704480549054A064BD0
:10026000704700001132010825010008C07E0020FF
:10027000C09E0020C08E0020C08E002070B5A0FB64
:100280000140B4F1805170F1000024BF002070BD26
:10029000204600F007F805001CBF214600F0A5FA33
:1002A000284670BD70B5064600F0ECFA056806F108
:1002B0000B0020F00704B4429CBF002070BD2B4609
:1002C0006A68BAB11068A04210D304F108018842EC
:1002D0003CBF5068586007D35168101941601168DD
:1002E000091B016058601460101D70BD13465268F0
:1002F000002AE7D12146284600F0CCFA0028DED1BA
:1003000070BD70B50446051F00F0BCFA0068002CF3
:1003100014BF446870BD002C18BFAC423CBF2046DF
:100320006468F8D301680A18AA4218BF456003D16F
:100330002A6805461144016028684119A1421CBF82
:100340006C6070BD6168696021680844286070BD98
:1003500070B50D460646041F00F094FAD0F800C0B0
:10036000C5B1E6B105F10B0020F00703AB423CBF7D
:10037000002070BD2068984238BFDCF8042013D3F9
:10038000C11A08292FD3E01840F8041B2360FFF797
:10039000B8FF28E03046FFF7B4FF002070BD2846C4
:1003A000BDE87040FFF77EBF002A18BFA2423CBFE5
:1003B00094465268F8D30119914216D11168084445
:1003C000984212D3C11A08293CBF2060506808D354
:1003D0005168E0184160216812681144C91A01602F
:1003E0002360CCF80400201D70BD181FFFF75AFFD2
:1003F000050007D021680A1F211D00F081FD201D86
:10040000FFF77FFF284670BD53EA020C00F06980B9
:100410002DE9F04B4FF00006002B1FBFB3FA83F518
:1004200003FA05F424FA05F65E4012BF1643B2FA49
:1004300082F502FA05F4C5F120051EBF22FA05FC7B
:1004400044EA0C04203556EA044C4FEA144418BF21
:10045000641C4FF000084FF00009904271EB030C50
:1004600039D3002919BFB1FA81F701FA07F6B0FABA
:1004700080F700FA07F6C7F120071EBF20FA07FC35
:1004800046EA0C062037B6FBF4FCA7EB0507103F45
:1004900007F01F0BCBF120060CFA0BFB2CFA06F62B
:1004A00044BFB3460026202FA4BF5E464FF0000B8A
:1004B0005BEA060C08BF4FF0010B19EB0B09ABFB15
:1004C000027C48EB0608C01B06FB02CC0BFB03CCEE
:1004D00071EB0C01C1E70B46024641464846BDE8B8
:1004E000F08B13B54FF000004FF00001AFF3008028
:1004F000BDE81C40704700000FB41CB50C0007AAF3
:10050000009001D02044401E074B7B446946019077
:10051000069800F082FC002C03D06946002000F011
:100520008FFC1CBC5DF814FB3D09000070B504464F
:1005300085690068C10601D5302600E02026C00785
:1005400007D070BDD4E9012130469047206A401C95
:1005500020626D1EF6D570BD70B5044685690078C1
:10056000C00707D170BDD4E9012120209047206A3F
:10057000401C20626D1EF6D570BD00002DE9F041D3
:100580000646002410687529314616A510D0AFF331
:100590000080002802DA404213A507E031688A078C
:1005A00001D512A502E0490704D511A5012401E0F7
:1005B000AFF3008000210A2206F1240709E0B0FB16
:1005C000F2FCB0FBF2F302FB1C003030785418460A
:1005D000491C0028F3D123462A463046BDE8F041A5
:1005E00000F0ADB9000000002D0000002B0000005D
:1005F000200000002DE9F05F894604464FF0000A14
:10060000DFF824B1FB44C0F820A02046E168884709
:1006100000287DD0252806D0D4E901219047206A02
:10062000401C2062F1E700255F462046E1688847CC
:100630002028064607DB312E05D2B81910F8200C09
:1006400008B10543F1E7A80701D525F00405C4F872
:100650001CA00027C4F818A02A2E09D0304614F098
:1006600068F938B304EB8708303EC8F8186019E021
:1006700059F8041B204604EB87029161E168884722
:10068000012F064618D1E069002820DA25F0200560
:100690001DE0D8F8180000EB800006EB4000303871
:1006A000C8F818002046E1688847064614F041F96A
:1006B0000028EED1012F0AD02E2E08D12046E16865
:1006C00088477F1C0646022F45F02005C4DBA06941
:1006D000002803DA404245F00105A061E80701D097
:1006E00025F01005A6B1A6F14100192802D8203640
:1006F00045F400654A463146204625604D46FFF7E1
:100700006FFD60B1012807D0ED1D25F0070000E066
:1007100007E000F1080978E705F1040975E73046BC
:100720007AE7206ABDE8F09F44FD020030B5054637
:100730000B462A4613F8014B12F8010B08B1A042F0
:10074000F8D01CB1002802D06D1CF1E7284630BD5E
:10075000032A40F2308010F0030C00F0158011F8ED
:10076000013BBCF1020F624498BF11F801CB00F8C5
:10077000013B38BF11F8013BA2F1040298BF00F819
:1007800001CB38BF00F8013B11F0030300F0B88340
:10079000083AC0F0088051F8043B083A51F804CBFD
:1007A000A0E80810F5E7121D5CBF51F8043B40F8C3
:1007B000043BAFF30080D20724BF11F8013B11F8CE
:1007C00001CB48BF11F8012B24BF00F8013B00F812
:1007D00001CB48BF00F8012B704702F0FF0343EA4A
:1007E000032242EA024200F002B84FF0000204295C
:1007F000C0F0128010F0030C00F01B80CCF1040C50
:10080000BCF1020F18BF00F8012BA8BF20F8022B83
:10081000A1EB0C0100F00DB85FEAC17C24BF00F829
:10082000012B00F8012B48BF00F8012B70474FF057
:10083000000200B5134694469646203922BFA0E830
:100840000C50A0E80C50B1F12001BFF4F7AF09073C
:1008500028BFA0E80C5048BF0CC05DF804EB89002D
:1008600028BF40F8042B08BF704748BF20F8022B70
:1008700011F0804F18BF00F8012B70477047704788
:100880007047000000487047687E0020704770473E
:100890007047704738B504460A4600206946AFF3F2
:1008A0000080002808BF38BD02460099204600F0AD
:1008B00065FB012038BD012000F09ABCF8B5AFF30C
:1008C0000080054600200C46102000BF0646A819EF
:1008D000A0420DD9324669460020AFF300800700E0
:1008E00008BF00F085FC0098A04218BF0546C41957
:1008F000FFF7C8FF05600746F01D20F00700461906
:10090000284600F00AF8B44208BFF8BDA21B3146E1
:100910003868BDE8F84000F031BB00210160C0E953
:10092000011070471020704710B500F023FB0068DD
:1009300010BD10B5044600F01DFB046010BD2DE98C
:10094000F0470D4699469246044600F12408016896
:10095000880604D5E06921F01001216000E0012043
:10096000A84201DD471B00E00027A1697A1902EBCC
:100970000900081AA0612078C00602D42046FFF7BB
:10098000D5FD002608E0D4E901211AF806009047B9
:10099000206A401C761C20624E45F4DB2078C0069D
:1009A0000AD52046FFF7C2FD06E0D4E90121302038
:1009B0009047206A401C2062381EA7F10107F4DC32
:1009C00007E0D4E9012118F805009047206A401C8F
:1009D0002062281EA5F10105F3DC2046FFF7BCFDCF
:1009E0002078000602D50220BDE8F0870120FBE751
:1009F00070472DE9FF4F0C461E464FF0FF378BB076
:100A0000D2E90001DDF860800A908A46C1F30A55F8
:100A100005B93D46002108464FF00000BAF1000F2D
:100A200000F4400005DA00EB80004FF4400101EAD9
:100A300050004FEA9059B9F1010F00DDB9460A980C
:100A400050EA4A000ED044F61050A5F2FF35454357
:100A50002F14B8F1000F1ED07542291E1EDDC9F1FA
:100A600000021CE0B8F1010F4FF0000001D030216E
:100A700003E0F24305E02154401CB042FBDB30466A
:100A80000022002121540B99C1F80880C1E90020FF
:100A90000FB0BDE8F08FBD1B6D1CDEE74A4600DAE3
:100AA000694206A800F032FB06AB93E8070003ABEF
:100AB00083E8070050460A9901F033F98DE80700F2
:100AC000A0F500501F3800900398002D0ADD42F277
:100AD0001F014A460844002303A90390684601F019
:100AE000DFFB09E0A0F500504A461F38002303A9A8
:100AF0000390684601F0FEFB8DE807000004000C3F
:100B000003D04FF0FF30410800E01046B8F1000F6D
:100B100003D00022009215461EE0751E05D400F099
:100B200047FA303262556D1EF9D5B34601220843AB
:100B300002D000227F1C04E02078302801D100225E
:100B40007F1E002A099784D01DE0112D07DA00F0DE
:100B50002FFA303262556D1C50EA0102F5D108437C
:100B600002D00098C8B10EE00021681E05E0235CA9
:100B7000625C63542254401E491C8142F7DBAB4641
:100B8000A81B401E0990002004F80B000B98099A3E
:100B9000C0F80880C0E9002B7AE711264FF0000862
:100BA00057E72DE9F04F88460446D21D22F0070191
:100BB00091B0D1E90001CDE90A0113F015FE02461A
:100BC0000B98C00F01D02D2007E02068810701D5C8
:100BD0002B2002E0202101EAC000032A099001D065
:100BE000072A05DB03464146204600F02FFA0BE1B9
:100BF0002078800601D5E06900E00620B8F1650F95
:100C0000814606D0B8F1660F18D0B8F1670F70D1E1
:100C100031E00020B9F1110F009001DB112301E058
:100C200009F101030AAA01A90CA8FFF7E2FEDDE918
:100C30000C70002609F10105834647E001204B4670
:100C400000904FF000470AAA01A90CA8FFF7D1FEB7
:100C5000DDE90DB00C995D46002610B909F10100DF
:100C60000D18B9EB050003D4C0F1FF3609F10105F9
:100C7000A5EB09002BE0B9F1010F01DA4FF00109F2
:100C80000020B9F1110F0090484601DD112300E06A
:100C900003460AAA01A90CA8FFF7ABFEDDE90C7018
:100CA0004D4600268346207800070AD4AB4500DA7B
:100CB0005D4601A8012D04DD411911F8011C302900
:100CC00007D04F4502DA17F1040F04DA01208246FB
:100CD0000FE06D1EEEE7002F02DCED1B3E4403E04B
:100CE000781CA84200DD7D1CB81B00F1010A4FF002
:100CF00000472078000703D4AA4501DB4FF0FF3AF4
:100D00000021B7F1004F0DF143088DF8431024D0B6
:100D100002202B23002F01DA7F422D230A21021EFD
:100D2000A0F1010000DC5FB197FBF1FC97FBF1F251
:100D300001FB1C7C17460CF1300C08F801CDEEE7E6
:100D4000A8F1010003702188090501D5452100E0C3
:100D50006521A0F1010800F8011C09980FA9A1EB79
:100D60000807FF1D00B10120411901EBEA70A169DC
:100D70003844081A401EA0612078C00602D42046DC
:100D8000FFF7D4FB099828B1D4E901219047206AE4
:100D9000401C20622078C00622D52046FFF7C6FB03
:100DA0001EE0002E04DBB34502DD01A8805D00E0FB
:100DB0003020D4E901219047206A401C2062761C33
:100DC000AAF101005FEA000A0AD100F0CFF8C0687A
:100DD0000168405CD4E901219047206A401C2062F0
:100DE000281EA5F10105DCDC07E0D4E9012118F893
:100DF000010B9047206A401C2062381EA7F10107B2
:100E0000F3DC2046FFF7A8FB032011B041E6000009
:100E100001694A1C02610878704700B58FB0CDE9BE
:100E200001310021059105497944CDE903101146AE
:100E30006846FFF7DFFB0FB000BD0000E5FFFFFFD6
:100E40000A6802F8010B0A607047D1E900239A4250
:100E500002D2531C0B601070704700000FB40023C7
:100E600000B589B00CA900910B99CB60214B7B4454
:100E70000693214B7B44079304236FF00042CDE996
:100E800001321E4A7A446B460892024600202DF039
:100E9000C3F809B05DF814FB70B506464FF0FF309B
:100EA00015460C46324686B00091CDE901016946EF
:100EB0000020049004A8FFF7D1FF024604982118EF
:100EC00025B108B1084600E02046286004980028B3
:100ED0000DD0002A02DD0098884208D03246081B57
:100EE00069460094CDE9010404A8FFF7B7FF06B0F6
:100EF00070BD00005B02000073020000B30100003F
:100F000010B5203AC0F00B80B1E81850203AA0E8A4
:100F10001850B1E81850A0E81850BFF4F5AF5FEAD8
:100F2000027C24BFB1E81850A0E8185044BF18C98B
:100F300018C0BDE810405FEA827C24BF51F8043B32
:100F400040F8043B08BF7047D20728BF31F8023B86
:100F500048BF11F8012B28BF20F8023B48BF00F81A
:100F6000012B704700487047607E002000487047A2
:100F7000807E002000487047607E00200346406865
:100F80008C46002818BF88423CBF03464068F8D30F
:100F900018681844884207D00CF1030020F00700BD
:100FA000001D411A521A0146081D0A60FFF7A9B92F
:100FB00030B5B0F10A024FEA900E71F100034EEA2B
:100FC000817EB0EB0E0061EB91014FEA101E4EEAFC
:100FD000017E10EB0E0041EB11114FEA102E4EEA8C
:100FE000016E10EB0E0041EB11214FEA104E4EEA5C
:100FF000014E10EB0E0041EB1141401841F1000190
:101000004FEAD00040EA41704FEAD10110EB800571
:101010004FEA810444EA907444EB01046D1944EBF7
:101020000404521BA3414FF0000348BF0A3200D50D
:1010300030BD401C41F1000130BD10B5044600F048
:1010400005F90068005D00F0010010BD2DE9F041D8
:101050001F46044603260168072A01F4006004DBEA
:1010600008B116A505E016A503E008B115A500E036
:1010700015A521F010002060A069C01EA0610FB16D
:10108000401EA0612046FFF751FA4FB1D4E901217B
:1010900038469047206A401C2062C01C206206E04F
:1010A000206AFAE7D4E9012115F8010B9047761E72
:1010B000F8D22046FFF750FABDE8F0814E414E00CD
:1010C0006E616E00494E4600696E6600426842B12C
:1010D000016811F8013B23B1521EC0E90012184605
:1010E00070470121C160881E704742685AB1C368C9
:1010F000016843B983688B4205D0491E521CC0E980
:101100000012002070474FF0FF3070472DE9F04784
:10111000814616468AB0354878440DC88DE80D00E2
:1011200032487844801C03AC0DC884E80D0041F6B9
:101130009B300844372190FBF1F290FBF1F5A5F1CB
:10114000800501FB12041B3C02D56442012000E033
:101150000020DFF898A080460027FA44AAF1BE0AD2
:101160000EE0E0070AD03246684607EB470101234C
:101170000AEB810101F0BEF88DE8070064107F1CC6
:10118000002CEED1194F7F44AE3F19E0E80715D08F
:1011900007EB04100DF1180A90E80E008AE80E0023
:1011A000C068F04201D1981908903246012306A97F
:1011B00003A801F09FF803AB83E807006D10641CDF
:1011C000002DE3D14FF0010332466946B8F1000F1C
:1011D00003A802D001F064F801E001F08BF8C9E93E
:1011E0000001C9F808200AB0BDE8F087C0F202008B
:1011F00010B500F0BDFABDE8104000F0B4BA704779
:101200007546FFF7AFFEAE4605006946534620F02F
:101210000700854618B020B5FFF71EF8BDE820404E
:101220004FF000064FF000074FF000084FF0000BA2
:1012300021F00701AC46ACE8C009ACE8C009ACE855
:10124000C009ACE8C0098D467047000010B5FFF733
:101250008DFE001D10BD00BF41BA02002DE9FF4FF9
:1012600006468BB00878FF2806D0491C2D2805D0EB
:1012700000244FF0000908E000200CE00124F8E70A
:1012800009EB8903491C00EB43090878FF28F7D1D3
:1012900014B1C9F100008146107800252C46AA46F9
:1012A00029462D2801D02B2804D1521C2D2813D0DB
:1012B000002082468B461078FF280FD04FF0000C9C
:1012C0000A21521CA5FB017804FB018105FB0C11CE
:1012D000C5194BEB0104EEE70120EAE700210846BF
:1012E0004FF00000BAF1000F02D000EB8000400880
:1012F000C0F38157012F01DD4FF0FF370E9955EAFA
:10130000040009EB01080BD04FF0020918F5FA7F31
:1013100016DA4FEACA70002F706008DD012007E07E
:101320004FEACA70C6E900B00FB0BDE8F08F0020E8
:101330003060FFF71FFEC0F800901821084616E045
:10134000B8F5FA7F18DD002F02DAF748784401E09B
:10135000F6487844D0E90010C6E9001040EACA70A7
:101360007060FFF707FEC0F80090142108460FB028
:10137000BDE8F04F2CF0C5BD002108464FF000003D
:10138000B8F10001099002DAC7F1000200E03A4624
:1013900001DAC8F1000106A8FFF7B8FE06AB93E832
:1013A000070003AB83E8070044F23E005BEA040158
:1013B0000090584604D144F21E012C465D4600912F
:1013C000210C0904014306D10099240444EA154480
:1013D0002D041039009104F07F41014306D100999A
:1013E000240244EA15642D020839009104F070418A
:1013F000014306D10099240144EA15742D01091F07
:10140000009104F04041014306D10099A40044EA50
:101410009574AD00891E009104F00041084304D189
:1014200000986D196441401E00904FF001033A4648
:101430006846B8F1000FCDE9014503A902DD00F0CF
:101440006EFF01E000F041FFBAF1000F04460D46C7
:1014500001D084F00044002108464FF000000999B3
:1014600040F2FF77484010F00C0F07D124F0004005
:10147000284303D0C4F30A50B84212D1FFF77AFDD3
:10148000C0F80090C4F30A50B8420AD1A848784482
:10149000D0E90010C6E9001004F000410843706074
:1014A00042E7C6E900543FE72DE9FF4F1F464FF0E2
:1014B000000A4FF0FF38454691B0D7E90146CDF814
:1014C0003CA0FFF753FDC0680168405C1090B9690B
:1014D00012986D1C8847396A814688470028F6D1E2
:1014E000B9F1FF3F0AD0002E24F4D06411DDB9F128
:1014F0002B0F08D0B9F12D0F0BD102E0404615B0EB
:1015000013E744F48064B96912986D1C8847761E0D
:101510008146600504A901D52D2000E02B20002E76
:1015200001F1010B0DF130088DF810003FDDB9F12C
:10153000690F08D0B9F1490F05D0B9F16E0F02D08B
:10154000B9F14E0F1CD13B4601A8009580E850022E
:10155000DDE912126FF002002CF062FDC11CCED149
:101560000EE0B96912986D1C884781461398761E63
:1015700044F4007405600F98401C002E0F9016DD97
:10158000B9F1300FEDD0B9F1780F02D0B9F1580FA1
:101590000DD10F9801280AD13B46CDE90054DDE971
:1015A0001212001F02962CF039FDC11CA7D1109910
:1015B00089453ED144F0800406E01399681CAAF1E5
:1015C000010A44F400740860B9696D1C1298761E13
:1015D000884730288146F0D02BE01099894505D105
:1015E000200603D4761E44F0800418E0484613F029
:1015F000A0F908B3761E0DF123018B4544F4007465
:1016000008D2A9F130000BF8010B200607D5AAF18A
:10161000010003E0200602D40AF101008246A00581
:1016200002D51399681C0860B96912986D1C884727
:101630008146002ED1DC53E0002E51DDB9F1650F5B
:1016400002D0B9F1450F4BD1A00549D5B9696D1C40
:101650001298761E24F440748847002E81460CDDD3
:101660002B2804D0B9F12D0F07D144F48074B96947
:1016700012986D1C8847761E8146E00501D52D2104
:1016800000E02B2108F8011BCDF8008021E0761E38
:101690000DF13901884544F400740CD2A9F13000F1
:1016A00010F0FF0088F8000002D10099884509D9A0
:1016B00008F1010806E0E00501D51E4801E042F20C
:1016C0000F708246B96912986D1C8847814613983D
:1016D0000560002E04DD484613F02BF90028D6D112
:1016E000F96912988847FF2053468BF8000088F864
:1016F000000000200A900B9004AA0CA90AA8FFF78A
:10170000ADFDA00502D46FF00100F8E614F0240F3F
:1017100012D0E0071CD13868DDE90A12031D3B60D6
:101720000068C0E9001213E0CCF00200BEF0020035
:1017300082EF0200F1D8FFFF0AA9684613F088F88B
:10174000E00705D13868009A011D39600068026021
:101750002846D4E610B50446AFF300802046BDE825
:101760001040FEF764BD002801D000F069B8704752
:1017700010B5012805D0002103A000F067F8012072
:1017800010BD09A1F8E7000053494752544D454D9B
:101790003A204F7574206F662068656170206D6512
:1017A0006D6F7279000000003A2048656170206D0D
:1017B000656D6F727920636F727275707465640005
:1017C0004FF0013C50F8042B51F8043B9A4221D1D0
:1017D000A2EB0C03934313EACC1317D150F8042B5C
:1017E00051F8043B9A4215D1A2EB0C03934313EA40
:1017F000CC130BD150F8042B51F8043B9A4209D179
:10180000A2EB0C03934313EACC13DBD04FF00000A0
:10181000704700BFD01A01BAB1FA81F101F0180186
:1018200022FA01F0CB40C1F12001DBB2C0B2C01AF4
:101830002CFA01F3D11A914311EAC311E6D1704792
:1018400001491820ABBEFEE72600020070B5054630
:101850000C460A2000E06D1C00F011F835B1287824
:101860000028F8D102E0641C00F009F814B12078D7
:101870000028F8D1BDE870400A20AFF3008008B519
:1018800069468DF800000320ABBE08BD2DE9FF4F6F
:101890001F464FF03C0987B04FF00042DDE91410BD
:1018A00001F10108DDF858A002EA40500390002041
:1018B00005908346054604460490B969461E08987B
:1018C0008847AAF1010A0290BAF1000F3BDD0298A5
:1018D0002E2815D0102100F016FA00282EDB4FF02C
:1018E000010B0599014317D0B9F1000F0BDB4A46F4
:1018F000C11700F0F5F905430C43A9F1040905E00F
:10190000012004900BE008B145F00105012005908D
:10191000049820B9361D02E0049800B1361FB96959
:10192000089808F101088847BBF1000FAAF1010AE5
:101930000290C9D00999C1F80080C5E702987028C3
:1019400008D0502806D0F96908988847BBF1000FE5
:1019500014D04FE0002002900120BBF1000F049052
:1019600009D0B969089808F101088847AAF1010966
:10197000B9F1000F07DCF969089888476FF001009A
:101980000BB0BDE8F08F2B2804D02D280CD14FF0E0
:10199000FF300490B969089808F101088847A9F157
:1019A0000109B9F1000FE6DD411CE4D00A2100F085
:1019B000AAF90028DFDB029908F1010801EB810197
:1019C00000EB41000290B969089888470A2100F0AD
:1019D0009AF9099AA9F10109B9F1000FC2F800803A
:1019E00001DD0028E7DAF969089888470499029828
:1019F00000FB016655EA040004D004F040410900F0
:101A000002D006E0039898E0A40044EA9574AD0083
:101A1000B61E04F00041080002D16D196441761E23
:101A2000159810F0240F03D04FF00B095C4803E029
:101A30004FF028096FF07D008246564507DAAAEB81
:101A400006018944B9F1410F01DD4FF04109012040
:101A50000021A9F1010200F043F9024628400B469B
:101A60002140084301D0012100E00021501E0291D5
:101A700043F1FF3128402140084301D0012000E01C
:101A800000200299834651EA0B014FD000210846FD
:101A90004FF00000039900F4400039B100EB8000E2
:101AA0004FF4400100EBD07001EA6000801501287E
:101AB00002DD4FF0FF3000E013D0401C36D002981A
:101AC00060B3BBF1000F0CD14A460120002100F0A9
:101AD00007F928402140084301D0012000E0002000
:101AE000E0B101204A46002100F0FAF8034640190F
:101AF0000A4661412D1A8C4111D3B9F1400F09DD1D
:101B0000159810F0240F02D0AAF1340603E0AAF1D0
:101B1000170600E0761C00254FF0004406E05B1E2F
:101B200042F1FF3220EA030521EA0204CAF1010072
:101B3000B04206DA1B490398084301900020009048
:101B40000EE0039AC4F3D321E80A0A43164940EA97
:101B500044500A433146CDE90002684612F0DEFEE9
:101B6000159810F0240F0BD01598C00715D13868C0
:101B7000DDE90012031D3B600068C0E900120CE0C3
:101B800002A8694612F064FE1598C00705D13868AE
:101B9000029A011D3960006802604046F0E60000CC
:101BA00002FCFFFF0000F07F0000F03F2DE9FF4F37
:101BB00092461D4685B04FF00041DDE9124BDDE94C
:101BC00014727F1E01EA4B50414940F0FF4940EA40
:101BD0000108002122F020004928049102D04E285B
:101BE00028D04CE03BA0012607C88DE80700A96972
:101BF0000698641C88477F1E014606D41DF806001F
:101C000018B121F0200181420BD0E969069888477C
:101C1000032E34D0082E32D06FF0010009B0BDE899
:101C2000F08F761C032E01D0082EE0D1601CCAF87C
:101C30000000DCE7A9690698641C88477F1E2AD447
:101C400020F02000412826D1A9690698641C884705
:101C50007F1E20D420F020004E281CD1A9690698B0
:101C6000641C88477F1E48F4002849F48009CAF89C
:101C7000004001D4282806D0E969069888475FEA21
:101C8000CB7012D022E0A9690698641C88477F1E99
:101C900001D4002803DAE96906988847BCE72928B7
:101CA000F1D1641CCAF80040E9E71BF0240F07D00B
:101CB00028680499031D2B600068C0E9001805E03E
:101CC0002868021D2A600068C0F800902046A5E739
:101CD0000000F07F494E46494E495459000000002B
:101CE000B2F120030AD5C2F1200301FA02F120FA71
:101CF00003F300FA02F041EA0301704700FA03F12E
:101D00004FF0000070473A2800D2303820F020020F
:101D1000412A01D3A2F13700884201D34FF0FF30AE
:101D200070475FEA400C08BF91F0000F4FEA8C2328
:101D30004FEAC12243EA51514FEA1C5018BF00F547
:101D4000F0404FEA300018BF41F000415FEA6C5CA0
:101D500000F02980BCF1FF3F08BF40F08040704791
:101D6000130C06BF12044FF0100C4FF0000C130EB2
:101D700004BF12020CF1080C130F04BF12010CF186
:101D8000040C930F04BF92000CF1020CD30F04BF9C
:101D900052000CF1010C11464FF00002A0F11F009F
:101DA000A0EB0C00704711F0004F08BF704731F0F6
:101DB00000413FF4D5AF0B0C06BF09044FF0100CE7
:101DC0004FF0000C0B0E04BF09020CF1080C0B0FB6
:101DD00004BF09010CF1040C8B0F04BF89000CF146
:101DE000020CCB0F04BF49000CF1010CCCF1200315
:101DF000A0EB0C0022FA03F302FA0CF241EA030111
:101E000000F10100704720F07F4C80EA030023F0CE
:101E10007F47ACEB070303F57C5300F0004003F170
:101E2000FF032DE980494FEA154B09B44FEA1443EB
:101E300025EA0B4E24EA03480FF2042606EB13278B
:101E400049083E785FEA320203FB0667C7F50007E0
:101E500007FB06F64FEA54374FEAD64606F102066C
:101E600007FB066CCCF1005C4FEA1C472CEA074CE0
:101E700007FB06F40CFB06F504EB15464FEA961635
:101E800034BF00204FF000404FEAD13706FB07FC7B
:101E90004FEA1C4C0CFB0BF7D21B03FB0CF761EB5E
:101EA00007010CFB0EF7B0EB074072EB17420CFB7F
:101EB00008F734BFA2EB0742B2EB074261EB1741D0
:101EC0004FEA0C444FEA910706FB07FC4FEA1C4C13
:101ED0000CFB0BF7B0EBC74072EB573203FB0CF770
:101EE00034BFA2EBC742B2EBC74261EB57310CFBE8
:101EF0000EF7B0EBC70072EB57720CFB08F734BF5C
:101F0000A2EBC702B2EBC70261EB5771039F4FEA26
:101F1000816141EA921104EBCC044FEAD1374FEAD8
:101F2000826206FB07FC42EA90124FEA80604FEAA9
:101F30001C4C0CFB0BF7D21B03FB0CF761EB0701EE
:101F40000CFB0EF7B0EB074072EB17420CFB08F7E7
:101F500034BFA2EB0742B2EB074261EB17414FEAF5
:101F60008C554FEA910704EB9C2406FB07FC4FEAD3
:101F70001C4C0CFB0BF7B0EBC74072EB573203FB6A
:101F80000CF734BFA2EBC742B2EBC74261EB57314B
:101F90000CFB0EF7B0EBC70072EB57720CFB08F7A7
:101FA00034BFA2EBC702B2EBC70261EB577115EB6E
:101FB0004C254FEA816141EA92114FEA82624FEA71
:101FC000D13742EA901206FB07FC44F100044FEAC5
:101FD00080604FEA1C4C0CFB0BF7D21B03FB0CF789
:101FE00061EB07010CFB0EF7B0EB074072EB1742F9
:101FF0000CFB08F734BFA2EB0742B2EB074261EBE0
:10200000174115EB1C154FEA813141EA92414FEA25
:10201000823242EA90424FEA80304FEA0C7644F135
:10202000000448EA03434EEA0B484FF0000EB2EBBF
:10203000080C71EB030724BF624639464EEB0E0EC7
:102040004FF0000B0018524149414BEB0B0BB2EB28
:10205000080C71EB03077BF1000B24BF6246394685
:102060004EEB0E0E4FF0000B0018524149414BEB66
:102070000B0BB2EB080C71EB03077BF1000B24BFD9
:10208000624639464EEB0E0E51EA020718BF46F083
:10209000010616EB0E7655F1000254F1000103D54E
:1020A000BDE88901BDE80088BDE88901BDE80048B8
:1020B000B619524141EB0101A3F101037047808041
:1020C0007F7E7D7C7B7A7978777676757473727192
:1020D00071706F6E6E6D6C6C6B6A6A69686867664A
:1020E00066656464636362616160605F5F5E5E5DDC
:1020F0005D5C5C5B5B5A5A59595858575756565550
:1021000055555454535352525251515050504F4FB1
:102110004F4E4E4D4D4D4C4C4C4B4B4B4A4A4A4901
:102120004949484848474747474646464545454444
:1021300044444443434343424242424141410000FC
:1021400046EA0646A3F570534FEA164646EA42565B
:102150004FEAD22242EA415210B54FEAD121A3F10F
:10216000010300F02FF820F0004000F1020C00F015
:10217000004701EB00501146BCF5006F40EA070034
:1021800000D210BDBAF1000F0AD01CB503B44FF055
:1021900004004FF004014FF000000FBCBDE81040F8
:1021A0004FF00001BBF1010FB9BF04484FF0FF3100
:1021B0000348002140EA070010BD00BFFFFFEF7F8A
:1021C0000000F07F002B9C4630D477002BD01CB54C
:1021D0004FEA370703B44FF010004FF01001BAF187
:1021E000000F06D0BCF1000FDCBF40F0080040F04B
:1021F00008014FF000000FBCBDE810400BF1010BCF
:10220000BBF1010F08BF5FEA170722BF12F10102FD
:1022100011F101014FF0004143F1000300F00040D3
:1022200043EA00007047F9D35708D0E746EA06466C
:1022300013F1400F4FEA16461FDD13F1200FDFBFE9
:1022400016430A46002120335B42BED0C3F120076B
:1022500046EA064602FA07F74FEA164646EA070636
:10226000C3F1200722FA03F201FA07F721FA03F17A
:102270004FF0000342EA0702A7E746EA020646EAF1
:1022800006464FEA164646EA0106BCBF46EA06463F
:10229000360C4FF000034FF000024FF0000194E7BE
:1022A0002DE9804C9A46934670B491E8380007C8EF
:1022B00031EA400C48BF34EA430C03D5FFF7A3FDD5
:1022C000FFF780FFF0BCBDE8008C2DE9804C9A46FA
:1022D000934670B491E8380007C831EA400C48BF13
:1022E00034EA430C03D5FFF78EFDFFF729FFF0BC5E
:1022F000BDE8008C2DE9804C9A46934670B491E875
:10230000380007C810F0804F08BF13F0804F03D18A
:1023100000F01AF8FFF756FFF0BCBDE8008C2DE97D
:10232000804C9A46934670B491E8380007C810F084
:10233000804F08BF13F0804F03D100F005F8FFF77E
:10234000FFFEF0BCBDE8008C20F07F4780EA030070
:1023500023F07F4C07EB0C03A3F57C5300F0004007
:10236000A3F1FE0392F0000F00F0B38095F0000F90
:1023700000F077802DE901494FEA11404FEA1446F9
:1023800021EA004800FB06FC24EA064708FB06F6A3
:1023900007FB08F800FB07F718EB06484CEB164C58
:1023A0004FEA124B18EB07484FEA15464CEB174023
:1023B00022EA0B4E0BFB06FC25EA06470EFB06F64F
:1023C00007FB0EFE0BFB07F71EEB064E4CEB164C05
:1023D0004FF000061EEB074E4CEB174B18EB0B08AB
:1023E00040F1000018EB0E0B58EB000840F1000024
:1023F0008F1A4FF000013CBFC943661B14BFB5EBF9
:10240000040C00213CBFC943F61B4FEA17444EEAB7
:102410008E0E27EA04454FEA1C4704FB07622CEAAC
:10242000074C05FB07F70CFB05F604FB0CFC16EB51
:10243000074642EB174216EB0C4642EB1C421BEBE5
:10244000060658EB0202414146EA9E0601D5BDE868
:102450000189B619524141EB0101A3F10103BDE825
:1024600001894FEA14454FEA114724EA054621EA5B
:10247000074C05FB07F406FB07F70CFB06F105FB11
:102480000CFC11EB074144EB17444FEA124711EBE8
:102490000C4144EB1C4422EA074C05FB07F206FB07
:1024A00007F70CFB06F605FB0CFC16EB074642EBA8
:1024B000174216EB0C4642EB1C456A1854F100011A
:1024C00048BF7047B619524141EB0101A3F1010326
:1024D000704795F0000F37D04FEA11424FEA14478A
:1024E00021EA024624EA074C02FB07F106FB07F744
:1024F0000CFB06F402FB0CFC14EB074441EB174108
:102500004FEA154714EB0C4441EB1C4125EA074CFC
:1025100002FB07F506FB07F70CFB06F602FB0CFCBB
:1025200016EB074645EB174516EB0C4645EB1C42F0
:10253000121951F1000148BF7047B619524141EBE1
:102540000101A3F1010370474FEA14454FEA114717
:1025500024EA054621EA074C05FB07F106FB07F7CD
:102560000CFB06F24FF0000605FB0CFC12EB0742D9
:1025700041EB174112EB0C4251EB1C4148BF704735
:10258000921841EB0101A3F10103704770B50446B5
:1025900000680168C943490620D4816821F001011F
:1025A00081600AF01DFF054613E00AF019FF401B89
:1025B00002280ED920680068C043400609D4E06CA8
:1025C00040F01000E064206D40F001002065012023
:1025D00070BD20680068C0434006E6D5002070BD8D
:1025E000F8B500260446009600680168C94349060C
:1025F0002ED5816841F001018160164816490068B6
:10260000B0FBF1F000EB400000E0401E009000281D
:10261000FBD10AF0E5FE054615E00AF0E1FE401B9D
:10262000022810D920680068C04340060BD5E06C32
:1026300040F01000E064206D40F00100206584F857
:1026400048600120F8BD20680068C0434006E4D41B
:102650000020F8BD1000002040420F0010B50A48CD
:102660000AF042FC642108480AF0E6FB06480AF03A
:10267000E9FA064CA06004480AF071FC05200AF053
:10268000A9FDA06810BD0000D058002020580020EF
:102690002DE9F041002507462E462C460BE0FFF7BA
:1026A000DDFF2AF005FE2A4633462AF03DFB641C76
:1026B00005460E46E4B2BC42F1D338462AF0F8FD96
:1026C00002460B4628463146BDE8F0412AF0E8BBF9
:1026D0000949094A983AC9689161002104E093695F
:1026E000491CC9B21B6993618142F8D39069017892
:1026F00041F0010101707047B85500201249124A9B
:10270000983AC968916103281CD005DC98B101286A
:1027100011D002280ED113E0052811D00A2811D0BB
:10272000142807D10869006900699061017841F0B7
:10273000010101707047087840F00100087070478F
:102740000869F2E70869EFE7B855002010B525F0F1
:10275000DDF87D4A0B287DD027DC7B4C022804F174
:10276000080445D0032876D0042863D0082873D104
:102770009079042870D1D07902286DD114F0C2FB71
:1027800020F00EF9407961284ED020F00FF9214653
:1027900029F022FD20F004F94079612847D020F08B
:1027A00005F9BDE8104005F0CCB80C280FD0122870
:1027B00071D013286BD114F0A5FB20F0EDFF032896
:1027C00065D10121BDE8104002201AF0A1BA90792C
:1027D00004285CD1612003F083FE25F051F85B49A9
:1027E0000020087020F0DCF8BDE8104000F0D0BAFE
:1027F000907904284BD1D0790C2848D114F082FB71
:1028000020F0CEF8407961280BD020F0CFF80C22D0
:10281000214629F0F8FC20F0C3F8BDE8104000F094
:1028200095BA20F0BDF8F2E720F0BAF8AFE720F053
:10283000B7F8B6E79079042829D1D079082826D1AD
:1028400014F060FB20F0ACF84079612813D020F040
:10285000ADF802E015E025E019E0214600F080F82F
:1028600020F09EF84079612808D020F09FF8BDE85C
:10287000104005F05FB820F093F8EAE720F090F8F8
:10288000F5E79079102802D1D0799C284CD010BD62
:1028900020F086F802E04FE020F088F8BDE8104014
:1028A00000F016BA90790424042806D1507A012841
:1028B00021D0082838D0092836D014F023FB20F086
:1028C0006BFF5F2801D06028E1D1002102201AF0BF
:1028D0001FFA20F067FF80681D490069816020F0C1
:1028E00061FF806801691B48C86020F05BFF806859
:1028F0000069447110BD14F005FB20F04DFF5F2806
:1029000001D06028F6D1012102201AF001FA20F04E
:1029100049FF806810490069816020F043FF8068AA
:102920000E490069C160E0E714F0ECFA20F038F8D5
:1029300040796128B0D1ABE714F0E4FA20F02CFF25
:1029400041283FF43EAF10BD88560020D0550020EE
:10295000FFEE0208FAEE0208EBEE0208EFEE0208C4
:102960002DE9FE4F04006FD0487884F8780008788D
:1029700084F87900C87884F87A00887884F87B0035
:10298000487904F8700F08796070C879A070887968
:10299000DFF8C881E0704146A0682AF0A3FFA0607C
:1029A000703C29F0D9F8A8B1206F2AF0FBFE6C4AE0
:1029B0006C4B2AF0CDFC00226B4B2AF0B5F92AF0C3
:1029C00081F96A492067884203DC4FF084418842DC
:1029D00000DA21672078DFF898A1DFF898B104F1D8
:1029E0002F01420704F13C0602912ED520F004008D
:1029F0002070A06F6061B0F5000F03DA2AF0D2FEFC
:102A00005DA210E0504503DC2AF0CCFE5CA20AE097
:102A1000404503DC2AF0C6FE5BA204E0584508DC12
:102A20002AF0C0FE5AA2CDE9000107213046FDF789
:102A300063FD206F2AF0B6FECDE9000156A2062103
:102A40000298FDF759FD83E086E0A16FA0682AF0A7
:102A5000D5FEA060216F20692AF0D0FE20612046BB
:102A600001F024FFA06F6061E079401CC0B2E0710A
:102A700003286DD32BF080F80546294620692AF0FB
:102A800031FF01902946A0682AF02CFF054628F066
:102A900007FFDFF80C91002720B328F0F5FF02288C
:102AA00020D399F80020484604F1980104F1B009B8
:102AB000009132B10770009814F06CFA484614F097
:102AC00069FA2946009814F098FA4846019914F0DA
:102AD00094FA484614F074FA0190009814F070FAD1
:102AE000054602E0012189F80010204604F028FA8A
:102AF00058BB01982AF056FECDE9000126A2062116
:102B00000298FDF7F9FCB5F5000F04DA28462AF023
:102B100049FE19A213E0554504DC28462AF042FE7E
:102B200017A20CE0454504DC28462AF03BFE16A21D
:102B300005E05D4509DC28462AF034FE14A2CDE903
:102B4000000107213046FDF7D7FCE771A760276138
:102B5000BDE8FE4F25F0C6BABDE8FE8F00007A44FE
:102B6000CDCCCCCCCCCCFC3F0000404000000C4392
:102B70000000C84200401C4625362E346600000086
:102B800025362E336600000025362E326600000002
:102B900025362E316600000025352E3266000000F5
:102BA0005C5800201CB50C46002832D068460FF057
:102BB00015FFDDE9000114F083FA164A612102F8DD
:102BC000451F102151709C2191706821D170002106
:102BD00011710421517108219171010AD171107292
:102BE000010E5172000C9072200AD0721473200EE4
:102BF0005073200C90730748112102F8421C453095
:102C000010F0B4F925F066FABDE81C400B2025F061
:102C10008DBA1CBD885600201CB50C46002832D049
:102C200068460FF0DBFEDDE9000114F049FA164AB0
:102C3000612102F8451F102151709C2191706C2177
:102C4000D170002111710421517108219171010A83
:102C5000D1711072010E5172000C9072200AD07264
:102C60001473200E5073200C90730748112102F842
:102C7000421C453010F07AF925F02CFABDE81C40D2
:102C80000B2025F053BA1CBD8856002010B5002833
:102C90001BD00E48612100F8451F062141709C2180
:102CA00081705121C1700021017101214171082100
:102CB00000F8421C0548453010F058F925F00AFA92
:102CC000BDE81040132025F031BA10BD8856002011
:102CD00010B500281BD00E48612100F8451F0421C3
:102CE0004170752181706621C1700021017101213F
:102CF0004171082100F8421C0548453010F036F9B2
:102D000025F0E8F9BDE81040032025F00FBA10BD0A
:102D1000885600200C4810B5612100F8451F042199
:102D20004170752282706922C27000220271417165
:102D3000082100F8421C0448453010F017F9BDE89E
:102D400010400C2025F0F2B98856002010B500285C
:102D50001BD00E48612100F8451F042141707521E8
:102D600081704521C170002101710121417108214B
:102D700000F8421C0548453010F0F8F825F0AAF993
:102D8000BDE81040082025F0D1B910BD88560020BC
:102D900010B500281BD00E48612100F8451F042102
:102DA0004170752181703021C170002101710621AF
:102DB0004171082100F8421C0548453010F0D6F852
:102DC00025F088F9BDE81040022025F0AFB910BD0C
:102DD0008856002010B5002818D00D4861217522B2
:102DE00000F8451F0421417082706922C2700022E0
:102DF00002714171082100F8421C0548453010F06D
:102E0000B5F8BDE81040042025F090B910BD0000D1
:102E10008856002010B5002827D0144A40F8701FAB
:102E2000612102F8451F102151709C21917057219A
:102E3000D1700021117102215171042191714178E9
:102E4000D17101781172C1785172807890720748FF
:102E50000D2102F8421C453010F088F825F03AF9AF
:102E6000BDE81040122025F061B910BD8856002041
:102E700010B50446F32000F037F8204000D00120C0
:102E800010BD000010B5F92000F02EF80A4C60705B
:102E9000F82000F029F8A070F72000F025F8E07085
:102EA000A178000340EA01106178BDE8104040EAD3
:102EB000111012F043B800005856002070B5FC20E5
:102EC00000F012F80446FB2000F00EF80546FA2048
:102ED00000F00AF8000340EA051040EA1410BDE8CB
:102EE000704012F021B9000070B50B4D06464FF44A
:102EF00080740022214628460AF06DFA304611F00F
:102F0000E7FF11F0E1FF06460122214628460AF0BC
:102F100062FA304670BD0000000402400178427839
:102F20004901807841EA82010143C9B2F52000F0ED
:102F30000BB8417802784901807841EA8201014367
:102F4000C9B2F420AFF300802DE9F0410B4D0F46DC
:102F500006464FF480740022214628460AF03BFAC8
:102F6000304611F0B5FF384611F0B2FF2146284631
:102F7000BDE8F04101220AF02EBA00000004024030
:102F80000949094AC968983A0029916104D020B1D9
:102F9000087840F001000870704708699061017876
:102FA00041F0010101707047B8550020FEE70000B4
:102FB0002DE9F04124F0AAFCB449B54CB54D0426E6
:102FC00001F108070C2814D00ADCA0F102000A283D
:102FD00071D2DFE800F03D70E2707070577071F3ED
:102FE0001238072867D2DFE800F0EBEA66661A8736
:102FF000B600887903285ED14A2003F071FA24F0E4
:103000003FFC1FF0CDFC40794A2805D01FF0CEFCD4
:10301000394600F003FCBAE01FF0C2FCF8E78879FB
:10302000032848D113F06EFF1FF0BAFC40794A28FC
:103030000BD01FF0BBFC394600F030F91FF0B0FC9C
:10304000BDE8F0414A2100F0A5BE1FF0A9FCF2E75F
:10305000887903282FD113F055FF1FF0A1FC407988
:103060004A280CD01FF0A2FC0122394600F056FB82
:103070001FF096FCBDE8F0414A2100F06FBE1FF042
:103080008FFCF1E78879032815D113F03BFF1FF07F
:1030900087FC40794A280BD01FF088FC002100F003
:1030A00013FB1FF07DFCBDE8F0414A2100F0CABED1
:1030B0001FF076FCF2E780E0887903287DD113F0D9
:1030C00021FF1FF06DFC40794A280FD01FF06EFCE5
:1030D000394600F049FB1FF063FC40794A2808D0CC
:1030E0001FF064FCBDE8F04104F02BBC1FF058FC5D
:1030F000EEE71FF055FCF5E7887906285DD113F05F
:1031000001FF20F049FB372815D1634901200870E1
:103110000146022019F0FCFD20F044FB80680069A4
:10312000846020F03FFB80680069C56020F03AFBB6
:103130008068006946711FF033FC40794A2807D047
:103140001FF034FCBDE8F0415049093100F0E0B80F
:103150001FF026FCF6E78879062873D113F0D2FE1B
:1031600020F01AFB382812D10121022019F0D0FDDD
:1031700020F018FB80680069846020F013FB8068F1
:103180000069C56020F00EFB8068006946711FF081
:1031900007FCBDE8F04100F0D5B88879032851D18B
:1031A00013F0B0FE1FF0FCFB40794A2814D01FF04A
:1031B000FDFB394600F032FB03E043E012E055E04E
:1031C00042E01FF0EDFB40794A2808D01FF0EEFBEB
:1031D000BDE8F04104F0AEBB1FF0E2FBE9E71FF0F1
:1031E000DFFBF5E78879062801D010282AD113F0F3
:1031F00089FE20F0D1FA542811D008DC03280ED023
:1032000042280CD044280AD053281BD107E0552867
:1032100005D0562803D0582801D0592812D10121B1
:10322000022019F075FD20F0BDFA80680069846005
:1032300020F0B8FA80680069C56020F0B3FA8068B1
:1032400000694671BDE8F08188790628FAD113F04B
:1032500059FE20F0A1FA412811D020F09DFA5A28F9
:103260000DD020F099FA572809D0EBE78879062885
:10327000E8D113F047FE20F08FFA0328E2D1BDE831
:10328000F0410121022019F043BD000088560020C2
:10329000EBEE0208EFEE02086057002010B50400C4
:1032A0000FD049B1487884F8C800087884F8C9007C
:1032B000B4F8C80030B106E0012024F8C80F0A2095
:1032C000608010BD0220A4F8C800C87884F8CA0045
:1032D00088780D4984F8CB000020088094F8CA0053
:1032E000C83428F067FF34F8C809012801D11FF05D
:1032F00057FFB4F8CA3004F1CC00BDE8104003A277
:103300000421FDF7F9B8000046570020253364007A
:1033100000280DD049B14A7880F8C820097880F893
:10332000C910B0F8C81021B104E00121A0F8C810FC
:1033300070470221A0F8C81001490020088070479A
:103340004657002010B500281BD00E484A2100F82F
:10335000451F03214170052181701D21C17000218D
:10336000017102214171082100F8421C05484530D5
:103370000FF0FCFD24F0AEFEBDE81040162024F056
:10338000D5BE10BD8856002010B5002824D01348A3
:103390004A2200F8452F10224270052282704422F2
:1033A000C2700022027102224271042282710A0A52
:1033B000C27101720A0E4272090C81720D2100F86D
:1033C000421C064845300FF0D1FD24F083FEBDE8D5
:1033D00010400B2024F0AABE10BD0000885600202B
:1033E00010B5002824D013484A2200F8452F102297
:1033F0004270052282703422C270002202710222C1
:103400004271042282710A0AC27101720A0E42726A
:10341000090C81720D2100F8421C064845300FF05E
:10342000A5FD24F057FEBDE810400B2024F07EBE21
:1034300010BD00008856002010B500281AD00E4894
:103440004A2200F8452F06224270052282701D2272
:10345000C2700A0A02714171082100F8421C064834
:1034600045300FF083FD24F035FEBDE810401720F5
:1034700024F05CBE10BD00008856002010B5002866
:103480001AD00E484A2200F8452F06224270052223
:1034900082701E22C2700A0A02714171082100F86E
:1034A000421C064845300FF061FD24F013FEBDE8D4
:1034B0001040182024F03ABE10BD000088560020AD
:1034C00070B524F023FA7D4C0B2804F108057DD05B
:1034D00021DC022850D0042879D0082866D00A2898
:1034E00076D1A079032873D113F00CFD1FF058FAA0
:1034F00040790A2878D01FF059FA294600F034F9AB
:103500001FF04EFA40790A2873D01FF04FFABDE839
:10351000704004F016BA0C2812D0122868D0132874
:1035200056D1A079062853D113F0ECFC20F034F9E1
:1035300003284DD1BDE870400121022019F0E8BBFD
:10354000A079032844D10A2002F0CAFF24F098F998
:103550001FF026FA40790A280BD01FF027FA2946D7
:1035600000F05CF91FF01CFABDE870400A2100F081
:1035700011BC1FF015FAF2E7A079032828D113F047
:10358000C1FC1FF00DFA40790A280CD01FF00EFA8A
:103590000022294600F0C2F81FF002FABDE8704090
:1035A0000A2100F0DBBB1FF0FBF9F1E7A07903284B
:1035B0006FD113F0A7FC1FF0F3F940790A2810D05F
:1035C0001FF0F4F9002100F07FF803E034E013E08D
:1035D0005FE009E01FF0E4F9BDE870400A2100F067
:1035E00031BC1FF0DDF9EDE71FF0DAF985E700E007
:1035F00050E01FF0D5F98AE7A079032849D113F0EC
:1036000081FC1FF0CDF940790A280FD01FF0CEF9C8
:10361000294600F003F91FF0C3F940790A2808D0C1
:103620001FF0C4F9BDE8704004F084B91FF0B8F988
:10363000EEE71FF0B5F9F5E7A079062829D113F0D8
:1036400061FC20F0A9F853280DD006DC03280AD02D
:10365000422808D044281CD105E0542803D055281E
:1036600001D0562815D10121022019F051FB20F07C
:1036700099F8806812490069816020F093F88068A9
:1036800010490069C16020F08DF88068042100694C
:10369000417170BDA0790628FBD113F033FC20F0F6
:1036A0007BF841283FF446AF20F076F85A28F9D04D
:1036B00020F072F85728F5D070BD00008856002021
:1036C000EBEE0208EFEE020810B5002817D000223A
:1036D0002E24A9B10B78303380F8223080F82340B3
:1036E0004B78303380F8243080F825208B783033C5
:1036F00000F81D3F4470C97830318170C27010BD30
:10370000312380F8223080F82340302180F82410C3
:1037100080F8252000F81D3F4470EEE72DE9F043C6
:1037200000281DD04C2400F85A4F4FF0480C4FF0A1
:103730002D08442380F801C0432180F80280312500
:10374000C3705F2601714F274FF0200945714AB1C0
:1037500037228271C67101724772837280F80B90B2
:10376000BDE8F0833822F4E7002805D029B14A7873
:1037700000F86C2F0978417070473221A0F86C1066
:103780007047000010B500281FD001EB81004FF6F4
:10379000FF7101EA40010D4800F8452F06224270F2
:1037A000052282708622C2700A0A027141710821C4
:1037B00000F8421C054845300FF0D8FB24F08AFC85
:1037C000BDE810400B2024F0B1BC10BD885600208D
:1037D00010B500281FD001EB81004FF6FF7101EA00
:1037E00040010D4800F8452F0622427005228270E4
:1037F0008522C2700A0A02714171082100F8421C38
:10380000054845300FF0B2FB24F064FCBDE81040E1
:103810000B2024F08BBC10BD885600202DE9F04F02
:103820008BB00D4604007CD0697861F307002978DD
:1038300061F30F20E97880B261F30706A97861F39C
:103840000F26697961F30707297961F30F272AF0B9
:1038500093F9DFF8D48341462AF044F86067B0B2A8
:103860002AF08AF941462AF03DF8A06738B22AF0DA
:103870006BF9EE492AF036F82067E87A60F307061C
:10388000A87A60F30F26B0B229F012FD0022E84BAF
:1038900029F006FB29F016FAC4F88000E87B60F3F3
:1038A0000707A87B60F30F2738B22AF04DF9C4F858
:1038B0008C0028F051F9A8B1206F29F073FFDD4A80
:1038C000DD4B29F045FD0022DC4B29F02DFA29F0D3
:1038D000F9F9DB492067884203DC4FF084418842D4
:1038E00000DA216727F0D6FF002500B96567207848
:1038F00004F12F01420704F1350B04F13C0A04F1F5
:1039000053090A9132D520F004002070A06F606145
:10391000206F29F047FFCDE90001CAA206210A98CD
:1039200000E020E0FCF7E8FD606F29F03BFFCDE907
:103930000001C6A207215846FCF7DEFDA06F29F062
:1039400031FFCDE90001C1A207215046FCF7D4FDAB
:10395000D4F8800029F026FFCDE90001BBA20721A1
:103960004846FCF7C9FD0BB0BDE8F08FA16FA06819
:1039700029F044FFA060616FE06829F03FFFE0603C
:10398000216F206929F03AFFDFF8C882206146469E
:10399000D4F88010D8F8000029F030FF30602046BD
:1039A00000F084FFA06F6061617904F1BC000990B0
:1039B000183805900C3803901830A74E07904A2904
:1039C0007DD1E079401CC0B2E071032805D21EF021
:1039D000F3FFB0F8C8000228F2D1E0792AF0CCF861
:1039E00007463946206929F07DFF06903946E06890
:1039F00029F078FF04903946A06829F073FF0290FF
:103A00003946D8F8000029F06DFF089027F054FFE0
:103A100098B328F045F8022830D3307860B135707B
:103A2000039813F0B7FA059813F0B4FA079813F057
:103A3000B1FA099813F0AEFADDE9021013F0DDFADD
:103A4000DDE9041013F0D9FADDE9061013F0D5FA18
:103A5000DDE9081013F0D1FA079813F0B1FA0690D7
:103A6000039813F0ADFA0290059813F0A9FA0490A8
:103A7000099813F0A5FA089002E0FFE701203070E2
:103A8000B4F8C80001280AD01FF08CF9074628F0C6
:103A90006FF8401D874202D3704805702DE0204624
:103AA00003F04EFA48BB069829F07CFECDE90001F0
:103AB00064A206210A98FCF71FFD049800E022E0AA
:103AC00029F070FECDE9000160A207215846FCF7FD
:103AD00013FD029829F066FECDE900015BA20721E3
:103AE0005046FCF709FD089829F05CFECDE900017D
:103AF00056A207214846FCF7FFFCE571A560E5608A
:103B00002561C8F8005060790A287FF42CAFE0796D
:103B1000401CC0B2E0710328FFF425AF2AF02CF856
:103B200007463946206929F0DDFE06903946E068EF
:103B300029F0D8FE04903946A06829F0D3FE394612
:103B400002904746D8F8000029F0CCFE804627F0C6
:103B5000B3FE98B327F0A4FF022830D3307860B1C9
:103B60003570039813F016FA059813F013FA0798B6
:103B700013F010FA099813F00DFADDE9021013F0B2
:103B80003CFADDE9041013F038FADDE9061013F011
:103B900034FA4146099813F030FA079813F010FAF6
:103BA0000690039813F00CFA0290059813F008FAA7
:103BB0000490099813F004FA804602E0FFE7012020
:103BC0003070204603F0BCF938BB069829F0EAFDB6
:103BD000CDE900011BA206210A98FCF78DFC049890
:103BE00029F0E0FDCDE9000118A207215846FCF7B5
:103BF00083FC029829F0D6FDCDE9000113A207212C
:103C00005046FCF779FC404629F0CCFDCDE9000197
:103C10000EA207214846FCF76FFCE571A560E56040
:103C200025613D609FE60000000020410000C84281
:103C300000002440CDCCCCCCCCCCFC3F000040409C
:103C400000000C4325352E316600000025362E314C
:103C5000660000009C5800205C580020605700203F
:103C600010B5002819D00D4800F8452F06224270E3
:103C7000052282701422C2700A0A02714171082161
:103C800000F8421C054845300FF070F924F022FA84
:103C9000BDE81040122024F049BA10BD885600201B
:103CA00010B500281AD00E4800F8451F06214170B3
:103CB000052181701521C1700021017179214171A7
:103CC000082100F8421C064845300FF04FF924F057
:103CD00001FABDE81040132024F028BA10BD0000FE
:103CE0008856002010B5002819D00D4800F8452F3F
:103CF00006224270052282701022C2700A0A0271E6
:103D00004171082100F8421C054845300FF02EF99A
:103D100024F0E0F9BDE81040122024F007BA10BDED
:103D20008856002070B50C4C0825294604F8450F2C
:103D3000032060700520A0700020E070207106480C
:103D4000657104F8425D45300FF010F92570BDE84B
:103D500070400C2024F0EAB9885600200C4810B5B9
:103D600000F8451F03214170052181700021C170B9
:103D700001710821417100F8421C054845300FF0DF
:103D8000F5F824F0A7F9BDE81040082024F0CEB9DA
:103D90008856002070B5002833D000230324052561
:103DA000184808224A2902D00A2910D01CE04A21CA
:103DB00080F8451080F8464080F84750C02180F8D0
:103DC000481080F84930102180F84A100CE00A2190
:103DD00080F8451080F8464080F8475080F8483019
:103DE00080F8493080F84A20C270064811464530B4
:103DF0000FF0BCF824F06EF9BDE87040022024F00A
:103E000095B970BD8856002010B5002816D00C4812
:103E100000F8451F03214170052181700021C17008
:103E200001710821417100F8421C054845300FF02E
:103E30009DF8BDE81040042024F078B910BD0000C2
:103E4000885600200D4810B500F8451F0321417029
:103E5000052181701021C170002101710121417182
:103E6000082100F8421C054845300FF07FF824F087
:103E700031F9BDE810400A2024F058B988560020D6
:103E800010B5002819D00D4800F8452F06224270C1
:103E9000052282700722C2700A0A0271417108214C
:103EA00000F8421C054845300FF060F824F012F984
:103EB000BDE81040122024F039B910BD885600200A
:103EC00010B500281FD001EB81004FF6FF7101EA09
:103ED00040010D4800F8452F0622427005228270ED
:103EE0008822C2700A0A02714171082100F8421C3E
:103EF000054845300FF03AF824F0ECF8BDE81040E2
:103F00000B2024F013B910BD8856002010B50028EE
:103F10001FD001EB81004FF6FF7101EA40010D480F
:103F200000F8452F06224270052282708722C27057
:103F30000A0A02714171082100F8421C0548453007
:103F40000FF014F824F0C6F8BDE810400B2024F060
:103F5000EDB810BD8856002070B523F0D7FC744C26
:103F60000B2804F108056FD01FDC022850D004286C
:103F700073D008286AD1A079042867D112F0C2FF53
:103F80001EF00EFD40795F2861D01EF00FFD29461E
:103F900028F022F91EF004FD40795F285AD01EF067
:103FA00005FDBDE8704003F0CCBC0C2815D01228EC
:103FB00073D013284AD1E0799C2847D1207A512820
:103FC00044D112F09FFF1FF0E7FB03283ED1BDE86C
:103FD00070400121022018F09BBEA079042835D141
:103FE0005F2002F07DFA23F04BFC1EF0D9FC4079F3
:103FF0005F280AD01EF0DAFC294600F013F91EF003
:10400000CFFCBDE8704000F0FFBA1EF0C9FCF3E73A
:10401000A079042877D1E0790C2874D112F072FFCE
:104020001EF0BEFC40795F280BD01EF0BFFC0C22B6
:10403000294628F0E8F81EF0B3FCBDE8704000F017
:10404000C1BA1EF0ADFCF2E72BE006E05BE01EF02B
:10405000A7FC9CE71EF0A4FCA3E7A079042852D19A
:10406000E0791C284FD112F04DFF1EF099FC4079E9
:104070005F280FD01EF09AFC294600F0D3F81EF0FE
:104080008FFC40795F2809D01EF090FCBDE870409D
:1040900003F050BC1EF084FCEEE735E01EF080FC1F
:1040A000F4E7A07910282ED1E0799C282BD112F0CA
:1040B00029FF1FF071FB4F280FD008DC03280CD01C
:1040C00042280AD0442808D04E281CD105E05028A8
:1040D00003D0512801D0522815D10121022018F017
:1040E00017FE1FF05FFB80681249006981601FF0B6
:1040F00059FB806810490069C1601FF053FB80685C
:1041000004210069417170BDE0799C28FBD112F057
:10411000F9FE1FF041FB41283FF459AF1FF03CFB73
:104120005A28F9D01FF038FB4D28F5D070BD00009B
:1041300088560020EBEE0208EFEE02081CB50C4694
:10414000002832D068460EF049FCDDE9000112F08B
:10415000B7FF164A5F2102F8451F102151709C21BC
:1041600091706621D17000211171042151710821D3
:104170009171010AD1711072010E5172000C90728E
:10418000200AD0721473200E5073200C90730748CD
:10419000112102F8421C45300EF0E8FE23F09AFF90
:1041A000BDE81C400B2023F0C1BF1CBD8856002079
:1041B0001CB50C46002832D068460EF00FFCDDE935
:1041C000000112F07DFF164A5F2102F8451F102101
:1041D00051709C2191706A21D170002111710421CC
:1041E000517108219171010AD1711072010E517241
:1041F000000C9072200AD0721473200E5073200CA1
:1042000090730748112102F8421C45300EF0AEFEB3
:1042100023F060FFBDE81C400B2023F087BF1CBDCE
:10422000885600202DE9FE4F04007DD0487884F8A0
:104230007800087884F87900C87884F87A0088785B
:1042400084F87B00487904F8700F08796070C879A9
:10425000A0708879E070487A2071087A6071C87A15
:10426000A071887AE071487B2073087B6073C87BFB
:10427000A073887BE073487C2074087C6074C87CE1
:10428000A074887CE074487D2075087D6075C87DC9
:10429000A075887DE075487E2076087E6076C87EB1
:1042A000A076887EE076703C27F056FCA8B1206F9F
:1042B00029F078FA6B4A6C4B29F04AF800226B4BD4
:1042C00028F032FD28F0FEFC69492067884203DCB3
:1042D0004FF08441884200DA2167207804F12F07EB
:1042E000410704F1350604F13C0526D520F0040011
:1042F0002070A06F6061206F29F054FACDE90001B1
:104300005CA206213846FCF7F7F8606F29F04AFAFC
:10431000CDE9000159A207213046FCF7EDF8A06F66
:1043200029F040FA55A200E005E0CDE9000107219F
:104330002846FCF7E1F8BDE8FE8FA16FA06829F0E0
:104340005DFAA060616FE06829F058FAE060216FC3
:10435000206929F053FA2061204600F0A7FAA06FE7
:104360006061E079401CC0B2E0710328E3D329F01A
:1043700003FC80464146206929F0B4FA0290414688
:10438000E06829F0AFFA83464146A06829F0AAFA0E
:10439000824627F091FADFF8EC904FF0000890B3D6
:1043A00027F07EFB02282FD399F8001004F1A40017
:1043B00001904A460C3804F1B009009051B182F8DE
:1043C0000080009812F0E6FD019812F0E3FD4846E7
:1043D00012F0E0FD5146009812F00FFE5946019888
:1043E00012F00BFE4846029912F007FE484612F002
:1043F000E7FD0290009812F0E3FD8246019812F06A
:10440000DFFD834603E0FFE7012189F80010204625
:1044100002F096FDE8B9029829F0C4F9CDE900014F
:1044200014A206213846FCF767F8584629F0BAF975
:10443000CDE9000111A207213046FCF75DF8504696
:1044400029F0B0F9CDE900010CA207212846FCF7BC
:1044500053F884F80780C4F80880C4F80C80C4F8C6
:10446000108068E7CDCCCCCCCCCCFC3F00004040E9
:1044700000000C4325352E326600000025362E3212
:10448000660000005C58002010B500281BD00E48C4
:104490005F2100F8451F062141709C218170532146
:1044A000C1700021017101214171082100F8421CF5
:1044B000054845300EF05AFD23F00CFEBDE81040D3
:1044C000122023F033BE10BD8856002010B50028FE
:1044D0001BD00E485F2100F8451F062141709C212A
:1044E00081705121C17000210171012141710821A8
:1044F00000F8421C054845300EF038FD23F0EAFD77
:10450000BDE81040132023F011BE10BD88560020D6
:104510001CB50C46002832D068460EF05FFADDE983
:10452000000112F0CDFD164A5F2102F8451F10214F
:1045300051709C2191706E21D17000211171042164
:10454000517108219171010AD1711072010E5172DD
:10455000000C9072200AD0721473200E5073200C3D
:1045600090730748112102F8421C45300EF0FEFC02
:1045700023F0B0FDBDE81C400B2023F0D7BD1CBDCF
:104580008856002070B50E4C5F20082504F8450FB2
:10459000042060707520A0706920E07000202071F8
:1045A00006206071064804F8425C294645300EF04A
:1045B000DDFC04F8425CBDE870400C2023F0B6BD81
:1045C0008856002010B500281BD00E485F2100F847
:1045D000451F04214170752181704421C170002163
:1045E000017102214171082100F8421C0548453043
:1045F0000EF0BCFC23F06EFDBDE81040082023F057
:1046000095BD10BD8856002010B500281BD00E485F
:104610005F2100F8451F0421417075218170302110
:10462000C1700021017106214171082100F8421C6E
:10463000054845300EF09AFC23F04CFDBDE81040D3
:10464000022023F073BD10BD8856002010B500284D
:1046500019D00D485F2100F8451F042141707521D4
:1046600081706921C170002101710E214171082101
:1046700000F8421C044845300EF078FCBDE81040BC
:10468000042023F053BD10BD885600201CB50C46F5
:10469000002832D068460EF0A1F9DDE9000112F0E1
:1046A0000FFD164A5F2102F8451F102151709C2111
:1046B00091707221D1700021117104215171082172
:1046C0009171010AD1711072010E5172000C907239
:1046D000200AD0721473200E5073200C9073074878
:1046E000112102F8421C45300EF040FC23F0F2FC90
:1046F000BDE81C400B2023F019BD1CBD88560020CE
:104700001CB50C46002832D068460EF067F9DDE98A
:10471000000112F0D5FC164A5F2102F8451F102156
:1047200051709C2191706021D17000211171042180
:10473000517108219171010AD1711072010E5172EB
:10474000000C9072200AD0721473200E5073200C4B
:1047500090730748112102F8421C45300EF006FC08
:1047600023F0B8FCBDE81C40122023F0DFBC1CBDC8
:10477000885600201CB50C46002832D068460EF042
:104780002DF9DDE9000112F09BFC164A5F2102F8C9
:10479000451F102151709C2191707621D17000210C
:1047A00011710421517108219171010AD1711072A6
:1047B000010E5172000C9072200AD0721473200EF8
:1047C0005073200C90730748112102F8421C4530A9
:1047D0000EF0CCFB23F07EFCBDE81C400B2023F048
:1047E000A5BC1CBD885600201CB500282BD06846EF
:1047F0000EF0F4F8DDE9000112F062FC124A5F21CC
:1048000002F8451F102151709C2191706421D170D4
:10481000002111710221517104219171010AD1719C
:104820001072010E5172000C907207480D2102F8AF
:10483000421C45300EF09AFB23F04CFCBDE81C40B6
:10484000122023F073BC1CBD8856002030B50346EF
:104850004FF6FF704AF201040CE013F8012B5040B0
:104860000022C50702D084EA500000E04008521C34
:10487000082AF6D3491E89B2EFD230BD30B50546BD
:104880000C46881E81B22846FFF7E0FF2919C3B203
:1048900011F8022C9A4206D111F8011CB1EB102F2D
:1048A00001D1012030BD002030BD00002DE9F05FB6
:1048B000002504462F461EF06FFFDFF8289442289B
:1048C0007DD01EF069FF432879D01EF065FF4A288D
:1048D00075D01EF061FF4B2871D01EF05DFF4C2893
:1048E0006DD01EF059FF5B2869D01EF055FF5C2883
:1048F00065D01EF051FF5D2861D01EF04DFF62288B
:104900005DD01EF049FF5E2859D01EF045FF4828B3
:1049100055D01EF041FF492851D01EF03DFF5328CD
:104920004DD01EF039FF582849D01EF035FF5428CD
:1049300045D01EF031FF552841D01EF02DFF5928DB
:104940003DD01EF029FF562839D01EF025FF4D28F6
:1049500035D01EF021FF4E2831D01EF01DFF4F280C
:104960002DD01EF019FF502829D01EF015FF512818
:1049700025D01EF011FF522821D01EF00DFF5F2818
:104980001DD01EF009FF602819D01EF005FF612818
:1049900015D01EF001FF452811D022F0B1FFD24EF4
:1049A00011282CD200E00AE0DFE800F01922454C83
:1049B000535A646B727980878E959CA3AA0012F07B
:1049C000F1F84946D9F8040002F0BAFA002804D0F8
:1049D0004868017821F008010170BDE8F09F26F0D9
:1049E000C3FDC149183151F8205026F01FFE05E0E3
:1049F00026F0FEFD56F8205026F05EFE0746012FF9
:104A0000EBD122F07DFF002698B36169A06F29F0F9
:104A100003FA28F0C7FE002207468846134628F00E
:104A200095FD74D82671A078002871D06078401C5C
:104A30006070A670FDE026F0D5FD56F8205026F0F7
:104A400035FEDBE726F09DFD56F8205026F0FBFDF5
:104A5000D4E726F08FFD56F8205026F0EDFDCDE787
:104A600026F0A8FDA0490C3151F8205026F006FE92
:104A7000C4E74EE026F08CFD56F8205026F0ECFD01
:104A8000BCE726F07DFD56F8205026F0DBFDB5E7AB
:104A900026F058FD56F8205026F0B6FDAEE726F079
:104AA0005DFD56F8205026F0BBFDA7E726F044FD3B
:104AB00056F8205026F0A2FDA0E726F049FD56F852
:104AC000205026F0A7FD99E726F05CFD56F820500F
:104AD00026F0BCFD92E726F061FD56F8205026F046
:104AE000C1FD8BE726F078FD56F8205026F0D8FD62
:104AF00084E726F065FD56F8205026F0C5FD7DE7D9
:104B000026F064FD56F8205026F0C4FD76E787E0D5
:104B10007BE0D9F80400DFF8CCA1DFF8D0B1407910
:104B2000AAF1040A07283CD006283AD06169606FD0
:104B300029F072F928F036FE21F000410746884638
:104B40006B4A6C4B28F0C8FB02D86078401C607040
:104B50009AF80100401CC0B28AF8010027F0DEF884
:104B600026F0D2FC29F008F8294628F07DFF06D06F
:104B700038464146604A614B28F0E8FC05D28AF885
:104B80000160002027F0CAF866705D49284629F0C8
:104B90003BF86FF0010129F019FA28F0B5FFC0B217
:104BA00057E06169A06F29F037F928F0FBFD21F08B
:104BB0000041074688465A46524B28F08DFB02D8E2
:104BC0006078401C60709AF80100401CC0B28AF8FE
:104BD000010027F0A3F826F097FC28F0CDFF294626
:104BE00028F042FF06D0384641465A46464B28F048
:104BF000ADFC05D28AF80160002027F08FF86670BE
:104C00000121284629F0E2F9C3E7E078401CC0B250
:104C1000E0700328FFF40DAF6670E670267108E7B8
:104C2000E670A07801282BD06078401C60700120CD
:104C3000A070284628F0B6FD024628F000450B4635
:104C40003846294628F082FC02D86670E670267144
:104C5000032061788142FFF4C0AE667026F08EFEBC
:104C6000D8B32078000738D4D9F8040061794D46CC
:104C7000407988420ED122F043FE20F001FF28E067
:104C80002079401CC0B220710328D0D36670E67032
:104C90002671CCE7134E083606F108077068427992
:104CA0008A420AD168603078287022F029FE20F00C
:104CB000E7FE7868686038780AE078686860387875
:104CC000287022F01DFE20F0DBFE706868603078EE
:104CD00028700121084618F01BF8207840F00800E1
:104CE00020707AE66058002028030308B81E85EB80
:104CF000FA7E6ABC7493583F7B14AE47E17A743FE6
:104D00000000404051B88E3F51B8AE3F70B522F020
:104D1000FDFDA54C801E04F1080512287ED2DFE8B7
:104D200000F01AB86CAE8DAE36AEAEA809AE4CAE81
:104D3000AEAEFEFDA079042870D1602001F0D0FB5A
:104D400022F09EFD9948002101701DF029FEBDE86A
:104D5000704000F099BBA07904285FD1E0790C285D
:104D60005CD112F0CFF81DF01BFE407960280BD00B
:104D70001DF01CFE0C22294627F045FA1DF010FEFE
:104D8000BDE8704000F05EBB1DF00AFEF2E7A079BE
:104D9000042874D1E079022871D112F0B3F81DF023
:104DA000FFFD4079602805D01DF000FE294627F060
:104DB00013FAF6E01DF0F4FDF8E7A07903285ED1C0
:104DC00012F0A0F81DF0ECFD407960280FD01DF026
:104DD000EDFD294600F0F4F81DF0E2FD4079602871
:104DE00008D01DF0E3FDBDE8704002F0AABD1DF043
:104DF000D7FDEEE71DF0D4FDF5E7A07904283ED1FC
:104E0000E07908283BD112F07DF81DF0C9FD40790A
:104E1000602807D01DF0CAFD294600E02FE000F011
:104E2000D7F81DE01DF0BCFDF6E71DF0B9FD01E06F
:104E30001DF0BCFDBDE8704002F07CBDA0790428E7
:104E40001DD1E07904281AD112F05CF81DF0A8FDFC
:104E5000407960280AD01DF0A9FD294600F000FA2B
:104E60001DF09EFD40796028E2D1DEE71DF098FD3F
:104E7000F3E7A079102802D1E0799C285BD070BDBF
:104E80001DF08EFD01E01DF091FDBDE8704000F0C9
:104E900079BAA079042504280AD1607A01282BD098
:104EA000062848D0072846D0082844D0092842D0F0
:104EB00012F028F81EF070FC5E2801D06228DED1C6
:104EC0000121022017F024FF1EF06CFC8068384995
:104ED00000690069006981601EF064FC80683549E2
:104EE000006900690069C1601EF05CFC80680069AF
:104EF00000690069457170BD12F004F81EF04CFCA9
:104F00005E2801D06228F6D10121022017F000FFAF
:104F10001EF048FC80680069006901E026E012E0AC
:104F20000069254981601EF03DFC806823490069C5
:104F300000690069D7E711F0E5FF1DF031FD407908
:104F40006028A0D19CE7E0799C28D4D111F0DAFF49
:104F50001EF022FC412803D01EF01EFC3428CAD1CA
:104F6000BDE870400121022017F0D2BEE0799C28F4
:104F7000C1D1207A5128BED111F0C4FF1EF00CFC23
:104F8000032803D10121022017F0C2FE1DF008FD05
:104F90004079602805D01DF009FDBDE8704000F0A3
:104FA00013BA1DF0FDFCF8E788560020D05500200C
:104FB000FFEE0208FAEE0208EBEE0208EFEE02083E
:104FC000002804D04A7800F86C2F097841707047A7
:104FD0002DE9F04F85B004006DD0487884F8780052
:104FE000087884F87900C87884F87A00887884F89A
:104FF0007B00487984F87000087984F87100C879DA
:1050000084F87200887984F873000026666726F0B9
:10501000A3FDA8B1206F28F0C5FB844A844B28F07B
:1050200097F90022834B27F07FFE27F04BFE824941
:105030002067884203DC4FF08441884200DA216710
:105040002078DFF8F8A104F13C01420704F12F08B1
:1050500004F13507CAF1000B04913FD520F004009C
:105060002070A06F6061206F28F09CFBCDE90001EB
:1050700073A206214046FBF73FFA606F28F092FBCF
:10508000CDE900016EA207213846FBF735FAA06F83
:1050900010F1FF4F01D2504504DB00EB0B01B1F1E1
:1050A000D47F0BD228F07EFBCDE9000166A2072158
:1050B0000498FBF721FA05B0BDE8F08F6449421867
:1050C00064498A42F7D228F01FFD0346049805B0D0
:1050D00061A2BDE8F04F0721FBF70EBAA16FA068EF
:1050E00028F08CFBA060616FE06828F087FBE0602F
:1050F000216F206928F082FB20612046FFF7D6FB54
:10510000A06F6061E079401CC0B2E0710328D2D387
:1051100028F032FD05462946206928F0E3FB01907E
:105120002946E06828F0DEFB02902946A06828F0B6
:10513000D9FB054626F0C6FBDFF8209188B326F0A0
:10514000B5FC02282ED399F8001004F1A4000390B6
:105150004A460C3804F1B009009049B11670009825
:1051600011F018FF039811F015FF484611F012FFD7
:105170002946009811F041FFDDE9021011F03DFFD2
:105180004846019911F039FF484611F019FF019086
:10519000009811F015FF0546039811F011FF0290D9
:1051A00003E0FFE7012189F80010204601F0C8FE66
:1051B00038BB019828F0F6FACDE9000120A20621BB
:1051C0004046FBF799F9029828F0ECFACDE9000186
:1051D0001BA207213846FBF78FF915F1FF4F01D2CB
:1051E000554504DB05EB0B00B0F1D47F0AD228460D
:1051F00028F0D8FACDE9000113A207210498FBF7A3
:105200007BF90DE0124829181248814208D228463D
:1052100028F07AFC034610A207210498FBF76CF9EA
:10522000E671A660E660266145E70000CDCCCCCCF7
:10523000CCCCFC3F0000404000000C43000020416B
:1052400025352E326600000025352E31660000001F
:10525000000038BD00A04403253564005C580020E0
:105260001CB5040019D0487884F87C00087884F8CC
:105270007D00C87884F87E00887884F87F0007492C
:10528000E06F28F0C1FC28F08DFACDE9000104A2FE
:10529000082104F14B00FBF72FF91CBD00007A44F4
:1052A00025352E326600000010B500281BD00E48B0
:1052B000602100F8451F062141709C218170512119
:1052C000C1700021017101214171082100F8421CC7
:1052D000054845300DF04AFE22F0FCFEBDE81040C6
:1052E000132022F023BF10BD885600207CB50C4649
:1052F000050044D068460DF071FBDDE9000111F0B6
:10530000DFFE1F4A6023102182F8453082F84610E4
:10531000B5F86C109C25B1F5807F2BD0A1F570639A
:10532000FF3B04D182F84750682182F848100021E1
:1053300002F8491F0421517008219170010AD170AF
:105340001071010E5171000C9071200AD07114720D
:10535000200E5072200C90720948112102F8461C50
:1053600045300DF003FE22F0B5FEBDE87C400B2079
:1053700022F0DCBE82F8475082F84830D7E77CBD87
:105380008856002010B500281BD00E48602100F878
:10539000451F04214170752181706621C170002173
:1053A000017101214171082100F8421C0548453076
:1053B0000DF0DCFD22F08EFEBDE81040032022F04F
:1053C000B5BE10BD8856002010B500281BD00E4871
:1053D000602100F8451F032141709C2181704E21FE
:1053E000C1700021017101214171082100F8421CA6
:1053F000054845300DF0BAFD22F06CFEBDE81040C6
:105400000E2022F093BE10BD885600200C4810B527
:10541000602100F8451F04214170752282706922C5
:10542000C270002202714171082100F8421C044838
:1054300045300DF09BFDBDE810400C2022F076BEFB
:105440008856002010B500281BD00E48602100F8B7
:10545000451F04214170752181704521C1700021D3
:10546000017101214171082100F8421C05484530B5
:105470000DF07CFD22F02EFEBDE81040082022F049
:1054800055BE10BD8856002010B500281BD00E4810
:10549000602100F8451F0421417075218170302181
:1054A000C1700021017106214171082100F8421CE0
:1054B000054845300DF05AFD22F00CFEBDE81040C5
:1054C000022022F033BE10BD8856002010B50028FF
:1054D00018D00D486021752200F8451F0421417045
:1054E00082706922C270002202714171082100F8A5
:1054F000421C054845300DF039FDBDE81040042040
:1055000022F014BE10BD00008856002010B50028FF
:1055100019D00D48602100F8451F04214170752104
:1055200081707821C170002101710221417108212F
:1055300000F8421C044845300DF018FDBDE810404D
:10554000062022F0F3BD10BD8856002010B50028BB
:105550001AD00E48602200F8452F062242709C2285
:1055600082704E22C2700A0A02714171082100F84D
:10557000421C064845300DF0F9FC22F0ABFDBDE8B9
:105580001040122022F0D2BD10BD0000885600202D
:105590007CB50C46050043D068460DF01FFADDE9E6
:1055A000000111F08DFD1F4A60219C2382F84510F7
:1055B000102182F84610B5F86C10B1F5807F2BD021
:1055C000A1F57065FF3D04D182F847306C2182F867
:1055D0004810002102F8491F0421517008219170E0
:1055E000010AD1701071010E5171000C9071200AE6
:1055F000D0711472200E5072200C90720948112143
:1056000002F8461C45300DF0B1FC22F063FDBDE808
:105610007C400B2022F08ABD82F847306421D6E717
:105620007CBD00008856002010B5002827D0144A01
:1056300040F8701F602102F8451F102151709C2115
:1056400091705721D17000211171022151710421F3
:1056500091714178D17101781172C178517280785D
:10566000907207480D2102F8421C45300DF07EFC77
:1056700022F030FDBDE81040122022F057BD10BDD1
:10568000885600204FF461710148FBF7AEB8000066
:10569000FE78002010B50E4C6421207820F0070021
:1056A000207004F12800FBF7C2F80020C4F80500C0
:1056B000C4F80900A4F80D00E07320616061A061E6
:1056C000A4F80300E06120626062A4F8010010BD4C
:1056D00064570020024800210161416181617047E7
:1056E0006457002064210148FBF7A1B88C570020C3
:1056F00002480021C1610162416270476457002085
:1057000001481EF031B80000B85500200D48A0F146
:105710009802C1689161002905D00878430703D534
:1057200040F001000870704790690069906103784B
:105730005B0704D5017841F0010101707047814297
:10574000F2D17047B85500202DE9F04122F0DEF883
:105750008049814C814D0426801E01F108071428E0
:1057600070D2DFE800F01B914F91919134919193A9
:105770000A91D4919191BDAB70708879032861D161
:105780003A2000F0ADFE22F07BF875490020087049
:105790001DF006F9BDE8F04100F054BA88790328FD
:1057A00072D111F0AFFB1DF0FBF840793A280BD015
:1057B0001DF0FCF80022394600F0E9F81DF0F0F881
:1057C000BDE8F04100F01CBA1DF0EAF8F2E7887974
:1057D000032859D111F096FB1DF0E2F840793A28E0
:1057E00004D01DF0E3F800F0BDF889E01DF0D8F812
:1057F000F9E71DF0D5F801E01DF0D8F8BDE8F0415B
:1058000000F040BA887903283ED111F07BFB1DF0EF
:10581000C7F840793A280FD01DF0C8F8394600F093
:10582000E9F81DF0BDF840793A2808D01DF0BEF81F
:10583000BDE8F04102F07EB81DF0B2F8EEE71DF0D1
:10584000AFF8F5E720E0887906281DD1887AFF288F
:105850001AD111F057FB1DF09FFF422801D04328B9
:1058600012D10121022017F053FA1DF09BFF80682E
:10587000006984601DF096FF80680069C5601DF0B6
:1058800091FF806800694671BDE8F08111F03AFB34
:105890001DF082FF0328E4D0422808D04328F3D12A
:1058A0001DF08AF8BDE8F041FF2100F081BA1DF03B
:1058B00083F8BDE8F041FF2100F0C6BA88790628D8
:1058C000E2D1087A1B28DFD111F01CFB1DF064FF28
:1058D0000328D9D1BDE8F0410121022017F018BA00
:1058E00088791028D0D1087A1428CDD111F00AFB7C
:1058F0001DF052FF412803D10121022017F008FAC0
:105900001DF04EF840793A287FF476AF71E7887938
:105910000328B9D1C8790428B6D111F0F3FA1DF0E3
:105920003FF840793A280FD01DF040F802F009F80E
:105930001DF036F840793A2809D01DF037F839467D
:10594000BDE8F04100F049B81DF02AF8EEE71DF07F
:1059500027F8F4E788560020EBEE0208EFEE020885
:10596000D055002010B5002810D031232E2180F80A
:105970002230302280F8231080F82420002480F880
:10598000254000F81D3F41708270C47010BD30B5D5
:10599000002818D00AB100231CE04C2100F85A1F3F
:1059A000482242702D2282704423C3700171332338
:1059B0004371312383713223C371027243224272D5
:1059C00081722021C17230BDCC5CC5185B1C85F88A
:1059D0005A40DBB29342F7D330BD002808D04A7852
:1059E00000F88C2F0A784270CA7882708978C1706A
:1059F000704700002DE9FE4F040059D0487884F824
:105A00007800087884F87900C87884F87A00887873
:105A100084F87B00487984F87000087984F8710074
:105A2000C87984F87200887984F8730026F094F8B5
:105A3000A8B1206F27F0B6FE574A584B27F088FCD4
:105A40000022574B27F070F927F03CF955492067A1
:105A5000884203DC4FF08441884200DA21672078D5
:105A6000DFF8449104F13C01420704F12F05029153
:105A700020D520F004002070A06F6061206F27F017
:105A800091FECDE9000149A206212846FAF734FD2E
:105A9000A06F484503DB27F085FE46A202E027F011
:105AA00081FE46A2CDE9000107210298FAF724FD04
:105AB000BDE8FE8FA16FA06827F0A0FEA060216F57
:105AC000206927F09BFE20612046FEF7EFFEA06FC5
:105AD0006061E079401CC0B2E0710328E8D328F08F
