:020000040800F2
:10000000D89E00203D020008811B010879F50008F8
:10001000110B0108AD2F0008D54F010800000000AA
:10002000000000000000000000000000C9360108C8
:100030002DAC00080000000009340108693D0108EA
:10004000570200085702000857020008570200082C
:10005000570200085702000857020008570200081C
:10006000570200085702000857020008570200080C
:1000700057020008995E000857020008A55E0008B4
:10008000B15E000857020008570200085702000836
:1000900057020008570200085702000857020008DC
:1000A00057020008570200085702000857020008CC
:1000B000454301085702000857020008570200088C
:1000C00057020008570200085702000857020008AC
:1000D00057020008C94E0108E14E0108F94E010817
:1000E000570200085702000857020008570200088C
:1000F00057020008000000005702000857020008DD
:10010000570200085702000857020008570200086B
:1001100057020008570200085702000800000000BC
:100120005702000800F002F800F078F80AA090E802
:10013000000C82448344AAF10107DA4501D100F0A2
:100140006DF8AFF2090EBAE80F0013F0010F18BFF7
:10015000FB1A43F001031847241003004410030066
:1001600010F8013B0A4413F0030408BF10F8014BD8
:100170001D1108BF10F8015B641E05D010F8016B5B
:10018000641E01F8016BF9D1002D15D010F8014B58
:1001900003F00C030C2BA1EB04040ABF10F8013B85
:1001A000A4EB8314A4EB032405F1010314F8016B01
:1001B0005B1E01F8016BF9D5914238BF10F8013B85
:1001C000D1D370470023002400250026103A28BF11
:1001D00078C1FBD8520728BF30C148BF0B607047B9
:1001E00066292EF05585642900F0C88100207047EB
:1001F0001FB59DE8030000F061FB00F0B7FE0400AE
:10020000002000212DF00CFC401C6060002000212B
:100210002DF0F0FBE0601FBD10B510BD00F0F0FF49
:100220001146FFF7E5FF26F013FF01F093FA03B440
:10023000FFF7F2FF03BC01F003FB00000948804711
:1002400009480047FEE7FEE7FEE7FEE7FEE7FEE7B8
:10025000FEE7FEE7FEE7FEE704480549054A064BD0
:1002600070470000E93D010825010008D87E002004
:10027000D89E0020D88E0020D88E002070B5A0FB1C
:100280000140B4F1805170F1000024BF002070BD26
:10029000204600F007F805001CBF214600F0A5FA33
:1002A000284670BD70B5064600F0ECFA056806F108
:1002B0000B0020F00704B4429CBF002070BD2B4609
:1002C0006A68BAB11068A04210D304F108018842EC
:1002D0003CBF5068586007D35168101941601168DD
:1002E000091B016058601460101D70BD13465268F0
:1002F000002AE7D12146284600F0CCFA0028DED1BA
:1003000070BD70B50446051F00F0BCFA0068002CF3
:1003100014BF446870BD002C18BFAC423CBF2046DF
:100320006468F8D301680A18AA4218BF456003D16F
:100330002A6805461144016028684119A1421CBF82
:100340006C6070BD6168696021680844286070BD98
:1003500070B50D460646041F00F094FAD0F800C0B0
:10036000C5B1E6B105F10B0020F00703AB423CBF7D
:10037000002070BD2068984238BFDCF8042013D3F9
:10038000C11A08292FD3E01840F8041B2360FFF797
:10039000B8FF28E03046FFF7B4FF002070BD2846C4
:1003A000BDE87040FFF77EBF002A18BFA2423CBFE5
:1003B00094465268F8D30119914216D11168084445
:1003C000984212D3C11A08293CBF2060506808D354
:1003D0005168E0184160216812681144C91A01602F
:1003E0002360CCF80400201D70BD181FFFF75AFFD2
:1003F000050007D021680A1F211D00F081FD201D86
:10040000FFF77FFF284670BD53EA020C00F06980B9
:100410002DE9F04B4FF00006002B1FBFB3FA83F518
:1004200003FA05F424FA05F65E4012BF1643B2FA49
:1004300082F502FA05F4C5F120051EBF22FA05FC7B
:1004400044EA0C04203556EA044C4FEA144418BF21
:10045000641C4FF000084FF00009904271EB030C50
:1004600039D3002919BFB1FA81F701FA07F6B0FABA
:1004700080F700FA07F6C7F120071EBF20FA07FC35
:1004800046EA0C062037B6FBF4FCA7EB0507103F45
:1004900007F01F0BCBF120060CFA0BFB2CFA06F62B
:1004A00044BFB3460026202FA4BF5E464FF0000B8A
:1004B0005BEA060C08BF4FF0010B19EB0B09ABFB15
:1004C000027C48EB0608C01B06FB02CC0BFB03CCEE
:1004D00071EB0C01C1E70B46024641464846BDE8B8
:1004E000F08B13B54FF000004FF00001AFF3008028
:1004F000BDE81C40704700000FB41CB50C0007AAF3
:10050000009001D02044401E074B7B446946019077
:10051000069800F082FC002C03D06946002000F011
:100520008FFC1CBC5DF814FB3D09000070B504464F
:1005300085690068C10601D5302600E02026C00785
:1005400007D070BDD4E9012130469047206A401C95
:1005500020626D1EF6D570BD70B5044685690078C1
:10056000C00707D170BDD4E9012120209047206A3F
:10057000401C20626D1EF6D570BD00002DE9F041D3
:100580000646002410687529314616A510D0AFF331
:100590000080002802DA404213A507E031688A078C
:1005A00001D512A502E0490704D511A5012401E0F7
:1005B000AFF3008000210A2206F1240709E0B0FB16
:1005C000F2FCB0FBF2F302FB1C003030785418460A
:1005D000491C0028F3D123462A463046BDE8F041A5
:1005E00000F0ADB9000000002D0000002B0000005D
:1005F000200000002DE9F05F894604464FF0000A14
:10060000DFF824B1FB44C0F820A02046E168884709
:1006100000287DD0252806D0D4E901219047206A02
:10062000401C2062F1E700255F462046E1688847CC
:100630002028064607DB312E05D2B81910F8200C09
:1006400008B10543F1E7A80701D525F00405C4F872
:100650001CA00027C4F818A02A2E09D0304614F098
:1006600054FF38B304EB8708303EC8F8186019E02F
:1006700059F8041B204604EB87029161E168884722
:10068000012F064618D1E069002820DA25F0200560
:100690001DE0D8F8180000EB800006EB4000303871
:1006A000C8F818002046E1688847064614F02DFF78
:1006B0000028EED1012F0AD02E2E08D12046E16865
:1006C00088477F1C0646022F45F02005C4DBA06941
:1006D000002803DA404245F00105A061E80701D097
:1006E00025F01005A6B1A6F14100192802D8203640
:1006F00045F400654A463146204625604D46FFF7E1
:100700006FFD60B1012807D0ED1D25F0070000E066
:1007100007E000F1080978E705F1040975E73046BC
:100720007AE7206ABDE8F09FCC0A030030B50546A1
:100730000B462A4613F8014B12F8010B08B1A042F0
:10074000F8D01CB1002802D06D1CF1E7284630BD5E
:10075000032A40F2308010F0030C00F0158011F8ED
:10076000013BBCF1020F624498BF11F801CB00F8C5
:10077000013B38BF11F8013BA2F1040298BF00F819
:1007800001CB38BF00F8013B11F0030300F0B88340
:10079000083AC0F0088051F8043B083A51F804CBFD
:1007A000A0E80810F5E7121D5CBF51F8043B40F8C3
:1007B000043BAFF30080D20724BF11F8013B11F8CE
:1007C00001CB48BF11F8012B24BF00F8013B00F812
:1007D00001CB48BF00F8012B704702F0FF0343EA4A
:1007E000032242EA024200F002B84FF0000204295C
:1007F000C0F0128010F0030C00F01B80CCF1040C50
:10080000BCF1020F18BF00F8012BA8BF20F8022B83
:10081000A1EB0C0100F00DB85FEAC17C24BF00F829
:10082000012B00F8012B48BF00F8012B70474FF057
:10083000000200B5134694469646203922BFA0E830
:100840000C50A0E80C50B1F12001BFF4F7AF09073C
:1008500028BFA0E80C5048BF0CC05DF804EB89002D
:1008600028BF40F8042B08BF704748BF20F8022B70
:1008700011F0804F18BF00F8012B70477047704788
:100880007047000000487047807E00207047704726
:100890007047704738B504460A4600206946AFF3F2
:1008A0000080002808BF38BD02460099204600F0AD
:1008B00065FB012038BD012000F09ABCF8B5AFF30C
:1008C0000080054600200C46102000BF0646A819EF
:1008D000A0420DD9324669460020AFF300800700E0
:1008E00008BF00F085FC0098A04218BF0546C41957
:1008F000FFF7C8FF05600746F01D20F00700461906
:10090000284600F00AF8B44208BFF8BDA21B3146E1
:100910003868BDE8F84000F031BB00210160C0E953
:10092000011070471020704710B500F023FB0068DD
:1009300010BD10B5044600F01DFB046010BD2DE98C
:10094000F0470D4699469246044600F12408016896
:10095000880604D5E06921F01001216000E0012043
:10096000A84201DD471B00E00027A1697A1902EBCC
:100970000900081AA0612078C00602D42046FFF7BB
:10098000D5FD002608E0D4E901211AF806009047B9
:10099000206A401C761C20624E45F4DB2078C0069D
:1009A0000AD52046FFF7C2FD06E0D4E90121302038
:1009B0009047206A401C2062381EA7F10107F4DC32
:1009C00007E0D4E9012118F805009047206A401C8F
:1009D0002062281EA5F10105F3DC2046FFF7BCFDCF
:1009E0002078000602D50220BDE8F0870120FBE751
:1009F00070472DE9FF4F0C461E464FF0FF378BB076
:100A0000D2E90001DDF860800A908A46C1F30A55F8
:100A100005B93D46002108464FF00000BAF1000F2D
:100A200000F4400005DA00EB80004FF4400101EAD9
:100A300050004FEA9059B9F1010F00DDB9460A980C
:100A400050EA4A000ED044F61050A5F2FF35454357
:100A50002F14B8F1000F1ED07542291E1EDDC9F1FA
:100A600000021CE0B8F1010F4FF0000001D030216E
:100A700003E0F24305E02154401CB042FBDB30466A
:100A80000022002121540B99C1F80880C1E90020FF
:100A90000FB0BDE8F08FBD1B6D1CDEE74A4600DAE3
:100AA000694206A800F032FB06AB93E8070003ABEF
:100AB00083E8070050460A9901F033F98DE80700F2
:100AC000A0F500501F3800900398002D0ADD42F277
:100AD0001F014A460844002303A90390684601F019
:100AE000DFFB09E0A0F500504A461F38002303A9A8
:100AF0000390684601F0FEFB8DE807000004000C3F
:100B000003D04FF0FF30410800E01046B8F1000F6D
:100B100003D00022009215461EE0751E05D400F099
:100B200047FA303262556D1EF9D5B34601220843AB
:100B300002D000227F1C04E02078302801D100225E
:100B40007F1E002A099784D01DE0112D07DA00F0DE
:100B50002FFA303262556D1C50EA0102F5D108437C
:100B600002D00098C8B10EE00021681E05E0235CA9
:100B7000625C63542254401E491C8142F7DBAB4641
:100B8000A81B401E0990002004F80B000B98099A3E
:100B9000C0F80880C0E9002B7AE711264FF0000862
:100BA00057E72DE9F04F88460446D21D22F0070191
:100BB00091B0D1E90001CDE90A0114F001FC02462F
:100BC0000B98C00F01D02D2007E02068810701D5C8
:100BD0002B2002E0202101EAC000032A099001D065
:100BE000072A05DB03464146204600F02FFA0BE1B9
:100BF0002078800601D5E06900E00620B8F1650F95
:100C0000814606D0B8F1660F18D0B8F1670F70D1E1
:100C100031E00020B9F1110F009001DB112301E058
:100C200009F101030AAA01A90CA8FFF7E2FEDDE918
:100C30000C70002609F10105834647E001204B4670
:100C400000904FF000470AAA01A90CA8FFF7D1FEB7
:100C5000DDE90DB00C995D46002610B909F10100DF
:100C60000D18B9EB050003D4C0F1FF3609F10105F9
:100C7000A5EB09002BE0B9F1010F01DA4FF00109F2
:100C80000020B9F1110F0090484601DD112300E06A
:100C900003460AAA01A90CA8FFF7ABFEDDE90C7018
:100CA0004D4600268346207800070AD4AB4500DA7B
:100CB0005D4601A8012D04DD411911F8011C302900
:100CC00007D04F4502DA17F1040F04DA01208246FB
:100CD0000FE06D1EEEE7002F02DCED1B3E4403E04B
:100CE000781CA84200DD7D1CB81B00F1010A4FF002
:100CF00000472078000703D4AA4501DB4FF0FF3AF4
:100D00000021B7F1004F0DF143088DF8431024D0B6
:100D100002202B23002F01DA7F422D230A21021EFD
:100D2000A0F1010000DC5FB197FBF1FC97FBF1F251
:100D300001FB1C7C17460CF1300C08F801CDEEE7E6
:100D4000A8F1010003702188090501D5452100E0C3
:100D50006521A0F1010800F8011C09980FA9A1EB79
:100D60000807FF1D00B10120411901EBEA70A169DC
:100D70003844081A401EA0612078C00602D42046DC
:100D8000FFF7D4FB099828B1D4E901219047206AE4
:100D9000401C20622078C00622D52046FFF7C6FB03
:100DA0001EE0002E04DBB34502DD01A8805D00E0FB
:100DB0003020D4E901219047206A401C2062761C33
:100DC000AAF101005FEA000A0AD100F0CFF8C0687A
:100DD0000168405CD4E901219047206A401C2062F0
:100DE000281EA5F10105DCDC07E0D4E9012118F893
:100DF000010B9047206A401C2062381EA7F10107B2
:100E0000F3DC2046FFF7A8FB032011B041E6000009
:100E100001694A1C02610878704700B58FB0CDE9BE
:100E200001310021059105497944CDE903101146AE
:100E30006846FFF7DFFB0FB000BD0000E5FFFFFFD6
:100E40000A6802F8010B0A607047D1E900239A4250
:100E500002D2531C0B601070704700000FB40023C7
:100E600000B589B00CA900910B99CB60214B7B4454
:100E70000693214B7B44079304236FF00042CDE996
:100E800001321E4A7A446B460892024600202DF039
:100E900087FF09B05DF814FB70B506464FF0FF30D0
:100EA00015460C46324686B00091CDE901016946EF
:100EB0000020049004A8FFF7D1FF024604982118EF
:100EC00025B108B1084600E02046286004980028B3
:100ED0000DD0002A02DD0098884208D03246081B57
:100EE00069460094CDE9010404A8FFF7B7FF06B0F6
:100EF00070BD00005B02000073020000B30100003F
:100F000010B5203AC0F00B80B1E81850203AA0E8A4
:100F10001850B1E81850A0E81850BFF4F5AF5FEAD8
:100F2000027C24BFB1E81850A0E8185044BF18C98B
:100F300018C0BDE810405FEA827C24BF51F8043B32
:100F400040F8043B08BF7047D20728BF31F8023B86
:100F500048BF11F8012B28BF20F8023B48BF00F81A
:100F6000012B704700487047787E0020004870478A
:100F7000987E002000487047787E00200346406835
:100F80008C46002818BF88423CBF03464068F8D30F
:100F900018681844884207D00CF1030020F00700BD
:100FA000001D411A521A0146081D0A60FFF7A9B92F
:100FB00030B5B0F10A024FEA900E71F100034EEA2B
:100FC000817EB0EB0E0061EB91014FEA101E4EEAFC
:100FD000017E10EB0E0041EB11114FEA102E4EEA8C
:100FE000016E10EB0E0041EB11214FEA104E4EEA5C
:100FF000014E10EB0E0041EB1141401841F1000190
:101000004FEAD00040EA41704FEAD10110EB800571
:101010004FEA810444EA907444EB01046D1944EBF7
:101020000404521BA3414FF0000348BF0A3200D50D
:1010300030BD401C41F1000130BD10B5044600F048
:1010400005F90068005D00F0010010BD2DE9F041D8
:101050001F46044603260168072A01F4006004DBEA
:1010600008B116A505E016A503E008B115A500E036
:1010700015A521F010002060A069C01EA0610FB16D
:10108000401EA0612046FFF751FA4FB1D4E901217B
:1010900038469047206A401C2062C01C206206E04F
:1010A000206AFAE7D4E9012115F8010B9047761E72
:1010B000F8D22046FFF750FABDE8F0814E414E00CD
:1010C0006E616E00494E4600696E6600426842B12C
:1010D000016811F8013B23B1521EC0E90012184605
:1010E00070470121C160881E704742685AB1C368C9
:1010F000016843B983688B4205D0491E521CC0E980
:101100000012002070474FF0FF3070472DE9F04784
:10111000814616468AB0354878440DC88DE80D00E2
:1011200032487844801C03AC0DC884E80D0041F6B9
:101130009B300844372190FBF1F290FBF1F5A5F1CB
:10114000800501FB12041B3C02D56442012000E033
:101150000020DFF898A080460027FA44AAF1BE0AD2
:101160000EE0E0070AD03246684607EB470101234C
:101170000AEB810101F0BEF88DE8070064107F1CC6
:10118000002CEED1194F7F44AE3F19E0E80715D08F
:1011900007EB04100DF1180A90E80E008AE80E0023
:1011A000C068F04201D1981908903246012306A97F
:1011B00003A801F09FF803AB83E807006D10641CDF
:1011C000002DE3D14FF0010332466946B8F1000F1C
:1011D00003A802D001F064F801E001F08BF8C9E93E
:1011E0000001C9F808200AB0BDE8F08748000300F4
:1011F00010B500F0BDFABDE8104000F0B4BA704779
:101200007546FFF7AFFEAE4605006946534620F02F
:101210000700854618B020B5FFF71EF8BDE820404E
:101220004FF000064FF000074FF000084FF0000BA2
:1012300021F00701AC46ACE8C009ACE8C009ACE855
:10124000C009ACE8C0098D467047000010B5FFF733
:101250008DFE001D10BD00BFC9C702002DE9FF4F64
:1012600006468BB00878FF2806D0491C2D2805D0EB
:1012700000244FF0000908E000200CE00124F8E70A
:1012800009EB8903491C00EB43090878FF28F7D1D3
:1012900014B1C9F100008146107800252C46AA46F9
:1012A00029462D2801D02B2804D1521C2D2813D0DB
:1012B000002082468B461078FF280FD04FF0000C9C
:1012C0000A21521CA5FB017804FB018105FB0C11CE
:1012D000C5194BEB0104EEE70120EAE700210846BF
:1012E0004FF00000BAF1000F02D000EB8000400880
:1012F000C0F38157012F01DD4FF0FF370E9955EAFA
:10130000040009EB01080BD04FF0020918F5FA7F31
:1013100016DA4FEACA70002F706008DD012007E07E
:101320004FEACA70C6E900B00FB0BDE8F08F0020E8
:101330003060FFF71FFEC0F800901821084616E045
:10134000B8F5FA7F18DD002F02DAF748784401E09B
:10135000F6487844D0E90010C6E9001040EACA70A7
:101360007060FFF707FEC0F80090142108460FB028
:10137000BDE8F04F2DF089BC002108464FF0000079
:10138000B8F10001099002DAC7F1000200E03A4624
:1013900001DAC8F1000106A8FFF7B8FE06AB93E832
:1013A000070003AB83E8070044F23E005BEA040158
:1013B0000090584604D144F21E012C465D4600912F
:1013C000210C0904014306D10099240444EA154480
:1013D0002D041039009104F07F41014306D100999A
:1013E000240244EA15642D020839009104F070418A
:1013F000014306D10099240144EA15742D01091F07
:10140000009104F04041014306D10099A40044EA50
:101410009574AD00891E009104F00041084304D189
:1014200000986D196441401E00904FF001033A4648
:101430006846B8F1000FCDE9014503A902DD00F0CF
:101440006EFF01E000F041FFBAF1000F04460D46C7
:1014500001D084F00044002108464FF000000999B3
:1014600040F2FF77484010F00C0F07D124F0004005
:10147000284303D0C4F30A50B84212D1FFF77AFDD3
:10148000C0F80090C4F30A50B8420AD1A848784482
:10149000D0E90010C6E9001004F000410843706074
:1014A00042E7C6E900543FE72DE9FF4F1F464FF0E2
:1014B000000A4FF0FF38454691B0D7E90146CDF814
:1014C0003CA0FFF753FDC0680168405C1090B9690B
:1014D00012986D1C8847396A814688470028F6D1E2
:1014E000B9F1FF3F0AD0002E24F4D06411DDB9F128
:1014F0002B0F08D0B9F12D0F0BD102E0404615B0EB
:1015000013E744F48064B96912986D1C8847761E0D
:101510008146600504A901D52D2000E02B20002E76
:1015200001F1010B0DF130088DF810003FDDB9F12C
:10153000690F08D0B9F1490F05D0B9F16E0F02D08B
:10154000B9F14E0F1CD13B4601A8009580E850022E
:10155000DDE912126FF002002DF026FCC11CCED185
:101560000EE0B96912986D1C884781461398761E63
:1015700044F4007405600F98401C002E0F9016DD97
:10158000B9F1300FEDD0B9F1780F02D0B9F1580FA1
:101590000DD10F9801280AD13B46CDE90054DDE971
:1015A0001212001F02962DF0FDFBC11CA7D110994D
:1015B00089453ED144F0800406E01399681CAAF1E5
:1015C000010A44F400740860B9696D1C1298761E13
:1015D000884730288146F0D02BE01099894505D105
:1015E000200603D4761E44F0800418E0484613F029
:1015F0008CFF08B3761E0DF123018B4544F4007473
:1016000008D2A9F130000BF8010B200607D5AAF18A
:10161000010003E0200602D40AF101008246A00581
:1016200002D51399681C0860B96912986D1C884727
:101630008146002ED1DC53E0002E51DDB9F1650F5B
:1016400002D0B9F1450F4BD1A00549D5B9696D1C40
:101650001298761E24F440748847002E81460CDDD3
:101660002B2804D0B9F12D0F07D144F48074B96947
:1016700012986D1C8847761E8146E00501D52D2104
:1016800000E02B2108F8011BCDF8008021E0761E38
:101690000DF13901884544F400740CD2A9F13000F1
:1016A00010F0FF0088F8000002D10099884509D9A0
:1016B00008F1010806E0E00501D51E4801E042F20C
:1016C0000F708246B96912986D1C8847814613983D
:1016D0000560002E04DD484613F017FF0028D6D120
:1016E000F96912988847FF2053468BF8000088F864
:1016F000000000200A900B9004AA0CA90AA8FFF78A
:10170000ADFDA00502D46FF00100F8E614F0240F3F
:1017100012D0E0071CD13868DDE90A12031D3B60D6
:101720000068C0E9001213E054FE020046FE020009
:101730000AFD0200F1D8FFFF0AA9684613F074FE03
:10174000E00705D13868009A011D39600068026021
:101750002846D4E610B50446AFF300802046BDE825
:101760001040FEF764BD002801D000F069B8704752
:1017700010B5012805D0002103A000F067F8012072
:1017800010BD09A1F8E7000053494752544D454D9B
:101790003A204F7574206F662068656170206D6512
:1017A0006D6F7279000000003A2048656170206D0D
:1017B000656D6F727920636F727275707465640005
:1017C0004FF0013C50F8042B51F8043B9A4221D1D0
:1017D000A2EB0C03934313EACC1317D150F8042B5C
:1017E00051F8043B9A4215D1A2EB0C03934313EA40
:1017F000CC130BD150F8042B51F8043B9A4209D179
:10180000A2EB0C03934313EACC13DBD04FF00000A0
:10181000704700BFD01A01BAB1FA81F101F0180186
:1018200022FA01F0CB40C1F12001DBB2C0B2C01AF4
:101830002CFA01F3D11A914311EAC311E6D1704792
:1018400001491820ABBEFEE72600020070B5054630
:101850000C460A2000E06D1C00F011F835B1287824
:101860000028F8D102E0641C00F009F814B12078D7
:101870000028F8D1BDE870400A20AFF3008008B519
:1018800069468DF800000320ABBE08BD2DE9FF4F6F
:101890001F464FF03C0987B04FF00042DDE91410BD
:1018A00001F10108DDF858A002EA40500390002041
:1018B00005908346054604460490B969461E08987B
:1018C0008847AAF1010A0290BAF1000F3BDD0298A5
:1018D0002E2815D0102100F016FA00282EDB4FF02C
:1018E000010B0599014317D0B9F1000F0BDB4A46F4
:1018F000C11700F0F5F905430C43A9F1040905E00F
:10190000012004900BE008B145F00105012005908D
:10191000049820B9361D02E0049800B1361FB96959
:10192000089808F101088847BBF1000FAAF1010AE5
:101930000290C9D00999C1F80080C5E702987028C3
:1019400008D0502806D0F96908988847BBF1000FE5
:1019500014D04FE0002002900120BBF1000F049052
:1019600009D0B969089808F101088847AAF1010966
:10197000B9F1000F07DCF969089888476FF001009A
:101980000BB0BDE8F08F2B2804D02D280CD14FF0E0
:10199000FF300490B969089808F101088847A9F157
:1019A0000109B9F1000FE6DD411CE4D00A2100F085
:1019B000AAF90028DFDB029908F1010801EB810197
:1019C00000EB41000290B969089888470A2100F0AD
:1019D0009AF9099AA9F10109B9F1000FC2F800803A
:1019E00001DD0028E7DAF969089888470499029828
:1019F00000FB016655EA040004D004F040410900F0
:101A000002D006E0039898E0A40044EA9574AD0083
:101A1000B61E04F00041080002D16D196441761E23
:101A2000159810F0240F03D04FF00B095C4803E029
:101A30004FF028096FF07D008246564507DAAAEB81
:101A400006018944B9F1410F01DD4FF04109012040
:101A50000021A9F1010200F043F9024628400B469B
:101A60002140084301D0012100E00021501E0291D5
:101A700043F1FF3128402140084301D0012000E01C
:101A800000200299834651EA0B014FD000210846FD
:101A90004FF00000039900F4400039B100EB8000E2
:101AA0004FF4400100EBD07001EA6000801501287E
:101AB00002DD4FF0FF3000E013D0401C36D002981A
:101AC00060B3BBF1000F0CD14A460120002100F0A9
:101AD00007F928402140084301D0012000E0002000
:101AE000E0B101204A46002100F0FAF8034640190F
:101AF0000A4661412D1A8C4111D3B9F1400F09DD1D
:101B0000159810F0240F02D0AAF1340603E0AAF1D0
:101B1000170600E0761C00254FF0004406E05B1E2F
:101B200042F1FF3220EA030521EA0204CAF1010072
:101B3000B04206DA1B490398084301900020009048
:101B40000EE0039AC4F3D321E80A0A43164940EA97
:101B500044500A433146CDE90002684613F0CAFCFE
:101B6000159810F0240F0BD01598C00715D13868C0
:101B7000DDE90012031D3B600068C0E900120CE0C3
:101B800002A8694613F050FC1598C00705D13868C3
:101B9000029A011D3960006802604046F0E60000CC
:101BA00002FCFFFF0000F07F0000F03F2DE9FF4F37
:101BB00092461D4685B04FF00041DDE9124BDDE94C
:101BC00014727F1E01EA4B50414940F0FF4940EA40
:101BD0000108002122F020004928049102D04E285B
:101BE00028D04CE03BA0012607C88DE80700A96972
:101BF0000698641C88477F1E014606D41DF806001F
:101C000018B121F0200181420BD0E969069888477C
:101C1000032E34D0082E32D06FF0010009B0BDE899
:101C2000F08F761C032E01D0082EE0D1601CCAF87C
:101C30000000DCE7A9690698641C88477F1E2AD447
:101C400020F02000412826D1A9690698641C884705
:101C50007F1E20D420F020004E281CD1A9690698B0
:101C6000641C88477F1E48F4002849F48009CAF89C
:101C7000004001D4282806D0E969069888475FEA21
:101C8000CB7012D022E0A9690698641C88477F1E99
:101C900001D4002803DAE96906988847BCE72928B7
:101CA000F1D1641CCAF80040E9E71BF0240F07D00B
:101CB00028680499031D2B600068C0E9001805E03E
:101CC0002868021D2A600068C0F800902046A5E739
:101CD0000000F07F494E46494E495459000000002B
:101CE000B2F120030AD5C2F1200301FA02F120FA71
:101CF00003F300FA02F041EA0301704700FA03F12E
:101D00004FF0000070473A2800D2303820F020020F
:101D1000412A01D3A2F13700884201D34FF0FF30AE
:101D200070475FEA400C08BF91F0000F4FEA8C2328
:101D30004FEAC12243EA51514FEA1C5018BF00F547
:101D4000F0404FEA300018BF41F000415FEA6C5CA0
:101D500000F02980BCF1FF3F08BF40F08040704791
:101D6000130C06BF12044FF0100C4FF0000C130EB2
:101D700004BF12020CF1080C130F04BF12010CF186
:101D8000040C930F04BF92000CF1020CD30F04BF9C
:101D900052000CF1010C11464FF00002A0F11F009F
:101DA000A0EB0C00704711F0004F08BF704731F0F6
:101DB00000413FF4D5AF0B0C06BF09044FF0100CE7
:101DC0004FF0000C0B0E04BF09020CF1080C0B0FB6
:101DD00004BF09010CF1040C8B0F04BF89000CF146
:101DE000020CCB0F04BF49000CF1010CCCF1200315
:101DF000A0EB0C0022FA03F302FA0CF241EA030111
:101E000000F10100704720F07F4C80EA030023F0CE
:101E10007F47ACEB070303F57C5300F0004003F170
:101E2000FF032DE980494FEA154B09B44FEA1443EB
:101E300025EA0B4E24EA03480FF2042606EB13278B
:101E400049083E785FEA320203FB0667C7F50007E0
:101E500007FB06F64FEA54374FEAD64606F102066C
:101E600007FB066CCCF1005C4FEA1C472CEA074CE0
:101E700007FB06F40CFB06F504EB15464FEA961635
:101E800034BF00204FF000404FEAD13706FB07FC7B
:101E90004FEA1C4C0CFB0BF7D21B03FB0CF761EB5E
:101EA00007010CFB0EF7B0EB074072EB17420CFB7F
:101EB00008F734BFA2EB0742B2EB074261EB1741D0
:101EC0004FEA0C444FEA910706FB07FC4FEA1C4C13
:101ED0000CFB0BF7B0EBC74072EB573203FB0CF770
:101EE00034BFA2EBC742B2EBC74261EB57310CFBE8
:101EF0000EF7B0EBC70072EB57720CFB08F734BF5C
:101F0000A2EBC702B2EBC70261EB5771039F4FEA26
:101F1000816141EA921104EBCC044FEAD1374FEAD8
:101F2000826206FB07FC42EA90124FEA80604FEAA9
:101F30001C4C0CFB0BF7D21B03FB0CF761EB0701EE
:101F40000CFB0EF7B0EB074072EB17420CFB08F7E7
:101F500034BFA2EB0742B2EB074261EB17414FEAF5
:101F60008C554FEA910704EB9C2406FB07FC4FEAD3
:101F70001C4C0CFB0BF7B0EBC74072EB573203FB6A
:101F80000CF734BFA2EBC742B2EBC74261EB57314B
:101F90000CFB0EF7B0EBC70072EB57720CFB08F7A7
:101FA00034BFA2EBC702B2EBC70261EB577115EB6E
:101FB0004C254FEA816141EA92114FEA82624FEA71
:101FC000D13742EA901206FB07FC44F100044FEAC5
:101FD00080604FEA1C4C0CFB0BF7D21B03FB0CF789
:101FE00061EB07010CFB0EF7B0EB074072EB1742F9
:101FF0000CFB08F734BFA2EB0742B2EB074261EBE0
:10200000174115EB1C154FEA813141EA92414FEA25
:10201000823242EA90424FEA80304FEA0C7644F135
:10202000000448EA03434EEA0B484FF0000EB2EBBF
:10203000080C71EB030724BF624639464EEB0E0EC7
:102040004FF0000B0018524149414BEB0B0BB2EB28
:10205000080C71EB03077BF1000B24BF6246394685
:102060004EEB0E0E4FF0000B0018524149414BEB66
:102070000B0BB2EB080C71EB03077BF1000B24BFD9
:10208000624639464EEB0E0E51EA020718BF46F083
:10209000010616EB0E7655F1000254F1000103D54E
:1020A000BDE88901BDE80088BDE88901BDE80048B8
:1020B000B619524141EB0101A3F101037047808041
:1020C0007F7E7D7C7B7A7978777676757473727192
:1020D00071706F6E6E6D6C6C6B6A6A69686867664A
:1020E00066656464636362616160605F5F5E5E5DDC
:1020F0005D5C5C5B5B5A5A59595858575756565550
:1021000055555454535352525251515050504F4FB1
:102110004F4E4E4D4D4D4C4C4C4B4B4B4A4A4A4901
:102120004949484848474747474646464545454444
:1021300044444443434343424242424141410000FC
:1021400046EA0646A3F570534FEA164646EA42565B
:102150004FEAD22242EA415210B54FEAD121A3F10F
:10216000010300F02FF820F0004000F1020C00F015
:10217000004701EB00501146BCF5006F40EA070034
:1021800000D210BDBAF1000F0AD01CB503B44FF055
:1021900004004FF004014FF000000FBCBDE81040F8
:1021A0004FF00001BBF1010FB9BF04484FF0FF3100
:1021B0000348002140EA070010BD00BFFFFFEF7F8A
:1021C0000000F07F002B9C4630D477002BD01CB54C
:1021D0004FEA370703B44FF010004FF01001BAF187
:1021E000000F06D0BCF1000FDCBF40F0080040F04B
:1021F00008014FF000000FBCBDE810400BF1010BCF
:10220000BBF1010F08BF5FEA170722BF12F10102FD
:1022100011F101014FF0004143F1000300F00040D3
:1022200043EA00007047F9D35708D0E746EA06466C
:1022300013F1400F4FEA16461FDD13F1200FDFBFE9
:1022400016430A46002120335B42BED0C3F120076B
:1022500046EA064602FA07F74FEA164646EA070636
:10226000C3F1200722FA03F201FA07F721FA03F17A
:102270004FF0000342EA0702A7E746EA020646EAF1
:1022800006464FEA164646EA0106BCBF46EA06463F
:10229000360C4FF000034FF000024FF0000194E7BE
:1022A0002DE9804C9A46934670B491E8380007C8EF
:1022B00031EA400C48BF34EA430C03D5FFF7A3FDD5
:1022C000FFF780FFF0BCBDE8008C2DE9804C9A46FA
:1022D000934670B491E8380007C831EA400C48BF13
:1022E00034EA430C03D5FFF78EFDFFF729FFF0BC5E
:1022F000BDE8008C2DE9804C9A46934670B491E875
:10230000380007C810F0804F08BF13F0804F03D18A
:1023100000F01AF8FFF756FFF0BCBDE8008C2DE97D
:10232000804C9A46934670B491E8380007C810F084
:10233000804F08BF13F0804F03D100F005F8FFF77E
:10234000FFFEF0BCBDE8008C20F07F4780EA030070
:1023500023F07F4C07EB0C03A3F57C5300F0004007
:10236000A3F1FE0392F0000F00F0B38095F0000F90
:1023700000F077802DE901494FEA11404FEA1446F9
:1023800021EA004800FB06FC24EA064708FB06F6A3
:1023900007FB08F800FB07F718EB06484CEB164C58
:1023A0004FEA124B18EB07484FEA15464CEB174023
:1023B00022EA0B4E0BFB06FC25EA06470EFB06F64F
:1023C00007FB0EFE0BFB07F71EEB064E4CEB164C05
:1023D0004FF000061EEB074E4CEB174B18EB0B08AB
:1023E00040F1000018EB0E0B58EB000840F1000024
:1023F0008F1A4FF000013CBFC943661B14BFB5EBF9
:10240000040C00213CBFC943F61B4FEA17444EEAB7
:102410008E0E27EA04454FEA1C4704FB07622CEAAC
:10242000074C05FB07F70CFB05F604FB0CFC16EB51
:10243000074642EB174216EB0C4642EB1C421BEBE5
:10244000060658EB0202414146EA9E0601D5BDE868
:102450000189B619524141EB0101A3F10103BDE825
:1024600001894FEA14454FEA114724EA054621EA5B
:10247000074C05FB07F406FB07F70CFB06F105FB11
:102480000CFC11EB074144EB17444FEA124711EBE8
:102490000C4144EB1C4422EA074C05FB07F206FB07
:1024A00007F70CFB06F605FB0CFC16EB074642EBA8
:1024B000174216EB0C4642EB1C456A1854F100011A
:1024C00048BF7047B619524141EB0101A3F1010326
:1024D000704795F0000F37D04FEA11424FEA14478A
:1024E00021EA024624EA074C02FB07F106FB07F744
:1024F0000CFB06F402FB0CFC14EB074441EB174108
:102500004FEA154714EB0C4441EB1C4125EA074CFC
:1025100002FB07F506FB07F70CFB06F602FB0CFCBB
:1025200016EB074645EB174516EB0C4645EB1C42F0
:10253000121951F1000148BF7047B619524141EBE1
:102540000101A3F1010370474FEA14454FEA114717
:1025500024EA054621EA074C05FB07F106FB07F7CD
:102560000CFB06F24FF0000605FB0CFC12EB0742D9
:1025700041EB174112EB0C4251EB1C4148BF704735
:10258000921841EB0101A3F10103704770B50446B5
:1025900000680168C943490620D4816821F001011F
:1025A00081600BF0CFFC054613E00BF0CBFC401B29
:1025B00002280ED920680068C043400609D4E06CA8
:1025C00040F01000E064206D40F001002065012023
:1025D00070BD20680068C0434006E6D5002070BD8D
:1025E000F8B500260446009600680168C94349060C
:1025F0002ED5816841F001018160164816490068B6
:10260000B0FBF1F000EB400000E0401E009000281D
:10261000FBD10BF097FC054615E00BF093FC401B3B
:10262000022810D920680068C04340060BD5E06C32
:1026300040F01000E064206D40F00100206584F857
:1026400048600120F8BD20680068C0434006E4D41B
:102650000020F8BD1000002040420F0010B50A48CD
:102660000BF0F4F9642108480BF098F906480BF0D8
:102670009BF8064CA06004480BF023FA05200BF0F1
:102680005BFBA06810BD0000E85800202058002027
:102690002DE9F041002507462E462C460BE0FFF7BA
:1026A000DDFF2BF0C9FC2A4633462BF001FA641CEF
:1026B00005460E46E4B2BC42F1D338462BF0BCFCD2
:1026C00002460B4628463146BDE8F0412BF0ACBA35
:1026D0000949094A983AC9689161002104E093695F
:1026E000491CC9B21B6993618142F8D39069017892
:1026F00041F0010101707047B85500201249124A9B
:10270000983AC968916103281CD005DC98B101286A
:1027100011D002280ED113E0052811D00A2811D0BB
:10272000142807D10869006900699061017841F0B7
:10273000010101707047087840F00100087070478F
:102740000869F2E70869EFE7B855002010B525F0F1
:10275000F1FE7D4A0B287DD027DC7B4C022804F15A
:10276000080445D0032876D0042863D0082873D104
:102770009079042870D1D07902286DD115F0AEF986
:1027800020F010FF407961284ED020F011FF214643
:102790002AF0E6FB20F006FF4079612847D020F0C0
:1027A00007FFBDE8104005F042BE0C280FD01228EC
:1027B00071D013286BD115F091F921F0EFFD0328AA
:1027C00065D10121BDE8104002201BF08DB8907941
:1027D00004285CD1612003F089FE25F065FE5B4989
:1027E0000020087020F0DEFEBDE8104000F0D0BAF6
:1027F000907904284BD1D0790C2848D115F06EF986
:1028000020F0D0FE407961280BD020F0D1FE0C22C0
:1028100021462AF0BCFB20F0C5FEBDE8104000F0C8
:1028200095BA20F0BFFEF2E720F0BCFEAFE720F043
:10283000B9FEB6E79079042829D1D079082826D1A5
:1028400015F04CF920F0AEFE4079612813D020F04D
:10285000AFFE02E015E025E019E0214600F080F827
:1028600020F0A0FE4079612808D020F0A1FEBDE84C
:10287000104005F0D5BD20F095FEEAE720F092FE6D
:10288000F5E79079102802D1D0799C284CD010BD62
:1028900020F088FE02E04FE020F08AFEBDE8104004
:1028A00000F016BA90790424042806D1507A012841
:1028B00021D0082838D0092836D015F00FF921F09A
:1028C0006DFD5F2801D06028E1D1002102201BF0BE
:1028D0000BF821F069FD80681D490069816021F0D5
:1028E00063FD806801691B48C86021F05DFD806858
:1028F0000069447110BD15F0F1F821F04FFD5F281B
:1029000001D06028F6D1012102201AF0EDFF21F05C
:102910004BFD806810490069816021F045FD8068A9
:102920000E490069C160E0E715F0D8F820F03AFEE2
:1029300040796128B0D1ABE715F0D0F821F02EFD39
:1029400041283FF43EAF10BD88560020D0550020EE
:1029500087FC020882FC020873FC020877FC02086C
:102960002DE9FE4F04006FD0487884F8780008788D
:1029700084F87900C87884F87A00887884F87B0035
:10298000487904F8700F08796070C879A070887968
:10299000DFF8C881E0704146A0682BF067FEA060B8
:1029A000703C29F09DFFA8B1206F2BF0BFFD6C4A51
:1029B0006C4B2BF091FB00226B4B2BF079F82BF03A
:1029C00045F86A492067884203DC4FF08441884219
:1029D00000DA21672078DFF898A1DFF898B104F1D8
:1029E0002F01420704F13C0602912ED520F004008D
:1029F0002070A06F6061B0F5000F03DA2BF096FD38
:102A00005DA210E0504503DC2BF090FD5CA20AE0D3
:102A1000404503DC2BF08AFD5BA204E0584508DC4E
:102A20002BF084FD5AA2CDE9000107213046FDF7C5
:102A300063FD206F2BF07AFDCDE9000156A206213F
:102A40000298FDF759FD83E086E0A16FA0682BF0A6
:102A500099FDA060216F20692BF094FD2061204634
:102A600001F024FFA06F6061E079401CC0B2E0710A
:102A700003286DD32BF044FF0546294620692BF02F
:102A8000F5FD01902946A0682BF0F0FD054629F0E0
:102A9000CBFDDFF80C91002720B329F0B9FE022806
:102AA00020D399F80020484604F1980104F1B009B8
:102AB000009132B10770009815F058F8484615F0AB
:102AC00055F82946009815F084F84846019915F004
:102AD00080F8484615F060F80190009815F05CF811
:102AE000054602E0012189F80010204604F044FA6E
:102AF00058BB01982BF01AFDCDE9000126A2062152
:102B00000298FDF7F9FCB5F5000F04DA28462BF022
:102B10000DFD19A213E0554504DC28462BF006FDF7
:102B200017A20CE0454504DC28462BF0FFFC16A25A
:102B300005E05D4509DC28462BF0F8FC14A2CDE940
:102B4000000107213046FDF7D7FCE771A760276138
:102B5000BDE8FE4F26F0E0B8BDE8FE8F00007A44E5
:102B6000CDCCCCCCCCCCFC3F0000404000000C4392
:102B70000000C84200401C4625362E346600000086
:102B800025362E336600000025362E326600000002
:102B900025362E316600000025352E3266000000F5
:102BA0005C5800201CB50C46002832D0684610F056
:102BB000C7FCDDE9000115F06FF8164A612102F843
:102BC000451F102151709C2191706821D170002106
:102BD00011710421517108219171010AD171107292
:102BE000010E5172000C9072200AD0721473200EE4
:102BF0005073200C90730748112102F8421C453095
:102C000010F066FF26F080F8BDE81C400B2026F08F
:102C1000A7B81CBD885600201CB50C46002832D031
:102C2000684610F08DFCDDE9000115F035F8164A14
:102C3000612102F8451F102151709C2191706C2177
:102C4000D170002111710421517108219171010A83
:102C5000D1711072010E5172000C9072200AD07264
:102C60001473200E5073200C90730748112102F842
:102C7000421C453010F02CFF26F046F8BDE81C4001
:102C80000B2026F06DB81CBD8856002010B500281A
:102C90001BD00E48612100F8451F062141709C2180
:102CA00081705121C1700021017101214171082100
:102CB00000F8421C0548453010F00AFF26F024F8C1
:102CC000BDE81040132026F04BB810BD88560020F8
:102CD00010B500281BD00E48612100F8451F0421C3
:102CE0004170752181706621C1700021017101213F
:102CF0004171082100F8421C0548453010F0E8FEFB
:102D000026F002F8BDE81040032026F029B810BDD7
:102D1000885600200C4810B5612100F8451F042199
:102D20004170752282706922C27000220271417165
:102D3000082100F8421C0448453010F0C9FEBDE8E7
:102D400010400C2026F00CB88856002010B5002842
:102D50001BD00E48612100F8451F042141707521E8
:102D600081704521C170002101710121417108214B
:102D700000F8421C0548453010F0AAFE25F0C4FFBB
:102D8000BDE81040082025F0EBBF10BD885600209C
:102D900010B500281BD00E48612100F8451F042102
:102DA0004170752181703021C170002101710621AF
:102DB0004171082100F8421C0548453010F088FE9A
:102DC00025F0A2FFBDE81040022025F0C9BF10BDCC
:102DD0008856002010B5002818D00D4861217522B2
:102DE00000F8451F0421417082706922C2700022E0
:102DF00002714171082100F8421C0548453010F06D
:102E000067FEBDE81040042025F0AABF10BD0000F9
:102E10008856002010B5002827D0144A40F8701FAB
:102E2000612102F8451F102151709C21917057219A
:102E3000D1700021117102215171042191714178E9
:102E4000D17101781172C1785172807890720748FF
:102E50000D2102F8421C453010F03AFE25F054FFD7
:102E6000BDE81040122025F07BBF10BD8856002021
:102E700010B50446F32000F037F8204000D00120C0
:102E800010BD000010B5F92000F02EF80A4C60705B
:102E9000F82000F029F8A070F72000F025F8E07085
:102EA000A178000340EA01106178BDE8104040EAD3
:102EB000111012F02FBE00005856002070B5FC20F3
:102EC00000F012F80446FB2000F00EF80546FA2048
:102ED00000F00AF8000340EA051040EA1410BDE8CB
:102EE000704012F00DBF000070B50B4D06464FF458
:102EF00080740022214628460BF01FF8304612F05D
:102F0000D3FD12F0CDFD06460122214628460BF0E6
:102F100014F8304670BD0000000402400178427889
:102F20004901807841EA82010143C9B2F52000F0ED
:102F30000BB8417802784901807841EA8201014367
:102F4000C9B2F420AFF300802DE9F0410B4D0F46DC
:102F500006464FF480740022214628460AF0EDFF11
:102F6000304612F0A1FD384612F09EFD214628465B
:102F7000BDE8F04101220AF0E0BF00000004024079
:102F80000949094AC968983A0029916104D020B1D9
:102F9000087840F001000870704708699061017876
:102FA00041F0010101707047B8550020FEE70000B4
:102FB0002DE9F04125F0BEFAB449B54CB54D0426D3
:102FC00001F108070C2814D00ADCA0F102000A283D
:102FD00071D2DFE800F03D70E2707070577071F3ED
:102FE0001238072867D2DFE800F0EBEA66661A8736
:102FF000B600887903285ED14A2003F077FA25F0DD
:1030000053FA20F0CFFA40794A2805D020F0D0FAC0
:10301000394600F003FCBAE020F0C4FAF8E78879FA
:10302000032848D114F05AFD20F0BCFA40794A2810
:103030000BD020F0BDFA394600F030F920F0B2FA9A
:10304000BDE8F0414A2100F0A5BE20F0ABFAF2E75E
:10305000887903282FD114F041FD20F0A3FA40799C
:103060004A280CD020F0A4FA0122394600F056FB81
:1030700020F098FABDE8F0414A2100F06FBE20F040
:1030800091FAF1E78879032815D114F027FD20F093
:1030900089FA40794A280BD020F08AFA002100F002
:1030A00013FB20F07FFABDE8F0414A2100F0CABED0
:1030B00020F078FAF2E780E0887903287DD114F0D7
:1030C0000DFD20F06FFA40794A280FD020F070FAF9
:1030D000394600F049FB20F065FA40794A2808D0CB
:1030E00020F066FABDE8F04105F0A1B920F05AFAE7
:1030F000EEE720F057FAF5E7887906285DD114F05D
:10310000EDFC21F04BF9372815D1634901200870F7
:10311000014602201AF0E8FB21F046F980680069B8
:10312000846021F041F980680069C56021F03CF9B4
:1031300080680069467120F035FA40794A2807D046
:1031400020F036FABDE8F0415049093100F0E0B80E
:1031500020F028FAF6E78879062873D114F0BEFC2F
:1031600021F01CF9382812D1012102201AF0BCFBF1
:1031700021F01AF980680069846021F015F98068EF
:103180000069C56021F010F980680069467120F07F
:1031900009FABDE8F04100F0D5B88879032851D18B
:1031A00014F09CFC20F0FEF940794A2814D020F05D
:1031B000FFF9394600F032FB03E043E012E055E04E
:1031C00042E020F0EFF940794A2808D020F0F0F9E9
:1031D000BDE8F04105F024B920F0E4F9E9E720F07A
:1031E000E1F9F5E78879062801D010282AD114F0F2
:1031F00075FC21F0D3F8542811D008DC03280ED038
:1032000042280CD044280AD053281BD107E0552867
:1032100005D0562803D0582801D0592812D10121B1
:1032200002201AF061FB21F0BFF880680069846019
:1032300021F0BAF880680069C56021F0B5F88068AF
:1032400000694671BDE8F08188790628FAD114F04A
:1032500045FC21F0A3F8412811D021F09FF85A280D
:103260000DD021F09BF8572809D0EBE78879062884
:10327000E8D114F033FC21F091F80328E2D1BDE845
:10328000F041012102201AF02FBB000088560020D7
:1032900073FC020877FC02086057002010B5040098
:1032A0000FD049B1487884F8C800087884F8C9007C
:1032B000B4F8C80030B106E0012024F8C80F0A2095
:1032C000608010BD0220A4F8C800C87884F8CA0045
:1032D00088780D4984F8CB000020088094F8CA0053
:1032E000C83429F02BFE34F8C809012801D120F098
:1032F00059FDB4F8CA3004F1CC00BDE8104003A277
:103300000421FDF7F9B8000046570020253364007A
:1033100000280DD049B14A7880F8C820097880F893
:10332000C910B0F8C81021B104E00121A0F8C810FC
:1033300070470221A0F8C81001490020088070479A
:103340004657002010B500281BD00E484A2100F82F
:10335000451F03214170052181701D21C17000218D
:10336000017102214171082100F8421C05484530D5
:1033700010F0AEFB25F0C8FCBDE81040162025F08B
:10338000EFBC10BD8856002010B5002824D013488B
:103390004A2200F8452F10224270052282704422F2
:1033A000C2700022027102224271042282710A0A52
:1033B000C27101720A0E4272090C81720D2100F86D
:1033C000421C0648453010F083FB25F09DFCBDE80B
:1033D00010400B2025F0C4BC10BD00008856002012
:1033E00010B5002824D013484A2200F8452F102297
:1033F0004270052282703422C270002202710222C1
:103400004271042282710A0AC27101720A0E42726A
:10341000090C81720D2100F8421C0648453010F05D
:1034200057FB25F071FCBDE810400B2025F098BC3F
:1034300010BD00008856002010B500281AD00E4894
:103440004A2200F8452F06224270052282701D2272
:10345000C2700A0A02714171082100F8421C064834
:10346000453010F035FB25F04FFCBDE8104017202B
:1034700025F076BC10BD00008856002010B500284D
:103480001AD00E484A2200F8452F06224270052223
:1034900082701E22C2700A0A02714171082100F86E
:1034A000421C0648453010F013FB25F02DFCBDE80A
:1034B0001040182025F054BC10BD00008856002094
:1034C00070B525F037F87D4C0B2804F108057DD048
:1034D00021DC022850D0042879D0082866D00A2898
:1034E00076D1A079032873D114F0F8FA20F05AF8B5
:1034F00040790A2878D020F05BF8294600F034F9AA
:1035000020F050F840790A2873D020F051F8BDE837
:10351000704004F08CBF0C2812D0122868D01328F9
:1035200056D1A079062853D114F0D8FA20F036FFEE
:1035300003284DD1BDE87040012102201AF0D4B912
:10354000A079032844D10A2002F0D0FF24F0ACFF78
:1035500020F028F840790A280BD020F029F82946D5
:1035600000F05CF920F01EF8BDE870400A2100F080
:1035700011BC20F017F8F2E7A079032828D114F045
:10358000ADFA20F00FF840790A280CD020F010F89E
:103590000022294600F0C2F820F004F8BDE870408F
:1035A0000A2100F0DBBB1FF0FDFFF1E7A079032843
:1035B0006FD114F093FA1FF0F5FF40790A2810D06C
:1035C0001FF0F6FF002100F07FF803E034E013E085
:1035D0005FE009E01FF0E6FFBDE870400A2100F05F
:1035E00031BC1FF0DFFFEDE71FF0DCFF85E700E0F7
:1035F00050E01FF0D7FF8AE7A079032849D114F0E3
:103600006DFA1FF0CFFF40790A280FD01FF0D0FFCE
:10361000294600F003F91FF0C5FF40790A2808D0B9
:103620001FF0C6FFBDE8704004F0FABE1FF0BAFFFD
:10363000EEE71FF0B7FFF5E7A079062829D114F0CF
:103640004DFA20F0ABFE53280DD006DC03280AD03B
:10365000422808D044281CD105E0542803D055281E
:1036600001D0562815D1012102201AF03DF920F091
:103670009BFE806812490069816020F095FE806899
:1036800010490069C16020F08FFE80680421006944
:10369000417170BDA0790628FBD114F01FFA20F00B
:1036A0007DFE41283FF446AF20F078FE5A28F9D03D
:1036B00020F074FE5728F5D070BD00008856002019
:1036C00073FC020877FC020810B5002817D000220E
:1036D0002E24A9B10B78303380F8223080F82340B3
:1036E0004B78303380F8243080F825208B783033C5
:1036F00000F81D3F4470C97830318170C27010BD30
:10370000312380F8223080F82340302180F82410C3
:1037100080F8252000F81D3F4470EEE72DE9F043C6
:1037200000281DD04C2400F85A4F4FF0480C4FF0A1
:103730002D08442380F801C0432180F80280312500
:10374000C3705F2601714F274FF0200945714AB1C0
:1037500037228271C67101724772837280F80B90B2
:10376000BDE8F0833822F4E7002805D029B14A7873
:1037700000F86C2F0978417070473221A0F86C1066
:103780007047000010B500281FD001EB81004FF6F4
:10379000FF7101EA40010D4800F8452F06224270F2
:1037A000052282708622C2700A0A027141710821C4
:1037B00000F8421C0548453010F08AF925F0A4FABB
:1037C000BDE810400B2025F0CBBA10BD8856002074
:1037D00010B500281FD001EB81004FF6FF7101EA00
:1037E00040010D4800F8452F0622427005228270E4
:1037F0008522C2700A0A02714171082100F8421C38
:103800000548453010F064F925F07EFABDE8104017
:103810000B2025F0A5BA10BD885600202DE9F04FE9
:103820008BB00D4604007CD0697861F307002978DD
:1038300061F30F20E97880B261F30706A97861F39C
:103840000F26697961F30707297961F30F272BF0B8
:1038500057F8DFF8D48341462AF008FF6067B0B21A
:103860002BF04EF841462AF001FFA06738B22BF04A
:103870002FF8EE492AF0FAFE2067E87A60F307068F
:10388000A87A60F30F26B0B22AF0D6FB0022E84BEC
:103890002AF0CAF92AF0DAF8C4F88000E87B60F36D
:1038A0000707A87B60F30F2738B22BF011F8C4F894
:1038B0008C0029F015F8A8B1206F2AF037FEDD4AF8
:1038C000DD4B2AF009FC0022DC4B2AF0F1F82AF04B
:1038D000BDF8DB492067884203DC4FF08441884211
:1038E00000DA216728F09AFE002500B96567207884
:1038F00004F12F01420704F1350B04F13C0A04F1F5
:1039000053090A9132D520F004002070A06F606145
:10391000206F2AF00BFECDE90001CAA206210A9809
:1039200000E020E0FCF7E8FD606F2AF0FFFDCDE944
:103930000001C6A207215846FCF7DEFDA06F2AF061
:10394000F5FDCDE90001C1A207215046FCF7D4FDE9
:10395000D4F880002AF0EAFDCDE90001BBA20721DE
:103960004846FCF7C9FD0BB0BDE8F08FA16FA06819
:103970002AF008FEA060616FE0682AF003FEE060B4
:10398000216F20692AF0FEFDDFF8C88220614646DB
:10399000D4F88010D8F800002AF0F4FD30602046FA
:1039A00000F084FFA06F6061617904F1BC000990B0
:1039B000183805900C3803901830A74E07904A2904
:1039C0007DD1E079401CC0B2E071032805D21FF020
:1039D000F5FDB0F8C8000228F2D1E0792AF090FF96
:1039E0000746394620692AF041FE06903946E068CC
:1039F0002AF03CFE04903946A0682AF037FE029077
:103A00003946D8F800002AF031FE089028F018FE58
:103A100098B328F009FF022830D3307860B13570B0
:103A2000039814F0A3F8059814F0A0F8079814F080
:103A30009DF8099814F09AF8DDE9021014F0C9F81D
:103A4000DDE9041014F0C5F8DDE9061014F0C1F842
:103A5000DDE9081014F0BDF8079814F09DF8069001
:103A6000039814F099F80290059814F095F80490D2
:103A7000099814F091F8089002E0FFE701203070F7
:103A8000B4F8C80001280AD01FF08EFF074628F0BE
:103A900033FF401D874202D3704805702DE0204659
:103AA00003F06AFA48BB06982AF040FDCDE9000110
:103AB00064A206210A98FCF71FFD049800E022E0AA
:103AC0002AF034FDCDE9000160A207215846FCF739
:103AD00013FD02982AF02AFDCDE900015BA207211F
:103AE0005046FCF709FD08982AF020FDCDE90001B9
:103AF00056A207214846FCF7FFFCE571A560E5608A
:103B00002561C8F8005060790A287FF42CAFE0796D
:103B1000401CC0B2E0710328FFF425AF2AF0F0FE8C
:103B20000746394620692AF0A1FD06903946E0682B
:103B30002AF09CFD04903946A0682AF097FD39468A
:103B400002904746D8F800002AF090FD804628F001
:103B500077FD98B328F068FE022830D3307860B142
:103B60003570039814F002F8059813F0FFFF0798DA
:103B700013F0FCFF099813F0F9FFDDE9021014F0CF
:103B800028F8DDE9041014F024F8DDE9061014F03B
:103B900020F84146099814F01CF8079813F0FCFF30
:103BA0000690039813F0F8FF0290059813F0F4FFC5
:103BB0000490099813F0F0FF804602E0FFE701202F
:103BC0003070204603F0D8F938BB06982AF0AEFCD6
:103BD000CDE900011BA206210A98FCF78DFC049890
:103BE0002AF0A4FCCDE9000118A207215846FCF7F1
:103BF00083FC02982AF09AFCCDE9000113A2072168
:103C00005046FCF779FC40462AF090FCCDE90001D3
:103C10000EA207214846FCF76FFCE571A560E56040
:103C200025613D609FE60000000020410000C84281
:103C300000002440CDCCCCCCCCCCFC3F000040409C
:103C400000000C4325352E316600000025362E314C
:103C5000660000009C5800205C580020605700203F
:103C600010B5002819D00D4800F8452F06224270E3
:103C7000052282701422C2700A0A02714171082161
:103C800000F8421C054845300FF022FF25F03CF8B3
:103C9000BDE81040122025F063B810BD8856002002
:103CA00010B500281AD00E4800F8451F06214170B3
:103CB000052181701521C1700021017179214171A7
:103CC000082100F8421C064845300FF001FF25F09E
:103CD0001BF8BDE81040132025F042B810BD0000CD
:103CE0008856002010B5002819D00D4800F8452F3F
:103CF00006224270052282701022C2700A0A0271E6
:103D00004171082100F8421C054845300FF0E0FEE3
:103D100024F0FAFFBDE81040122025F021B810BDB4
:103D20008856002070B50C4C0825294604F8450F2C
:103D3000032060700520A0700020E070207106480C
:103D4000657104F8425D45300FF0C2FE2570BDE894
:103D500070400C2025F004B8885600200C4810B59F
:103D600000F8451F03214170052181700021C170B9
:103D700001710821417100F8421C054845300FF0DF
:103D8000A7FE24F0C1FFBDE81040082024F0E8BFE2
:103D90008856002070B5002833D000230324052561
:103DA000184808224A2902D00A2910D01CE04A21CA
:103DB00080F8451080F8464080F84750C02180F8D0
:103DC000481080F84930102180F84A100CE00A2190
:103DD00080F8451080F8464080F8475080F8483019
:103DE00080F8493080F84A20C270064811464530B4
:103DF0000FF06EFE24F088FFBDE87040022024F032
:103E0000AFBF70BD8856002010B5002816D00C48F2
:103E100000F8451F03214170052181700021C17008
:103E200001710821417100F8421C054845300FF02E
:103E30004FFEBDE81040042024F092BF10BD0000EA
:103E4000885600200D4810B500F8451F0321417029
:103E5000052181701021C170002101710121417182
:103E6000082100F8421C054845300FF031FE24F0CF
:103E70004BFFBDE810400A2024F072BF8856002096
:103E800010B5002819D00D4800F8452F06224270C1
:103E9000052282700722C2700A0A0271417108214C
:103EA00000F8421C054845300FF012FE24F02CFFAC
:103EB000BDE81040122024F053BF10BD88560020EA
:103EC00010B500281FD001EB81004FF6FF7101EA09
:103ED00040010D4800F8452F0622427005228270ED
:103EE0008822C2700A0A02714171082100F8421C3E
:103EF000054845300FF0ECFD24F006FFBDE810400A
:103F00000B2024F02DBF10BD8856002010B50028CE
:103F10001FD001EB81004FF6FF7101EA40010D480F
:103F200000F8452F06224270052282708722C27057
:103F30000A0A02714171082100F8421C0548453007
:103F40000FF0C6FD24F0E0FEBDE810400B2024F089
:103F500007BF10BD8856002070B524F0EBFA744CF2
:103F60000B2804F108056FD01FDC022850D004286C
:103F700073D008286AD1A079042867D113F0AEFD68
:103F80001FF010FB40795F2861D01FF011FB29461C
:103F900028F0E6FF1FF006FB40795F285AD01FF09B
:103FA00007FBBDE8704004F042BA0C2815D0122877
:103FB00073D013284AD1E0799C2847D1207A512820
:103FC00044D113F08BFD20F0E9F903283ED1BDE880
:103FD00070400121022019F087BCA079042835D156
:103FE0005F2002F083FA24F05FFA1FF0DBFA4079D9
:103FF0005F280AD01FF0DCFA294600F013F91FF001
:10400000D1FABDE8704000F0FFBA1FF0CBFAF3E739
:10401000A079042877D1E0790C2874D113F05EFDE3
:104020001FF0C0FA40795F280BD01FF0C1FA0C22B4
:10403000294628F0ACFF1FF0B5FABDE8704000F04B
:10404000C1BA1FF0AFFAF2E72BE006E05BE01FF029
:10405000A9FA9CE71FF0A6FAA3E7A079042852D199
:10406000E0791C284FD113F039FD1FF09BFA4079FD
:104070005F280FD01FF09CFA294600F0D3F81FF0FC
:1040800091FA40795F2809D01FF092FABDE870409C
:1040900004F0C6B91FF086FAEEE735E01FF082FAA9
:1040A000F4E7A07910282ED1E0799C282BD113F0C9
:1040B00015FD20F073F94F280FD008DC03280CD031
:1040C00042280AD0442808D04E281CD105E05028A8
:1040D00003D0512801D0522815D10121022019F016
:1040E00003FC20F061F9806812490069816020F0CA
:1040F0005BF9806810490069C16020F055F980685B
:1041000004210069417170BDE0799C28FBD113F056
:10411000E5FC20F043F941283FF459AF20F03EF987
:104120005A28F9D020F03AF94D28F5D070BD00009A
:104130008856002073FC020877FC02081CB50C4668
:10414000002832D068460FF0FBF9DDE9000113F0DA
:10415000A3FD164A5F2102F8451F102151709C21D2
:1041600091706621D17000211171042151710821D3
:104170009171010AD1711072010E5172000C90728E
:10418000200AD0721473200E5073200C90730748CD
:10419000112102F8421C45300FF09AFC24F0B4FDC6
:1041A000BDE81C400B2024F0DBBD1CBD8856002060
:1041B0001CB50C46002832D068460FF0C1F9DDE985
:1041C000000113F069FD164A5F2102F8451F102116
:1041D00051709C2191706A21D170002111710421CC
:1041E000517108219171010AD1711072010E517241
:1041F000000C9072200AD0721473200E5073200CA1
:1042000090730748112102F8421C45300FF060FC02
:1042100024F07AFDBDE81C400B2024F0A1BD1CBD9C
:10422000885600202DE9FE4F04007DD0487884F8A0
:104230007800087884F87900C87884F87A0088785B
:1042400084F87B00487904F8700F08796070C879A9
:10425000A0708879E070487A2071087A6071C87A15
:10426000A071887AE071487B2073087B6073C87BFB
:10427000A073887BE073487C2074087C6074C87CE1
:10428000A074887CE074487D2075087D6075C87DC9
:10429000A075887DE075487E2076087E6076C87EB1
:1042A000A076887EE076703C28F01AFBA8B1206FDB
:1042B0002AF03CF96B4A6C4B29F00EFF00226B4B45
:1042C00029F0F6FB29F0C2FB69492067884203DC2C
:1042D0004FF08441884200DA2167207804F12F07EB
:1042E000410704F1350604F13C0526D520F0040011
:1042F0002070A06F6061206F2AF018F9CDE90001ED
:104300005CA206213846FCF7F7F8606F2AF00EF938
:10431000CDE9000159A207213046FCF7EDF8A06F66
:104320002AF004F955A200E005E0CDE900010721DB
:104330002846FCF7E1F8BDE8FE8FA16FA0682AF0DF
:1043400021F9A060616FE0682AF01CF9E060216F3C
:1043500020692AF017F92061204600F0A7FAA06F23
:104360006061E079401CC0B2E0710328E3D32AF019
:10437000C7FA8046414620692AF078F90290414602
:10438000E0682AF073F983464146A0682AF06EF986
:10439000824628F055F9DFF8EC904FF0000890B312
:1043A00028F042FA02282FD399F8001004F1A40053
:1043B00001904A460C3804F1B009009051B182F8DE
:1043C0000080009813F0D2FB019813F0CFFB484611
:1043D00013F0CCFB5146009813F0FBFB59460198B3
:1043E00013F0F7FB4846029913F0F3FB484613F02D
:1043F000D3FB0290009813F0CFFB8246019813F094
:10440000CBFB834603E0FFE7012189F8001020463B
:1044100002F0B2FDE8B902982AF088F8CDE900016F
:1044200014A206213846FCF767F858462AF07EF8B1
:10443000CDE9000111A207213046FCF75DF8504696
:104440002AF074F8CDE900010CA207212846FCF7F8
:1044500053F884F80780C4F80880C4F80C80C4F8C6
:10446000108068E7CDCCCCCCCCCCFC3F00004040E9
:1044700000000C4325352E326600000025362E3212
:10448000660000005C58002010B500281BD00E48C4
:104490005F2100F8451F062141709C218170532146
:1044A000C1700021017101214171082100F8421CF5
:1044B000054845300FF00CFB24F026FCBDE8104009
:1044C000122024F04DBC10BD8856002010B50028E5
:1044D0001BD00E485F2100F8451F062141709C212A
:1044E00081705121C17000210171012141710821A8
:1044F00000F8421C054845300FF0EAFA24F004FCAD
:10450000BDE81040132024F02BBC10BD88560020BD
:104510001CB50C46002832D068460FF011F8DDE9D2
:10452000000113F0B9FB164A5F2102F8451F102164
:1045300051709C2191706E21D17000211171042164
:10454000517108219171010AD1711072010E5172DD
:10455000000C9072200AD0721473200E5073200C3D
:1045600090730748112102F8421C45300FF0B0FA51
:1045700024F0CAFBBDE81C400B2024F0F1BB1CBD9D
:104580008856002070B50E4C5F20082504F8450FB2
:10459000042060707520A0706920E07000202071F8
:1045A00006206071064804F8425C294645300FF049
:1045B0008FFA04F8425CBDE870400C2024F0D0BBB8
:1045C0008856002010B500281BD00E485F2100F847
:1045D000451F04214170752181704421C170002163
:1045E000017102214171082100F8421C0548453043
:1045F0000FF06EFA24F088FBBDE81040082024F08C
:10460000AFBB10BD8856002010B500281BD00E4847
:104610005F2100F8451F0421417075218170302110
:10462000C1700021017106214171082100F8421C6E
:10463000054845300FF04CFA24F066FBBDE8104009
:10464000022024F08DBB10BD8856002010B5002834
:1046500019D00D485F2100F8451F042141707521D4
:1046600081706921C170002101710E214171082101
:1046700000F8421C044845300FF02AFABDE810400B
:10468000042024F06DBB10BD885600201CB50C46DC
:10469000002832D068460EF053FFDDE9000113F028
:1046A000FBFA164A5F2102F8451F102151709C2128
:1046B00091707221D1700021117104215171082172
:1046C0009171010AD1711072010E5172000C907239
:1046D000200AD0721473200E5073200C9073074878
:1046E000112102F8421C45300FF0F2F924F00CFBC6
:1046F000BDE81C400B2024F033BB1CBD88560020B5
:104700001CB50C46002832D068460EF019FFDDE9D2
:10471000000113F0C1FA164A5F2102F8451F10216B
:1047200051709C2191706021D17000211171042180
:10473000517108219171010AD1711072010E5172EB
:10474000000C9072200AD0721473200E5073200C4B
:1047500090730748112102F8421C45300FF0B8F958
:1047600024F0D2FABDE81C40122024F0F9BA1CBD96
:10477000885600201CB50C46002832D068460EF042
:10478000DFFEDDE9000113F087FA164A5F2102F827
:10479000451F102151709C2191707621D17000210C
:1047A00011710421517108219171010AD1711072A6
:1047B000010E5172000C9072200AD0721473200EF8
:1047C0005073200C90730748112102F8421C4530A9
:1047D0000FF07EF924F098FABDE81C400B2024F07D
:1047E000BFBA1CBD885600201CB500282BD06846D7
:1047F0000EF0A6FEDDE9000113F04EFA124A5F2129
:1048000002F8451F102151709C2191706421D170D4
:10481000002111710221517104219171010AD1719C
:104820001072010E5172000C907207480D2102F8AF
:10483000421C45300FF04CF924F066FABDE81C40EC
:10484000122024F08DBA1CBD8856002030B50346D6
:104850004FF6FF704AF201040CE013F8012B5040B0
:104860000022C50702D084EA500000E04008521C34
:10487000082AF6D3491E89B2EFD230BD30B50546BD
:104880000C46881E81B22846FFF7E0FF2919C3B203
:1048900011F8022C9A4206D111F8011CB1EB102F2D
:1048A00001D1012030BD002030BD00002DE9F05FB6
:1048B000002504462F461FF071FDDFF8289442289A
:1048C0007DD01FF06BFD432879D01FF067FD4A288B
:1048D00075D01FF063FD4B2871D01FF05FFD4C2891
:1048E0006DD01FF05BFD5B2869D01FF057FD5C2881
:1048F00065D01FF053FD5D2861D01FF04FFD622889
:104900005DD01FF04BFD5E2859D01FF047FD4828B1
:1049100055D01FF043FD492851D01FF03FFD5328CB
:104920004DD01FF03BFD582849D01FF037FD5428CB
:1049300045D01FF033FD552841D01FF02FFD5928D9
:104940003DD01FF02BFD562839D01FF027FD4D28F4
:1049500035D01FF023FD4E2831D01FF01FFD4F280A
:104960002DD01FF01BFD502829D01FF017FD512816
:1049700025D01FF013FD522821D01FF00FFD5F2816
:104980001DD01FF00BFD602819D01FF007FD612816
:1049900015D01FF003FD452811D023F0C5FDD24EE0
:1049A00011282CD200E00AE0DFE800F01922454C83
:1049B000535A646B727980878E959CA3AA0012F07B
:1049C000DDFE4946D9F8040002F0D6FA002804D0EA
:1049D0004868017821F008010170BDE8F09F27F0D8
:1049E00087FCC149183151F8205027F0E3FC05E05D
:1049F00027F0C2FC56F8205027F022FD0746012F71
:104A0000EBD123F091FD002698B36169A06F2AF0E5
:104A1000C7F829F08BFD002207468846134629F087
:104A200059FC74D82671A078002871D06078401C99
:104A30006070A670FDE027F099FC56F8205027F032
:104A4000F9FCDBE727F061FC56F8205027F0BFFCAB
:104A5000D4E727F053FC56F8205027F0B1FCCDE7FF
:104A600027F06CFCA0490C3151F8205027F0CAFC0B
:104A7000C4E74EE027F050FC56F8205027F0B0FC79
:104A8000BCE727F041FC56F8205027F09FFCB5E723
:104A900027F01CFC56F8205027F07AFCAEE727F0F0
:104AA00021FC56F8205027F07FFCA7E727F008FCF0
:104AB00056F8205027F066FCA0E727F00DFC56F8CA
:104AC000205027F06BFC99E727F020FC56F8205087
:104AD00027F080FC92E727F025FC56F8205027F0BD
:104AE00085FC8BE727F03CFC56F8205027F09CFC17
:104AF00084E727F029FC56F8205027F089FC7DE751
:104B000027F028FC56F8205027F088FC76E787E04D
:104B10007BE0D9F80400DFF8CCA1DFF8D0B1407910
:104B2000AAF1040A07283CD006283AD06169606FD0
:104B30002AF036F829F0FAFC21F0004107468846B1
:104B40006B4A6C4B29F08CFA02D86078401C60707C
:104B50009AF80100401CC0B28AF8010027F0A2FFB9
:104B600027F096FB29F0CCFE294629F041FE06D01D
:104B700038464146604A614B29F0ACFB05D28AF8C1
:104B80000160002027F08EFF66705D49284629F0FD
:104B9000FFFE6FF001012AF0DDF829F079FEC0B2C6
:104BA00057E06169A06F29F0FBFF29F0BFFC21F0FD
:104BB0000041074688465A46524B29F051FA02D81E
:104BC0006078401C60709AF80100401CC0B28AF8FE
:104BD000010027F067FF27F05BFB29F091FE2946D3
:104BE00029F006FE06D0384641465A46464B29F083
:104BF00071FB05D28AF80160002027F053FF667030
:104C0000012128462AF0A6F8C3E7E078401CC0B28C
:104C1000E0700328FFF40DAF6670E670267108E7B8
:104C2000E670A07801282BD06078401C60700120CD
:104C3000A070284629F07AFC024628F000450B4671
:104C40003846294629F046FB02D86670E670267180
:104C5000032061788142FFF4C0AE667027F052FDF8
:104C6000D8B32078000738D4D9F8040061794D46CC
:104C7000407988420ED123F057FC21F003FD28E053
:104C80002079401CC0B220710328D0D36670E67032
:104C90002671CCE7134E083606F108077068427992
:104CA0008A420AD168603078287023F03DFC21F0F8
:104CB000E9FC7868686038780AE078686860387875
:104CC000287023F031FC21F0DDFC706868603078DA
:104CD00028700121084618F007FE207840F00800EF
:104CE00020707AE660580020B0100308B81E85EBEB
:104CF000FA7E6ABC7493583F7B14AE47E17A743FE6
:104D00000000404051B88E3F51B8AE3F70B523F01F
:104D100011FCA54C801E04F1080512287ED2DFE8A4
:104D200000F01AB86CAE8DAE36AEAEA809AE4CAE81
:104D3000AEAEFEFDA079042870D1602001F0D6FB54
:104D400023F0B2FB9948002101701EF02BFCBDE856
:104D5000704000F099BBA07904285FD1E0790C285D
:104D60005CD112F0BBFE1EF01DFC407960280BD018
:104D70001EF01EFC0C22294628F009F91EF012FC38
:104D8000BDE8704000F05EBB1EF00CFCF2E7A079BD
:104D9000042874D1E079022871D112F09FFE1EF030
:104DA00001FC4079602805D01EF002FC294628F05D
:104DB000D7F8F6E01EF0F6FBF8E7A07903285ED1FD
:104DC00012F08CFE1EF0EEFB407960280FD01EF032
:104DD000EFFB294600F0F4F81EF0E4FB4079602870
:104DE00008D01EF0E5FBBDE8704003F020BB1EF0CC
:104DF000D9FBEEE71EF0D6FBF5E7A07904283ED1FB
:104E0000E07908283BD112F069FE1EF0CBFB407917
:104E1000602807D01EF0CCFB294600E02FE000F010
:104E2000D7F81DE01EF0BEFBF6E71EF0BBFB01E06D
:104E30001EF0BEFBBDE8704003F0F2BAA079042872
:104E40001DD1E07904281AD112F048FE1EF0AAFB09
:104E5000407960280AD01EF0ABFB294600F000FA2A
:104E60001EF0A0FB40796028E2D1DEE71EF09AFB3D
:104E7000F3E7A079102802D1E0799C285BD070BDBF
:104E80001EF090FB01E01EF093FBBDE8704000F0C7
:104E900079BAA079042504280AD1607A01282BD098
:104EA000062848D0072846D0082844D0092842D0F0
:104EB00012F014FE1FF072FA5E2801D06228DED1D3
:104EC0000121022018F010FD1FF06EFA80683849A9
:104ED00000690069006981601FF066FA80683549E1
:104EE000006900690069C1601FF05EFA80680069AE
:104EF00000690069457170BD12F0F0FD1FF04EFAB7
:104F00005E2801D06228F6D10121022018F0ECFCC5
:104F10001FF04AFA80680069006901E026E012E0AB
:104F20000069254981601FF03FFA806823490069C4
:104F300000690069D7E712F0D1FD1EF033FB40791C
:104F40006028A0D19CE7E0799C28D4D112F0C6FD5E
:104F50001FF024FA412803D01FF020FA3428CAD1C8
:104F6000BDE870400121022018F0BEBCE0799C2809
:104F7000C1D1207A5128BED112F0B0FD1FF00EFA37
:104F8000032803D10121022018F0AEFC1EF00AFB19
:104F90004079602805D01EF00BFBBDE8704000F0A2
:104FA00013BA1EF0FFFAF8E788560020D05500200B
:104FB00087FC020882FC020873FC020877FC0208E6
:104FC000002804D04A7800F86C2F097841707047A7
:104FD0002DE9F04F85B004006DD0487884F8780052
:104FE000087884F87900C87884F87A00887884F89A
:104FF0007B00487984F87000087984F87100C879DA
:1050000084F87200887984F873000026666727F0B8
:1050100067FCA8B1206F29F089FA844A844B29F0F3
:105020005BF80022834B28F043FD28F00FFD8249F6
:105030002067884203DC4FF08441884200DA216710
:105040002078DFF8F8A104F13C01420704F12F08B1
:1050500004F13507CAF1000B04913FD520F004009C
:105060002070A06F6061206F29F060FACDE9000127
:1050700073A206214046FBF73FFA606F29F056FA0B
:10508000CDE900016EA207213846FBF735FAA06F83
:1050900010F1FF4F01D2504504DB00EB0B01B1F1E1
:1050A000D47F0BD229F042FACDE9000166A2072194
:1050B0000498FBF721FA05B0BDE8F08F6449421867
:1050C00064498A42F7D229F0E3FB0346049805B00D
:1050D00061A2BDE8F04F0721FBF70EBAA16FA068EF
:1050E00029F050FAA060616FE06829F04BFAE060A7
:1050F000216F206929F046FA20612046FFF7D6FB90
:10510000A06F6061E079401CC0B2E0710328D2D387
:1051100029F0F6FB05462946206929F0A7FA0190F7
:105120002946E06829F0A2FA02902946A06829F0F1
:105130009DFA054627F08AFADFF8209188B327F018
:1051400079FB02282ED399F8001004F1A4000390F3
:105150004A460C3804F1B009009049B11670009825
:1051600012F004FD039812F001FD484612F0FEFC17
:105170002946009812F02DFDDDE9021012F029FDFC
:105180004846019912F025FD484612F005FD0190B0
:10519000009812F001FD0546039812F0FDFC029004
:1051A00003E0FFE7012189F80010204601F0E4FE4A
:1051B00038BB019829F0BAF9CDE9000120A20621F7
:1051C0004046FBF799F9029829F0B0F9CDE90001C2
:1051D0001BA207213846FBF78FF915F1FF4F01D2CB
:1051E000554504DB05EB0B00B0F1D47F0AD228460D
:1051F00029F09CF9CDE9000113A207210498FBF7DF
:105200007BF90DE0124829181248814208D228463D
:1052100029F03EFB034610A207210498FBF76CF926
:10522000E671A660E660266145E70000CDCCCCCCF7
:10523000CCCCFC3F0000404000000C43000020416B
:1052400025352E326600000025352E31660000001F
:10525000000038BD00A04403253564005C580020E0
:105260001CB5040019D0487884F87C00087884F8CC
:105270007D00C87884F87E00887884F87F0007492C
:10528000E06F29F085FB29F051F9CDE9000104A276
:10529000082104F14B00FBF72FF91CBD00007A44F4
:1052A00025352E326600000010B500281BD00E48B0
:1052B000602100F8451F062141709C218170512119
:1052C000C1700021017101214171082100F8421CC7
:1052D000054845300EF0FCFB23F016FDBDE81040FC
:1052E000132023F03DBD10BD885600207CB50C4630
:1052F000050044D068460EF023F9DDE9000112F004
:10530000CBFC1F4A6023102182F8453082F84610FA
:10531000B5F86C109C25B1F5807F2BD0A1F570639A
:10532000FF3B04D182F84750682182F848100021E1
:1053300002F8491F0421517008219170010AD170AF
:105340001071010E5171000C9071200AD07114720D
:10535000200E5072200C90720948112102F8461C50
:1053600045300EF0B5FB23F0CFFCBDE87C400B20B0
:1053700023F0F6BC82F8475082F84830D7E77CBD6E
:105380008856002010B500281BD00E48602100F878
:10539000451F04214170752181706621C170002173
:1053A000017101214171082100F8421C0548453076
:1053B0000EF08EFB23F0A8FCBDE81040032023F084
:1053C000CFBC10BD8856002010B500281BD00E4859
:1053D000602100F8451F032141709C2181704E21FE
:1053E000C1700021017101214171082100F8421CA6
:1053F000054845300EF06CFB23F086FCBDE81040FC
:105400000E2023F0ADBC10BD885600200C4810B50E
:10541000602100F8451F04214170752282706922C5
:10542000C270002202714171082100F8421C044838
:1054300045300EF04DFBBDE810400C2023F090BC31
:105440008856002010B500281BD00E48602100F8B7
:10545000451F04214170752181704521C1700021D3
:10546000017101214171082100F8421C05484530B5
:105470000EF02EFB23F048FCBDE81040082023F07E
:105480006FBC10BD8856002010B500281BD00E48F8
:10549000602100F8451F0421417075218170302181
:1054A000C1700021017106214171082100F8421CE0
:1054B000054845300EF00CFB23F026FCBDE81040FB
:1054C000022023F04DBC10BD8856002010B50028E6
:1054D00018D00D486021752200F8451F0421417045
:1054E00082706922C270002202714171082100F8A5
:1054F000421C054845300EF0EBFABDE81040042090
:1055000023F02EBC10BD00008856002010B50028E6
:1055100019D00D48602100F8451F04214170752104
:1055200081707821C170002101710221417108212F
:1055300000F8421C044845300EF0CAFABDE810409D
:10554000062023F00DBC10BD8856002010B50028A1
:105550001AD00E48602200F8452F062242709C2285
:1055600082704E22C2700A0A02714171082100F84D
:10557000421C064845300EF0ABFA23F0C5FBBDE8EF
:105580001040122023F0ECBB10BD00008856002014
:105590007CB50C46050043D068460DF0D1FFDDE92F
:1055A000000112F079FB1F4A60219C2382F845100C
:1055B000102182F84610B5F86C10B1F5807F2BD021
:1055C000A1F57065FF3D04D182F847306C2182F867
:1055D0004810002102F8491F0421517008219170E0
:1055E000010AD1701071010E5171000C9071200AE6
:1055F000D0711472200E5072200C90720948112143
:1056000002F8461C45300EF063FA23F07DFBBDE83E
:105610007C400B2023F0A4BB82F847306421D6E7FE
:105620007CBD00008856002010B5002827D0144A01
:1056300040F8701F602102F8451F102151709C2115
:1056400091705721D17000211171022151710421F3
:1056500091714178D17101781172C178517280785D
:10566000907207480D2102F8421C45300EF030FAC6
:1056700023F04AFBBDE81040122023F071BB10BD9F
:10568000885600200149002088717047C8580020C2
:105690004FF461710148FBF7A8B8000016790020AB
:1056A00010B50E4C6421207820F00700207004F122
:1056B0002800FBF7BCF80020C4F80500C4F8090076
:1056C000A4F80D00E07320616061A061A4F80300FC
:1056D000E06120626062A4F8010010BD6457002000
:1056E00002480021016141618161704764570020D7
:1056F00064210148FBF79BB88C5700200248002129
:10570000C1610162416270476457002001481EF088
:105710002DBE0000B85500200D48A0F19802C168C8
:105720009161002905D00878430703D540F00100B6
:105730000870704790690069906103785B0704D531
:10574000017841F00101017070478142F2D1704748
:10575000B85500202DE9F04122F0ECFE8049814C43
:10576000814D0426801E01F10807142870D2DFE85D
:1057700000F01B914F919191349191930A91D491A2
:105780009191BDAB70708879032861D13A2000F007
:10579000ADFE22F089FE7549002008701DF002FF61
:1057A000BDE8F04100F054BA8879032872D112F0B4
:1057B00095F91DF0F7FE40793A280BD01DF0F8FE60
:1057C0000022394600F0E9F81DF0ECFEBDE8F0419A
:1057D00000F01CBA1DF0E6FEF2E78879032859D1E3
:1057E00012F07CF91DF0DEFE40793A2804D01DF05D
:1057F000DFFE00F0BDF889E01DF0D4FEF9E71DF0F2
:10580000D1FE01E01DF0D4FEBDE8F04100F040BA49
:10581000887903283ED112F061F91DF0C3FE40796A
:105820003A280FD01DF0C4FE394600F0E9F81DF00B
:10583000B9FE40793A2808D01DF0BAFEBDE8F04123
:1058400002F0EEBD1DF0AEFEEEE71DF0ABFEF5E79B
:1058500020E0887906281DD1887AFF281AD112F015
:105860003DF91EF09BFD422801D0432812D10121B1
:10587000022018F039F81EF097FD806800698460F6
:105880001EF092FD80680069C5601EF08DFD806885
:1058900000694671BDE8F08112F020F91EF07EFD2E
:1058A0000328E4D0422808D04328F3D11DF086FE17
:1058B000BDE8F041FF2100F081BA1DF07FFEBDE898
:1058C000F041FF2100F0C6BA88790628E2D1087AB3
:1058D0001B28DFD112F002F91EF060FD0328D9D198
:1058E000BDE8F0410121022017F0FEBF88791028A1
:1058F000D0D1087A1428CDD112F0F0F81EF04EFD68
:10590000412803D10121022017F0EEFF1DF04AFECD
:1059100040793A287FF476AF71E788790328B9D1C6
:10592000C8790428B6D112F0D9F81DF03BFE4079B1
:105930003A280FD01DF03CFE02F079FD1DF032FE3A
:1059400040793A2809D01DF033FE3946BDE8F041D0
:1059500000F049B81DF026FEEEE71DF023FEF4E747
:105960008856002073FC020877FC0208D0550020FE
:1059700010B5002810D031232E2180F8223030229B
:1059800080F8231080F82420002480F8254000F8B7
:105990001D3F41708270C47010BD30B5002818D012
:1059A0000AB100231CE04C2100F85A1F4822427023
:1059B0002D2282704423C37001713323437131233C
:1059C00083713223C3710272432242728172202199
:1059D000C17230BDCC5CC5185B1C85F85A40DBB287
:1059E0009342F7D330BD002808D04A7800F88C2FB6
:1059F0000A784270CA7882708978C1707047000056
:105A00002DE9FE4F040059D0487884F878000878D2
:105A100084F87900C87884F87A00887884F87B0064
:105A2000487984F87000087984F87100C87984F89E
:105A30007200887984F8730026F052FFA8B1206FB5
:105A400028F074FD574A584B28F046FB0022574B6C
:105A500028F02EF827F0FAFF55492067884203DC2A
:105A60004FF08441884200DA21672078DFF84491C2
:105A700004F13C01420704F12F05029120D520F0EA
:105A800004002070A06F6061206F28F04FFDCDE909
:105A9000000149A206212846FAF72EFDA06F4845CD
:105AA00003DB28F043FD46A202E028F03FFD46A2BA
:105AB000CDE9000107210298FAF71EFDBDE8FE8F2F
:105AC000A16FA06828F05EFDA060216F206928F01A
:105AD00059FD20612046FEF7E9FEA06F6061E07984
