:020000040800F2
:10000000F02E00200D010008AF490008A5400008AF
:10001000AD49000849120008ED5500080000000035
:10002000000000000000000000000000D94F0008A0
:100030005D1C000800000000A54D0008815000086C
:1000400027010008270100082701000827010008F0
:1000500027010008270100082701000827010008E0
:1000600027010008270100082701000827010008D0
:100070002701000851140008270100085D1400083A
:10008000691400082701000827010008270100085B
:1000900027010008270100082701000827010008A0
:1000A0002701000827010008270100082701000890
:1000B0000551000827010008270100082701000852
:1000C0002701000827010008270100082701000870
:1000D00027010008A5550008BD550008D5550008A2
:1000E0002701000827010008270100082701000850
:1000F00027010008DFF810D000F0FCFC00480047A2
:1001000039B10008AFF30080F02E00200648804788
:1001100006480047FEE7FEE7FEE7FEE7FEE7FEE7EC
:10012000FEE7FEE7FEE7FEE701510008F5000008E4
:100130002DE9F05F0546002092469B46884606461C
:10014000814640241BE0284641464746224600F0AF
:10015000B4FB53465A46C01A914110D31146184673
:10016000224600F09BFB2D1A67EB01084F46224602
:100170000120002100F092FB17EB00094E41201EE8
:10018000A4F10104DFDC484631462A464346BDE877
:10019000F09F40EA01039B0703D009E008C9121F42
:1001A00008C0042AFAD203E011F8013B00F8013B31
:1001B000521EF9D27047D2B201E000F8012B491E5D
:1001C000FBD270470022F6E710B513460A460446F4
:1001D0001946FFF7F0FF204610BD30B505462A4608
:1001E0000B4612F8010B13F8014B08B1A042F8D0EE
:1001F0001CB1002802D06D1CF1E7284630BDF0B4D8
:1002000080EA0102D40F4200B2EB410F02D2024653
:10021000084611464A0042D0C30DDDB2C1F3C752B1
:10022000AD1A202D35DAC1F3160141F4000204B1F4
:100230005242C5F1200602FA06F12A411044B3EBFE
:10024000D05F23D0C4B1012DA0EBC35009DCF0BCBA
:100250004FF0004202EAC352DBB200F5000000F0AA
:10026000A6BB400000F1807000EBC350A0F180708D
:1002700040EAD170490009E0490841EAC071A0EBA9
:10028000C35000F50000400800EBC350F0BC00F084
:1002900085BB6142012202EB4101001BF6E7F0BC85
:1002A000704781F00041AAE780F00040A7E780EAAC
:1002B000010210B502F00043400022D04A001FD0D6
:1002C000010E01EB1261C0F35600C2F3560240F476
:1002D000000042F40002A0FB022000047F39140455
:1002E00000D0401C50EA124001D44000491EC2B266
:1002F0000C0604EBD010401C4008802A02D003E01A
:10030000002010BD20F00100002900DA0020184371
:1003100010BD30B480EA010202F0004530F0004226
:1003200021F0004013D090B1C30DD40DC2F31601DB
:10033000C0F31600E41A41F4000140F400027D34D9
:10034000914201D3641C00E04900002C02DA30BC69
:10035000002070474FF400000023914201D3891A16
:10036000034340084FEA4101F7D151B1914202D114
:100370004FF0004105E002D24FF0010101E06FF0C3
:10038000010103EBC450284430BC00F007BB2DE949
:10039000FE4F804681EA0300C00F0C46009021F01A
:1003A000004123F00045B8EB0200A94105D24046C8
:1003B000214690461C460B46024623F0004010435F
:1003C00047D0270DC7F30A00C3F30A510290401A21
:1003D000019040286BDAC3F3130040F4801B0098AF
:1003E000924620B10023D2EB030A63EB0B0B01987A
:1003F0005946C0F14002504600F050FA06460D46FC
:1004000050465946019A00F068FA10EB0800614125
:10041000002487EA115284EAE7731A4340D0009A15
:1004200062B3019A012A4FEA075215DC001B61EB07
:1004300002014FF0004202EA0752CDE90042001CDF
:1004400041F5801132462B4600F0EEFA03B0BDE8CC
:10045000F08F40462146F9E7001B61EB0201001CCA
:1004600041F5801300185B412018A2F5001747EBF7
:10047000030140EAD570B6196D4111E06D084FEAED
:10048000360645EAC0754FEA0752001B61EB0201D0
:10049000001C41F5801149084FEA30000019514114
:1004A00032462B4603B0BDE8F04F00F0AEBA0098DC
:1004B000012240000023D0EB020263EBE0730098BE
:1004C00021464FEAE074B8EB000061EB0401E9E774
:1004D00083F000435BE781F0004158E72DE9FE4FD0
:1004E00081EA030404F0004421F0004100944FF03D
:1004F000000B23F0004350EA01045ED052EA0304EB
:100500005BD0C3F30A54C1F30A552C44A4F2F3346C
:100510000194A0FB0254C1F3130141F48011C3F311
:10052000130343F4801301FB024400FB034E840ACF
:10053000970A44EA815447EA8357A4FB0768029567
:100540008D0A05FB07854FEA932C04FB0C54270505
:10055000029D4FEA065847EA1637B5EB08056EEBE1
:10056000070C870E920E47EA811742EA8312A7FB17
:100570000201B6EB0B0164EB00042B0D43EA0C33D4
:100580005E1844EB1C50DA465146E7FB0201C5F306
:1005900013044FEA0B3343EA14534FEA0432019C2D
:1005A00043EA0603A4F10C040294009CCDE900B4D4
:1005B00000F03AFA03B0BDE8F08F00200146F9E7F9
:1005C0002DE9F04D81EA030404F0004B21F00045D1
:1005D00014464FF0000A23F0004150EA050220D0F3
:1005E00054EA01021DD0C5F30A570246C5F31303AE
:1005F000C1F31300C1F30A5640F4801543F480138D
:10060000A7EB0608101BD64608F2FD3873EB050071
:1006100002D308F1010801E092185B41B8F1000F24
:1006200003DA00200146BDE8F08D00204FF4801170
:10063000064684460EE0171B73EB050705D3121B15
:1006400063EB050306434CEA010C49084FEA30000E
:1006500092185B4150EA0107EDD152EA030012D033
:1006600082EA040083EA0501084305D0101BAB4170
:1006700006D20122002306E000224FF0004302E0F0
:100680006FF0010253101AEB06004CEB085110EB0F
:100690000A0041EB0B01BDE8F04D00F0B6B970B5B2
:1006A00021F0004303430CD0C1F30A550024D5EBDD
:1006B000040564EB0403D617AD1AB34102DB002036
:1006C000014670BD201841EB025170BDC10F80EA98
:1006D000E0700844CA079623002100F068B9962309
:1006E0000022114600F063B90EB5C10F80EAE07038
:1006F0000844CA07002140F233438DE80E000A4641
:100700000B4600F091F903B000BD0EB540F2334145
:1007100002910021CDE900110A460B4600F084F950
:1007200003B000BD20F00040C10DC0F3160040F43E
:1007300000007F2901DA00207047962903DCC1F10F
:100740009601C840704796398840704770B5C1F32C
:100750000A5201F000450024C1F3130140F2FF33B7
:1007600041F480119A4201DA002070BD40F2334317
:100770009A42A2F2334203DC524200F09EF800E0BB
:1007800090402C43F1D0404270BD00F0004230F068
:1007900000400AD0C10D01F56071C0F3160042EAB5
:1007A0000151C208400711437047002001467047BD
:1007B00030B5041E71F1000404DB4FF000444042E8
:1007C00064EB0101141E73F1000405DB1C464FF0BD
:1007D0000043524263EB04038B4208BF824230BDA8
:1007E00030B5041E71F1000404DB4FF000444042B8
:1007F00064EB0101141E73F1000405DB1C464FF08D
:100800000043524263EB0403994208BF904230BD5B
:1008100001F0004330B421F0004150EA010206D05B
:100820000A0DA2F56072C1F31301002A02DC30BC8C
:1008300000207047440F44EAC104C100E01830BCF6
:1008400000EBC25000F0AAB8002801DBC0F1004064
:10085000002901DBC1F1004181427047002801DB22
:10086000C0F10040002901DBC1F10041884270471E
:1008700030B50B46014600202022012409E021FA70
:1008800002F59D4205D303FA02F5491B04FA02F56D
:100890002844151EA2F10102F1DC30BD202A04DB40
:1008A000203A00FA02F1002070479140C2F1200383
:1008B00020FA03F3194390407047202A04DB203AC2
:1008C00021FA02F00021704721FA02F3D040C2F170
:1008D00020029140084319467047202A06DBCB17B7
:1008E000203A41FA02F043EAE07306E041FA02F3EB
:1008F000D040C2F1200291400843194670470000E1
:100900000FB4002300B589B00CA900910B996FF0CA
:100910000042CB601E4B06931E4B07930423CDE988
:1009200001321D4A089202466B46002000F08EF903
:1009300009B05DF814FB70B586B006464FF0FF3085
:100940000091CDE90101002015460C460490324685
:10095000694604A8FFF7D4FF02460498211825B180
:1009600008B1084600E020462860049800280DD011
:10097000002A02DD0098884208D0081B0094CDE9C7
:1009800001043246694604A8FFF7BAFF06B070BDFD
:10099000850E0008A30E0008190B00080029A8BF47
:1009A0007047401C490008BF20F00100704710B498
:1009B000B0FA80FC00FA0CF050EA010404BF10BC4D
:1009C000704749B1CCF1200421FA04F411FA0CF17A
:1009D00018BF012121430843A3EB0C01CB1D4FEAB3
:1009E00000614FEA102042BF002010BC704700EBAE
:1009F000C35010440029A4BF10BC7047401C4900DC
:100A000008BF20F0010010BC704710B5141E73F130
:100A1000000408DA401C41F1000192185B411A43BE
:100A200001D120F0010010BD2DE9F04D92469B460A
:100A300011B1B1FA81F202E0B0FA80F220329046B0
:100A4000FFF72CFF04460F4640EA0A0041EA0B017B
:100A500053465A46084313D0114653EA010019D0B1
:100A6000C8F140025046FFF728FF05460E465046A3
:100A700059464246FFF712FF084305D0012004E023
:100A800020463946BDE8F08D0020054346EAE07671
:100A90002C4337430A986305E40AA0EB08000022C0
:100AA000FD0A44EA47540A3002D500200146E9E72E
:100AB000010510196941DDE9084500196941BDE8E2
:100AC000F04DA2E7C1F30A52C1F3130140F2FF3324
:100AD00041F480119A4202DA00200146704740F248
:100AE00033439A42A2F2334202DC5242FFF7E5BEA0
:100AF000FFF7D4BE064C074D06E0E06840F0010366
:100B000094E8070098471034AC42F6D3FFF7F6FAA2
:100B100018F6000838F60008C0B24FF4F05100F0A3
:100B2000D1B900002DE9FF4F087883B09946FF281E
:100B300005D0491C2D2804D00024002008E0002006
:100B40000BE00124F9E700EB800003EB4000491CB7
:100B50000B78FF2BF7D104B14042002302931478A5
:100B600019461D462D2C01D02B2C04D1521C2D2CA6
:100B700013D000240294AA461478FF2C0FD00A2523
:100B8000A3FB057801FB05814FF0000C03FB0C1162
:100B9000521CE3194AEB0101EEE70124EAE7814424
:100BA00053EA010002D019F5C87F06DA0398002144
:100BB000C0E9001107B0BDE8F08F0025AE4E2F460A
:100BC000DFF8B882184600F091F9CDE90001B9F1DB
:100BD000000002DAC9F1000400E004460023A74A3D
:100BE0001AEB030B42EB045A12E0E00707D02A4647
:100BF000334638464146FFF771FC074688462A4689
:100C0000334610461946FFF769FC05460E46641048
:100C1000002CEAD1DDE90001B9F1000F5A46534634
:100C200006DAFFF7CDFC3A464346FFF7C9FC05E07C
:100C3000FFF754FC3A464346FFF750FC029A0AB1CC
:100C400081F00041039AC2E90001B3E72DE9FF4FAB
:100C50001F468DB0D7E901464FF0FF382E2045469C
:100C60004FF000090B90B9696D1C0E988847396ADE
:100C7000824688470028F6D1BAF1FF3F0AD024F413
:100C8000D064002E11DDBAF12B0F08D0BAF12D0F70
:100C90000BD102E0404611B08DE744F48064B9699D
:100CA0006D1C0E9888478246761E6946600501D500
:100CB0002D2000E02B208DF8000001F1010B0DF13B
:100CC000200809E0B9696D1C0E98884782460F9884
:100CD00044F40074761E0560002E02DDBAF1300F78
:100CE000F0D00B998A453ED144F0800406E00F997C
:100CF000681CA9F1010944F400740860B9696D1C0D
:100D0000761E0E98884782463028F0D02BE00B994B
:100D10008A4505D1200603D444F08004761E18E0ED
:100D2000504604F061FF08B30DF11301761E44F440
:100D300000748B4508D2AAF130000BF8010B200695
:100D400007D5A9F1010003E0200602D409F1010052
:100D50008146A00502D50F99681C0860B9696D1C11
:100D60000E9888478246002ED1DC53E0002E51DDDC
:100D7000BAF1650F02D0BAF1450F4BD1A00549D5A4
:100D8000B9696D1C24F44074761E0E98884782461B
:100D9000002E0CDD2B2804D0BAF12D0F07D144F41E
:100DA0008074B9696D1C0E9888478246761EE005EE
:100DB00001D52D2100E02B2108F8011BCDF82C8056
:100DC00021E00DF12901761E44F4007488450CD20F
:100DD000AAF1300010F0FF0088F8000002D10B9952
:100DE000884509D908F1010806E0E00501D5244845
:100DF00001E042F20F708146B9696D1C0E98884778
:100E000082460F980560002E04DD504604F0ECFE8B
:100E10000028D6D1F9690E988847FF208BF800008A
:100E200088F800000020069007904B466A4608A903
:100E300006A8FFF777FEA00502D46FF001002AE7AD
:100E400014F0240F0AD0E00714D1DDE90612386847
:100E5000031D3B600068C0E900120BE0DDE90601FC
:100E6000FFF7D6FC0146E00704D13868021D3A605E
:100E70000068016028460EE7000014400000F03FC3
:100E8000F1D8FFFF426842B1016811F8013B23B17C
:100E9000521EC0E90012184670470121C160881E29
:100EA000704742685AB1C368016843B983688B428E
:100EB00005D0491E521CC0E90012002070474FF0B7
:100EC000FF3070477F2801D9002208E0064A02EB74
:100ED0005002C007127800D1120902F00F0201205F
:100EE0009040084070470000D8F500080EB540F269
:100EF000334202920022CDE900221346FFF794FD0F
:100F000003B000BD70B58C1810F8015B15F0070335
:100F100001D110F8013B2A1106D110F8012B03E092
:100F200010F8016B01F8016B5B1EF9D12B0705D49A
:100F30000023521E0DD401F8013BFAE710F8013BE3
:100F4000CB1A921C03E013F8015B01F8015B521EFF
:100F5000F9D5A142D8D3002070BD70B50446006811
:100F60000168C943490620D4816821F001018160EC
:100F700001F09EFD054613E001F09AFD401B02289A
:100F80000ED920680068C043400609D4E06C40F0E8
:100F90001000E064206D40F001002065012070BD6C
:100FA00020680068C0434006E6D5002070BD000000
:100FB000F8B500260446009600680168C943490652
:100FC0002ED5816841F001018160164816490068FC
:100FD000B0FBF1F000EB400000E0401E0090002864
:100FE000FBD101F065FD054615E001F061FD401BF8
:100FF000022810D920680068C04340060BD5E06C79
:1010000040F01000E064206D40F00100206584F89D
:1010100048600120F8BD20680068C0434006E4D461
:101020000020F8BD0C00002040420F0010B50A4817
:1010300001F0E0FA6421084801F084FA064801F062
:1010400087F9064C6060044801F00FFB052001F0B1
:1010500037FC606810BD0000C40200206802002058
:101060002DE9F041002507462E462C460BE0FFF700
:10107000DDFFFFF74AFB2A463346FFF788F9641C79
:1010800005460E46E4B2BC42F1D33846FFF73DFBBD
:1010900002460B4628463146BDE8F041FFF790BABC
:1010A0000949094A803AC9685161002104E053693D
:1010B000491CC9B2DB6853618142F8D35069017899
:1010C00041F0010101707047B00000200E490E4A46
:1010D000803AC968516170B1052811D00A2811D031
:1010E000142807D1C868C068C0685061017841F011
:1010F000010101707047087840F0010008707047E6
:10110000C868F2E7C868EFE7B000002010B50446F1
:10111000F32000F037F8204000D0012010BD00007F
:1011200010B5F92000F02EF80A4C2070F82000F0DD
:1011300029F86070F72000F025F8A07061780003AE
:1011400040EA01102178BDE8104040EA111005F096
:101150001FBA00000801002070B5FC2000F012F852
:101160000446FB2000F00EF80546FA2000F00AF8CD
:10117000000340EA051040EA1410BDE8704005F095
:10118000FDBA000070B50B4D06464FF48074002286
:101190002146284601F087FC304605F0CDF905F0E0
:1011A000C7F9064601222146284601F07CFC30465C
:1011B00070BD000000040240017842784901807847
:1011C00041EA82010143C9B2F52000F00BB8417831
:1011D00002784901807841EA82010143C9B2F420D2
:1011E000AFF300802DE9F0410B4D0F4606464FF45A
:1011F000807400222146284601F055FC304605F057
:101200009BF9384605F098F921462846BDE8F0419B
:10121000012201F048BC0000000402400949094ACB
:10122000C968803A0029516104D020B1087840F0A3
:10123000010008707047C8685061017841F00101F1
:1012400001707047B0000020FEE730B503464FF64E
:10125000FF704AF201040CE013F8012B5040002209
:10126000C50702D084EA500000E04008521C082A5A
:10127000F6D3491E89B2EFD230BD30B505460C46D3
:10128000881E81B22846FFF7E0FF2919C3B211F882
:10129000022C9A4206D111F8011CB1EB102F01D19A
:1012A000012030BD002030BD2DE9F04707460AF08F
:1012B00093FFDFF8CC90DFF8CCA0334E4FF000085E
:1012C000012848D1F86B7169FEF7EBFFFFF75DFA73
:1012D000002204460D461346FFF782FA20D886F80E
:1012E0000480B07825F00041012820464A46534644
:1012F00008D0FFF75DFA02D27078401C70700120B0
:10130000B0701FE0FFF76CFA05D9F078401CC0B24E
:10131000F0700328F3D386F8018086F80380EEE7A7
:1013200086F80380B07825F00041002820464A4620
:10133000534612D0FFF73CFA02D27078401C70700E
:1013400086F802807078082805D386F801803878FE
:1013500040F008003870BDE8F087FFF741FA04D884
:1013600086F8018086F80480EAE73079401CC0B234
:1013700030710328E4D3404686F80480DFE700009C
:101380001904560E2DB28D3F980200204FF4617162
:101390000148FEF717BF00007822002010B50E4C60
:1013A0006421207820F00700207004F12800FEF767
:1013B00009FF0020C4F80500C4F80900A4F80D00D6
:1013C000E07320616061A061A4F80300E061206225
:1013D0006062A4F8010010BDB401002002480021A1
:1013E0000161416181617047B401002064210148BD
:1013F000FEF7E8BEDC01002002480021C161016265
:1014000041627047B4010020014808F0A5BF000008
:10141000B00000200D48A0F18002C1685161002990
:1014200005D00878430703D540F0010008707047E5
:101430005069C068506103785B0704D5017841F0BA
:101440000101017070478142F2D17047B000002065
:10145000014801F072B9000010050020014801F0B8
:101460006CB9000088040020014801F066B9000052
:10147000CC04002030B590F8404004F01C05012455
:10148000AC40C56B6C60046863604368102B0368F4
:1014900003D099600068C26030BD9A600068C16086
:1014A00030BD00002DE9F04107460E46542009F0FA
:1014B00051FF040027D015483B4615A28461062140
:1014C00004F10B0004F088FA002584F830502078ED
:1014D00020F00B0040F0040020706770E563A56306
:1014E0002046656300F0A2FB204600F0ABFB202005
:1014F00060743020A0742E21E17420756075A5758C
:10150000306820653460BDE8F0810000980200205A
:10151000444F2D2530325800014900208861704722
:101520009802002070B50C680D460646002C14D0B9
:101530006078B04204D1206D2860204606F05EF845
:10154000206D4078B04208D12868016D096D0165B1
:10155000206DBDE8704006F051B870BD02460868C5
:10156000002807D000E0006D002803D000F10B0137
:101570009142F8D17047406C7047806B7047C06BE8
:1015800070470078C0F340007047007800F0010019
:101590007047006C70470078C0F3C00070470000CF
:1015A00010B50AF04BF9002810D1094C207B08280F
:1015B00005D008F019FABDE8104000F045BA0AF06D
:1015C0004BF90146206CFFF7C9FFF4E710BD00009E
:1015D00030000020002803D0017841F002010170A2
:1015E0007047002803D0017841F001010170704775
:1015F00010B5002812D0002284188B5C521CD2B285
:1016000084F84030042AF7D30022091D84188B5C2B
:10161000521CD2B284F84430042AF7D310BD0028FB
:1016200008D00A7800F84C2F4A7842708A78827085
:10163000C978C170704710B5002811D00A782E24DF
:101640003032C27104724A783032427200228272A1
:101650008B783033C3700471C97830314171827135
:1016600010BD30B5002809D0002305E0CC5CC518BA
:101670005B1C85F82440DBB29342F7D330BD0028D1
:1016800008D00A7800F8482F4A7842708A78827029
:10169000C978C17070470000034800210170816063
:1016A000C16001617047000098020020017841F09C
:1016B000080101707047017821F00801017070473E
:1016C0002DE9F047054604680AF07AFDFFF75DF85A
:1016D00006460F4604F0F4FE32463B46FEF757FE40
:1016E000FFF796F807460AF0A7FD06462868194D49
:1016F00000282DD0DFF86080DFF86090002C27D024
:101700003846E16CFEF7CDFD20F000404146FFF782
:10171000A5F802D80AF092F870B13046A16CFEF735
:10172000C0FD20F000404946FFF798F802D80AF0C3
:1017300085F838B1246DE1E73946A869BDE8F0477E
:1017400000F018BA3146A869BDE8F04700F040BA89
:10175000BDE8F087980200209A99993EBD378635FA
:101760002DE9FC5F04004FD000202318401C11F825
:10177000012BC0B283F834200428F6D300202318AC
:10178000401C11F8012BC0B283F838200428F6D38E
:1017900000202318401C11F8012BC0B283F83C2014
:1017A0000428F6D320784A4E4A4D420704F1110A24
:1017B00004F1170904F11E0828D520F00400207058
:1017C000E06B6861606BFEF7E0FFCDE9000142A2CB
:1017D0000621504604F000F9A06BFEF7D6FF002268
:1017E0003346FEF77BFECDE900013DA207214846C6
:1017F00004F0F2F8E06BFEF7C8FFCDE9000136A275
:101800000621404604F0E8F8BDE8FC9FE16BA868BB
:10181000FEF7F5FCA860A06BFEF7B7FF0022334689
:10182000FEF75CFE06460F46E868FEF7AEFF32465E
:101830003B46FEF7ACFDFEF7EBFFE860616B286905
:10184000FEF7DDFC28612046FFF72EFDE06B6861A6
:101850002878401CC0B228700328D5D3FEF73FFF7C
:10186000064631462869FEF754FD07463146E868CA
:10187000FEF74FFD83463146A868FEF74AFD06464F
:101880002078C0F3C000E8B93846FEF77EFFCDE906
:10189000000111A20621504604F09EF85846FEF7BA
:1018A00074FFCDE900010EA20721484604F094F828
:1018B0003046FEF76AFFCDE9000107A20621404647
:1018C00004F08AF800202870A860E86028619BE78F
:1018D000000059409802002025352E326600000095
:1018E00025362E32660000000120704710B5002812
:1018F00017D041780B484176032181761121C176BA
:10190000002101774177042181770821C1701930C6
:1019100003F063FB0AF00EF8BDE810400A200AF05D
:1019200035B810BD3C0100200A48FF214176032153
:1019300081763021C17600210177417701218177BD
:101940009E21C177D42180F820100821C1700C207D
:101950000AF01CB83C01002010B5002817D04178CF
:101960000B484176032181762421C176002101773D
:101970004177022181770821C170193003F02DFBD6
:1019800009F0D8FFBDE81040102009F0FFBF10BDDE
:101990003C01002010B5002817D041780B48417653
:1019A000032181760721C176002101774177022149
:1019B00081770821C170193003F00FFB09F0BAFFDD
:1019C000BDE81040082009F0E1BF10BD3C01002037
:1019D00010B5002817D041780B4841760321817655
:1019E0000921C176002101774177072181770821FC
:1019F000C170193003F0F1FA09F09CFFBDE8104006
:101A0000022009F0C3BF10BD3C01002010B5002822
:101A100017D041780B484176032181761521C17694
:101A2000002101774177022181770821C1701930A7
:101A300003F0D3FA09F07EFFBDE810400E2009F054
:101A4000A5BF10BD3C01002010B5002817D041787B
:101A50000B484176032181762621C176002101774A
:101A60004177062181770821C170193003F0B5FA5A
:101A700009F060FFBDE81040042009F087BF10BDE9
:101A80003C01002070B50D4604002CD028090A281E
:101A900001D3373000E03030A07305F00F000A2882
:101AA00001D3373000E030300F4AE0736078507671
:101AB000102090763020D0760020107750770121CA
:101AC00091770221D17782F8205082F821000B21F2
:101AD000D17002F1190003F080FA09F02BFF012008
:101AE00009F054FFA57070BD3C010020016400F0B6
:101AF00005B8C0E9101200F001B8000010B50028C8
:101B000034D01B4A10F8011F002302F8191F1021BE
:101B1000517011219170D3701371042353710823F4
:101B2000937190F83F30D37190F84030137290F871
:101B30004130537290F84230937290F84330D37230
:101B400090F84430137390F84530537390F8460082
:101B50009073074802F8161C193003F03EFA09F09A
:101B6000E9FEBDE810400B2009F010BF10BD0000D9
:101B70003C01002010B5002827D040F84C1F134A24
:101B800010F84B1C02F8191F10215170242191707C
:101B90000021D170117102215171042191710178DC
:101BA000D1714178117281785172C0789072074872
:101BB0000D2102F8161C193003F00FFA09F0BAFED5
:101BC000BDE81040112009F0E1BE10BD3C0100202D
:101BD00010B5002827D040F8481F134A10F8471CBA
:101BE00002F8191F10215170152191700021D17038
:101BF000117102215171042191710178D1714178E3
:101C0000117281785172C078907207480D2102F8E4
:101C1000161C193003F0E1F909F08CFEBDE8104004
:101C20000F2009F0B3BE10BD3C010020202100F8B8
:101C30001E1F302141702E228270C170017100215F
:101C4000417170472021C1750176302141762E22E5
:101C50008276C1760177002141777047704772B66E
:101C6000FEE700007C224FF44071014803F000BD04
:101C7000FC25002002464FF448610148FEF79BBA5C
:101C8000F805002010B5094C0020207002F0D2FAAF
:101C90000020FFF7EFFF01202070002400F0FAF988
:101CA000641CE4B2C82CF9D310BD00002801002048
:101CB0002DE9FF5F9B46DDF8388015460646A028D3
:101CC0001FD20198A0281CD20024DFF85890DFF81A
:101CD00058A022E0600701D115F8017B134804F0F9
:101CE0000701405C384210D1B8F1000F10D09AF8CB
:101CF00000203046019900F03BF8761CF6B2A02E89
:101D000009D3002004B0BDE8F09FB8F1000FEED079
:101D100099F80020EDE7641CE4B25C45DAD30120B9
:101D2000F0E700001100002010000020F9C60008B4
:101D30002DE9F84F00251F4614460E468246A94657
:101D4000DDF8288010E03B46224631465046CDF86B
:101D50000090FFF7ADFF761CF6B204EBD7047807CE
:101D600000D0641C6D1CEDB24545ECD3BDE8F88F86
:101D700030B5A02801D2A02901D3002030BD0A4BE4
:101D8000D50701EB810100F00702084C03EB81014C
:101D900001EBD000A25C017801D0114300E0914337
:101DA0000170012030BD0000F8050020C2F50008D8
:101DB0002DE9FC478046DDE90A541E4691460F4650
:101DC00010462B2A65D00ADCA2F120000A2812D284
:101DD000DFE800F039651111114D11116C732F28D6
:101DE0003FD004DC2D2849D02E2A04D12DE03A28FA
:101DF00031D03F2A47D0364AA9F1610002EB091AD7
:101E0000192807D8CDE90054AAF560723946404632
:101E100000F062F8A9F13000092808D8CDE9005493
:101E2000AAF52C7233463946404600F055F8A9F120
:101E30004100192849D8AAF548723346CDE9005423
:101E4000394640463FE0224AF8E7214ACDE90054AE
:101E50001032404637E01E4ACDE900542032404659
:101E600031E01B4ACDE90054303240462BE0184A9D
:101E7000CDE9005440323946404624E0CDE90054D3
:101E8000144A40461FE0134ACDE900541032404640
:101E900019E0104ACDE900542032404613E00D4AC3
:101EA000CDE900543032394640460CE0094ACDE9CC
:101EB000005440323946404605E0064ACDE9005418
:101EC00050323946404600F007F8BDE8FC87000074
:101ED00001C7000831CB00082DE9F84F1F46DDE9A6
:101EE0000A9814460E468246002510E03B462246DC
:101EF00031465046CDF80080FFF7DAFE761CF6B288
:101F000004EBD704780700D0641C6D1CEDB24D457E
:101F1000ECD3BDE8F88F00002DE9FF4F83B01E46DB
:101F2000DDE91198DDF840B01500074613D0002414
:101F3000DFF828A00DE0CDE90098295D07EB04103B
:101F40000AEB4112C0B25B460499FFF7C5FF641C5F
:101F5000E4B2B442EFD307B0BDE8F08FD9D00008A7
:101F60002DE9FC479846DDE90A76140089460546C6
:101F70000DD009E0CDE90076434649462846FFF7F3
:101F800017FF0835EDB2641C2278002AF2D1BDE8B3
:101F9000FC8700007CB5202ADDE9065411D02E2AEA
:101FA0000BD0A2F13006092E10D8CDE90054084C10
:101FB00004EB8212A2F53C6206E0CDE90054044A2B
:101FC00002E0CDE90054034AFFF786FF7CBD000024
:101FD00091CB000851CE00082DE9FC479846DDE979
:101FE0000A761400894605460DD009E0CDE9007651
:101FF000434649462846FFF7CDFF1035EDB2641C35
:102000002278002AF2D1BDE8FC8700007CB5202AA6
:10201000DDE9065413D02E2A0DD0A2F13006092E88
:1020200012D8CDE90054094C02EB820204EBC20243
:10203000A2F5EB6206E0CDE90054044A02E0CDE9E6
:102040000054034AFFF748FF7CBD0000D1CE0008D2
:1020500089D000082DE9FC479846DDE90A7614008E
:10206000894605460DD009E0CDE90076434649464C
:102070002846FFF7CBFF0B35EDB2641C2278002A0F
:10208000F2D1BDE8FC870000014A10705170704722
:10209000100000202DE9F0411A4D287800282ED09C
:1020A000688868B918486860602003F031FC7020C7
:1020B00003F02EFC052003F02BFC122003F028FC7B
:1020C000002414264FF448682746696811F8010B6C
:1020D000696003F0DFFB6888401C80B2B0FBF6F15A
:1020E000688006FB110010B9002003F043FC6888EB
:1020F000404500D16F80641CA4B2142CE5D3BDE828
:10210000F081000028010020F805002070B588202B
:10211000FFF738F804468920FFF734F804EB002075
:10212000384C20808A20FFF72DF805468B20FFF7DA
:1021300029F805EB002060808C20FFF723F8054686
:102140008D20FFF71FF805EB0020A0808E20FFF701
:1021500019F805468F20FFF715F805EB0020E08001
:102160009020FFF70FF805469120FFF70BF805EBDD
:10217000002020819220FFF705F805469320FFF705
:1021800001F805EB002060819420FEF7FBFF054677
:102190009520FEF7F7FF05EB0020A0819620FEF7C3
:1021A000F1FF05469720FEF7EDFF05EB0020E081EB
:1021B0009820FEF7E7FF05469920FEF7E3FF05EBC1
:1021C000002020829A20FEF7DDFF05469B20FEF7C7
:1021D000D9FF05EB002060829C20FEF7D3FF054667
:1021E0009D20FEF7CFFF05EB0020A0829E20FEF78A
:1021F000C9FF05469F20FEF7C5FF05EB0020E082E2
:1022000070BD0000E0050020F8B50024009490F8AF
:1022100048202546012A12D0012280F848204A6829
:102220001F23072A0DD20668376C521E02EB82026A
:1022300093409F430B6893401F43376435E002206F
:10224000F8BD0D2A0BD20668F76BD21F02EB820293
:1022500093409F430B6893401F43F76325E0132A85
:102260000BD20668B76B0D3A02EB820293409F4394
:102270000B6893401F43B76317E00668192A0AD218
:10228000776B133A02EB820293409F430B689340B3
:102290001F43776309E0376B193A02EB82029340E0
:1022A0009F430B6893401F4337630A6807260A2A37
:1022B0000AD203685F6902EB42029640B7438E6818
:1022C000964037435F611CE0142A0BD203681F69F4
:1022D0000A3A02EB42029640B7438E689640374373
:1022E0001F610EE01A2A0BD80368DF68143A02EB6C
:1022F00042029640B7438E6896403743DF6000E065
:1023000000BF0A68102A01D0112A17D10D4A13689C
:102310001B0213D4136843F40003136009681029E7
:102320000CD10949094A0968B1FBF2F101EB8101BD
:10233000490000E0491E00910029FBD180F8485077
:102340002046F8BD042701400C00002040420F0049
:102350000068806D70470000F8B504004FF000057C
:1023600003D0E06C002610B110E00120F8BD266516
:10237000564884F84860016841F001010160006836
:1023800000F001000090204600F0AAF8E06CC006C2
:1023900071D4E06C20F4885040F00200E0644C48B6
:1023A0000168626821F44031114301606169E068AD
:1023B0004FF40073084394F83C2093FAA3F3B3FA64
:1023C00083F3216A9A4011430843022194F824C000
:1023D00091FAA1F1B1FA81F10CFA01F10843616BB4
:1023E000102902D0A26B11430843226811684FF4F0
:1023F000807EC943490620D5A169E3690843A168E5
:102400002769194373469F4202D0012F00D0002351
:10241000194394F82C30012B0AD1BCF1000F2BD0BA
:10242000E36C43F02003E364236D43F00103236571
:102430005368284F3B400B43536021688A68264B02
:102440001A4002438A602169714522D0012920D0B7
:1024500021680A6B22F0F8720A63216889681F4AB2
:102460001140814225D12665E06C20F0020040F049
:102470000100E06428E026E04FF46047236B97FA00
:10248000A7F7B7FA87F75B1EBB400B4343F4006125
:10249000CEE721680A6B4FF0F87722F0F873A26A52
:1024A00097FAA7F7B7FA87F7521EBA4013430B63A0
:1024B000D3E7E06C20F0020040F01000E064206DF3
:1024C00040F00100206501252846F8BD2038024073
:1024D00004270140FF16FCFC8DF1FFC0FEFF80BF0A
:1024E00010B586B0044614216846FDF76BFE12490C
:1024F000206888421DD11148016841F400710160D3
:10250000006800F4007005900C48001F016841F05D
:10251000100101600068694600F0100005904FF45A
:10252000807000900320019000200290044800F089
:10253000D9F906B010BD0000002401402038024047
:10254000001002402DE9F041044600680D46816804
:102550004FF0000749050BD58068C00508D5E06C31
:1025600040F02000E06484F848700120BDE8F0816C
:1025700000F09EFA064613E0681C11D025B100F069
:1025800097FA801BA8420BD920680068800707D4FF
:10259000E06C40F00400E06484F848700320E5E754
:1025A000206800688007E7D5A06918B921686FF036
:1025B00012000860E06C40F40070E06420688168FC
:1025C00011F0405F14D194F8241089B9016B11F017
:1025D000F87F02D0806840050AD4E06C20F4807057
:1025E000E064E06CC00403D4E06C40F00100E064FF
:1025F0000020BBE710B5044690F84800012822D01F
:10260000012084F848002046FEF7D2FC00281BD1A8
:10261000E16C40F20162914341F48071E164216810
:102620004A68520505D5E26C22F4005242F4805209
:10263000E264E26CD3044FF0000206D5236D23F070
:102640000603236502E0022010BD226584F84820BD
:102650006FF022020A6021688A6812F0405FF3D1AD
:102660008A6842F080428A6010BD10B5044690F836
:102670004800012807D0012084F848002046FEF7D2
:102680006CFC10B107E0022010BDE16C21F4885110
:1026900041F00101E164002184F8481010BD10B53B
:1026A00090F821100022022905D00421816380F8CE
:1026B0002020012010BD01680B6823F00E030B6081
:1026C00001680B6823F001030B6090F840100124AF
:1026D00001F01C0304FA03F1C36B596080F8214038
:1026E00080F82020104610BD10B590F8211000246D
:1026F000022903D00421816301241AE001680A68D9
:1027000022F00E020A6001680A6822F001020A60E3
:1027100090F84010012301F01C0203FA02F1C26B91
:10272000516080F82130002180F82010416B01B108
:102730008847204610BD806B7047F0B4C16B0B68B2
:1027400001680A6890F84040042504F01C0405FA6A
:1027500004F61E4211D056070FD50A68920603D41C
:102760000A6822F004020A6090F8401001F01C018F
:102770008D40C16B4D60C16A1DE0022606FA04F768
:102780001F424FF0000C4FF0010518D0970716D5E7
:102790000A68920605D40A6822F00A020A6080F8E4
:1027A000215090F8401001F01C018E40C16B4E602A
:1027B00080F820C0816A00291AD0F0BC084708269A
:1027C000A6401E4214D0120712D50A6822F00E024B
:1027D0000A6090F84010C26B01F01C0105FA01F18B
:1027E0005160856380F8215080F820C0016BE2E7DA
:1027F000F0BC704730B528B302C8134A14230A440A
:10280000B2FBF3F29200C263104A82630222427763
:102810000B6847F6F0729343D0E900242243D0E9D5
:1028200002452C43224304692243446922438469BC
:1028300022431A430A600021416301224277017753
:10284000084630BD012030BDF89FFDBF006002404A
:1028500070B5044690F82000002501280CD0012016
:1028600084F8200094F821600020012E06D084F81E
:1028700020000225284670BD022070BD022684F883
:102880002160A0632068066826F0010606602046E5
:10289000FEF7F0FDE06A00282068016802D041F0F0
:1028A0000E0106E021F0040101602068016841F09A
:1028B0000A0101602068016841F001010160D9E767
:1028C00070B5044600F0F4F80546601C02D00448D8
:1028D0004068044400F0ECF8401BA042FAD370BDFD
:1028E000000000202DE9F84FDFF88091002209F167
:1028F000040A0AF1040B03274FF00F0C0BF1040E2E
:10290000ACE0012595402B4073D00C7904F0030412
:10291000012C01D0022C15D18668540007FA04F866
:1029200026EA0806D1F80C8008FA04F848EA0608F6
:10293000C0F808804468AC430D79C5F30015954094
:10294000254345600C79E443A40708D0C5685400CA
:1029500007FA04F6B5438E68A6402E43C6600C798C
:1029600004F00304022C11D1D40800EB8406356A6C
:102970005407E40E0CFA04F825EA0805D1F8108093
:1029800008FA04F848EA0508C6F8208005685400EB
:1029900007FA04F6B5430E7906F00306A6402E4367
:1029A00006604C6814F4403F57D0314C256845F020
:1029B00001052560246822F0030504F00104009459
:1029C0002C4C05EB0408D8F808509407260F0CFA95
:1029D00006F4A543284CA04201D1002415E0274C61
:1029E000A04201D1012410E0254CA04202D10224D2
:1029F0000BE032E0234CA04201D1032405E0224C3D
:102A0000A04201D1042400E00524B4402C43C8F8BE
:102A10000840D9F800404D464E689C43F60300D567
:102A20001C432C60DAF8004055464E689C43B603C0
:102A300000D51C432C60DBF800405D464E689C438B
:102A4000F60200D51C432C60DEF8004075464E6847
:102A50009C43B60200D51C432C60521C0B6833FA11
:102A600002F47FF44EAFBDE8F88F0000000401408F
:102A700020380240000001400000024000040240F3
:102A800000080240000C02400010024000690840AB
:102A900000D001207047426921EA02030A4043EA5C
:102AA0000241816170470AB1816170470904FBE707
:102AB00001488068704700000000002070B50400E5
:102AC00011D021684CF6CC400860216845F2555081
:102AD0000860D4E9000141602168A0688860FFF7C0
:102AE000E7FF05460CE0012070BDFFF7E1FF401B4A
:102AF0002A2805D92068C068800701D0032070BD4E
:102B00002068C0688007F0D121684AF6AA200860D2
:102B1000002070BD00684AF6AA21016000207047BD
:102B200002488168426811448160704700000020BB
:102B300010B50024032000F079F80F2000F008F809
:102B400008B1012401E000F025F8204610BD000086
:102B500070B50E4E05460024706898B14FF47A7136
:102B6000B1FBF0F00A490968B1FBF0F000F021FD7B
:102B700040B9102D06D200222946501E00F036F82A
:102B8000356000E00124204670BD000000000020F8
:102B90000C0000200D4808B5016841F000410160BB
:102BA000016801F000410091011F0A6842F0010232
:102BB0000A60096801F001010091016841F080514B
:102BC0000160006800F08050009008BD2438024089
:102BD000002809DB00F01F0201219140400980001C
:102BE00000F1E020C0F8001170470000F0B40E4B77
:102BF0001B68C3F30223C3F10704042C00D9042487
:102C00001D1D072D01D2002300E0DB1E012606FA60
:102C100004F56D1E0D409D409E40761E164045EA0F
:102C20000601F0BC02F0F2BE0CED00E0064A00F036
:102C3000070110684FF6FF03184040EA01200349DE
:102C400008431060704700000CED00E00000FA053A
:102C5000704700002DE9F0470E46040076D0DFF8FB
:102C60008081D8F8000000F00100B04214D2012E9B
:102C700005D1D8F8001041F00401C8F80010D8F8C8
:102C8000001021F001013143C8F80010D8F800000D
:102C900000F00100B0427DD12078524F800705D569
:102CA0003868A16820F0F000084338602078C00739
:102CB00059D04C496068083902281AD003281BD023
:102CC000096801281BD08905002963DA396821F0D9
:102CD000030101433960FFF7EBFE0546606841F2EE
:102CE0008831022813D003281ED00128894627D016
:102CF00035E009688903E7E709688901E4E789079E
:102D0000E2E7FFF7D5FE411B494501D924E089469A
:102D10003868C0F381000228F3D124E0FFF7C8FE31
:102D2000411B494501D917E089463868C0F3810045
:102D30000328F3D117E0FFF7BBFE411B49450BD831
:102D40003868C0F381000128F5D10CE022E0FFF7DC
:102D5000AFFE411B494502D90320BDE8F087386822
:102D600010F00C0FF3D1D8F80010404601F001012B
:102D7000B14211D9012E03D1016841F00401016073
:102D8000016821F0010131430160006800F0010099
:102D9000B04201D00120E0E72078400705D538682F
:102DA000E16820F4E060084338602078000706D529
:102DB0003868216920F4605040EAC100386000F0B2
:102DC0003FF83968084AC1F30311515CC84007490C
:102DD000086007480068BDE8F047FFF7B9BE00008B
:102DE000003C024008380240E1C600080C00002008
:102DF0000000002001490120086770470000474299
:102E00000448054900680968044AC1F30221515C7D
:102E1000C84070470C00002008380240F1C6000886
:102E20000448054900680968044AC1F3C221515C9D
:102E3000C84070470C00002008380240F1C6000866
:102E400070B5154D2968154801F00C02042A0CD004
:102E50004410082A0AD00C2A0AD0281F0068C0F3A0
:102E600042314FF40040491C884070BD204670BD7F
:102E70000B4AC1F38343D35CC1F381522968521CCE
:102E8000C90302D5A3FB040101E0A3FB0001002359
:102E9000FDF74EF970BD0000083802400024F40030
:102EA000D8C60008054810B50068000605D5FFF72C
:102EB000CFFE02498020891C087010BD0C380240EA
:102EC0002DE9F84F04007BD0F6480168006801F056
:102ED0000C0600F4803B2078F34DC0073FD0082E4D
:102EE00012D00C2E02D1BBF5803F0DD060680128B6
:102EF00011D008B1052818D0286820F48030286047
:102F0000286820F4802009E02868800327D56068BD
:102F10000028D8D023E0286840F48030286060681A
:102F200088B1FFF7C5FD074609E0286840F4802016
:102F30002860F0E7FFF7BCFDC01B642879D828683B
:102F40008003F7D50BE0FFF7B3FD074604E0FFF77A
:102F5000AFFDC01B6428F1D828688003F7D420781F
:102F6000DFF8488380074FF001094FF0000A36D59B
:102F7000042E0CD00C2E02D1BBF1000F07D0E0685C
:102F8000F8B1C8F80090FFF793FD07460BE02868FA
:102F900080070BD5E068012812D107E0FFF788FD14
:102FA000C01B0228CAD828688007F7D5BD48001F73
:102FB0000168226921F4F85141EA022101600EE022
:102FC0006CE1C8F800A0FFF773FD074604E0FFF7C7
:102FD0006FFDC01B0228B1D828688007F7D420787D
:102FE000C00672D53EB1A069F0B3C8F82090FFF7D3
:102FF0005FFD07464AE02868800502D5A0690028E1
:1030000087D0A84F206A3F1F396801F46041884289
:1030100010D901F0C9FE0028BED13868216A20F419
:10302000604008433860217F386861F31F60386072
:103030000FE0A4E0396821F4604101433960217F49
:10304000386861F31F603860206A01F0ADFE002827
:10305000A2D1216A4FF4004009EB513188409149D7
:103060000968C1F3031100E021E0914A515CC840B6
:103070009049086090480068FFF76AFD00287DD1FC
:1030800023E0FFF715FDC01B022878D828688005CB
:10309000F7D58448001F0168226A21F4604111437A
:1030A0000160227F016862F31F6101600DE0C8F8D2
:1030B00020A0FFF7FDFC074604E0FFF7F9FCC01B6A
:1030C00002285CD828688005F7D420787B4F000759
:1030D00021D57B48616979B1C0F80090FFF7E8FC21
:1030E000834605E0FFF7E4FCA0EB0B00022846D87E
:1030F00038688007F6D50EE0C0F800A0FFF7D8FCCE
:10310000834605E0FFF7D4FCA0EB0B00022836D87D
:1031100038688007F6D4207840076AD500200090F0
:10312000664810380068C0000AD464481038016846
:1031300041F080510160006800F080500120009053
:1031400060480168C90511D4016841F480710160CB
:10315000FFF7AEFC834605E0FFF7AAFCA0EB0B00EF
:1031600064280CD857480068C005F5D5A068012828
:103170000DD008B1052814D0386801E075E073E07F
:1031800020F480703860386820F4806002E038688D
:1031900040F480703860A068A0B1FFF789FC8346D6
:1031A0000CE0386840F480603860F0E7FFF780FC9E
:1031B000A0EB0B0141F28830814255D83868800578
:1031C000F4D50EE0FFF774FC834607E0FFF770FCD0
:1031D000A0EB0B0141F28830814245D83868800568
:1031E000F4D4009828B135481038016821F0805196
:1031F0000160606A90B30C2E3DD00228504605D085
:10320000C8F86000FFF754FC044630E04746C8F8B1
:103210006000FFF74DFC064604E0FFF749FC801B09
:10322000022821D828688001F7D4D4E90A10014384
:103230001C48226B036823F47D031A431143016089
:10324000C7F86090FFF734FC044604E0FFF730FC59
:10325000001B022808D828688001F7D520E0FFF776
:1032600027FC001B022802D90320BDE8F88F28683C
:103270008001F4D414E00128F7D00A480068A26A5B
:1032800000F48031914209D1E26A00F47011914258
:1032900004D1216B00F44000884201D00120E4E712
:1032A0000020E2E7083802400038024000004742B0
:1032B000E1C600080C000020000000203438024065
:1032C000800647420070004070B5040009D0606A73
:1032D000002540B125616561A56294F8510040B1B7
:1032E0000CE0012070BD6068B0F5827FF4D0E5612C
:1032F000F2E784F85050204600F03AF8022084F8B3
:1033000051002068016821F040010160A0882189F6
:1033100000F4827001F404410843A18901F40061C2
:103320000843217C01F002010843217D01F00101E5
:103330000843218B01F400710843217F01F038011B
:10334000084394F8201001F080010843218D01F416
:103350000051084321680860A069042101EA104077
:10336000216848606565012084F85100002070BD27
:1033700010B586B0044614216846FCF723FF1349B4
:103380002068884220D11248016841F480510160D0
:10339000006800F4805005900D48001F016841F05E
:1033A000020101600068694600F0020005903820C3
:1033B000009002200190002002900320039005203D
:1033C00004900448FFF78EFA06B010BD00300140AB
:1033D00020380240000402402DE9F84F044690F8DE
:1033E000500001250A9E1F4692468B464FF000086A
:1033F00001280ED0012084F85000FFF759FB8146C8
:1034000094F85100616801280CD0B1F5827F07D192
:1034100002E00220BDE8F88FA16809B9042801D0B4
:103420000220B6E0BBF1000F27D0BAF1000F24D084
:103430001FB394F85100042802D0052084F85100ED
:1034400000206065C4F838A0E787A787C4F830B0CB
:10345000E786A7862064606420680168490603D473
:10346000016841F040010160E068B0F5006F6068FC
:1034700005D0E8B3012F43D079E0012089E008B1FD
:10348000012F34D1206B21680088C860206B801C1C
:103490002063E08E401EE08629E02068816889076D
:1034A0000DD5E18E59B1012D09D1216B0988C1607B
:1034B000206B801C2063E08E401EE0860025206883
:1034C0008168C9070BD0E18F49B1C068A16B088042
:1034D000A06B801CA063E08F401EE0870125FFF7F2
:1034E000E7FAA0EB0900B04201D3701C50D100E014
:1034F00006E0E08E0028D0D1E08F0028CDD13CE05E
:10350000206B216800780873206B401C2063E08EDC
:10351000401EE0862BE02068816889070DD5E18E8A
:1035200059B1012D09D1216B09780173206B401C21
:103530002063E08E401EE086002520688168C90770
:103540000BD0E18F49B1C068A16B0870A06B401C23
:10355000A063E08F401EE0870125FFF7A9FAA0EBEA
:103560000900B04202D3701C01D011E086B1E08E98
:103570000028D0D1E08F0028CDD14A4631462046E0
:1035800001F0A2FC38B120204FF00108606508E08E
:103590000320804605E0A06818B92068C1688068EB
:1035A0000090012084F85100002084F8500040462B
:1035B00030E710B5401EB0F1807F01D3012010BD6F
:1035C0004FF0E02460610F21601702F01FFA002025
:1035D000A06107202061002010BD000070B590F8A8
:1035E0003820012A26D0012580F83850022280F8A0
:1035F000392002685368946823F070060B683343DF
:1036000053600268B2F1804F08D00B4B9A4205D04C
:103610000A4B9A4202D00A4B9A4204D1496824F0DC
:1036200080031943916080F83950002180F83810E8
:10363000084670BD022070BD000400400008004034
:103640000008014010B5040003D094F8390010B10F
:1036500007E0012010BD002084F83800204600F06B
:1036600017F8022084F83900211D206801F050FD70
:10367000012084F83E0084F83A0084F83B0084F886
:103680003C0084F83D0084F83900002010BD0000A3
:1036900008B50068B0F1804F12D10A48016841F0C6
:1036A000010101600068002200F001000090052186
:1036B0001C20FFF79BFABDE808401C20FFF788BAE2
:1036C00008BD00002438024090F83910012901D0CB
:1036D00001207047022180F839100168CA6842F061
:1036E0000102CA600068B0F1804F08D009498842E1
:1036F00005D00949884202D00849884204D181682E
:1037000001F00701062903D0016841F001010160C1
:1037100000207047000400400008004000080140FD
:1037200070B5044690F83800012817D0012584F8B8
:103730003850022084F839002068826822F077022D
:1037400022F47F4282600868502830D00DDC2028A7
:103750004DD005DC98B310283BD148E0022070BD65
:10376000302844D0402834D139E0602828D070284F
:1037700006D0B0F5805F2CD0B0F5005F29D10AE00B
:10378000CB68D1E90121206801F0FCFC2068816848
:1037900041F0770109E0CB68D1E90121206801F00F
:1037A000F1FC2068816841F48041816011E0CA68C1
:1037B0004968206801F0F8FC5021206807E016E015
:1037C000CA684968206801F000FD6021206801F0A6
:1037D000E3FC84F83950002084F8380070BDCA68D2
:1037E0004968206801F0E0FC40212068EFE722688A
:1037F00001461046EBE7704770B504460068016962
:103800004FF00005C943890715D4C168C94389072A
:1038100011D4E91E016101202076206880698007AB
:10382000204602D0FFF7E7FF04E000F078F82046DA
:1038300000F076F8257620680169C943490717D456
:10384000C168C943490713D46FF004010161022024
:1038500020762068806910F4407F204602D0FFF770
:10386000CAFF04E000F05BF8204600F059F8257626
:1038700020680169C943090716D4C168C94309070B
:1038800012D46FF008010161042020762068C0691D
:103890008007204602D0FFF7AEFF04E000F03FF8BB
:1038A000204600F03DF8257620680169C943C90625
:1038B00017D4C168C943C90613D46FF01001016160
:1038C000082020762068C06910F4407F204602D08E
:1038D000FFF791FF04E000F022F8204600F020F806
:1038E000257620680169C943C90708D1C168C94361
:1038F000C90704D1891E0161204600F012F8206832
:103900000169C943490609D4C168C943490605D4B8
:103910006FF040010161204600F019F870BD70475A
:10392000704710B50068B0F1804F0FD103F02AFE48
:1039300007F0A4FC07F09AF902F080FD03F086FE80
:1039400007F0E2FBBDE8104008F026B810BD704754
:10395000704770B504460068C16821F49071C16079
:103960002068416921F001014161206B012804D1E7
:103970002068C16821F01001C160206841694FF0E2
:10398000000549060FD5416921F040014161A06B56
:1039900048B14563A06BFEF782FE20B1A06BFEF735
:1039A000CAFE202806D0E585202084F83E00256345
:1039B000002070BD10202064032070BD704710B53A
:1039C000044600680068C043C0060AD4204607F0D9
:1039D00071FF204606F0A0FA2046BDE8104003F033
:1039E000B1BB10BDF8B5026804461068D1685369D0
:1039F00010F00F0F4FF0000553D003F0010601F453
:103A0000907737435FD0C20705D0CA0503D5226C33
:103A100042F001022264420705D5DA0703D0226C86
:103A200042F002022264820705D5DA0703D0226C35
:103A300042F004022264020707D501F0200232435B
:103A400003D0226C42F008022264226C002A34D097
:103A5000800604D5880602D5204601F050FC206877
:103A60004069216CC0F38010090700D430B32046B0
:103A700001F024FC2068416949061BD5416921F009
:103A800040014161A06BA8B158494163A06BFEF7AA
:103A90002BFE002811D0A06B416B01B0BDE8F040B7
:103AA000084783060FD58B060DD52046BDE8F840A4
:103AB00001F025BC2046FFF781FFF8BD2046FFF747
:103AC0007DFF2564F8BD266B2023012E52D1C6064A
:103AD00050D5CE064ED5106850680090506940060B
:103AE0002AD5A16B086840680004000CEAD0A68DB6
:103AF0008642E7D9E0858869202818D0D06820F46C
:103B00008070D0602068416921F001014161206826
:103B1000416921F04001416184F83E30256320680D
:103B2000C16821F01001C160A06BFEF7B8FDA08D47
:103B3000E18D401A81B219E0A08DE18D401A81B269
:103B4000E08D0028BED00029BCD0D06820F4907051
:103B5000D0602068426922F00102426184F83E3060
:103B600025632068C26822F01002C2602046FFF779
:103B7000EFFEF8BD05062BD50D0629D594F83D00BE
:103B80002128F6D1A068B0F5805F01D12069B0B1DD
:103B9000206A411C2162216800784860E08C401E48
:103BA0000004000CE084E4D12068C16821F08001A9
:103BB000C1602068C16841F04001C160F8BD206A61
:103BC0000088C0F308005060206A801C2062E5E78E
:103BD0004006F3D54806F1D5D168204621F04001D2
:103BE000D16084F83D3000F085F9F8BDEF51000850
:103BF00070B5040004D094F83D00002510B106E033
:103C0000012070BD84F83C50204600F023F82420A9
:103C100084F83D002068C16821F40051C16020464D
:103C200001F0C8FB2068016921F49041016120681E
:103C3000416921F02A0141612068C16841F40051C5
:103C4000C1602564202084F83D0084F83E000020F7
:103C500070BD00002DE9F04387B00446142168468A
:103C6000FCF7B0FA5D4D206800265D49032207236A
:103C700080274FF0020C4FF40059A84233D1081DA1
:103C8000056845F480450560006800F480400590B3
:103C9000086840F0010008600868029600F0010022
:103CA00005905002CDE9000C69464E48CDE903234A
:103CB000FEF718FE4D4D4C48C5E90006C5E9026700
:103CC0002E616E61C5E906692846FEF793FD08B1CD
:103CD000FDF7C5FFA5630022022125206C62FEF7D7
:103CE00085FF25203BE03E4DDFF804810835404547
:103CF0003AD1286840F400302860286800F4003089
:103D00000590086840F0080008600868029600F016
:103D1000080005906020CDE9000C69463548CDE9E2
:103D20000323FEF7DFFD314D2F4844351430C5E93C
:103D30000006C5E902672E614FF440506E61C5E987
:103D400006602846FEF756FD08B1FDF788FFA5631B
:103D50000022042126206C62FEF748FF2620FEF791
:103D600037FF07B0BDE8F083DFF88C804045F8D11D
:103D7000286840F480202860286800F4802005909E
:103D8000086840F0040008600868029600F004002B
:103D900005904FF44060CDE9000C69461748CDE925
:103DA0000323FEF79FFD114D0F4888352838C5E9DC
:103DB0000006C5E902672E616E61C5E906692846FD
:103DC000FEF718FD08B1FDF74AFFA56300220321A5
:103DD00027206C62FEF70AFF2720C0E70038014069
:103DE0001C38024000000240586002408804002055
:103DF00000440040000C024000480040000802401F
:103E000090F83E30202B0ED159B152B190F83C3091
:103E1000012B08D0012380F83C300023036301F01C
:103E200055BB012070470220704710B5044607F0CB
:103E300065FD204606F08EF82046BDE8104003F0F0
:103E4000A3B970472DE9F843044690F83D001F469A
:103E500015460E4620284BD1C6B1BDB194F83C00A2
:103E6000012845D0012084F83C004FF00008C4F838
:103E70004080212084F83D00FEF71AFEA58481468B
:103E8000E584A068B0F5805F03D004E00120BDE8C0
:103E9000F883206920B13546002684F83C800EE086
:103EA0000025FAE78021204601F04AFBA0B9ADB118
:103EB00015F8010B21684860E08C401EE084E08C1E
:103EC0004B464FF0000200970028EBD14FF0400125
:103ED000204601F035FB30B10320D8E736F8020B5D
:103EE000C0F30800E6E7202084F83D000020CEE77C
:103EF0000220CCE7704710B5044600F04CF9A22030
:103F000000F024F900F075F9022000F01FF900F02C
:103F100070F9207803F018FB00F018F900F069F947
:103F2000607803F011FB00F011F900F062F9A0785D
:103F300003F00AFB00F00AF900F05BF9E07803F007
:103F400003FB00F003F900F054F9207903F0FCFAC8
:103F500000F0FCF800F04DF9607903F0F5FA00F09C
:103F6000F5F800F046F9A07903F0EEFA00F0EEF86B
:103F700000F03FF9BDE8104000F024B910B500F0A2
:103F80000AF9A22000F0E2F800F033F9022000F074
:103F9000DDF800F02EF900F0FEF8A32000F0D6F8CE
:103FA00000F027F9012000F0ACF800F07F0002F0EB
:103FB0003BFA1B4C2070012000F0A3F800F07F00BA
:103FC00002F032FA6070012000F09BF800F03F0030
:103FD00002F02AFAA070012000F093F800F03F00F0
:103FE00002F022FAE070012000F08BF800F00700E8
:103FF00002F01AFA2071012000F083F800F00F009F
:1040000002F012FA6071002000F07BF802F00CFA66
:10401000A07100F0D7F8BDE8104000F005BF000027
:104020008901002070B50D46044600F0B4F8A220C6
:1040300000F08CF800F0DDF8204600F087F800F082
:10404000D8F8284600F082F800F0D3F8BDE87040B8
:1040500000F0B8B810B507F0DBF900210846FFF70B
:10406000E1FF1F210120FFF7DDFF82210D20FFF777
:10407000D9FF00210E20FFF7D5FFFFF77FFF08488B
:10408000417911B1C178002909D101214171C17073
:104090000348FFF730FFBDE81040FFF76FBF10BDCA
:1040A00089010020FEE710B5002007F089F907F02C
:1040B000AFF9002007F08CF9022003F050FA01203C
:1040C00007F07EF9022003F04AFABDE81040002014
:1040D00007F076B910B5002007F072F907F098F9EB
:1040E000012007F075F9022003F039FA012007F0EA
:1040F00067F9022003F033FABDE81040002007F012
:104100005FB970B50646002407F070F9002500205D
:1041100007F056F9022003F022FA012007F050F9C7
:104120006006040E07F05CF908B1641CE4B20120DB
:1041300003F015FA6D1CEDB2082DE8D31EB1FFF7A0
:10414000B2FF204670BDFFF7C5FFFAE770B5054620
:1041500007F05EF9002007F033F90024280601D5A6
:10416000012000E0002007F033F96806050E022068
:1041700003F0F5F9012007F023F9022003F0EFF92D
:10418000002007F01DF9022003F0E9F9641CE4B2F5
:10419000082CE3D370BD10B507F03AF9012007F001
:1041A00017F9012007F00CF9042003F0D8F90020DA
:1041B00007F00EF9042003F0D2F9BDE8104000200A
:1041C00007F0FEB810B507F023F9002007F0F8F863
:1041D000002007F0FDF8042003F0C1F9012007F0EA
:1041E000EFF8012007F0F4F8BDE81040042003F0D8
:1041F000B6B910B5002407F0F9F8012007F0E8F887
:10420000012003F0ACF9012007F0DAF8012003F0F7
:10421000A6F907E0641CE4B2FA2C03D9FFF7D2FF39
:10422000012010BD07F0DCF80028F3D107F0C8F832
:10423000002010BD10B5E22001F06AFB6420FEF7FB
:104240003FFB242001F064FB2B2001F061FB812067
:1042500001F05EFBB22001F05BFB842001F058FB13
:10426000892001F055FBA32001F052FBC52001F08D
:104270004FFBC82001F04CFB102001F049FBD1207E
:1042800001F046FBD52001F043FBDA2001F040FBB2
:10429000E92001F03DFBF42001F03AFB252001F07C
:1042A00037FBF62001F034FB5A2001F031FBF520FA
:1042B00001F02EFB002001F02BFBF72001F028FB82
:1042C0009F2001F025FBF82001F022FBF12001F0F6
:1042D0001FFB9F2001F01CFBBDE81040AD2001F04A
:1042E00017BBF0B585B0DDE90EE4DDE90C7CDDE956
:1042F0000A568DE8E05000F012F821680161206054
:1043000005B0F0BD10B50146006800220A6003E068
:10431000046903F073F920460028F9D110BD2DE996
:10432000F05F07460AA81C4690E8000D15460E46A9
:104330001420DDF8349007F00DF800280FD0C77076
:10434000067185604471C0F80C8080F806A080F882
:1043500001B080F802900E99017000210161BDE862
:10436000F09F00002DE9FE43884604007ED0002621
:104370001027607830B101280DD0022825D00328FD
:1043800077D138E0CDE900762179E0780823E2683A
:10439000FDF7A2FD6DE0A07920B301280BD0022823
:1043A00067D12020CDE900062179E0781023E2686A
:1043B000FDF712FE5DE01420CDE900062179E078DA
:1043C0000B23E268FDF746FE53E0B8F1000F09D079
:1043D0000097CDE9017663792179E078A268FDF74D
:1043E0009BFD46E0CDE900762179E0780823E2687C
:1043F000FDF7B6FD3DE02078E578C00709D0CDE9AE
:1044000000762179082328222846FDF7D1FC0835BB
:10441000EDB2A0780A2816D2DFE800F015050B31BE
:1044200015151555156FCDE900760823217925223C
:104430007CE0CDE90076217910233F4A2846FDF73C
:104440004BFD1035EDB22078C00712D0CDE90076D3
:104450002179082329222846FDF7AAFCCDE9007618
:1044600008350823E8B221793A2200E005E0FDF79B
:104470009FFC2469002C7FF47CAFBDE8FE83CDE96E
:104480000076217908236D222846FDF791FCCDE9BD
:1044900000760835EDB22179082367222846FDF71A
:1044A00087FCCDE900760835EDB2217908232F226B
:1044B0002846FDF77DFCCDE9007608350823EDB2EE
:1044C00021794C2232E0CDE90076217908236B2254
:1044D0002846FDF76DFCCDE900760835EDB221796F
:1044E000082350222846FDF763FCCDE90076083505
:1044F0000823EDB22179612218E0CDE90076217917
:10450000082370222846FDF753FCCDE900760835D4
:10451000EDB22179082370222846FDF749FCCDE948
:104520000076083521790823EDB274222846FDF77C
:104530003FFC083586E7000079E500083EB5002419
:1045400016480094019414490294C0E90014846050
:10455000C460046144618461C461046280F82440E1
:104560000125856280F82C401021C0E90D1480F8E7
:104570003C40FDF7F1FE08B1FDF771FB1720CDE9D6
:104580000005694602940548FDF73EFE002801D06B
:10459000FDF765FB3EBD000000240140C402002081
:1045A000114808B5016841F080710160006800227F
:1045B00000F08070009003210D20FEF717FB0D2006
:1045C000FEF706FB002202210F20FEF70FFB0F2053
:1045D000FEF7FEFA002204211020FEF707FBBDE8DB
:1045E00008401020FEF7F4BA1C3802402DE9F04FC5
:1045F00087B014216846FBF7E5FD8748016841F064
:1046000010010160016801F010010591016841F09D
:1046100004010160016801F004010591016841F0A5
:1046200020010160016801F020010591016841F05D
:1046300001010160016801F001010591016841F08B
:1046400002010160016801F002010591016841F079
:10465000080101600068012200F0080005904FF495
:1046600082716E48FEF71FFA002248F240016B4843
:10467000FEF719FADFF8A8B1002281215846FEF7AB
:1046800012FA4FF47F4A002251466648FEF70BFAB1
:104690004FF4E074012221466348FEF704FA002239
:1046A0004FF490516048FEF7FEF9012280215D48E9
:1046B000FEF7F9F9012221465C48FEF7F4F97E2065
:1046C0000326CDE900060025694602955846FEF707
:1046D00009F94EF23F00CDE90006694602955248BD
:1046E000FEF700F941F6BB00CDE9000669460295E8
:1046F0004A48FEF7F7F84FF0040801244FF002098A
:10470000CDE90084CDE9029669464448FEF7EAF80F
:10471000402701AA009782E8700069463F48FEF7EB
:10472000E1F84CF60760CDE90006694602953F487E
:10473000FEF7D8F881208DE8310069465846039588
:10474000FEF7D0F84FF47E40CDE9000569465846A3
:104750000295FEF7C7F83003CDE9000569463348F6
:104760000295FEF7BFF8CDE900A4CDE902466946FF
:104770002C48FEF7B7F8CDE9007469462A48CDE920
:104780000245FEF7AFF84FF49C50CDE90004CDE9A7
:10479000024669462448FEF7A5F82702CDE90074D1
:1047A000CDE9024669461D48FEF79CF8CDF8008029
:1047B000CDE9016569461E48FEF794F8E003CDE9AE
:1047C00000040294694615480394FEF78BF81F20F5
:1047D000CDE90006694602951248FEF783F880206D
:1047E0008DE8710069460F48FEF77CF8C020009004
:1047F00001AA112082E8510069460C48FEF772F8C0
:10480000CDE90074CDE9024969460848FEF76AF827
:1048100007B0BDE8F08F00001C38024000000240E5
:1048200000100240000C0240000802400004024058
:1048300000140240094810B5074901600021416099
:1048400040F6FF718160FEF739F9002803D0BDE81A
:104850001040FDF704BA10BD0030004018030020DE
:104860000D4810B50B4901604FF482714160002181
:1048700081604FF40072C160C0E9062181620A21A3
:10488000C162FEF721FD002803D0BDE81040FDF70E
:10489000E6B910BD003001402403002010B586B0F9
:1048A00000241748009401940294039404944FF058
:1048B0008041059401601F21C0E9011440F2E731F5
:1048C000C0E9031480214161FEF7BCFE08B1FDF789
:1048D000C6F94FF48050009069460948FEF720FF62
:1048E00008B1FDF7BCF9049404A905480594FEF746
:1048F00075FE002801D0FDF7B2F906B010BD00002A
:104900007C0300200C4810B50A4901604FF4E131E6
:104910004160002181600C22C160C0E90412816104
:10492000C161FFF765F9002803D0BDE81040FDF72D
:1049300096B910BD00380140BC0300200C4810B5EA
:104940000A4901604FF416514160002181600C2238
:10495000C160C0E904128161C161FFF749F9002813
:1049600003D0BDE81040FDF77AB910BD0044004007
:10497000000400200C4810B50A4901604FF416519C
:104980004160002181600C22C160C0E90412816194
:10499000C161FFF72DF9002803D0BDE81040FDF7F5
:1049A0005EB910BD0048004044040020FEE7FEF759
:1049B00079FAFEE72DE9F04387B00DF1380E814614
:1049C0009EE8E011DDE91304CDE904C08DE8E001C3
:1049D000484600F09BF8216859B1896981612168D6
:1049E00041612168896948612168886107B0BDE833
:1049F000F0832060FAE770B504460068002808D00C
:104A0000456902F0FBFD216828468142F8D100206B
:104A1000206070BD10B5002808D082798369406994
:104A20008342847902FB0142F9D1104610BD000097
:104A30002DE9FE438846074604005FD0304E10251E
:104A40006078B8B1012837D0022854D12078B8F165
:104A5000000F00F0010009D00095CDE90150637905
:104A6000E178A078E268FDF757FA44E0CDE900501C
:104A700022693BE02078800712D5A0790A2801D26C
:104A8000303000E03730307000207070207808231C
:104A900000F00100CDE90050E178A078184A28E044
:104AA000A1790A20B1FBF0F230323270B1FBF0F2A2
:104AB00000FB12103030E8E705F06CFC0E2802D045
:104AC0000F2818D109E02078082300F00100CDE973
:104AD0000050E178A0780B4A0BE020780A4900F0FA
:104AE0000100CDE90050A07951F82020E178A078AC
:104AF0000823FDF735FA6469BC42A1D1BDE8FE8305
:104B0000D00000206BF30008140000202DE9F05FB6
:104B10000746DDE90E8A1C4615460E462020DDF8C4
:104B200030B0DDF8289006F015FC002813D0406165
:104B300080618770C670C560447180F806B00D99B9
:104B4000C17180F80880C0F8109002786AF34102C1
:104B500002700B994170BDE8F09F00000C48A0F175
:104B60008002C1685161002906D0486928B190616E
:104B7000017841F00101017070475069C0685061CF
:104B800043690BB11846F2E78142F6D17047000045
:104B9000B00000202DE9F04387B00DF1380E8146BA
:104BA0009EE8E011DDE91304CDE904C08DE8E001E1
:104BB000484600F0CFF8216859B1096901612168C0
:104BC000C16021680969C8602168086107B0BDE853
:104BD000F0832060FAE700002DE9F0410546046803
:104BE0000B48002707604760286800280ED0E66859
:104BF000606918B104F11400FFF7FDFE204602F0D1
:104C0000FDFC28683446A042F1D12F60BDE8F08158
:104C1000C80000202DE9FE4F1546020088464FF0DF
:104C2000010073D03A4B196809B1596859B91A6033
:104C30005A605968C9685960C968914203D0401CDC
:104C4000C0B20728F5D31C6899464FF08341A77876
:104C50002846FBF7D4FA83464FF084412846FBF7F9
:104C6000CEFA82461026A0785D46C01BFBF72EFDCB
:104C70002946FBF71CFB01465046FBF7C0FAFBF741
:104C800051FDC5B2207881070BD500F0010205F176
:104C90001100C1B2681EC0B205F096F9102007F0ED
:104CA00057FA207801070AD500F001000096CDE9F7
:104CB00001606378294600206268FDF72DF92078AD
:104CC000C1060ED4B8F1000F0BD000F00100009621
:104CD000CDE901606378294600206268FDF71CF980
:104CE00009E000F00100CDE900600823294600201A
:104CF000A268FDF735F9606910B14146FFF798FEEB
:104D0000D9F80400E468C068A042ACD1BDE8FE8FC9
:104D1000C80000200E4910B5A1F18003CA685A618D
:104D2000002A06D09178814204D1107840F0010029
:104D3000107010BD5969C96859618C78844204D1DA
:104D4000087840F00100087010BD8A42F2D110BD11
:104D5000B00000202DE9F05F0746DDE90D8ADDE9AE
:104D60000A9B1C4615460E46182006F0F3FA00284A
:104D700016D0C0600061877080F8039001780C9AAB
:104D800021F001016BF3410162F3820168F3C30179
:104D90006AF3041101704660457084600F994161A7
:104DA000BDE8F09F7047000038B51C4A002112682A
:104DB0001B4C12F0F00F23D1184A1C321368DD008F
:104DC000184B03D51A6802F4C0530EE0156845F07D
:104DD00080551560156805F0805500951B681568AD
:104DE00003F4C05325F080551560B3F5C05F07D1BB
:104DF000B0F5404F04D12068012140F0040020604C
:104E0000206820F0010008432060206800F00100C5
:104E1000884201D0012038BD002038BD083802404A
:104E2000003C02400070004010B507F0DBF900289C
:104E30000DD007490648491E40780978884206D1B6
:104E40000122BDE8104080210248FDF72CBE10BDB4
:104E500089010020001002400148C078704700001E
:104E600089010020014880787047000089010020F6
:104E700001484078704700008901002001484079CE
:104E80007047000089010020014800787047000049
:104E90008901002001480079704700008901002045
:104EA0000148807970470000890100200549497850
:104EB0000844C0B23C2800D33C380249491E08705F
:104EC000704700008901002038B504461248134D90
:104ED0004FF47A730068B0FBF5F0584300906068B7
:104EE000B0F5827F0DD10B46009200228021204632
:104EF00000F016F870B1606D40F02000606503208E
:104F000038BD009830B1401E009020688068C043D2
:104F10000006F6D5002038BD0C00002000366E01DA
:104F20002DE9F8431E46914688460446089DFDF744
:104F3000BFFD401B351AFDF7BBFD0746254800683D
:104F4000C0F3CB30684338E0701C37D0FDF7B0FDBC
:104F5000C01BA84203D215B1009860B32CE02068B2
:104F6000416821F0E00141606068B0F5827F0BD1BB
:104F7000A068B0F5004F02D0B0F5806F04D1206872
:104F8000016821F040010160A06AB0F5005F09D11D
:104F90002068016821F4005101602068016841F433
:104FA00000510160012084F85100002084F8500075
:104FB0000320BDE8F8830025401E0090206881682A
:104FC00038EA010004D000204845BDD10020F0E7B8
:104FD0000120F9E70C000020704730B505460C466B
:104FE000881E81B22846FCF730F9291901F8020D14
:104FF000000A487030BD00007C224FF44071014827
:1050000000F096BBFC2500207CB500251024082369
:10501000164A29462846CDE90045FCF7A1FFFFF7CF
:1050200027FF0646FFF71EFF034611A206210F4881
:10503000009600F0D1FC06F031FC40B10C2810D1F4
:10504000082300210D4A3C20CDE9004507E001205E
:10505000CDE90040094A0823483A00213C20FCF7EA
:105060007FFFBDE87C4005F091B80000740000208F
:10507000253032643A253032640000004BF40008D9
:10508000FDF74EBD00B593B034216846FBF79AF8A2
:1050900014210DA8FBF796F81848016821F4C051B7
:1050A00041F4006101600B2000900120102101906B
:1050B000CDE90301059002200990C0030A904FF446
:1050C00040200B9088040C906846FDF7F9FE08B16B
:1050D00072B6FEE70F200D9003200E9000200F9077
:1050E0001090119001210DA8FDF7B4FD08B172B622
:1050F000FEE7FDF77FFE13B000BD0000007000402A
:10510000704700000148FEF777BB00007C030020D9
:1051100070B502684FF08046154C164DB04203D072
:10512000A04201D0A84205D122F070034A681A4378
:10513000B0420CD0A0420AD0A84208D00E4B9842F0
:1051400005D00E4B984202D00D4B984203D122F469
:105150004073CA681A430B6922F080021A43026046
:105160008A68C262096881620121416170BD0000E4
:10517000000400400008004000080140000C01400D
:105180000010014010B5846842EA032224F47F44F1
:105190000A432243826010BD826822F070020A43F3
:1051A00042F007018160704710B5046A036A23F07A
:1051B00001030362836923F0F00343EA021324F03E
:1051C0000A020A438361026210BD10B5036A23F02C
:1051D000100303628469036A24F4704444EA0232CF
:1051E00023F0A00343EA01118261016210BD10B5F2
:1051F000406A0021C185C184FEF7E0FB10BD70B597
:10520000446A2068406994F83D10C0F3C01000253E
:10521000212904D118B1E584204600F067F8206800
:10522000406994F83E10C0F38010222904D118B1CF
:10523000E585204600F042F8206C40F01000206424
:105240002046FEF7BBFB70BD10B50146406A0968F9
:10525000096889061BD40021C1850168CA6822F447
:105260008072CA6001684A6922F001024A610168DD
:105270004A6922F040024A61202180F83E10016B09
:10528000012904D10168CA6822F01002CA60016BCA
:10529000012902D0FEF7C9FD10BD818DFEF758FB34
:1052A00010BD10B5406A016B012902D0FEF7C9FD9F
:1052B00010BD818D4908FEF74BFB10BD0168CA681F
:1052C00022F49072CA6001684A6922F001024A61C0
:1052D000016B012904D10168CA6822F01002CA607A
:1052E000202180F83E100021016370470168CA68E0
:1052F00022F0C002CA60202180F83D10704708B536
:1053000090F83E10222901D0022008BD81684FF498
:105310008053994201D1026922B1826A99421BD01D
:1053200049B10AE00268816A5268C2F308020A8041
:10533000816A891C08E0016971B10168496801F05E
:105340007F011170816A491C8162C18D491E090467
:10535000090CC18503D019E001684968F1E70168CB
:10536000CA6822F02002CA600168CA6822F480720A
:10537000CA6001684A6922F001024A61202180F86E
:105380003E10016B012903D0FEF74FFD002008BD40
:10539000002101630168CA6822F01002CA60016836
:1053A0000A68D20602D50A6849680091818DFEF725
:1053B000CFFAEBE72DE9F041044600680169E268A5
:1053C00021F4405111430161A1682069E269014360
:1053D0006069104301432068C26849F20C639A4334
:1053E0000A43C26020684169A26921F440711143F7
:1053F000416135492068884202D1FDF711FD01E085
:10540000FDF7FEFCE16964223223B1F5004F00EBA9
:10541000C00101EB001160682BD08000B1FBF0F5FA
:10542000B5FBF2F5B1FBF0F66FF018077D4306EB24
:105430008505B1FBF0F603EB0515B5FBF2F5B6FB00
:10544000F2F605F0F00505EB0615B1FBF0F6B1FB41
:10545000F0F0B0FBF2F0784306EB800003EB0010B5
:10546000B0FBF2F000F00F00216828448860BDE82E
:10547000F0814000B1FBF0F6B6FBF2F6B1FBF0F7BD
:10548000B1FBF0F56FF0180C06FB0CF607EB860687
:1054900003EBC606B5FBF2F5B6FBF2F62D0106F0FE
:1054A000F80605EB4605B1FBF0F6B1FBF0F0B0FBFA
:1054B000F2F000FB0CF006EB800003EBC000B0FB49
:1054C000F2F000F00700CFE70038014037B582B0B6
:1054D0001346039A826283850025044605642220D0
:1054E00084F83E00A16B13488862A16B1248C86221
:1054F000A16B12480863A06B45632168A06B091D6E
:10550000FDF7A6F9206801684168009184F83C50D5
:10551000C16841F48071C1602068416941F00101B6
:1055200041612068416941F04001416105B00020BE
:1055300030BD000049520008A3520008FF51000886
:105540002DE9F0411E46174688460446069D1CE09C
:10555000681C1AD025B1FDF7ABFA801BA84214D9FC
:105560002068C16821F4D071C1602068416921F0D0
:1055700001014161202084F83D0084F83E000020B4
:1055800084F83C000320BDE8F0812068016838EA17
:10559000010004D00020B842DAD00020F3E7012057
:1055A000F9E7000010B50448FEF71CFABDE810400A
:1055B0000148FEF704BA0000BC03002010B50448FF
:1055C000FEF710FABDE810400148FEF7F8B90000F8
:1055D0000004002010B50448FEF704FABDE81040AE
:1055E0000148FEF7ECB9000044040020FEE700008B
:1055F00010B500F0EBF800F095F8094C002280217E
:105600002046FDF750FAC72000F076F801228021ED
:105610002046FDF748FABDE8104000F083B80000CE
:10562000000C024070B5040300F0D0F800F07AF8E6
:105630000E4D002280212846FDF735FA202000F08B
:105640005BF8C4F3074000F057F8C4F3072000F0FC
:1056500053F8E0B200F050F8012280212846FDF70F
:1056600022FABDE8704000F05DB80000000C024076
:105670002DE9F041134F15460C46064600228021C5
:105680003846FDF710FA032000F036F8C4F307405F
:1056900000F032F8C4F3072000F02EF8E0B200F07A
:1056A0002BF8002405E0FF2000F026F83055641C9C
:1056B000A4B2AC42F7D33846BDE8F04101228021C4
:1056C000FDF7F1B9000C024070B50A4C00228021B0
:1056D0002046FDF7E8F9052000F00EF8FF2000F065
:1056E0000BF80546012280212046FDF7DCF928460B
:1056F00070BD0000000C024001B582B000208DF8A2
:1057000004000A200090012301AA02A90448FDF721
:1057100063FE10B1FF208DF804009DF804000EBD5B
:105720002403002010B5FFF7CFFFC007FBD110BD49
:105730002DE9F05FC1F30B06DFF88C800F0BC6F587
:1057400080548A4681461546A24200D81446390341
:105750008B464FF480524046FFF78AFF002006E058
:10576000321818F80210FF2903D1401C80B2A04261
:10577000F6D3A04221D23846FFF754FF002006E0BE
:1057800019F800208319401C08F8032080B2A042B9
:10579000F6D359464FF48052404600F02BF8A5420C
:1057A0000FD0281BA144A244002685B24FF4805498
:1057B0007F1CA542CBD82C46C9E722465146484615
:1057C000EBE7BDE8F09F00007812002010B5084C10
:1057D000002280212046FDF766F90620FFF78CFFA6
:1057E00020460122BDE810408021FDF75CB9000091
:1057F000000C02402DE9F0410746C8B2C0F58074A4
:105800000E461546A24200D814464FF48078224630
:105810003146384600F00EF8A54208D0281B274430
:10582000264485B24446A542F1D82C46EFE7BDE8B0
:10583000F08100002DE9F04115460C460646FFF7C1
:10584000C5FF134F002280213846FDF72CF90220B6
:10585000FFF752FFC4F30740FFF74EFFC4F30720E2
:10586000FFF74AFFE0B2FFF747FF002404E0305D96
:10587000FFF742FF641CA4B2AC42F8D3012280219E
:105880003846FDF710F9BDE8F041FFF74BBF0000C7
:10589000000C0240810901F0010201F00201C2EB9B
:1058A0000212C1EB011102EB0111CBB2010901F0AF
:1058B000010270B501F00201C2EB0212C1EB01114D
:1058C00002EB0111CCB2810801F0010201F00201EA
:1058D000C2EB0212C1EB011102EB0111CDB200F0DB
:1058E000010100F00200C1EB0111C0EB001001EB5F
:1058F0000010C6B2184600F03DF8204600F03AF815
:10590000284600F037F83046BDE8704000F032B865
:105910002DE9F041144D07464FF4807400222146D2
:105920002846FDF7C0F8114E002261003046FDF711
:10593000BAF8012221463046FDF7B5F80022802151
:105940003046FDF7B0F83946094806F029FC002238
:1059500021463046FDF7A7F821462846BDE8F0412C
:105960000122FDF7A0B8000000000240000802403C
:10597000000C02402DE9F041144D07464FF48074AD
:10598000002221462846FDF78EF8114E01225102D1
:105990003046FDF788F8012221463046FDF783F8AE
:1059A000002280213046FDF77EF83946094806F08E
:1059B000F7FB002221463046FDF775F821462846C0
:1059C000BDE8F0410122FDF76EB800000000024082
:1059D00000080240000C02400FB47CB50C0009AD79
:1059E00001D0611E00E00021CDE90001064B6A46AE
:1059F0002946089800F000F9002C02D0009A0021F6
:105A000011707CBC5DF814FBFF6200080907090EE9
:105A1000002804DB00F1E02080F80014704700F05B
:105A20000F0000F1E02080F8141D70470148006865
:105A300070470000C002002002E008C8121F08C121
:105A4000002AFAD170477047002001E001C1121FFF
:105A5000002AFBD170470000014908607047000030
:105A6000C00200202DE9FF5F82B00021DDE9043093
:105A7000020DDDF840B0034318D044F61050A2F2F6
:105A8000FF3242431514119801281FD0A5EB0B00DB
:105A9000401C5FEA000A4FF000064E4FDFF83891D5
:105AA000B046504615D5CAF1000413E01198012400
:105AB0004AA3012801D16FEA0B010298119AC0E9AB
:105AC0000031C0E9024206B0BDE8F09FCBF1000012
:105AD000DFE704460021404A491842EB0450CDE973
